:1000000000800020BD01000075F3000039F30000FE
:1000100039F3000039F3000039F3000039F3000030
:1000200039F3000039F3000039F3000075F30000E4
:1000300075F3000039F3000075F3000029F30000A8
:1000400075F3000075F3000075F3000075F3000010
:1000500075F3000075F3000075F3000075F3000000
:1000600075F3000075F3000075F3000075F30000F0
:1000700075F3000075F3000075F3000075F30000E0
:1000800075F3000075F3000075F3000075F30000D0
:1000900075F3000075F3000075F3000075F30000C0
:1000A000F5DD000075F3000075F3000075F3000046
:1000B00075F3000075F3000075F3000075F30000A0
:1000C00075F3000075F3000075F3000075F3000090
:1000D00075F3000075F3000075F3000075F3000080
:1000E00075F3000075F3000075F3000075F3000070
:1000F00075F30000B5FD000075F30000111B010051
:1001000075F300002D1F010075F3000075F300006A
:1001100075F3000075F3000075F3000075F300003F
:1001200075F3000075F3000075F3000075F300002F
:1001300075F3000075F3000075F3000075F300001F
:1001400075F3000075F3000075F3000075F300000F
:1001500009100100211001003910010051100100A7
:1001600075F300007D00010075F3000075F30000D9
:1001700075F3000075F3000075F3000075F30000DF
:1001800075F3000075F3000075F3000075F30000CF
:1001900075F3000075F3000075F3000075F30000BF
:1001A00075F3000075F3000075F3000075F30000AF
:1001B00075F3000075F3000075F3000010B56B4B8C
:1001C0004CF220521A804DF628121A8000BF00BF50
:1001D0000FF0D4F84FF01062654B1A60654A08338F
:1001E0001A60654A04331A60A3F530432C3B1B6840
:1001F00013F4807F06D10022604B1A604FF4A8529E
:10020000043B1A605E4B1B7813F0080F04D05C4B64
:100210001A7842F008021A702A225A4B1A705A4B66
:100220005A4A9A420DD2131D594CE41A24F0030481
:1002300004340023104657495A581A500433A34235
:10024000FAD1554B554A9A4280F08B80131F54497E
:10025000C91A21F003011A1D1144002243F8042F8A
:100260008B42FBD17DE05A581A500433B3F5DE7F40
:10027000F9D14C4B80214C4A03F8011B9342FBD12E
:100280004A4B4B4A1A600A224A4B1A702422A3F6A0
:10029000FF731A70A022013B1A7006331A7812F00D
:1002A000020FFBD0444B1A7812F0100FFBD1424BD7
:1002B0001A7802F00C02082AFAD103223F4B1A7076
:1002C000402201331A7001331A7812F0200FFBD04C
:1002D000394B1A7812F0400FFBD0394A394B1A606B
:1002E000022204331A602022374B1A7006331A7820
:1002F00002F00C020C2AFAD1344A354B1A60354A06
:10030000354B1A60002204331A600722083B1A603A
:10031000324A03F551631A6062B60FF0F5FA174BD3
:100320001B6813F0010F05D02D480FF053FA2D4A2A
:100330002D4B1A602D4B1B7813F0400F0AD02A4B1F
:100340001A68284B9A4205D125480FF043FA00223B
:10035000254B1A6012F092FF0FF016F810F052FFC2
:10036000FEE70023124822497DE700BF0E2005402A
:1003700030800440823F04000100002B14D0034071
:1003800002D0074000E00740B096FF1F8088FF1FA3
:10039000B396FF1F145F010034650020B096FF1F65
:1003A0002F65002000E400E05FE400E008ED00E0DD
:1003B0000082FF1F005006400640064004400640F1
:1003C000000003014480044000400640C0100500C6
:1003D00004800440FF76010014E000E000002020CB
:1003E000CA0FAB59A5C3945A1CE0034000F0074064
:1003F00000000000FFFFFFFFFFFFFFFFFFFFFFFF09
:10040000FFFFFFFFFFFFFFFFFFFFFFFFFEFFFFFFFD
:1004100010B5054C237833B9044B13B10448AFF33E
:1004200000800123237010BDB096FF1F0000000064
:10043000145F010008B5064B1BB106480649AFF32F
:1004400000800648036813B1054B03B1984708BD07
:1004500000000000145F0100B496FF1FB096FF1F5C
:10046000000000000122014B1A707047C4E7FF1F13
:100470000122014B1A707047E1CAFF1F704700BF8D
:1004800010B50446024911F021F8204610BD00BF06
:100490001446010010B50446044821460A220023F0
:1004A00010F002FF024B1C6010BD00BF90630020E3
:1004B00064E7FF1F10B5044610F09AFE204610BDF9
:1004C00010B4194BDB6D1A6814785A6811785A7A8F
:1004D00011409A7A02F00302187A044218BF42F0DF
:1004E000040209B142F0080291109972013A0D2AF2
:1004F00017D8DFE802F0070B0F0B161307071316C8
:100500000B0F0B07DA680132DA600AE0DA68013AA9
:10051000DA6006E0DA680232DA6002E0DA68023AAB
:10052000DA605DF8044B7047945D002010B4194BFD
:10053000DB6F1A6814785A6811785A7A11409A7ADF
:1005400002F00302187A044218BF42F0040209B113
:1005500042F0080291109972013A0D2A17D8DFE88B
:1005600002F0070B0F0B1613070713160B0F0B07E1
:10057000DA680132DA600AE0DA68013ADA6006E045
:10058000DA680232DA6002E0DA68023ADA605DF8CC
:10059000044B7047945D002010B4194B9B6F1A6890
:1005A00014785A6811785A7A11409A7A02F0030244
:1005B000187A044218BF42F0040209B142F008025E
:1005C00091109972013A0D2A17D8DFE802F0070B53
:1005D0000F0B1613070713160B0F0B07DA68013200
:1005E000DA600AE0DA68013ADA6006E0DA680232D4
:1005F000DA6002E0DA68023ADA605DF8044B7047CC
:10060000945D002010B4194B5B6F1A6814785A6817
:1006100011785A7A11409A7A02F00302187A044249
:1006200018BF42F0040209B142F008029110997219
:10063000013A0D2A17D8DFE802F0070B0F0B16134B
:10064000070713160B0F0B07DA680132DA600AE0AE
:10065000DA68013ADA6006E0DA680232DA6002E06B
:10066000DA68023ADA605DF8044B7047945D002066
:1006700010B4194B1B6F1A6814785A6811785A7A9B
:1006800011409A7A02F00302187A044218BF42F02D
:10069000040209B142F0080291109972013A0D2A40
:1006A00017D8DFE802F0070B0F0B16130707131616
:1006B0000B0F0B07DA680132DA600AE0DA68013AF8
:1006C000DA6006E0DA680232DA6002E0DA68023AFA
:1006D000DA605DF8044B7047945D002010B4194B4C
:1006E000DB6E1A6814785A6811785A7A11409A7A2F
:1006F00002F00302187A044218BF42F0040209B162
:1007000042F0080291109972013A0D2A17D8DFE8D9
:1007100002F0070B0F0B1613070713160B0F0B072F
:10072000DA680132DA600AE0DA68013ADA6006E093
:10073000DA680232DA6002E0DA68023ADA605DF81A
:10074000044B7047945D002010B4194B9B6E1A68DF
:1007500014785A6811785A7A11409A7A02F0030292
:10076000187A044218BF42F0040209B142F00802AC
:1007700091109972013A0D2A17D8DFE802F0070BA1
:100780000F0B1613070713160B0F0B07DA6801324E
:10079000DA600AE0DA68013ADA6006E0DA68023222
:1007A000DA6002E0DA68023ADA605DF8044B70471A
:1007B000945D002010B4194B5B6E1A6814785A6867
:1007C00011785A7A11409A7A02F00302187A044298
:1007D00018BF42F0040209B142F008029110997268
:1007E000013A0D2A17D8DFE802F0070B0F0B16139A
:1007F000070713160B0F0B07DA680132DA600AE0FD
:10080000DA68013ADA6006E0DA680232DA6002E0B9
:10081000DA68023ADA605DF8044B7047945D0020B4
:1008200010B4194B1B6E1A6814785A6811785A7AEA
:1008300011409A7A02F00302187A044218BF42F07B
:10084000040209B142F0080291109972013A0D2A8E
:1008500017D8DFE802F0070B0F0B16130707131664
:100860000B0F0B07DA680132DA600AE0DA68013A46
:10087000DA6006E0DA680232DA6002E0DA68023A48
:10088000DA605DF8044B7047945D002010B41A4B99
:10089000D3F884301A6814785A6811785A7A11405B
:1008A0009A7A02F00302187A044218BF42F0040256
:1008B00009B142F0080291109972013A0D2A17D835
:1008C000DFE802F0070B0F0B1613070713160B0FC9
:1008D0000B07DA680132DA600AE0DA68013ADA60B6
:1008E00006E0DA680232DA6002E0DA68023ADA60D8
:1008F0005DF8044B704700BF945D002010B41A4BA4
:10090000D3F880301A6814785A6811785A7A1140EE
:100910009A7A02F00302187A044218BF42F00402E5
:1009200009B142F0080291109972013A0D2A17D8C4
:10093000DFE802F0070B0F0B1613070713160B0F58
:100940000B07DA680132DA600AE0DA68013ADA6045
:1009500006E0DA680232DA6002E0DA68023ADA6067
:100960005DF8044B704700BF945D002010B4194B34
:10097000DB691A6814785A6811785A7A11409A7AA1
:1009800002F00302187A044218BF42F0040209B1CF
:1009900042F0080291109972013A0D2A17D8DFE847
:1009A00002F0070B0F0B1613070713160B0F0B079D
:1009B000DA680132DA600AE0DA68013ADA6006E001
:1009C000DA680232DA6002E0DA68023ADA605DF888
:1009D000044B7047945D002010B4194B9B691A6852
:1009E00014785A6811785A7A11409A7A02F0030200
:1009F000187A044218BF42F0040209B142F008021A
:100A000091109972013A0D2A17D8DFE802F0070B0E
:100A10000F0B1613070713160B0F0B07DA680132BB
:100A2000DA600AE0DA68013ADA6006E0DA6802328F
:100A3000DA6002E0DA68023ADA605DF8044B704787
:100A4000945D002010B4194B5B691A6814785A68D9
:100A500011785A7A11409A7A02F00302187A044205
:100A600018BF42F0040209B142F0080291109972D5
:100A7000013A0D2A17D8DFE802F0070B0F0B161307
:100A8000070713160B0F0B07DA680132DA600AE06A
:100A9000DA68013ADA6006E0DA680232DA6002E027
:100AA000DA68023ADA605DF8044B7047945D002022
:100AB00010B4194B1B691A6814785A6811785A7A5D
:100AC00011409A7A02F00302187A044218BF42F0E9
:100AD000040209B142F0080291109972013A0D2AFC
:100AE00017D8DFE802F0070B0F0B161307071316D2
:100AF0000B0F0B07DA680132DA600AE0DA68013AB4
:100B0000DA6006E0DA680232DA6002E0DA68023AB5
:100B1000DA605DF8044B7047945D002010B4194B07
:100B2000DB681A6814785A6811785A7A11409A7AF0
:100B300002F00302187A044218BF42F0040209B11D
:100B400042F0080291109972013A0D2A17D8DFE895
:100B500002F0070B0F0B1613070713160B0F0B07EB
:100B6000DA680132DA600AE0DA68013ADA6006E04F
:100B7000DA680232DA6002E0DA68023ADA605DF8D6
:100B8000044B7047945D002010B4194B9B681A68A1
:100B900014785A6811785A7A11409A7A02F003024E
:100BA000187A044218BF42F0040209B142F0080268
:100BB00091109972013A0D2A17D8DFE802F0070B5D
:100BC0000F0B1613070713160B0F0B07DA6801320A
:100BD000DA600AE0DA68013ADA6006E0DA680232DE
:100BE000DA6002E0DA68023ADA605DF8044B7047D6
:100BF000945D002010B4194B5B681A6814785A6829
:100C000011785A7A11409A7A02F00302187A044253
:100C100018BF42F0040209B142F008029110997223
:100C2000013A0D2A17D8DFE802F0070B0F0B161355
:100C3000070713160B0F0B07DA680132DA600AE0B8
:100C4000DA68013ADA6006E0DA680232DA6002E075
:100C5000DA68023ADA605DF8044B7047945D002070
:100C600010B4194B1B681A6814785A6811785A7AAC
:100C700011409A7A02F00302187A044218BF42F037
:100C8000040209B142F0080291109972013A0D2A4A
:100C900017D8DFE802F0070B0F0B16130707131620
:100CA0000B0F0B07DA680132DA600AE0DA68013A02
:100CB000DA6006E0DA680232DA6002E0DA68023A04
:100CC000DA605DF8044B7047945D002010B4194B56
:100CD000DB6B1A6814785A6811785A7A11409A7A3C
:100CE00002F00302187A044218BF42F0040209B16C
:100CF00042F0080291109972013A0D2A17D8DFE8E4
:100D000002F0070B0F0B1613070713160B0F0B0739
:100D1000DA680132DA600AE0DA68013ADA6006E09D
:100D2000DA680232DA6002E0DA68023ADA605DF824
:100D3000044B7047945D002010B4194B9B6B1A68EC
:100D400014785A6811785A7A11409A7A02F003029C
:100D5000187A044218BF42F0040209B142F00802B6
:100D600091109972013A0D2A17D8DFE802F0070BAB
:100D70000F0B1613070713160B0F0B07DA68013258
:100D8000DA600AE0DA68013ADA6006E0DA6802322C
:100D9000DA6002E0DA68023ADA605DF8044B704724
:100DA000945D002010B4194B5B6B1A6814785A6874
:100DB00011785A7A11409A7A02F00302187A0442A2
:100DC00018BF42F0040209B142F008029110997272
:100DD000013A0D2A17D8DFE802F0070B0F0B1613A4
:100DE000070713160B0F0B07DA680132DA600AE007
:100DF000DA68013ADA6006E0DA680232DA6002E0C4
:100E0000DA68023ADA605DF8044B7047945D0020BE
:100E100010B4194B1B6B1A6814785A6811785A7AF7
:100E200011409A7A02F00302187A044218BF42F085
:100E3000040209B142F0080291109972013A0D2A98
:100E400017D8DFE802F0070B0F0B1613070713166E
:100E50000B0F0B07DA680132DA600AE0DA68013A50
:100E6000DA6006E0DA680232DA6002E0DA68023A52
:100E7000DA605DF8044B7047945D002010B4194BA4
:100E8000DB6A1A6814785A6811785A7A11409A7A8B
:100E900002F00302187A044218BF42F0040209B1BA
:100EA00042F0080291109972013A0D2A17D8DFE832
:100EB00002F0070B0F0B1613070713160B0F0B0788
:100EC000DA680132DA600AE0DA68013ADA6006E0EC
:100ED000DA680232DA6002E0DA68023ADA605DF873
:100EE000044B7047945D002010B4194B9B6A1A683C
:100EF00014785A6811785A7A11409A7A02F00302EB
:100F0000187A044218BF42F0040209B142F0080204
:100F100091109972013A0D2A17D8DFE802F0070BF9
:100F20000F0B1613070713160B0F0B07DA680132A6
:100F3000DA600AE0DA68013ADA6006E0DA6802327A
:100F4000DA6002E0DA68023ADA605DF8044B704772
:100F5000945D002010B4194B5B6A1A6814785A68C3
:100F600011785A7A11409A7A02F00302187A0442F0
:100F700018BF42F0040209B142F0080291109972C0
:100F8000013A0D2A17D8DFE802F0070B0F0B1613F2
:100F9000070713160B0F0B07DA680132DA600AE055
:100FA000DA68013ADA6006E0DA680232DA6002E012
:100FB000DA68023ADA605DF8044B7047945D00200D
:100FC00010B4194B1B6A1A6814785A6811785A7A47
:100FD00011409A7A02F00302187A044218BF42F0D4
:100FE000040209B142F0080291109972013A0D2AE7
:100FF00017D8DFE802F0070B0F0B161307071316BD
:101000000B0F0B07DA680132DA600AE0DA68013A9E
:10101000DA6006E0DA680232DA6002E0DA68023AA0
:10102000DA605DF8044B7047945D002010B4194BF2
:10103000DB6C1A6814785A6811785A7A11409A7AD7
:1010400002F00302187A044218BF42F0040209B108
:1010500042F0080291109972013A0D2A17D8DFE880
:1010600002F0070B0F0B1613070713160B0F0B07D6
:10107000DA680132DA600AE0DA68013ADA6006E03A
:10108000DA680232DA6002E0DA68023ADA605DF8C1
:10109000044B7047945D002010B4194B9B6C1A6888
:1010A00014785A6811785A7A11409A7A02F0030239
:1010B000187A044218BF42F0040209B142F0080253
:1010C00091109972013A0D2A17D8DFE802F0070B48
:1010D0000F0B1613070713160B0F0B07DA680132F5
:1010E000DA600AE0DA68013ADA6006E0DA680232C9
:1010F000DA6002E0DA68023ADA605DF8044B7047C1
:10110000945D002010B4194B5B6C1A6814785A680F
:1011100011785A7A11409A7A02F00302187A04423E
:1011200018BF42F0040209B142F00802911099720E
:10113000013A0D2A17D8DFE802F0070B0F0B161340
:10114000070713160B0F0B07DA680132DA600AE0A3
:10115000DA68013ADA6006E0DA680232DA6002E060
:10116000DA68023ADA605DF8044B7047945D00205B
:1011700010B4194B1B6C1A6814785A6811785A7A93
:1011800011409A7A02F00302187A044218BF42F022
:10119000040209B142F0080291109972013A0D2A35
:1011A00017D8DFE802F0070B0F0B1613070713160B
:1011B0000B0F0B07DA680132DA600AE0DA68013AED
:1011C000DA6006E0DA680232DA6002E0DA68023AEF
:1011D000DA605DF8044B7047945D002010B4194B41
:1011E0005B6D1A6814785A6811785A7A11409A7AA5
:1011F00002F00302187A044218BF42F0040209B157
:1012000042F0080291109972013A0D2A17D8DFE8CE
:1012100002F0070B0F0B1613070713160B0F0B0724
:10122000DA680132DA600AE0DA68013ADA6006E088
:10123000DA680232DA6002E0DA68023ADA605DF80F
:10124000044B7047945D002010B4194B1B6D1A6855
:1012500014785A6811785A7A11409A7A02F0030287
:10126000187A044218BF42F0040209B142F00802A1
:1012700091109972013A0D2A17D8DFE802F0070B96
:101280000F0B1613070713160B0F0B07DA68013243
:10129000DA600AE0DA68013ADA6006E0DA68023217
:1012A000DA6002E0DA68023ADA605DF8044B70470F
:1012B000945D002010B4194B9B6D1A6814785A681D
:1012C00011785A7A11409A7A02F00302187A04428D
:1012D00018BF42F0040209B142F00802911099725D
:1012E000013A0D2A17D8DFE802F0070B0F0B16138F
:1012F000070713160B0F0B07DA680132DA600AE0F2
:10130000DA68013ADA6006E0DA680232DA6002E0AE
:10131000DA68023ADA605DF8044B7047945D0020A9
:1013200070B504460E461546084602210EF094FAA2
:10133000284602210EF090FAA64A52F8363003F5FC
:10134000007121600121217252F8352002F50070F0
:10135000606061720021E1604FF47A4101397FF4ED
:10136000FDAF93F8003203F0010392F8002212F06F
:10137000010F1CBF43F00203DBB2A372212E00F267
:101380009681DFE816F022002B0034003D00460075
:101390004F00580061006A0073007C0085008E00D9
:1013A0009700A000A900B200BB00C400CD00D60089
:1013B000DF00E800F100FA0003010C0115011E0135
:1013C00065016E01770180018A01834B1C6000205A
:1013D000824904220EF09EF9012369E17E4B5C6094
:1013E00001207F4904220EF095F9012360E17A4B38
:1013F0009C6002207B4904220EF08CF9012357E106
:10140000754BDC600320784904220EF083F9012338
:101410004EE1714B1C610420744902460EF07AF9CA
:10142000012345E16C4B5C610520714904220EF0FB
:1014300071F901233CE1684B9C6106206D4904224F
:101440000EF068F9012333E1634BDC6107206A4940
:1014500004220EF05FF901232AE15F4B1C62082091
:10146000664904220EF056F9012321E15A4B5C62D1
:101470000920634904220EF04DF9012318E1564B6F
:101480009C620A205F4904220EF044F901230FE117
:10149000514BDC620B205C4904220EF03BF9012326
:1014A00006E14D4B1C630C20584904220EF032F922
:1014B0000123FDE0484B5C630D20554904220EF0EA
:1014C00029F90123F4E0444B9C630E205149042286
:1014D0000EF020F90123EBE03F4BDC630F204E4977
:1014E00004220EF017F90123E2E03B4B1C641020AC
:1014F0004A4904220EF00EF90123D9E0364B5C6410
:101500001120474904220EF005F90123D0E0324BA7
:101510009C641220434904220EF0FCF80123C7E02A
:101520002D4BDC641320404904220EF0F3F8012314
:10153000BEE0294B1C6514203C4904220EF0EAF859
:101540000123B5E0244B5C651520394904220EF0D7
:10155000E1F80123ACE0204B9C65162035490422BC
:101560000EF0D8F80123A3E01B4BDC6517203249AD
:1015700004220EF0CFF801239AE0174B1C661820C6
:101580002E4904220EF0C6F8012391E0124B5C664E
:1015900019202B4904220EF0BDF8012388E00E4BE0
:1015A0009C661A20274904220EF0B4F801237FE03C
:1015B000094BDC661B20244904220EF0ABF8012302
:1015C00076E0054B1C671C20204904220EF0A2F88F
:1015D00001236DE0385B0100945D0020610C000088
:1015E000F50B0000890B00001D0B0000B10A000084
:1015F000450A0000D90900006D090000C10F000074
:10160000550F0000E90E00007D0E0000110E0000D5
:10161000A50D0000390D0000CD0C00007111000077
:1016200005110000991000002D1000004912000063
:10163000DD110000B5120000C10400002108000007
:10164000B507000049070000DD0600007106000034
:10165000A54B5C671D20A54904220EF05BF8012311
:1016600026E0A14B9C671E20A14904220EF052F8EF
:1016700001231DE09C4BDC671F209E4904220EF0D5
:1016800049F8012314E0984BC3F8804020209A4980
:1016900004220EF03FF801230AE0934BC3F8844084
:1016A0002120964904220EF035F8012300E00023A2
:1016B0002374212D00F29B81DFE815F022002B001E
:1016C00034003D0046004F00580061006A0073007E
:1016D0007C0085008E009700A000A900B200BB002E
:1016E000C400CD00D600DF00E800F100FA000301DD
:1016F0000C01580161016A0173017C0185018F01B0
:10170000794B1C6000207E4904220EF003F8012270
:101710006EE1754B5C6001207A4904220DF0FAFFFE
:10172000012265E1704B9C600220774904220DF094
:10173000F1FF01225CE16C4BDC6003207349042261
:101740000DF0E8FF012253E1674B1C610420704952
:1017500002460DF0DFFF01224AE1634B5C61052088
:101760006C4904220DF0D6FF012241E15E4B9C61E1
:101770000620694904220DF0CDFF012238E15A4BC1
:10178000DC610720654904220DF0C4FF01222FE12E
:10179000554B1C620820624904220DF0BBFF012258
:1017A00026E1514B5C6209205E4904220DF0B2FF34
:1017B00001221DE14C4B9C620A205B4904220DF082
:1017C000A9FF012214E1484BDC620B205749042297
:1017D0000DF0A0FF01220BE1434B1C630C20544988
:1017E00004220DF097FF012202E13F4B5C630D20C4
:1017F000504904220DF08EFF0122F9E03A4B9C6320
:101800000E204D4904220DF085FF0122F0E0364BF9
:10181000DC630F20494904220DF07CFF0122E7E040
:10182000314B1C641020464904220DF073FF012245
:10183000DEE02D4B5C641120424904220DF06AFF6A
:101840000122D5E0284B9C6412203F4904220DF070
:1018500061FF0122CCE0244BDC6413203B490422CD
:101860000DF058FF0122C3E01F4B1C6514203849BE
:1018700004220DF04FFF0122BAE01B4B5C651520DE
:10188000344904220DF046FF0122B1E0164B9C655D
:101890001620314904220DF03DFF0122A8E0124B31
:1018A000DC6517202D4904220DF034FF01229FE052
:1018B0000D4B1C6618202A4904220DF02BFF012233
:1018C00096E0094B5C661920264904220DF022FFA0
:1018D00001228DE0044B9C661A20234904220DF05E
:1018E00019FF012284E000BF945D0020050600007E
:1018F000990500002D050000FD0800008D0800007E
:10190000610C0000F50B0000890B00001D0B0000AE
:10191000B10A0000450A0000D90900006D09000065
:10192000C10F0000550F0000E90E00007D0E000001
:10193000110E0000A50D0000390D0000CD0C0000B7
:101940007111000005110000991000002D10000019
:1019500049120000DD110000B5120000C1040000B2
:1019600021080000B507000049070000234BDC6692
:101970001B20234904220DF0CDFE012238E01F4B2D
:101980001C671C201F4904220DF0C4FE01222FE019
:101990001A4B5C671D201C4904220DF0BBFE01227E
:1019A00026E0164B9C671E20184904220DF0B2FE5B
:1019B00001221DE0114BDC671F20154904220DF0A8
:1019C000A9FE012214E00D4BC3F8804020201149EC
:1019D00004220DF09FFE01220AE0084BC3F8844068
:1019E00021200D4904220DF095FE012200E0002285
:1019F000237C13442374204670BD00BF945D0020F7
:101A0000DD060000710600000506000099050000D3
:101A10002D050000FD0800008D08000010B40368CB
:101A20001C7843681A78437A1A40837A03F00303D8
:101A3000017A0C4218BF43F004030AB143F00803D3
:101A40009A108272013B0D2B17D8DFE803F0070BC9
:101A50000F0B1613070713160B0F0B07C368013381
:101A6000C3600AE0C368013BC36006E0C368023399
:101A7000C36002E0C368023BC3605DF8044B70477B
:101A80002DE9F8430446834B40F8043B824E4FF067
:101A90008008314642460DF0FDF9012784F8917027
:101AA000002584F89250C4F89450C4F89850C4F8B3
:101AB0009C50C4F8A050C4F8A45084F8A85004F175
:101AC000EC002946A82211F041FF84F8EC700223B3
:101AD00084F8ED30032384F8EE30042384F8EF30EB
:101AE000052384F8F0304FF0060C84F8F1C007238A
:101AF00084F8F230082384F8F330102384F8F430AB
:101B0000202384F8F530402284F8F620634BC4F893
:101B1000FC3003F50F2303F50063C4F80031A3F58F
:101B20009E23C4F80431A3F50F23A3F6FF63C4F882
:101B30000831A3F5A023A3F20243C4F80C31584B9B
:101B4000C4F8103103F58033C4F8143106EB0803F0
:101B500093E80300C4F8180184F81C1184F81D519F
:101B600084F81E5184F81F5184F82051D6F88C0057
:101B7000C4F8210184F8255184F8265184F82751AE
:101B800084F8285184F82951334653F8980FC4F843
:101B90002A0198889B79A4F82E0184F8303184F8C2
:101BA000315184F832513F4B03CBC4F83301C4F8B0
:101BB00037111B7884F83B3106F1A40393E8030046
:101BC000C4F83C01A4F84011090C84F8421184F8CF
:101BD000435184F84451D6F8B000C4F8450184F864
:101BE000495184F84A5184F84B5184F84C5184F897
:101BF0004D51D6F8BC00C4F84E01A4F85251A4F8D7
:101C0000545184F85651284B1868C4F85701274B93
:101C10001868C4F85B01264B1868C4F85F01254BAF
:101C20001868C4F86301244B1868C4F8670184F885
:101C300073C1092384F87431642384F8753184F8FE
:101C4000768184F877811E2384F87C3184F87E21A4
:101C500084F8837184F8847184F8872184F8907102
:101C600084F8917104F28313C4F8943104F5C273BB
:101C7000C4F8983104F28513C4F89C3104F5C37399
:101C8000C4F8A03104F28713C4F8A4312046BDE89B
:101C9000F88300BF104501001845010053494E006C
:101CA00043563100204601002C4601003046010019
:101CB00034460100384601003C46010070B594B03E
:101CC00005460C4604A88D310FF000FC684604A9B7
:101CD0000FF01AFC684620490FF0CEFC064608A813
:101CE000D4F894100A220FF041FC304608A90FF0F6
:101CF000B9FC1A490FF0C0FC06460CA8D4F88C11A8
:101D00000A220FF033FC30460CA90FF0ABFC14494B
:101D10000FF0B2FC064610A8D4F888110A220FF082
:101D200025FC304610A90FF09DFC014628460FF017
:101D3000EBFB10A80FF07EFB0CA80FF07BFB08A8B4
:101D40000FF078FB68460FF075FB04A80FF072FBEC
:101D5000284614B070BD00BF404601004446010053
:101D600048460100F0B583B004460E4690F8833132
:101D7000062B00F23D81DFE813F00700310055002B
:101D80009A00C300F000160190F88501D4F89C3049
:101D9000D4F8A02002EBD2725210009200216422EB
:101DA0000FF03AFB10F0F6FF054694F887311E4419
:101DB00006F07F062644377900F1004011F004FA5E
:101DC0000646284611F000FA009038460021FF220E
:101DD00033460FF021FBC4F8A40009E190F8850117
:101DE000D4F89C30D4F8A02002EBD27252100092AA
:101DF000002164220FF010FB10F0CCFF05467600A6
:101E000000F1004011F0E0F90746284611F0DCF936
:101E1000009030460021FF223B460FF0FDFAC4F847
:101E2000A400E5E090F88731013BDBB27D2B05D9BA
:101E300090F8903183F0010380F8903194F8850197
:101E4000D4F89C30D4F8A02002EBD2725210009249
:101E5000002164220FF0E0FA10F09CFF054694F890
:101E60008731B34211D900F1004011F0ADF90646B7
:101E7000284611F0A9F9009000200146FF223346C0
:101E80000FF0CAFAC4F8A400B2E000F1004011F06B
:101E90009BF90646284611F097F90090FF20002193
:101EA000024633460FF0B8FAC4F8A400A0E090F858
:101EB0008501D4F89C30D4F8A02002EBD2725210E5
:101EC0000092002164220FF0A7FA10F063FF05468C
:101ED00094F88701864228BFC0EB060605F1004052
:101EE00011F072F90746284611F06EF9009030465D
:101EF0000021FF223B460FF08FFAC4F8A40077E0E0
:101F000090F88501D4F89C30D4F8A02002EBD2726E
:101F100052100092002164220FF07EFA10F03AFF76
:101F2000054694F88231514AA2FB0312920802EB53
:101F30004202A3EB420313F0FF0F59D100F100401E
:101F400011F042F90646284611F03EF901463046A6
:101F50000FF058FAC4F8A4004AE090F88501D4F8CC
:101F60009C30D4F8A02002EBD272521000920021D3
:101F700064220FF051FA10F00DFF05463C4BDF6A6A
:101F800000F1004011F020F90646284611F01CF936
:101F900000903846002140F2FF3233460FF03CFA01
:101FA000C4F8A40024E090F88501D4F89C30D4F85B
:101FB000A02002EBD27252100092002164220FF096
:101FC0002BFA10F0E7FE05462A4BDF6A00F10040CD
:101FD00011F0FAF80646284611F0F6F80090384657
:101FE000002140F2FF3233460FF016FAC4F8A40085
:101FF00094F88531002B33D0D4F8940094F886619E
:10200000D4F8A430C2183244D4F89C309A42B8BFF5
:102010001A46D4F8A0309A42D4BFC4F89820C4F825
:10202000983010F0B7FE0746304610F0B3FE064673
:102030003846294610F0F8FD314610F0F7FD11F052
:10204000C3F8C4F88C012846394610F0EFFD01466C
:10205000304610F0EBFD11F0B7F8C4F8880103E04A
:10206000D4F89430C4F8983003B0F0BDABAAAAAA53
:1020700020E4FF1F58E4FF1F2DE9F04F99B00746F9
:102080008B4600920026049605A831463C2211F0AA
:102090005DFC18A840F8546D314611F045FF3446F8
:1020A000DFF8F8A071E03B5D612B0DD100238DF8C6
:1020B00010305AF82B20009902EB4112324453742D
:1020C0000136F6B201935FE0622B0ED100238DF84A
:1020D00010305AF82B30009A03EB42139A1955230B
:1020E00053740136F6B201934EE0632B0ED10023F8
:1020F0008DF810305AF82B30009903EB41139A19E0
:10210000AA2353740136F6B201933DE0642B0ED13D
:1021100000238DF810305AF82B30009A03EB42134D
:102120009A19FF2353740136F6B201932CE018A9D3
:1021300001F8553D3D446D7804A811F055FE303D41
:10214000092D21D9002509E05AF82B30009903EB1D
:1021500041139844019A88F81120013506EB0508CF
:102160005FFA88F814A804A90FF0B0F914A80FF0CA
:10217000A9FA814614A80FF05DF95FFA89F909F10F
:10218000FF394D45E0DB464601342546384611F01F
:1021900029FF844287D319B0BDE8F08FF488FF1F70
:1021A0002DE9F04F8BB00446FFF76AFC04F5D472BA
:1021B00001921046FFF764FC04F55473029318462D
:1021C000FFF75EFC04F59F6203921046FFF758FC90
:1021D00004F5D46304931846FFF752FC04F6480252
:1021E00005921046FFF74CFC04F51F630693184652
:1021F000FFF746FCE34BC4F8983BDFF8C4834FF08D
:10220000800904F69C3041464A460CF043FE012604
:1022100084F8296C002584F82A5CC4F82C5CC4F886
:10222000305CC4F8345CC4F8385CC4F83C5C84F8B6
:10223000405C04F684402946A82211F087FB84F80C
:10224000846C4FF0020A84F885AC032384F8863C42
:10225000042384F8873C4FF0050284F8882C06227A
:1022600084F8892C4FF0070384F88A3C4FF0080B60
:1022700084F88BBC102384F88C3C4FF0200384F846
:102280008D3C402784F88E7CBF4BC4F8943C03F50A
:102290000F2303F50063C4F8983CA3F59E23C4F80C
:1022A0009C3CA3F50F23A3F6FF63C4F8A03CA3F561
:1022B000A023A3F20243C4F8A43CB44BC4F8A83C46
:1022C00003F58033C4F8AC3C08EB090393E8030042
:1022D000C4F8B00C84F8B41C84F8B55C84F8B65C1F
:1022E00084F8B75C84F8B85CD8F88C00C4F8B90CF2
:1022F00084F8BD5C84F8BE5C84F8BF5C84F8C05C84
:1023000084F8C15C434653F8980FC4F8C20C98880F
:102310009B79A4F8C60C84F8C83C84F8C95C84F89E
:10232000CA5C9B4B03CBC4F8CB0CC4F8CF1C1B7806
:1023300084F8D33C08F1A40393E80300C4F8D40C58
:10234000A4F8D81C090C84F8DA1C84F8DB5C84F847
:10235000DC5CD8F8B000C4F8DD0C84F8E15C84F8EB
:10236000E25C84F8E35C84F8E45C84F8E55CD8F82B
:10237000BC00C4F8E60CA4F8EA5CA4F8EC5C84F8B1
:10238000EE5C844B1868C4F8EF0C834B1868C4F8F3
:10239000F30C824B1868C4F8F70C814B1868C4F82A
:1023A000FB0C804B1868C4F8FF0C84F80B2D092334
:1023B00084F80C3D4FF0640284F80D2D84F80E9DD6
:1023C00084F80F9D1E2384F8143D84F8167D84F84C
:1023D0001B6D84F81C6D84F81F7D84F8286D84F8CB
:1023E000296D04F69833099304F61B53C4F82C3D69
:1023F00004F61C53C4F8303D04F61D53C4F8343DB4
:1024000004F61E53C4F8383D04F61F53C4F83C3D8F
:1024100004F5546207921046FFF732FB04F6E863B6
:1024200008931846FFF72CFB41F29003E55441F264
:102430009D03E65404F585531C6041F2A403019A00
:10244000E25041F2A803029AE25041F2AC03039A2F
:10245000E25041F2B003049AE25041F2B403079A09
:10246000E25041F2B803069AE25041F2BC03059AE9
:10247000E25004F58653099A1A6041F2C403089A9F
:10248000E25041F2C803E21858F8C80FE050B8F81B
:1024900004309380444B03CBC4F88400C4F8881004
:1024A000424B1868C4F88D0084F8916084F89290CB
:1024B000C4F89490C4F89890FF23C4F8A030C4F8EE
:1024C0009C504FF0050284F8A82084F8835184F8CA
:1024D000845184F8855184F8865184F88771344A90
:1024E00003CAC4F82C02C4F83012127884F83422DB
:1024F000294A1068C4F8350284F8396284F83A62CF
:10250000C4F83C62C4F840620722C4F84822C4F808
:10251000445284F8506284F82B5384F82C5384F886
:102520002D5384F82E5384F82F73224A1068C4F870
:10253000D403127984F8D8231F4A1068C4F8DD0345
:1025400084F8E16384F8E2A3C4F8E4A3C4F8E8A340
:102550000722C4F8F023C4F8EC5384F8F86384F835
:10256000D35484F8D45484F8D55484F8D65484F8D9
:10257000D774124A03CAC4F87C05C4F880151278CF
:1025800020E000BF1045010053494E004356310082
:10259000204601002C46010030460100344601006F
:1025A000384601003C4601006046010068460100D3
:1025B0006C46010078460100804601008446010017
:1025C0001845010084F884257D4A1068C4F8850503
:1025D00084F889654FF0640284F88A256422C4F87F
:1025E0008C25C4F890257F22C4F89825C4F894550A
:1025F00084F8A06584F87B5684F87C5684F87D5670
:1026000084F87E5684F87F766E4A03CAC4F824079D
:10261000C4F82817127884F82C276B4A1068C4F87D
:102620002D0784F8316784F83267C4F83467C4F83A
:102630003867C4F84037C4F83C5784F8486784F8D2
:10264000235884F8245884F8255884F8265884F8A8
:1026500027785E4A1068C4F8CC08127984F8D0282C
:102660005B4A1068C4F8D50884F8D96884F8DA5849
:10267000C4F8DC58C4F8E058C4F8E838C4F8E458A2
:1026800084F8F06884F8CB5984F8CC5984F8CD5993
:1026900084F8CE5984F8CF794E4A03CAC4F86C0F37
:1026A000C4F8701F4C4A1068C4F8750F84F8796F2D
:1026B00084F87A5FC4F87C5FC4F8805FC4F8883F10
:1026C000C4F8845F84F8906F41F26B02A55441F224
:1026D0006C02A55441F26D02A55441F26E02A5545C
:1026E00041F26F02A7543D4A1068C4F8740AC4F856
:1026F0007D0A84F8816A84F8825AC4F8845AC4F83E
:10270000885AC4F8903AC4F88C5A84F8986A84F8C5
:10271000735B84F8745B84F8755B84F8765B84F88B
:10272000777B2F4A03CAC4F81C0CC4F8201C2D4A1E
:102730001068C4F8250C84F8296C0A2284F82A2C25
:10274000C4F82C2CC4F8302CC4F8383CC4F8345CE1
:1027500084F8406C84F81B5D84F81C5D84F81D5D72
:1027600084F81E5D84F81F7D1F4A03CAC4F8C40D97
:10277000C4F8C81D127884F8CC2D1C4A1068C4F81F
:10278000CD0D84F8D16D84F8D2BDC4F8D4BDC4F8A1
:10279000D8BDC4F8E03DC4F8DC5D84F8E86D84F889
:1027A000C35E84F8C45E84F8C55E84F8C65E84F8AF
:1027B000C77E2023013BFDD120460BB0BDE8F08F42
:1027C0009046010094460100A0460100A446010085
:1027D000AC460100B0460100B8460100BC4601000D
:1027E000C0460100C8460100CC460100D8460100A1
:1027F0002DE9F84F0024964B1C600120954B186082
:10280000954B1C60954BD3F898100EF0FBFD944B44
:102810001860944B197801FB00F1934B1960934BAE
:102820001C60934B1C60934B1C60934B1C602246B6
:102830000B468C4280F2D180DFF860B24FF07E5AB6
:102840004FF08048002725469B1A8C490B60894B26
:102850001A68874B1B689A4240F090800022854B93
:102860001A60012064210EF0CDFD7E4B1B78834A57
:10287000126893420BDDC0B28149D1F898108842AA
:1028800005DA804BC3F800A0794B1A606BE058085A
:1028900010F080FA044610F097FC10F0010F20466B
:1028A0000CBF5146414610F0BFF94FF07C5110F07B
:1028B000C5FA0FF04FFE0022734B0FF09FFE10F091
:1028C00037F9014600200EF09DFD10F063FA5946DD
:1028D00010F068FB014610F0A9F9514610F0A6F976
:1028E00010F072FC10F056FA0446664B1860634B09
:1028F000186810F04FFA06462046314610F05AFC90
:1029000098B12046414610F08FF90446394610F040
:1029100051FC08B904F100442046314610F04AFC4D
:1029200008B12046EEE7574B1C600120574BD3F807
:1029300098100EF067FD04464D4B18604F4B186819
:1029400010F028FA0646204610F024FA4D4B19687C
:1029500010F074FA314610F02DFC20B1494B1E6086
:102960000122434B1A60474B186810F02DFC284495
:102970003C4B1B7890FBF3F503FB1505414B1C68A2
:102980002046394610F016FC90B1314ED6F8009032
:10299000204610F019FC3E4B43F8290009F10103D1
:1029A00033602C4B1A68344941F8225001321A60C6
:1029B0002E4E306810F0EEF90146204610F036F940
:1029C00010F002FC30602B4B1A6801321A6002468C
:1029D000254B1B689842FFF637AF1D4BD3F800809C
:1029E000B8F1000F2DDD1F4B18781B4B1A68002320
:1029F0009C46DFF89C90DFF880B09A4614E03344A0
:102A000093FBF0F700FB173341F8043F0132531BEF
:102A1000A342F4DB0CF1010C5FFA8CFC6346C44565
:102A200002DB0D4B1A600CE059F82340002CF1DD5D
:102A30001BF823601546511E164B03EB81015346CC
:102A4000DDE7054B1A68144B1A60BDE8F88F00BF2C
:102A500048C2FF1F1C89FF1F80E7FF1FECCAFF1F32
:102A6000E4CAFF1F5C89FF1F10C1FF1F94CCFF1F2A
:102A7000C8CAFF1FB8C0FF1FB82E002028E6FF1FDE
:102A80009CCCFF1FD488FF1F0000244040DFFF1FA5
:102A900020E2FF1FE45700201CBFFF1F0000204161
:102AA00038B5654C654B93E80300C4F88400A4F87E
:102AB0008810090C84F88A10614B1868C4F88D00DE
:102AC000012284F89120042384F89230C4F89430D1
:102AD000C4F898308123C4F8A030C4F89C2084F84E
:102AE000A820002384F8833184F8843184F8853168
:102AF00084F88631402584F8875152495248046849
:102B0000A1F88440240C81F8864004888078A1F8DC
:102B10008D4081F88F0081F8912081F89230C1F8C2
:102B20009430C1F898300220C1F8A000C1F89C3060
:102B300081F8A82081F8833181F8843181F88531CA
:102B400081F8863181F88751404C414903C9C4F866
:102B50008400A4F88810090C84F88A103D4908689C
:102B6000C4F88D0084F8912084F89220C4F8942051
:102B7000C4F898200521C4F8A010C4F89C2084F85B
:102B8000A82084F8833184F8843184F8853184F86E
:102B9000863184F88751304C304903C9C4F8840029
:102BA000A4F88810090C84F88A102D490868C4F824
:102BB0008D0084F8912084F89220C4F89420C4F801
:102BC00098206321C4F8A010C4F89C3084F8A82091
:102BD00084F8833184F8843184F8853184F886312F
:102BE00084F887511F4C204903C9C4F88400A4F815
:102BF0008810090C84F88A101C490868C4F88D00F4
:102C000084F8912084F89220C4F89420C4F8982085
:102C10000821C4F8A010C4F89C2084F8A82084F8E7
:102C2000833184F8843184F8853184F8863184F8DE
:102C30008751FFF7DDFD38BD381C0020DC46010060
:102C400000470100A8F8FF1FE4460100ECCAFF1F7F
:102C5000E8460100044701009CCCFF1FF04601003C
:102C60000847010040DFFF1FF84601000C47010044
:102C700008B5054B1B6890FBF3F202FB130008B983
:102C8000FFF7B6FD08BD00BF1CBFFF1F70B41C4A94
:102C900041F291031468E5181A490868E05009796F
:102CA00029715468E51818490868E0508988A98096
:102CB0009468E51815490868E05009792971D568C4
:102CC000EC1813490868E85088888979A080A171B8
:102CD0001669F5180F4C03CCF05069602178297201
:102CE0005469E5180C490868E0508988A980916901
:102CF000CC180A4A1068C8509388A38070BC7047EB
:102D0000B488FF1F10470100184701002047010049
:102D100028470100304701003C47010044470100BB
:102D20002DE9F04198B000AF6A4C07F11000214640
:102D30000EF0CCFB07F1200067490EF0C7FB07F14E
:102D4000100007F120010EF08DFC21460EF094FCDE
:102D5000044607F1300061490EF0B8FB204607F148
:102D600030010EF07FFC5E490EF086FC01463846CD
:102D70000EF0CAFB07F130000EF05CFB07F12000FB
:102D80000EF058FB07F110000EF054FBBA6802F188
:102D9000080323F00703ADEB030D38466946013203
:102DA00000230EF077FC4F4C2046694609F0DAFA12
:102DB00007F1400021466A46132309F037FA4A4BCF
:102DC00097F844201A71BA6C9A6097F84C201A73DD
:102DD00007F1600252F8135D54689068C3F80D5013
:102DE000C3F81140C3F81500127B5A76FA6DDA6108
:102DF00007F1400009F060F800253B4C3B4E41F2E2
:102E0000B408AB5953F808302046D3F894100EF0AC
:102E100087FA23681B68204623219847AB5941F263
:102E2000B8029B582046D3F894100EF079FA236824
:102E30001B68204623219847AB5941F2BC029B589E
:102E40002046D3F894100EF06BFA23681B682046D6
:102E500023219847AB5903F586531B682046D3F8C6
:102E600094100EF05DFA23681B68204623219847D2
:102E7000AB5941F2C4029B582046D3F894100EF08F
:102E80004FFA23681B6820462321984723681B6854
:102E900020462D21984704351C2DB2D1124C2368B1
:102EA0001B68204624219847114E357805EB4500D4
:102EB000104B03EB4000094911F036F8013535702D
:102EC000204609F023F838460EF0B4FA6037BD46C4
:102ED000BDE8F081A8470100AC470100D888FF1F7A
:102EE000B44701001C5E0020E0C0FF1FB488FF1F34
:102EF00098CCFF1FE45900202DE9F04F9DB000AFA2
:102F000040B9884A137888490B70591C1170874A58
:102F1000136003E0844B1A78844B1A60844C07F1E9
:102F2000100021460EF0D2FA07F1200081490EF080
:102F3000CDFA07F1100007F120010EF093FB2146B6
:102F40000EF09AFB054607F130007B490EF0BEFA01
:102F5000284607F130010EF085FB21460EF08CFB70
:102F6000044607F14000714B19680A220EF0FEFA80
:102F7000204607F140010EF075FB70490EF07CFB16
:102F8000014638460EF0C0FA07F140000EF052FA42
:102F900007F130000EF04EFA07F120000EF04AFA69
:102FA00007F110000EF046FABA6802F1080323F0A8
:102FB0000703ADEB030D38466946013200230EF0DE
:102FC00069FB5F4C2046694609F0CCF907F15000D7
:102FD00021466A46132309F029F95A4B97F85420E1
:102FE0001A71BA6D9A6097F85C201A7307F1700233
:102FF00052F8135D54689068C3F80D50C3F811403F
:10300000C3F81500127B5A76FA6EDA6107F15000A8
:1030100008F052FF00254B4EDFF82C8134467BE050
:1030200055F808300AF5856953F829302046D3F859
:1030300094100EF075F933681B682046594698477E
:1030400055F8083053F82930204693F883110A22A6
:1030500000230EF029F933681B6820462321984786
:1030600055F8083053F82930204693F884110A2285
:1030700000230EF019F933681B6820462321984776
:1030800055F8083053F82930204693F885110A2264
:1030900000230EF009F933681B6820462321984766
:1030A00055F8083053F82930204693F886110A2243
:1030B00000230EF0F9F833681B6820462321984757
:1030C00055F8083053F82930204693F887110A2222
:1030D00000230EF0E9F833681B6820462321984747
:1030E00055F80830204641F29002995C0A220023EC
:1030F0000EF0DAF833681B6820463C2198470AF145
:10310000010ABAF10A0F8BD133681B6820467C2173
:10311000984704351C2D19D04FF0000A4FF02B0BA7
:103120007EE700BFE0CAFF1FA099FF1FDCC0FF1FA2
:10313000A8470100BC470100C8470100B44701008F
:103140001C5E0020E0C0FF1FB488FF1F6B480368AF
:103150001B683E2198476A4C04F64808674D2A26AA
:103160002846D4F894100EF0DBF82B681B6828462C
:103170003146984704F5D4744445F1D15F4803685B
:103180001B68262198475F4D05F59F695B4C4FF002
:103190003F080A262046D5F894100EF0C1F823689F
:1031A0001B68204641469847204695F883113246D1
:1031B00000230EF079F823681B68204621219847E8
:1031C000204695F88411324600230EF06DF82368EE
:1031D0001B68204621219847204695F885113246E4
:1031E00000230EF061F823681B68204621219847D0
:1031F000204695F88611324600230EF055F82368D4
:103200001B68204621219847204695F887113246B1
:1032100000230EF049F823681B68204621219847B7
:1032200005F5D4754D45B5D1344803681B68262192
:1032300098470025314C344E4FF04008AB5920469A
:10324000D3F894100EF06CF823681B6820464146B2
:103250009847AB59204693F883110A2200230EF0B9
:1032600023F823681B6820462F219847AB59204636
:1032700093F884110A2200230EF016F823681B68C5
:1032800020462F219847AB59204693F885110A22F2
:1032900000230EF009F823681B6820462F21984769
:1032A000AB59204693F886110A2200230DF0FCFF4B
:1032B00023681B6820462F219847AB59204693F876
:1032C00087110A2200230DF0EFFF23681B682046B8
:1032D0002F2198470435142DB0D1084C23681B6862
:1032E000204624219847204608F010FE38460EF06C
:1032F000A1F87437BD46BDE8F08F00BFE0C0FF1FE6
:10330000483100206CC2FF1FE088FF1F2DE9F0410B
:10331000A0B000AF554C07F1300021460EF0D6F8B2
:1033200007F1400052490EF0D1F807F1300007F1E3
:1033300040010EF097F921460EF09EF9044607F180
:1033400050004C490EF0C2F8204607F150010EF033
:1033500089F9014638460EF0D7F807F150000EF013
:1033600069F807F140000EF065F807F130000EF043
:1033700061F8BA6802F1080323F00703ADEB030D0F
:1033800038466946013200230EF084F907F16000E7
:1033900039496A46012308F049FF384B97F8642001
:1033A0001A71BA6E9A6097F86C201A7307F180024E
:1033B00052F8135D54689068C3F80D50C3F811407B
:1033C000C3F81500127B5A76FA6FDA6107F16000D4
:1033D00008F072FDDFF8A480294D2A4C07F1100097
:1033E0004146012208F0CAFF07F1100008F09AFDDB
:1033F000D8B9234C23685B68204623491422984798
:1034000020460DF041FF07F1100008F055FD1B4864
:1034100008F07CFD20461B4B19780A2200230DF092
:1034200043FF38460EF006F81BE007F1100008F0E5
:1034300049FD064610F0D6FD02462B685B6828461B
:103440003146984723780133DBB223700F4A13606B
:1034500007F1100008F05AFD07F1100008F02CFDEC
:10346000BCE78037BD46BDE8F08100BFA84701003A
:10347000BC470100C84701001C5E002094E4FF1F08
:1034800090630020E0CAFF1FD0470100DCC0FF1F8F
:103490002DE9F04FA7B000AF0025FD603D613D75FF
:1034A000A14E07F10C003146082210F0CBFD9F4CD5
:1034B00007F1380021460EF009F807F148009C4951
:1034C0000EF004F807F1380007F148010EF0CAF8D1
:1034D00021460EF0D1F807F10C010EF0CDF8954918
:1034E0000EF0CAF8014607F118000EF00DF807F1CA
:1034F00048000DF09FFF07F138000DF09BFF8E4C48
:10350000204607F118010DF099FE20460DF0BCFE93
:103510003A6A02F1080323F00703ADEB030D07F14C
:103520001800694601322B460EF0B4F8834C204651
:10353000694608F017FF07F1580021466A46132331
:1035400008F074FE7E4C97F85C3023713B6EA360EC
:1035500097F86430237307F1980353F833ED5868F4
:103560009968C4F80DE0C4F81100C4F815101B7B6D
:1035700063767B6FE36107F1580008F09DFC3046ED
:1035800010F030FD024623685B68204631469847BC
:1035900023685B6820466B490122984707F12800A1
:1035A00069490DF093FFA846DFF8AC91A2463D6053
:1035B0009EE0224658F8091001EB461129444C7C44
:1035C000944202D10133DBB25FE0ABB103F1010BF6
:1035D000786859460DF0A4FE07F1780059460A2292
:1035E0000DF0C4FF07F1280007F178010EF014F880
:1035F00007F178000DF01EFF552C17D001D82CB123
:1036000042E0AA2C20D0FF2C2ED03DE0DAF800308A
:10361000DFF848B15B68786859460122984707F19E
:10362000280059460EF000F800232EE0DAF80030AA
:103630005B68786845490122984707F128004349AB
:103640000DF0F2FF002320E0DAF80030DFF810B1CF
:103650005B68786859460122984707F12800594667
:103660000DF0E2FF002310E0DAF80030DFF8F4B0EC
:103670005B68786859460122984707F12800594647
:103680000DF0D2FF002300E000230135202D90D162
:10369000A3B15C1C786821460DF042FE07F188005A
:1036A00021460A220DF062FF07F1280007F1880188
:1036B0000DF0B2FF07F188000DF0BCFEDAF8003023
:1036C0005B6878682249012298470136092E03D0A9
:1036D000002501223B686DE7DAF800305B68504650
:1036E0001C490122984708F10408B8F11C0F03D0C7
:1036F0000026C7F804A0EBE7114808F007FC0E4CC1
:10370000204607F128010DF099FD20460DF0BCFD83
:1037100007F128000DF08EFE07F118000DF08AFE6B
:103720009C37BD46BDE8F08FA488FF1FA847010065
:10373000E8470100B4470100906300201C5E0020B0
:10374000E0C0FF1FF047010054460100F8470100A8
:103750000448010008480100F488FF1FF4470100F5
:10376000FC4701000048010030B49DF808400728DC
:1037700000F2B980DFE800F0040E4850575F8D93E7
:103780005A4B53F8213002F5856253F82230C3F8C2
:103790009440A8E0042B00F2A680DFE803F0030DBC
:1037A00017212B00514B53F8213002F5856253F855
:1037B000223083F8834196E04C4B53F8213002F5D8
:1037C000856253F8223083F884418CE0474B53F8EC
:1037D000213002F5856253F8223083F8854182E07A
:1037E000424B53F8213002F5856253F8223083F8BA
:1037F000864178E03D4B53F8213002F5856253F85D
:10380000223083F887416EE04FF4D471384B01FBCE
:103810000232C2F8944066E0344B53F8212041F262
:103820009003D4545FE04FF4D471324B01FB023269
:10383000C2F8944057E0042B2BD8DFE803F0030BC9
:10384000131B23004FF4D4712A4B01FB023383F87E
:1038500083411EE04FF4D471264B01FB023383F801
:10386000844116E04FF4D471224B01FB023383F8FC
:1038700085410EE04FF4D4711E4B01FB023383F8F7
:10388000864106E04FF4D4711A4B01FB023383F8F2
:103890008741194B53F82230C3F8944023E0042B9E
:1038A00021D8DFE803F003090F151B00124B53F872
:1038B000223083F8834116E00F4B53F8223083F80F
:1038C000844110E00C4B53F8223083F885410AE024
:1038D000094B53F8223083F8864104E0064B53F835
:1038E000223083F8874130BC704700BFB488FF1F87
:1038F000483100206CC2FF1FE088FF1FF0B591B077
:10390000464C2046464908F021FD2046454908F02E
:103910001DFD2046444908F019FD2046434908F0A2
:1039200015FD2046424908F011FD424D204629462A
:1039300008F018FD684621462A46132308F076FC55
:103940003D4C9DF804302371029BA3609DF80C3020
:10395000237310AB53F8335D58689968C4F80D5061
:10396000C4F81100C4F815101B7B6376079BE36154
:10397000684608F0A1FA314D284610F033FB0246A4
:1039800023685B6820462946984723682C4E5B686D
:1039900020463146012298472A4F384610F022FB34
:1039A000024623685B6820463946984723685B686F
:1039B0002046314601229847234E204631680DF0BB
:1039C000AFFC204608F0A2FA08A820490DF07EFDC1
:1039D0000CA829460DF07AFD08A80CA90DF042FEAE
:1039E0001B490DF049FE01461A4C20460DF026FCFD
:1039F00020460DF049FC0CA80DF01CFD08A80DF0A8
:103A000019FD23685B682046134913229847204616
:103A10000DF03AFC0023336011B0F0BD1C5E0020B5
:103A2000BC4701000C480100AC470100E847010019
:103A30001C4801006C470100480B00205089FF1F03
:103A400078470100D888FF1FDCC0FF1F7C470100BA
:103A500088470100906300202C480100032926D8E4
:103A6000DFE801F0020B141D114B53F8201041F256
:103A7000B403CB58C3F8942070470D4B53F8201073
:103A800041F2B803CB58C3F894207047084B53F861
:103A9000201041F2BC03CB58C3F894207047044B6C
:103AA00053F8203003F586531B68C3F89420704701
:103AB000B488FF1F2DE9F04190B008A82649274A95
:103AC000012308F0B3FB264B9DF824201A710A9AB3
:103AD0009A609DF82C201A7310AA52F8135D54684E
:103AE0009068C3F80D50C3F81140C3F81500127B5D
:103AF0005A760F9ADA6108A808F0DEF9DFF86080DC
:103B0000184E194F68464146012208F037FC6846B6
:103B100008F008FAB8B100243578684608F0D2F900
:103B2000035D05EB450504EB45057B550134052C8C
:103B3000F2D1337801333370684608F0E7F968460C
:103B400008F0BAF9DEE7684608F0B6F9044808F06C
:103B5000DDF910B0BDE8F0811C5E00204048010096
:103B6000E0C0FF1F98CCFF1FE459002038B5044681
:103B70001F4B53F820502B7C012B04D872B62846DB
:103B8000FDF74CFF00E072B6EB6862B6194A52F8D6
:103B900024209A422AD013F0030F27D116490C7023
:103BA0009A42ACBF4FF0FF320122124941F8243053
:103BB0004FF4D471114B01FB043393F8A810D3F8E0
:103BC000940002FB0102D3F89C108A42B8BF0A4657
:103BD000D3F8A0104D1EAA42A8BF2A46C3F89420CD
:103BE000C3F89820064B01221A559A7138BD00BFC0
:103BF0003089FF1F0898FF1F885D00204831002092
:103C00002089FF1F38B50446214B53F820502B7CE8
:103C1000012B04D872B62846FDF700FF00E072B60B
:103C2000EB6862B61B4A52F824209A422ED013F059
:103C3000030F2BD118490C709A42ACBF4FF0FF32E2
:103C40000122144941F82430144B1978144B53F8CD
:103C5000213004F22D4153F8213093F8A810D3F805
:103C6000940002FB0102D3F89C108A42B8BF0A46B6
:103C7000D3F8A0104D1EAA42A8BF2A46C3F894202C
:103C8000C3F89820074B01221A559A7138BD00BF1E
:103C90003089FF1F0898FF1F885D00200498FF1FD0
:103CA000B488FF1F2089FF1FF8B50446284B53F83E
:103CB00020502B7C012B04D872B62846FDF7AEFEAF
:103CC00000E072B6EB6862B6224A52F824209A42AB
:103CD0003CD013F0030F39D11F490C709A42ACBF8E
:103CE0004FF0FF3001201B4A42F82430661D1B4D67
:103CF0001B4B1B7855F8233004F22D4253F8223029
:103D000093F8A810D3F8947000FB0170D3F89C10BE
:103D10008842B8BF0846D3F8A01001F1FF3C6045C7
:103D2000A8BF6046C3F89400C3F898002B1F18354D
:103D300053F8042F06F5856152F82120C2F894004B
:103D4000AB42F5D1074B01221A559A71F8BD00BF5D
:103D50003089FF1F0898FF1F885D0020B488FF1F6F
:103D60000498FF1F2089FF1F38B50446214B53F8E4
:103D700020502B7C012B04D872B62846FDF74EFE4E
:103D800000E072B6EB6862B61B4A52F824209A42F1
:103D90002ED013F0030F2BD118490C709A42ACBFF0
:103DA0004FF0FF320122144941F82430144B1978A6
:103DB000144B53F8213004F5856153F8213093F802
:103DC000A810D3F8940002FB0102D3F89C108A4299
:103DD000B8BF0A46D3F8A0104D1EAA42A8BF2A4673
:103DE000C3F89420C3F89820074B01221A559A7102
:103DF00038BD00BF3089FF1F0898FF1F885D002075
:103E00000498FF1FB488FF1F2089FF1F2DE9F84386
:103E1000044607462D4B53F820502B7C012B04D829
:103E200072B62846FDF7FAFD00E072B6EB6862B69E
:103E3000274A52F824209A4246D013F0030F43D168
:103E400024490C709A42ACBF4FF0FF350125204A3F
:103E500042F82430204B1A78204B53F8223004F5D6
:103E6000856253F8223093F8A810D3F8940005FB2C
:103E70000105D3F89C108D42B8BF0D46D3F8A010B1
:103E80004E1EB542A8BF3546C3F89450C3F89850AB
:103E9000134B01221A559A7100240F4EDFF84490FB
:103EA000DFF838803378A3420BD0484629460DF01E
:103EB00037FA58F8243007F5856253F82230C3F8F2
:103EC00094500134072CEDD1BDE8F8833089FF1FF1
:103ED0000898FF1F885D00200498FF1FB488FF1F0B
:103EE0002089FF1F906300202DE9F04182B0054634
:103EF000BE4B53F82040237C012B04D872B62046D9
:103F0000FDF78CFD00E072B6E36862B6B84A52F87D
:103F100025209A4200F0E08113F0030F40F0DC818D
:103F2000B4490D709A42ACBF4FF0FF320122B04944
:103F300041F82530B049B148037851F82340B04BDF
:103F40001F7807F5856754F8277007EB8504D4F8C8
:103F5000944194F800C0624422EAE2722F4497F838
:103F60007371BA42A8BF3A462270027851F82220F3
:103F70001B7803F5856352F8234094F88431234479
:103F800093F8EC7007F07F0794F881311F44FFB27B
:103F900084F8817194F88231013303F07F0384F84F
:103FA000823194F89131002B00F0928194F88331A2
:103FB000062B00F25181DFE813F0070032005600B3
:103FC0009B00C400F100290194F88501D4F89C30CD
:103FD000D4F8A02002EBD272521000920021642289
:103FE0000DF01AFA0EF0D6FE064694F887313B44DF
:103FF00003F07F03234493F8048000F100400FF0A6
:10400000E3F8074630460FF0DFF800904046002105
:10401000FF223B460DF000FAC4F8A4001CE194F81E
:104020008501D4F89C30D4F8A02002EBD272521053
:104030000092002164220DF0EFF90EF0ABFE06466F
:104040007F0000F100400FF0BFF8804630460FF0CF
:10405000BBF8009038460021FF2243460DF0DCF902
:10406000C4F8A400F8E094F88731013BDBB27D2B63
:1040700005D994F8903183F0010384F8903194F8D5
:104080008501D4F89C30D4F8A02002EBD2725210F3
:104090000092002164220DF0BFF90EF07BFE06466F
:1040A00094F88731BB4211D900F100400FF08CF831
:1040B000074630460FF088F8009000200146FF22A6
:1040C0003B460DF0A9F9C4F8A400C5E000F100409A
:1040D0000FF07AF8074630460FF076F80090FF2090
:1040E000002102463B460DF097F9C4F8A400B3E066
:1040F00094F88501D4F89C30D4F8A02002EBD27259
:1041000052100092002164220DF086F90EF042FE5A
:10411000064694F887319F4228BFC3EB070700F19A
:1041200000400FF051F8804630460FF04DF80090F7
:1041300038460021FF2243460DF06EF9C4F8A40072
:104140008AE094F88501D4F89C30D4F8A02002EBE2
:10415000D27252100092002164220DF05DF90EF02F
:1041600019FE064694F88231264AA2FB03129208F1
:1041700002EB4202A3EB420313F0FF0F6CD100F1FC
:1041800000400FF021F8074630460FF01DF80146B9
:1041900038460DF037F9C4F8A4005DE094F88501C5
:1041A000D4F89C30D4F8A02002EBD27252100092C6
:1041B000002164220DF030F90EF0ECFD0646124BA2
:1041C000D3F82C8000F100400EF0FEFF0746304689
:1041D0000EF0FAFF00904046002140F2FF323B46CD
:1041E0000DF01AF9C4F8A40036E000BF3089FF1FB3
:1041F0000898FF1F885D0020B488FF1F0498FF1FE8
:10420000D088FF1FABAAAAAA20E4FF1F94F885015B
:10421000D4F89C30D4F8A02002EBD2725210009255
:10422000002164220DF0F8F80EF0B4FD06462C4B88
:10423000D3F82C8000F100400EF0C6FF0746304650
:104240000EF0C2FF00904046002140F2FF323B4694
:104250000DF0E2F8C4F8A40094F88531002B33D0B7
:10426000D4F8940094F88671D4F8A430C2183A4473
:10427000D4F89C309A42B8BF1A46D4F8A0309A427B
:10428000D4BFC4F89820C4F898300EF083FD80465F
:1042900038460EF07FFD0746404631460EF0C4FC1E
:1042A00039460EF0C3FC0EF08FFFC4F88C01404677
:1042B00031460EF0BBFC014638460EF0B7FC0EF05E
:1042C00083FFC4F8880103E0D4F89430C4F8983030
:1042D000044B01225A559A7102B0BDE8F08100BF2B
:1042E00058E4FF1F2089FF1FF8B504462C4B1870B7
:1042F00005462C4B53F82060337C012B04D872B652
:104300003046FDF78BFB00E072B6F36862B6264AD2
:1043100052F824209A4241D013F0030F3ED19A4222
:10432000ACBF4FF0FF3201221F4941F824301F4B30
:1043300018781F4951F8201004F5856051F82000C5
:1043400000EB8401D1F894110E78324422EAE27233
:10435000204490F873018242A8BF02460A70154AB1
:1043600001211155917119780023114805F1640755
:10437000BF0099420FD050F8234005F5856254F8EC
:10438000226050F8214054F822203A44546806EB49
:104390008302C2F894410133072BEAD1F8BD00BF74
:1043A000885D00203089FF1F0898FF1F0498FF1FB9
:1043B000B488FF1F2089FF1F38B50446174B53F8F8
:1043C00020502B7C012B04D872B62846FDF726FB23
:1043D00000E072B6EB6862B6114A52F824209A42A5
:1043E0001AD013F0030F17D19A42ACBF4FF0FF322F
:1043F00001220B4941F824300A4B185D0A4B012178
:10440000195599710244D2B2302AB8BF30227C2AA1
:10441000A8BF7C22034B1A5538BD00BF3089FF1F4F
:104420000898FF1F5089FF1F2089FF1F38B50446D9
:10443000174B53F820502B7C012B04D872B628461A
:10444000FDF7ECFA00E072B6EB6862B6114A52F87A
:1044500024209A421AD013F0030F17D19A42ACBF0E
:104460004FF0FF3201220B4941F824300A4B185D0E
:104470000A4B0121195599710244D2B2302AB8BFB2
:1044800030227C2AA8BF7C22034B1A5538BD00BFBE
:104490003089FF1F0898FF1FD888FF1F2089FF1F42
:1044A0002DE9F04182B00546B84B53F82040237CFB
:1044B000012B04D872B62046FDF7B0FA00E072B6C0
:1044C000E36862B6B24A52F825209A4200F0D281DF
:1044D00013F0030F40F0CE81AE490D709A42ACBF8D
:1044E0004FF0FF320122AA4941F82530AA4BAB49CF
:1044F000087853F8204004EB8500D0F89401077841
:104500003A4422EAE2722C4494F87341A242A8BFD2
:10451000224602700A7853F8224094F884312344EA
:1045200093F8EC7007F07F0794F881311F44FFB2D5
:1045300084F8817194F88231013303F07F0384F8A9
:10454000823194F89131002B00F0908194F88331FE
:10455000062B00F24F81DFE813F00700320056000F
:104560009B00C400F100270194F88501D4F89C3029
:10457000D4F8A02002EBD2725210009200216422E3
:104580000CF04AFF0EF006FC064694F887313B44D7
:1045900003F07F03234493F8048000F100400EF001
:1045A00013FE074630460EF00FFE009040460021F5
:1045B000FF223B460CF030FFC4F8A4001AE194F847
:1045C0008501D4F89C30D4F8A02002EBD2725210AE
:1045D0000092002164220CF01FFF0EF0DBFB064668
:1045E0007F0000F100400EF0EFFD804630460EF0F7
:1045F000EBFD009038460021FF2243460CF00CFFF3
:10460000C4F8A400F6E094F88731013BDBB27D2BBF
:1046100005D994F8903183F0010384F8903194F82F
:104620008501D4F89C30D4F8A02002EBD27252104D
:104630000092002164220CF0EFFE0EF0ABFB064668
:1046400094F88731BB4211D900F100400EF0BCFD57
:10465000074630460EF0B8FD009000200146FF22CC
:104660003B460CF0D9FEC4F8A400C3E000F10040C2
:104670000EF0AAFD074630460EF0A6FD0090FF2082
:10468000002102463B460CF0C7FEC4F8A400B1E08E
:1046900094F88501D4F89C30D4F8A02002EBD272B3
:1046A00052100092002164220CF0B6FE0EF072FB54
:1046B000064694F887319F4228BFC3EB070700F1F5
:1046C00000400EF081FD804630460EF07DFD0090EA
:1046D00038460021FF2243460CF09EFEC4F8A40099
:1046E00088E094F88501D4F89C30D4F8A02002EB3F
:1046F000D27252100092002164220CF08DFE0EF056
:1047000049FB064694F88231254AA2FB031292081F
:1047100002EB4202A3EB420313F0FF0F6AD100F158
:1047200000400EF051FD074630460EF04DFD0146AB
:1047300038460CF067FEC4F8A4005BE094F88501ED
:10474000D4F89C30D4F8A02002EBD2725210009220
:10475000002164220CF060FE0EF01CFB0646114B9B
:10476000D3F82C8000F100400EF02EFD07463046B5
:104770000EF02AFD00904046002140F2FF323B46F9
:104780000CF04AFEC4F8A40034E000BF3089FF1FDB
:104790000898FF1F885D0020E088FF1FD088FF1F5A
:1047A000ABAAAAAA20E4FF1F94F88501D4F89C3094
:1047B000D4F8A02002EBD2725210009200216422A1
:1047C0000CF02AFE0EF0E6FA06462C4BD3F82C80AD
:1047D00000F100400EF0F8FC074630460EF0F4FC05
:1047E00000904046002140F2FF323B460CF014FEA0
:1047F000C4F8A40094F88531002B33D0D4F8940089
:1048000094F88671D4F8A430C2183A44D4F89C3095
:104810009A42B8BF1A46D4F8A0309A42D4BFC4F81E
:104820009820C4F898300EF0B5FA804638460EF05D
:10483000B1FA0746404631460EF0F6F939460EF019
:10484000F5F90EF0C1FCC4F88C01404631460EF07B
:10485000EDF9014638460EF0E9F90EF0B5FCC4F862
:10486000880103E0D4F89430C4F89830044B012256
:104870005A559A7102B0BDE8F08100BF58E4FF1F9D
:104880002089FF1F38B504461E4B53F820502B7C5F
:10489000012B04D872B62846FDF7C0F800E072B6C6
:1048A000EB6862B6184A52F824209A4228D013F0D6
:1048B000030F25D115490C709A42ACBF4FF0FF325F
:1048C0000122114941F82430114B012119559971E8
:1048D000104B53F8243093F8A810D3F8940002FB3F
:1048E0000102D3F89C108A42B8BF0A46D3F8A01040
:1048F0004C1EA242A8BF2246C3F89420C3F89820B9
:1049000038BD00BF3089FF1F0898FF1F885D002059
:104910002089FF1FE088FF1F2DE9F04182B0054686
:10492000B94B53F82040237C012B04D872B62046A3
:10493000FDF774F800E072B6E36862B6B34A52F865
:1049400025209A4200F0D48113F0030F40F0D0816B
:10495000AF490D709A42ACBF4FF0FF320122AB4914
:1049600041F82530AB4BAC4807784FF4D47101FBCC
:10497000073707EB8504D4F8944194F800C06244EB
:1049800022EAE2722F4497F87371BA42A8BF3A46FE
:104990002270047801FB043494F88431234493F8A2
:1049A000EC7007F07F0794F881311F44FFB284F860
:1049B000817194F88231013303F07F0384F88231EE
:1049C00094F89131002B00F08F8194F88331062BFD
:1049D00000F24E81DFE813F00700320056009B0022
:1049E000C400F100260194F88501D4F89C30D4F875
:1049F000A02002EBD27252100092002164220CF02F
:104A00000BFD0EF0C7F9064694F887313B4403F0DE
:104A10007F03234493F8048000F100400EF0D4FBA0
:104A2000074630460EF0D0FB009040460021FF22A2
:104A30003B460CF0F1FCC4F8A40019E194F88501A0
:104A4000D4F89C30D4F8A02002EBD272521000921D
:104A5000002164220CF0E0FC0EF09CF906467F0079
:104A600000F100400EF0B0FB804630460EF0ACFB8B
:104A7000009038460021FF2243460CF0CDFCC4F8DC
:104A8000A400F5E094F88731013BDBB27D2B05D91A
:104A900094F8903183F0010384F8903194F8850103
:104AA000D4F89C30D4F8A02002EBD27252100092BD
:104AB000002164220CF0B0FC0EF06CF9064694F86C
:104AC0008731BB4211D900F100400EF07DFB074653
:104AD00030460EF079FB009000200146FF223B4655
:104AE0000CF09AFCC4F8A400C2E000F100400EF003
:104AF0006BFB074630460EF067FB0090FF2000215D
:104B000002463B460CF088FCC4F8A400B0E094F8E0
:104B10008501D4F89C30D4F8A02002EBD272521058
:104B20000092002164220CF077FC0EF033F9064667
:104B300094F887319F4228BFC3EB070700F100407C
:104B40000EF042FB804630460EF03EFB00903846A9
:104B50000021FF2243460CF05FFCC4F8A40087E06C
:104B600094F88501D4F89C30D4F8A02002EBD272DE
:104B700052100092002164220CF04EFC0EF00AF953
:104B8000064694F88231254AA2FB0312920802EBF2
:104B90004202A3EB420313F0FF0F69D100F1004082
:104BA0000EF012FB074630460EF00EFB014638466B
:104BB0000CF028FCC4F8A4005AE094F88501D4F85D
:104BC0009C30D4F8A02002EBD27252100092002147
:104BD00064220CF021FC0EF0DDF80646104BD3F8F1
:104BE0002C8000F100400EF0EFFA074630460EF040
:104BF000EBFA00904046002140F2FF323B460CF0B9
:104C00000BFCC4F8A40033E03089FF1F0898FF1F95
:104C1000885D00206CC2FF1FD088FF1FABAAAAAA24
:104C200020E4FF1F94F88501D4F89C30D4F8A0202C
:104C300002EBD27252100092002164220CF0ECFBC5
:104C40000EF0A8F806462C4BD3F82C8000F100405B
:104C50000EF0BAFA074630460EF0B6FA009040461B
:104C6000002140F2FF323B460CF0D6FBC4F8A40012
:104C700094F88531002B33D0D4F8940094F88671E1
:104C8000D4F8A430C2183A44D4F89C309A42B8BF41
:104C90001A46D4F8A0309A42D4BFC4F89820C4F879
:104CA00098300EF077F8804638460EF073F80746D5
:104CB000404631460DF0B8FF39460DF0B7FF0EF013
:104CC00083FAC4F88C01404631460DF0AFFF01462F
:104CD00038460DF0ABFF0EF077FAC4F8880103E018
:104CE000D4F89430C4F89830044B01225A559A7184
:104CF00002B0BDE8F08100BF58E4FF1F2089FF1F0C
:104D000038B504461F4B53F820502B7C012B04D898
:104D100072B62846FCF782FE00E072B6EB6862B617
:104D2000194A52F824209A422AD013F0030F27D1AF
:104D300016490C709A42ACBF4FF0FF320122124963
:104D400041F82430124B0121195599714FF4D47157
:104D5000104B01FB043494F8A830D4F8941002FBF3
:104D60000312D4F89C309A42B8BF1A46D4F8A03047
:104D7000581E8242A8BF0246C4F89420C4F8982066
:104D800038BD00BF3089FF1F0898FF1F885D0020D5
:104D90002089FF1F6CC2FF1F012B28D1284B53F81D
:104DA000211001EB401313445B7C552B0DD001D82F
:104DB0002BB17047AA2B0ED0FF2B12D0704701EBFE
:104DC00040110A4455235374704701EB40110A44C3
:104DD000AA235374704701EB40110A44FF23537414
:104DE000704701EB40110A44002353747047144B81
:104DF00053F8211001EB401313445B7C552B0DD06D
:104E000001D82BB17047AA2B0ED0FF2B12D07047C0
:104E100001EB40100244FF235374704701EB401034
:104E2000024400235374704701EB401002445523A1
:104E30005374704701EB40100244AA235374704727
:104E4000F488FF1FF0B4124B1A78104400F01F02D0
:104E50001A70104B1D78104B187800230F4C40012E
:104E60001F46FF2693FBF2F102FB113129B954F8DA
:104E70002510014419444E7404E054F825100144EF
:104E800019444F740133202BECD1F0BC704700BFA4
:104E900060E7FF1F12BFFF1F109BFF1FF488FF1F5B
:104EA0002DE9F001224B1E78224B1F78DFF890800D
:104EB000214B53F8263008F1310203EB471353F826
:104EC00011CF5D689C68D968C8F831C0C8F8355002
:104ED000C8F83940C8F83D10D3F810C05D699C6926
:104EE000D969C8F841C0C8F84550C8F84940C8F861
:104EF0004D100023DFF84080A2F1310C0F497F01F3
:104F000058F826501A18002AB8BF52420A4003D552
:104F1000013A62F01F020132624492F83140EA190C
:104F20001A4454740133202BEAD1BDE8F0017047D4
:104F300012BFFF1F109BFF1FF488FF1F1F00008080
:104F4000C45A00202DE9F8430024DFF84490DFF82C
:104F500044800E4F98F8003059F823503E7805EB06
:104F6000461323445B7C5BB103200CF03FFA05EB56
:104F700046152544013000EB800000EB00106874FA
:104F80000134202CE6D1BDE8F88300BF109BFF1F41
:104F9000F488FF1F12BFFF1F2DE9F8431D4B1A783D
:104FA0001044C2B21C49A1FB0201C90801EB8101F6
:104FB00001EB8101521A1A7000241D46174F184E3A
:104FC00019200CF013FA2B78C0B2834212D2337836
:104FD00057F82380134B93F8009004200CF006FA46
:104FE00008EB4918A04400EB800000EB001088F8A3
:104FF000110009E0337857F823300A4A127803EB9E
:105000004213234400225A740234202CD8D1BDE824
:10501000F88300BF18BFFF1F1F85EB51F488FF1FE7
:1050200012BFFF1F109BFF1F70B504466D4B53F856
:1050300020502B7C012B04D872B62846FCF7EEFCDE
:1050400000E072B6EA6862B6674B53F824309342C8
:1050500000F0C68012F0030F40F0C28063490C706C
:105060009342ACBF4FF0FF3301235F4941F8242046
:1050700001215F4A1155042C00F2B280DFE804F0F0
:10508000033B5A7C8F005B4A12788AB15A4A1278E5
:105090005A49895C0B44DBB25F2BA8BF5F23412BCD
:1050A000B8BF412355498B540122514B9A7270BDB0
:1050B000534E311F183651F8042F02F585521268ED
:1050C00092F8A840D2F8940003FB0400D2F89C4068
:1050D000A042B8BF2046D2F8A040651EA842A8BF93
:1050E0002846C2F89400C2F89800B142E3D10122E8
:1050F0003F4B9A7270BD3F4A1278A2B9414A11786B
:105100004148017041480478414804700B44002B29
:10511000B8BF5B423F490B4003D5013B63F01F031F
:105120000133137070BDD8B2FFF78CFE00223A4BEA
:105130001A7070BD2F4A1278BAB9324A1178324AC1
:10514000117032480178324A117019440029B8BFF1
:105150004942324A81FB0223CA18CB17C3EBA20390
:10516000C3EBC303C91A017070BDD8B2FFF798FE34
:105170000022294B1A7070BD1E4A127842B9284A83
:105180001078224A11781F4A1278FFF705FE70BD89
:10519000D8B2FFF7D7FE00221F4B1A7070BD154A18
:1051A0001278BAB91E4A11780B44002BB8BF5B4283
:1051B0001C4880FB0310D917C1EB600101EBC10152
:1051C0005B1A13700022144B1A70094B0122DA7219
:1051D0009A7270BDD8B2FFF7DFFE00220E4B1A7034
:1051E00070BD00BF3089FF1F0898FF1F885D002039
:1051F0002089FF1F10BFFF1FE8CAFF1FA488FF1FE1
:10520000B488FF1F11BFFF1F68CEFF1F12BFFF1F13
:105210003CDFFF1F1F00008013BFFF1F9324499234
:10522000109BFF1F398EE338044B53F8202041F2C6
:105230009D03D15C81F00101D1547047B488FF1FF8
:105240000A4B1B7883B10A4B1B786BB1094B1A7858
:105250000120094988540244084981FB0201491090
:1052600001EBC101521A1A70704700BFC4E7FF1F5B
:10527000119BFF1FCD96FF1F2089FF1F398EE3383A
:10528000094BDB781BB10122084B1A7002E00022A7
:10529000064B1A70044B5B782BB10123044A137040
:1052A000044A13735372704700C1FF1F10BFFF1FE2
:1052B000119BFF1F2089FF1F70B4104E104B53F835
:1052C000212002EB401050F8115F44688168C268E9
:1052D000C6F81150C6F81540C6F81910C6F81D20BA
:1052E000056944698169C269C6F82150C6F825403C
:1052F000C6F82910C6F82D2070BC7047C45A00208B
:10530000F488FF1F2DE9F001144BA3F1040C14499C
:1053100003F1180840015CF8043F034453F8117F7F
:105320005E689D68DC68C1F81170C1F81560C1F84D
:105330001950C1F81D401F695E699D69DC69C1F89B
:105340002170C1F82560C1F82950C1F82D402031E5
:10535000C445E0D1BDE8F001704700BFF488FF1FED
:10536000C45A002070B4124B53F8213003EB4010A4
:10537000104B53F8116F5D689C68D968C0F81160D4
:10538000C0F81550C0F81940C0F81D101E695D69BD
:105390009C69D969C0F82160C0F82550C0F829403F
:1053A000C0F82D100022044B1A7070BC704700BF6B
:1053B000F488FF1FC45A002013BFFF1F2DE9F0031C
:1053C000164BA3F1040C164F03F1180940015CF8C9
:1053D000043F03EB00083B4653F8116F5D689C687F
:1053E000D968C8F81160C8F81550C8F81940C8F84D
:1053F0001D101E695D699C69D969C8F82160C8F8EB
:105400002550C8F82940C8F82D102037CC45DED1EA
:105410000022044B1A70BDE8F0037047F488FF1FA8
:10542000C45A002013BFFF1F38B500210C460D4D94
:10543000400109E04A5902441A4454740133202BB4
:10544000F8D104311C2901D02346F3E7064805F0C2
:10545000B5FE0022054B1A70054B01229A72DA72D2
:1054600038BD00BFF488FF1FF030002013BFFF1FBE
:105470002089FF1F30B587B0654BDB781BB1012257
:10548000644B1A7002E00022624B1A70604B1B7B67
:1054900043B1604B1B781BB10020FFF7C5FE01E054
:1054A000FDF7F6FF5A4B5B7B63B15A4B1B781BB180
:1054B0000120FFF7B9FE05E0574B1878574B1978D4
:1054C000FFF7FAFE524B9B7B63B1524B1B781BB12B
:1054D0000220FFF7A9FE05E04F4B18784F4B1978D3
:1054E000FFF740FF4A4BDB7B53B14A4B1B781BB1A4
:1054F0000320FFF799FE03E0474B1878FFF702FF00
:10550000434B1B7A53B1434B1B781BB10420FFF76D
:105510008BFE03E0404B1878FFF750FF3C4B5B7964
:1055200053B13C4B1B781BB10520FFF77DFE03E018
:10553000394B1878FFF778FF354B5B7813B10022B1
:10554000374B1A70324B1B78002B37D0314B1B78FE
:105550001BB351200BF04AFF01AC324D00EB400170
:1055600000EB8101204629440EF0DEFC20460EF0BF
:1055700039FD2D4B1B88235251200BF037FF00EBD8
:10558000400100EB8101204629440EF02DFC274804
:1055900021460D220EF056FD0CE0254B1A78013203
:1055A000D2B22449A1FB0201C90801EB4101A2EBDF
:1055B00081021A70204B01229A72DA72144B9B7886
:1055C00023B3144B1B788BB9194B1A78013AD2B21A
:1055D0001849A1FB0201C90801EB4101A2EB8102BC
:1055E0001A70154B01229A72DA720FE00B4B1A787F
:1055F00001A8124B53F822100EF096FC0B4801A99B
:105600000D220EF01FFD01220B4B9A7207B030BD28
:1056100000C1FF1F10BFFF1F109BFF1F12BFFF1F06
:10562000CCE7FF1F944901004C480100A488FF1FEC
:10563000E8CAFF1FABAAAAAA2089FF1FF488FF1F90
:1056400008B57B4B5B7813B100227A4B1A70784B0C
:105650001B7BB3B1784B1B784BB10020FFF7E4FD07
:105660000022764B1A700122754B1A7309E0002252
:10567000724B1A70724A01231373D3711372714AF9
:1056800013706B4B5B7BA3B16B4B1B7843B1012059
:10569000FFF7CAFD0123694A1370694A137308E0D2
:1056A0000123664A1370664A1373D3711372654AF5
:1056B00013705F4B9B7BB3B15F4B1B784BB10220E8
:1056C000FFF7B2FD02225D4B1A7001225C4B1A7388
:1056D00009E00222594B1A70594A01231373D371FE
:1056E0001372584A1370524BDB7BB3B1524B1B7889
:1056F0004BB10320FFF798FD0322504B1A70012293
:105700004F4B1A7309E003224C4B1A704C4A012389
:105710001373D37113724B4A1370454B1B7AB3B199
:10572000454B1B784BB10420FFF77EFD0422434B11
:105730001A700122424B1A7309E004223F4B1A707F
:105740003F4A01231373D37113723E4A1370384BCF
:105750005B79B3B1384B1B784BB10520FFF764FD83
:105760000522364B1A700122354B1A7309E00522C7
:10577000324B1A70324A01231373D3711372314AB8
:1057800013702B4B9B79B3B12B4B1B784BB106207D
:10579000FFF74AFD0622294B1A700122284B1A7383
:1057A00009E00622254B1A70254A01231373D37191
:1057B0001372244A13701E4BDB7A43B104221D4B33
:1057C0001A700522204B1A7001221D4B5A72184B79
:1057D0009B7A43B10422174B1A7006221A4B1A7097
:1057E0000122174B5A72124B5B7A43B10422114BC0
:1057F0001A700722144B1A700122114B5A720C4B6B
:105800001B7943B104220B4B1A7008220E4B1A70FD
:1058100001220B4B5A72064BDB7943B10422054B34
:105820001A700922084B1A700122054B5A7208BDE2
:1058300000C1FF1FCCE7FF1F10BFFF1F0498FF1F11
:105840002089FF1F905D0020D088FF1F2D4B5B78C3
:1058500013B100222C4B1A702A4BDB7B33B102228E
:10586000294B1A70294B01221A735A72254B5B7B04
:1058700033B10522244B1A70244B01221A735A7239
:10588000204B1B7A33B107221F4B1A701F4B01228A
:105890001A735A721B4B5B7933B109221A4B1A7077
:1058A0001A4B01221A735A72164BDB7A2BB108225B
:1058B000154B1A700022164B1A70124B9B7A2BB1A3
:1058C0000822114B1A700122114B1A700D4B5B7A92
:1058D0002BB108220C4B1A7002220D4B1A70094B87
:1058E0001B792BB10822084B1A700322084B1A703F
:1058F000044BDB792BB10822034B1A700422044BB2
:105900001A70704700C1FF1FCCE7FF1F2089FF1FDF
:10591000D088FF1F1A4B1B781BB11A4B1A78013223
:105920001A70174B9B781BB1164B1A78013A1A70F4
:10593000134B5B782BB10022134B1A700122134BCF
:105940001A730F4BDB7A13B100220E4B1A700C4BFB
:105950009B7A13B101220B4B1A70094B5B7A13B17E
:105960000222084B1A70064B1B7913B10322054B18
:105970001A70034BDB7913B10422024B1A70704783
:1059800000C1FF1FD088FF1FCCE7FF1F2089FF1F2A
:1059900008B5584B5B7813B10322574B1A70554B1F
:1059A0001B7B83B1554B1B7833B10020FFF73CFCC8
:1059B0000022534B1A7006E00022514B1A70514BD3
:1059C0000122DA711A724B4B5B7B7BB14B4B1B781C
:1059D00033B10120FFF728FC0122494B1A7005E082
:1059E0000123474A1370474AD3711372414B9B7B83
:1059F00083B1424B1B7833B10220FFF715FC022222
:105A00003F4B1A7006E002223D4B1A703D4B0122BB
:105A1000DA711A72374BDB7B83B1384B1B7833B1A9
:105A20000320FFF701FC0322354B1A7006E0032226
:105A3000334B1A70334B0122DA711A722D4B1B7AD9
:105A400083B12E4B1B7833B10420FFF7EDFB04220A
:105A50002B4B1A7006E00422294B1A70294B0122A5
:105A6000DA711A72234B5B7983B1244B1B7833B103
:105A70000520FFF7D9FB0522214B1A7006E005220D
:105A80001F4B1A701F4B0122DA711A72194B9B7946
:105A900083B11A4B1B7833B10620FFF7C5FB0622F2
:105AA000174B1A7006E00622154B1A70154B01228F
:105AB000DA711A720F4BDB7A13B10522124B1A708E
:105AC0000C4B9B7A13B106220F4B1A70094B5B7A71
:105AD00013B107220C4B1A70064B1B7913B1082225
