:1000000000800020BD0100009D1F0100611F010054
:10001000611F0100611F0100611F0100611F0100DC
:10002000611F0100611F0100611F01009D1F010090
:100030009D1F0100611F01009D1F0100511F010054
:100040009D1F01009D1F01009D1F01009D1F0100BC
:100050009D1F01009D1F01009D1F01009D1F0100AC
:100060009D1F01009D1F01009D1F01009D1F01009C
:100070009D1F01009D1F01009D1F01009D1F01008C
:100080009D1F01009D1F01009D1F01009D1F01007C
:100090009D1F01009D1F01009D1F01009D1F01006C
:1000A00015F200009D1F01009D1F01009D1F010012
:1000B0009D1F01009D1F01009D1F01009D1F01004C
:1000C0009D1F01009D1F01009D1F01009D1F01003C
:1000D0009D1F01009D1F01009D1F01009D1F01002C
:1000E0009D1F01009D1F01009D1F01009D1F01001C
:1000F0009D1F0100BD1D01009D1F0100B92F0100C2
:100100009D1F0100D53301009D1F01009D1F0100AF
:100110009D1F01009D1F01009D1F01009D1F0100EB
:100120009D1F01009D1F01009D1F01009D1F0100DB
:100130009D1F01009D1F01009D1F01009D1F0100CB
:100140009D1F01009D1F01009D1F01009D1F0100BB
:100150007128010089280100A1280100B9280100A7
:100160009D1F0100290B01009D1F01009D1F010023
:100170009D1F01009D1F01009D1F01009D1F01008B
:100180009D1F01009D1F01009D1F01009D1F01007B
:100190009D1F01009D1F01009D1F01009D1F01006B
:1001A0009D1F01009D1F01009D1F01009D1F01005B
:1001B0009D1F01009D1F01009D1F010010B56B4B8D
:1001C0004CF220521A804DF628121A8000BF00BF50
:1001D00011F0E8FE4FF01062654B1A60654A083373
:1001E0001A60654A04331A60A3F530432C3B1B6840
:1001F00013F4807F06D10022604B1A604FF4A8529E
:10020000043B1A605E4B1B7813F0080F04D05C4B64
:100210001A7842F008021A702A225A4B1A705A4B66
:100220005A4A9A420DD2131D594CE41A24F0030481
:1002300004340023104657495A581A500433A34235
:10024000FAD1554B554A9A4280F08B80131F54497E
:10025000C91A21F003011A1D1144002243F8042F8A
:100260008B42FBD17DE05A581A500433B3F5DE7F40
:10027000F9D14C4B80214C4A03F8011B9342FBD12E
:100280004A4B4B4A1A600A224A4B1A702422A3F6A0
:10029000FF731A70A022013B1A7006331A7812F00D
:1002A000020FFBD0444B1A7812F0100FFBD1424BD7
:1002B0001A7802F00C02082AFAD103223F4B1A7076
:1002C000402201331A7001331A7812F0200FFBD04C
:1002D000394B1A7812F0400FFBD0394A394B1A606B
:1002E000022204331A602022374B1A7006331A7820
:1002F00002F00C020C2AFAD1344A354B1A60354A06
:10030000354B1A60002204331A600722083B1A603A
:10031000324A03F551631A6062B610F0C7FA174B00
:100320001B6813F0010F05D02D4810F025FA2D4A57
:100330002D4B1A602D4B1B7813F0400F0AD02A4B1F
:100340001A68284B9A4205D1254810F015FA002268
:10035000254B1A6014F0A2F911F02AFE12F0B2FB3C
:10036000FEE70023124822497DE700BF0E2005402A
:1003700030800440823F04000100002B14D0034071
:1003800002D0074000E00740B096FF1F8088FF1FA3
:10039000B396FF1F1C730100D8700020B096FF1F9A
:1003A000D370002000E400E05FE400E008ED00E02E
:1003B0000082FF1F005006400640064004400640F1
:1003C000000003014480044000400640C0100500C6
:1003D00004800440FF76010014E000E000002020CB
:1003E00049AFF55AA5C3945A1CE0034000F00740FA
:1003F00000000000FFFFFFFFFFFFFFFFFFFFFFFF09
:10040000FFFFFFFFFFFFFFFFFFFFFFFFFEFFFFFFFD
:1004100010B5054C237833B9044B13B10448AFF33E
:1004200000800123237010BDB096FF1F0000000064
:100430001C73010008B5064B1BB106480649AFF313
:1004400000800648036813B1054B03B1984708BD07
:10045000000000001C730100B496FF1FB096FF1F40
:100460000000000030B583B004469DF91C50009593
:100470009DF91850019549B252B25BB20FF09EFC43
:10048000024B2360204603B030BD00BF305901004D
:1004900010B584B0044668460D4911F0CFFF2046E0
:1004A00001210FF0FBF9204601210FF0F1F9204660
:1004B000002105220FF0E8F92046694612F0D6F82F
:1004C00020460FF005FE684611F06CFF04B010BD29
:1004D000585F010030B585B00446002580F83850DB
:1004E00002213C2201230FF0F9FC20460FF082FC90
:1004F0008023009340230193012302932046294641
:100500002A46074B0FF090F820460FF0E1FD4FF41C
:10051000FA7010F0B7F920460FF06CFC05B030BD52
:10052000E85901002DE9F0438BB004460D4616460C
:100530001F469DF8489002A8139911F09DFF06A848
:10054000149911F099FF204601210FF0A1F92046DE
:1005500001210FF0A3F92DB220462946721C0FF09D
:1005600093F922683FB2CDF800904FF00008CDF823
:100570000480D2F81CC02046294632463B46E0475C
:10058000204606A912F072F8204602210FF080F9E9
:10059000204601210FF082F90A36204629463246CC
:1005A0000FF072F923684FEA59020092CDF80480E7
:1005B000D3F81CC02046294632463B46E047204639
:1005C00002A912F053F820460FF082FD06A811F0A0
:1005D000E9FE02A811F0E6FE0BB0BDE8F08300BF13
:1005E000F0B58BB004460E4615461F4602A8119979
:1005F00011F042FF06A8129911F03EFF204601219A
:100600000FF046F9204601210FF048F936B2204696
:1006100031466A1C0FF038F923689DF8402000929B
:1006200000220192D3F81CC0204631462A463B46A0
:10063000E047204606A912F019F820460FF048FDC1
:1006400006A811F0AFFE02A811F0ACFE0BB0F0BD91
:100650002DE9F0438BB004460E46154602A81399C7
:1006600011F00AFF06A8149911F006FF2046012197
:100670000FF00EF9204601210FF010F90FFA86F95C
:100680002DB2204649462A460FF0FEF823689DF811
:1006900048800FFA88F8CDF8008000270197D3F83A
:1006A0001CC0204649462A463C23E047204606A96E
:1006B00011F0DCFF204602210FF0EAF8204601216C
:1006C0000FF0ECF83236204631462A460FF0DCF8BF
:1006D0002368CDF800800197DF69204631462A461D
:1006E0003C23B847204602A911F0C0FF20460FF076
:1006F000EFFC06A811F056FE02A811F053FE0BB055
:10070000BDE8F083F0B587B004460E4615461F4697
:1007100002A80D9911F0B0FE204601210FF0B8F8A3
:10072000204601210FF0BAF836B2204631466A1C45
:100730000FF0AAF823689DF8302000920022019261
:10074000D3F81CC0204631462A463B46E0472046A7
:1007500002A911F08BFF20460FF0BAFC02A811F09D
:1007600021FE07B0F0BD00BFF0B587B004460E46CD
:1007700015461F4602A80D9911F07EFE2046002165
:100780000FF086F8204601210FF088F836B2204697
:1007900031466A1C0FF078F823689DF830200092EB
:1007A00000220192D3F81CC0204631462A463B461F
:1007B000E047204602A911F059FF20460FF088FCBF
:1007C00002A811F0EFFD07B0F0BD00BFF0B585B095
:1007D00005460F4616461C46072B03D00D3BDBB2E1
:1007E000012B0BD82A680823009300210191D2F82D
:1007F0001CC0284639463246E04709E003681E22FD
:10080000009200220192D3F81CC032461923E0471F
:100810005CB91823009301930123029328463946BB
:100820003246664B0EF000FF1BE0012C0BD1182363
:100830000093019301230293284639463246604BC8
:100840000EF0F2FE1BE0022C0BD118230093019353
:10085000012302932846394632465A4B0EF0E4FEF5
:100860001BE0032C0BD11823009301930123029367
:10087000284639463246544B0EF0D6FE1BE0042C77
:100880000BD1182300930193012302932846394684
:1008900032464E4B0EF0C8FE1BE0052C0BD1182340
:1008A0000093019301230293284639463246484B70
:1008B0000EF0BAFE1BE0062C0BD118230093019317
:1008C00001230293284639463246424B0EF0ACFED5
:1008D0001BE0072C0BD10823009301930123029303
:1008E0002846394632463C4B0EF09EFE1BE0082C53
:1008F0000BD1182300930193012302932846394614
:100900003246364B0EF090FE1BE0092C0BD118231B
:100910000093019301230293284639463246304B17
:100920000EF082FE1BE00A2C0BD1182300930193DA
:10093000012302932846394632462A4B0EF074FEB4
:100940001BE00B2C0BD1182300930193012302937E
:10095000284639463246244B0EF066FE1BE00C2C2E
:100960000BD11823009301930123029328463946A3
:1009700032461E4B0EF058FE1AE00D2C0BD1082308
:100980000093019301230293284639463246184BBF
:100990000EF04AFE0CE00E2C0AD1082300930193BE
:1009A00001230293284639463246124B0EF03CFE94
:1009B00028460FF08DFB05B0F0BD00BFF45F0100CD
:1009C000645F0100E85D010094600100085F0100C0
:1009D000AC5F0100C05E01003C600100305E0100C0
:1009E0005859010044600100A0590100785E0100DF
:1009F000505F01008C6001002DE9F0478AB0044689
:100A00000F46154698469DF848A00368A1F10209D3
:100A10000AF10102009200260196D3F81CC0494653
:100A2000A5F10B0208F10103E047204631460EF024
:100A30002FFF204601210EF031FF3FB220463946FC
:100A4000A5F10A020EF020FF02A8139911F014FD7F
:100A5000204602A911F00AFE2368CDF800A0012269
:100A60000192D3F81CC0204649466A1E4346E0471F
:100A7000204631460EF00CFF204631460EF00EFFA8
:100A8000204639462A460EF0FFFE06A8149911F0BA
:100A9000F3FC204606A911F0E9FD20460FF018FBF3
:100AA00006A811F07FFC02A811F07CFC0AB0BDE89A
:100AB000F08700BF08B50FF09DF908BD2DE9F04F94
:100AC00083B004469146984603688F000526009639
:100AD00000250195D3F81CC0394642460423E0475F
:100AE0002368D3F81CA0009648462946FF2201231C
:100AF00012F058F88346009648462946FF22012303
:100B000012F050F8B044CBEB080200B20090012381
:100B100001932046394612B20323D04720460FF0F6
:100B2000D7FA03B0BDE8F08F2DE9F04F85B0044649
:100B3000884692461E468F000368082200920025D0
:100B40000195D3F81CC0394632460423E047236898
:100B5000DB6902934FF0060BCDF800B050462946F2
:100B6000FF22012312F01EF803905E44CDF800B07E
:100B700050462946FF22012312F014F8039D721BF0
:100B800000B200904FF0010ACDF804A0204639468B
:100B900012B20323029DA84718F0070F226814BF62
:100BA000002301230093CDF804A0D569204607EB6C
:100BB0000A013246A84720460FF08AFA05B0BDE880
:100BC000F08F00BF2DE9F04F83B0044690461F46DA
:100BD00003688E000822009200250195D3F81CC0FE
:100BE00031463A460423E0472368D3F81CA04FF06F
:100BF0000609CDF8009040462946FF22012311F056
:100C0000D1FF8346CDF8009040462946FF220123BC
:100C100011F0C8FF4F44CBEB070200B200900195E2
:100C20002046314612B20323D04720460FF050FA37
:100C300003B0BDE8F08F00BF2DE9F04F85B004464A
:100C400088469346029303689DF838600A22009212
:100C500000250195D3F81CC0029932467823E0475D
:100C60002368DB6903934FF0280ACDF800A04046C3
:100C7000294640F2FF322B4611F094FF02990144BD
:100C80004FF00809CDF800904FF00108CDF804802E
:100C9000204609B232460223039FB8472368DB6926
:100CA000039300955846294640F2FF32534611F00F
:100CB00079FF029D05F13C073918CDF80090CDF879
:100CC0000480204609B232460223039FB8472046DB
:100CD0000FF0FEF905B0BDE8F08F00BF0122014B17
:100CE0001A70704714EBFF1F0122014B1A707047F6
:100CF00031CEFF1F704700BF10B50446024911F006
:100D00009DFB204610BD00BFEC61010010B50446FC
:100D1000044821460A22002311F0DEFC024B1C602D
:100D200010BD00BF306F0020B4EAFF1F10B50446AD
:100D300011F092FE204610BD10B41A4BD3F8843047
:100D40001A6814785A6811785A7A11409A7A02F01F
:100D50000302187A044218BF42F0040209B142F0BB
:100D6000080291109972013A0D2A17D8DFE802F0B3
:100D7000070B0F0B1613070713160B0F0B07DA6879
:100D80000132DA600AE0DA68013ADA6006E0DA682D
:100D90000232DA6002E0DA68023ADA605DF8044BA7
:100DA000704700BF3869002010B4194B9B6F1A6858
:100DB00014785A6811785A7A11409A7A02F003022C
:100DC000187A044218BF42F0040209B142F0080246
:100DD00091109972013A0D2A17D8DFE802F0070B3B
:100DE0000F0B1613070713160B0F0B07DA680132E8
:100DF000DA600AE0DA68013ADA6006E0DA680232BC
:100E0000DA6002E0DA68023ADA605DF8044B7047B3
:100E10003869002010B4194B5B6F1A6814785A684F
:100E200011785A7A11409A7A02F00302187A044231
:100E300018BF42F0040209B142F008029110997201
:100E4000013A0D2A17D8DFE802F0070B0F0B161333
:100E5000070713160B0F0B07DA680132DA600AE096
:100E6000DA68013ADA6006E0DA680232DA6002E053
:100E7000DA68023ADA605DF8044B7047386900209E
:100E800010B4194B1B6F1A6814785A6811785A7A83
:100E900011409A7A02F00302187A044218BF42F015
:100EA000040209B142F0080291109972013A0D2A28
:100EB00017D8DFE802F0070B0F0B161307071316FE
:100EC0000B0F0B07DA680132DA600AE0DA68013AE0
:100ED000DA6006E0DA680232DA6002E0DA68023AE2
:100EE000DA605DF8044B70473869002010B4194B84
:100EF000DB6E1A6814785A6811785A7A11409A7A17
:100F000002F00302187A044218BF42F0040209B149
:100F100042F0080291109972013A0D2A17D8DFE8C1
:100F200002F0070B0F0B1613070713160B0F0B0717
:100F3000DA680132DA600AE0DA68013ADA6006E07B
:100F4000DA680232DA6002E0DA68023ADA605DF802
:100F5000044B70473869002010B4194B9B6E1A6817
:100F600014785A6811785A7A11409A7A02F003027A
:100F7000187A044218BF42F0040209B142F0080294
:100F800091109972013A0D2A17D8DFE802F0070B89
:100F90000F0B1613070713160B0F0B07DA68013236
:100FA000DA600AE0DA68013ADA6006E0DA6802320A
:100FB000DA6002E0DA68023ADA605DF8044B704702
:100FC0003869002010B4194B5B6E1A6814785A689F
:100FD00011785A7A11409A7A02F00302187A044280
:100FE00018BF42F0040209B142F008029110997250
:100FF000013A0D2A17D8DFE802F0070B0F0B161382
:10100000070713160B0F0B07DA680132DA600AE0E4
:10101000DA68013ADA6006E0DA680232DA6002E0A1
:10102000DA68023ADA605DF8044B704738690020EC
:1010300010B4194B1B6E1A6814785A6811785A7AD2
:1010400011409A7A02F00302187A044218BF42F063
:10105000040209B142F0080291109972013A0D2A76
:1010600017D8DFE802F0070B0F0B1613070713164C
:101070000B0F0B07DA680132DA600AE0DA68013A2E
:10108000DA6006E0DA680232DA6002E0DA68023A30
:10109000DA605DF8044B70473869002010B4194BD2
:1010A000DB6D1A6814785A6811785A7A11409A7A66
:1010B00002F00302187A044218BF42F0040209B198
:1010C00042F0080291109972013A0D2A17D8DFE810
:1010D00002F0070B0F0B1613070713160B0F0B0766
:1010E000DA680132DA600AE0DA68013ADA6006E0CA
:1010F000DA680232DA6002E0DA68023ADA605DF851
:10110000044B70473869002010B4194B9B6D1A6866
:1011100014785A6811785A7A11409A7A02F00302C8
:10112000187A044218BF42F0040209B142F00802E2
:1011300091109972013A0D2A17D8DFE802F0070BD7
:101140000F0B1613070713160B0F0B07DA68013284
:10115000DA600AE0DA68013ADA6006E0DA68023258
:10116000DA6002E0DA68023ADA605DF8044B704750
:101170003869002010B4194B5B6D1A6814785A68EE
:1011800011785A7A11409A7A02F00302187A0442CE
:1011900018BF42F0040209B142F00802911099729E
:1011A000013A0D2A17D8DFE802F0070B0F0B1613D0
:1011B000070713160B0F0B07DA680132DA600AE033
:1011C000DA68013ADA6006E0DA680232DA6002E0F0
:1011D000DA68023ADA605DF8044B7047386900203B
:1011E00010B4194B1B6D1A6814785A6811785A7A22
:1011F00011409A7A02F00302187A044218BF42F0B2
:10120000040209B142F0080291109972013A0D2AC4
:1012100017D8DFE802F0070B0F0B1613070713169A
:101220000B0F0B07DA680132DA600AE0DA68013A7C
:10123000DA6006E0DA680232DA6002E0DA68023A7E
:10124000DA605DF8044B70473869002010B4194B20
:10125000DB6C1A6814785A6811785A7A11409A7AB5
:1012600002F00302187A044218BF42F0040209B1E6
:1012700042F0080291109972013A0D2A17D8DFE85E
:1012800002F0070B0F0B1613070713160B0F0B07B4
:10129000DA680132DA600AE0DA68013ADA6006E018
:1012A000DA680232DA6002E0DA68023ADA605DF89F
:1012B000044B70473869002010B4194B9B6C1A68B6
:1012C00014785A6811785A7A11409A7A02F0030217
:1012D000187A044218BF42F0040209B142F0080231
:1012E00091109972013A0D2A17D8DFE802F0070B26
:1012F0000F0B1613070713160B0F0B07DA680132D3
:10130000DA600AE0DA68013ADA6006E0DA680232A6
:10131000DA6002E0DA68023ADA605DF8044B70479E
:101320003869002010B4194B5B6C1A6814785A683D
:1013300011785A7A11409A7A02F00302187A04421C
:1013400018BF42F0040209B142F0080291109972EC
:10135000013A0D2A17D8DFE802F0070B0F0B16131E
:10136000070713160B0F0B07DA680132DA600AE081
:10137000DA68013ADA6006E0DA680232DA6002E03E
:10138000DA68023ADA605DF8044B70473869002089
:1013900010B4194B1B6C1A6814785A6811785A7A71
:1013A00011409A7A02F00302187A044218BF42F000
:1013B000040209B142F0080291109972013A0D2A13
:1013C00017D8DFE802F0070B0F0B161307071316E9
:1013D0000B0F0B07DA680132DA600AE0DA68013ACB
:1013E000DA6006E0DA680232DA6002E0DA68023ACD
:1013F000DA605DF8044B70473869002010B4194B6F
:10140000DB6B1A6814785A6811785A7A11409A7A04
:1014100002F00302187A044218BF42F0040209B134
:1014200042F0080291109972013A0D2A17D8DFE8AC
:1014300002F0070B0F0B1613070713160B0F0B0702
:10144000DA680132DA600AE0DA68013ADA6006E066
:10145000DA680232DA6002E0DA68023ADA605DF8ED
:10146000044B70473869002010B4194B9B6B1A6805
:1014700014785A6811785A7A11409A7A02F0030265
:10148000187A044218BF42F0040209B142F008027F
:1014900091109972013A0D2A17D8DFE802F0070B74
:1014A0000F0B1613070713160B0F0B07DA68013221
:1014B000DA600AE0DA68013ADA6006E0DA680232F5
:1014C000DA6002E0DA68023ADA605DF8044B7047ED
:1014D0003869002010B4194B5B6B1A6814785A688D
:1014E00011785A7A11409A7A02F00302187A04426B
:1014F00018BF42F0040209B142F00802911099723B
:10150000013A0D2A17D8DFE802F0070B0F0B16136C
:10151000070713160B0F0B07DA680132DA600AE0CF
:10152000DA68013ADA6006E0DA680232DA6002E08C
:10153000DA68023ADA605DF8044B704738690020D7
:1015400010B4194B1B6B1A6814785A6811785A7AC0
:1015500011409A7A02F00302187A044218BF42F04E
:10156000040209B142F0080291109972013A0D2A61
:1015700017D8DFE802F0070B0F0B16130707131637
:101580000B0F0B07DA680132DA600AE0DA68013A19
:10159000DA6006E0DA680232DA6002E0DA68023A1B
:1015A000DA605DF8044B70473869002010B4194BBD
:1015B000DB6A1A6814785A6811785A7A11409A7A54
:1015C00002F00302187A044218BF42F0040209B183
:1015D00042F0080291109972013A0D2A17D8DFE8FB
:1015E00002F0070B0F0B1613070713160B0F0B0751
:1015F000DA680132DA600AE0DA68013ADA6006E0B5
:10160000DA680232DA6002E0DA68023ADA605DF83B
:10161000044B70473869002010B4194B9B6A1A6854
:1016200014785A6811785A7A11409A7A02F00302B3
:10163000187A044218BF42F0040209B142F00802CD
:1016400091109972013A0D2A17D8DFE802F0070BC2
:101650000F0B1613070713160B0F0B07DA6801326F
:10166000DA600AE0DA68013ADA6006E0DA68023243
:10167000DA6002E0DA68023ADA605DF8044B70473B
:101680003869002010B4194B5B6A1A6814785A68DC
:1016900011785A7A11409A7A02F00302187A0442B9
:1016A00018BF42F0040209B142F008029110997289
:1016B000013A0D2A17D8DFE802F0070B0F0B1613BB
:1016C000070713160B0F0B07DA680132DA600AE01E
:1016D000DA68013ADA6006E0DA680232DA6002E0DB
:1016E000DA68023ADA605DF8044B70473869002026
:1016F00010B4194B1B6A1A6814785A6811785A7A10
:1017000011409A7A02F00302187A044218BF42F09C
:10171000040209B142F0080291109972013A0D2AAF
:1017200017D8DFE802F0070B0F0B16130707131685
:101730000B0F0B07DA680132DA600AE0DA68013A67
:10174000DA6006E0DA680232DA6002E0DA68023A69
:10175000DA605DF8044B70473869002010B4194B0B
:10176000DB691A6814785A6811785A7A11409A7AA3
:1017700002F00302187A044218BF42F0040209B1D1
:1017800042F0080291109972013A0D2A17D8DFE849
:1017900002F0070B0F0B1613070713160B0F0B079F
:1017A000DA680132DA600AE0DA68013ADA6006E003
:1017B000DA680232DA6002E0DA68023ADA605DF88A
:1017C000044B70473869002010B4194B9B691A68A4
:1017D00014785A6811785A7A11409A7A02F0030202
:1017E000187A044218BF42F0040209B142F008021C
:1017F00091109972013A0D2A17D8DFE802F0070B11
:101800000F0B1613070713160B0F0B07DA680132BD
:10181000DA600AE0DA68013ADA6006E0DA68023291
:10182000DA6002E0DA68023ADA605DF8044B704789
:101830003869002010B4194B5B691A6814785A682B
:1018400011785A7A11409A7A02F00302187A044207
:1018500018BF42F0040209B142F0080291109972D7
:10186000013A0D2A17D8DFE802F0070B0F0B161309
:10187000070713160B0F0B07DA680132DA600AE06C
:10188000DA68013ADA6006E0DA680232DA6002E029
:10189000DA68023ADA605DF8044B70473869002074
:1018A00010B4194B1B691A6814785A6811785A7A5F
:1018B00011409A7A02F00302187A044218BF42F0EB
:1018C000040209B142F0080291109972013A0D2AFE
:1018D00017D8DFE802F0070B0F0B161307071316D4
:1018E0000B0F0B07DA680132DA600AE0DA68013AB6
:1018F000DA6006E0DA680232DA6002E0DA68023AB8
:10190000DA605DF8044B70473869002010B4194B59
:10191000DB681A6814785A6811785A7A11409A7AF2
:1019200002F00302187A044218BF42F0040209B11F
:1019300042F0080291109972013A0D2A17D8DFE897
:1019400002F0070B0F0B1613070713160B0F0B07ED
:10195000DA680132DA600AE0DA68013ADA6006E051
:10196000DA680232DA6002E0DA68023ADA605DF8D8
:10197000044B70473869002010B4194B9B681A68F3
:1019800014785A6811785A7A11409A7A02F0030250
:10199000187A044218BF42F0040209B142F008026A
:1019A00091109972013A0D2A17D8DFE802F0070B5F
:1019B0000F0B1613070713160B0F0B07DA6801320C
:1019C000DA600AE0DA68013ADA6006E0DA680232E0
:1019D000DA6002E0DA68023ADA605DF8044B7047D8
:1019E0003869002010B4194B5B681A6814785A687B
:1019F00011785A7A11409A7A02F00302187A044256
:101A000018BF42F0040209B142F008029110997225
:101A1000013A0D2A17D8DFE802F0070B0F0B161357
:101A2000070713160B0F0B07DA680132DA600AE0BA
:101A3000DA68013ADA6006E0DA680232DA6002E077
:101A4000DA68023ADA605DF8044B704738690020C2
:101A500010B4194B1B681A6814785A6811785A7AAE
:101A600011409A7A02F00302187A044218BF42F039
:101A7000040209B142F0080291109972013A0D2A4C
:101A800017D8DFE802F0070B0F0B16130707131622
:101A90000B0F0B07DA680132DA600AE0DA68013A04
:101AA000DA6006E0DA680232DA6002E0DA68023A06
:101AB000DA605DF8044B70473869002010B41A4BA7
:101AC000D3F880301A6814785A6811785A7A11401D
:101AD0009A7A02F00302187A044218BF42F0040214
:101AE00009B142F0080291109972013A0D2A17D8F3
:101AF000DFE802F0070B0F0B1613070713160B0F87
:101B00000B07DA680132DA600AE0DA68013ADA6073
:101B100006E0DA680232DA6002E0DA68023ADA6095
:101B20005DF8044B704700BF3869002010B4194BB2
:101B3000DB6F1A6814785A6811785A7A11409A7AC9
:101B400002F00302187A044218BF42F0040209B1FD
:101B500042F0080291109972013A0D2A17D8DFE875
:101B600002F0070B0F0B1613070713160B0F0B07CB
:101B7000DA680132DA600AE0DA68013ADA6006E02F
:101B8000DA680232DA6002E0DA68023ADA605DF8B6
:101B9000044B70473869002038B504460D460846A6
:101BA00013F030FC024623685B68204629469847BC
:101BB0000546204610F080FD284438BD70B5044627
:101BC0000E461546084602210EF018FE2846022150
:101BD0000EF014FEA64A52F8363003F5007121606B
:101BE0000121217252F8352002F5007060606172A7
:101BF0000021E1604FF47A4101397FF4FDAF93F8A1
:101C0000003203F0010392F8002212F0010F1CBF12
:101C100043F00203DBB2A372212E00F29681DFE8CB
:101C200016F022002B0034003D0046004F00580003
:101C300061006A0073007C0085008E009700A000A0
:101C4000A900B200BB00C400CD00D600DF00E80050
:101C5000F100FA0003010C0115011E0165016E017E
:101C6000770180018A01834B1C6000208249042295
:101C70000EF022FD012369E17E4B5C6001207F496B
:101C800004220EF019FD012360E17A4B9C600220D2
:101C90007B4904220EF010FD012357E1754BDC60F7
:101CA0000320784904220EF007FD01234EE1714B19
:101CB0001C610420744902460EF0FEFC012345E13C
:101CC0006C4B5C610520714904220EF0F5FC012388
:101CD0003CE1684B9C6106206D4904220EF0ECFC4F
:101CE000012333E1634BDC6107206A4904220EF0D3
:101CF000E3FC01232AE15F4B1C62082066490422B1
:101D00000EF0DAFC012321E15A4B5C6209206349A1
:101D100004220EF0D1FC012318E1564B9C620A20EC
:101D20005F4904220EF0C8FC01230FE1514BDC6235
:101D30000B205C4904220EF0BFFC012306E14D4B51
:101D40001C630C20584904220EF0B6FC0123FDE070
:101D5000484B5C630D20554904220EF0ADFC012375
:101D6000F4E0444B9C630E20514904220EF0A4FC85
:101D70000123EBE03F4BDC630F204E4904220EF0C1
:101D80009BFC0123E2E03B4B1C6410204A490422E7
:101D90000EF092FC0123D9E0364B5C6411204749D8
:101DA00004220EF089FC0123D0E0324B9C64122007
:101DB000434904220EF080FC0123C7E02D4BDC6474
:101DC0001320404904220EF077FC0123BEE0294B8A
:101DD0001C6514203C4904220EF06EFC0123B5E082
:101DE000244B5C651520394904220EF065FC012363
:101DF000ACE0204B9C651620354904220EF05CFCBB
:101E00000123A3E01B4BDC651720324904220EF0AE
:101E100053FC01239AE0174B1C6618202E4904221C
:101E20000EF04AFC012391E0124B5C6619202B490D
:101E300004220EF041FC012388E00E4B9C661A2020
:101E4000274904220EF038FC01237FE0094BDC66B1
:101E50001B20244904220EF02FFC012376E0054BC1
:101E60001C671C20204904220EF026FC01236DE093
:101E7000286F010038690020511A0000E5190000A0
:101E8000791900000D190000A11800003518000094
:101E9000C91700005D170000F1160000851600004C
:101EA00019160000AD15000041150000D514000002
:101EB00069140000FD1300009113000025130000B9
:101EC000B91200004D120000E11100007511000070
:101ED000091100009D10000031100000C50F000026
:101EE000590F0000ED0E0000810E0000A54B5C674D
:101EF0001D20A54904220EF0DFFB012326E0A14BA3
:101F00009C671E20A14904220EF0D6FB01231DE090
:101F10009C4BDC671F209E4904220EF0CDFB012361
:101F200014E0984BC3F8804020209A4904220EF018
:101F3000C3FB01230AE0934BC3F884402120964958
:101F400004220EF0B9FB012300E000232374212DAD
:101F500000F29B81DFE815F022002B0034003D00E9
:101F600046004F00580061006A0073007C00850045
:101F70008E009700A000A900B200BB00C400CD00F5
:101F8000D600DF00E800F100FA0003010C0158015F
:101F900061016A0173017C0185018F01794B1C602D
:101FA00000207E4904220EF087FB01226EE1754B72
:101FB0005C6001207A4904220EF07EFB012265E17B
:101FC000704B9C600220774904220EF075FB0122C1
:101FD0005CE16C4BDC600320734904220EF06CFB67
:101FE000012253E1674B1C610420704902460EF048
:101FF00063FB01224AE1634B5C6105206C490422CA
:102000000EF05AFB012241E15E4B9C6106206949BA
:1020100004220EF051FB012238E15A4BDC6107200B
:10202000654904220EF048FB01222FE1554B1C624A
:102030000820624904220EF03FFB012226E1514BA9
:102040005C6209205E4904220EF036FB01221DE18C
:102050004C4B9C620A205B4904220EF02DFB0122AE
:1020600014E1484BDC620B20574904220EF024FB9C
:1020700001220BE1434B1C630C20544904220EF057
:102080001BFB012202E13F4B5C630D2050490422FF
:102090000EF012FB0122F9E03A4B9C630E204D49F1
:1020A00004220EF009FB0122F0E0364BDC630F2026
:1020B000494904220EF000FB0122E7E0314B1C6489
:1020C0001020464904220EF0F7FA0122DEE02D4BE3
:1020D0005C641120424904220EF0EEFA0122D5E0A0
:1020E000284B9C6412203F4904220EF0E5FA01229D
:1020F000CCE0244BDC6413203B4904220EF0DCFAD4
:102100000122C3E01F4B1C651420384904220EF045
:10211000D3FA0122BAE01B4B5C6515203449042236
:102120000EF0CAFA0122B1E0164B9C651620314927
:1021300004220EF0C1FA0122A8E0124BDC65172040
:102140002D4904220EF0B8FA01229FE00D4B1C66C7
:1021500018202A4904220EF0AFFA012296E0094B1A
:102160005C661920264904220EF0A6FA01228DE0B1
:10217000044B9C661A20234904220EF09DFA01228A
:1021800084E000BF38690020150E0000A90D000092
:102190002D1B0000BD1A0000390D0000511A00006F
:1021A000E5190000791900000D190000A1180000C0
:1021B00035180000C91700005D170000F116000077
:1021C0008516000019160000AD150000411500002D
:1021D000D514000069140000FD13000091130000E5
:1021E00025130000B91200004D120000E11100009B
:1021F00075110000091100009D1000003110000051
:10220000C50F0000590F0000234BDC661B2023493B
:1022100004220EF051FA012238E01F4B1C671C20EB
:102220001F4904220EF048FA01222FE01A4B5C6786
:102230001D201C4904220EF03FFA012226E0164B15
:102240009C671E20184904220EF036FA01221DE078
:10225000114BDC671F20154904220EF02DFA0122D4
:1022600014E00D4BC3F880402020114904220EF0E9
:1022700023FA01220AE0084BC3F8844021200D49CB
:1022800004220EF019FA012200E00022237C1344FC
:102290002374204670BD00BF38690020ED0E000099
:1022A000810E0000150E0000A90D00002D1B00007E
:1022B000BD1A0000390D000010B403681C78436893
:1022C0001A78437A1A40837A03F00303017A0C42A6
:1022D00018BF43F004030AB143F008039A10827256
:1022E000013B0D2B17D8DFE803F0070B0F0B16137C
:1022F000070713160B0F0B07C3680133C3600AE00F
:10230000C368013BC36006E0C3680233C36002E0F8
:10231000C368023BC3605DF8044B70472DE9F0478A
:102320000446844B40F8043B834E4FF0800831460E
:1023300042460DF0BFFF012784F89170002584F814
:102340009250C4F89450C4F89850C4F89C50C4F803
:10235000A050C4F8A45084F8A85004F1EC00294619
:10236000A82212F003FD84F8EC70022384F8ED300B
:10237000032384F8EE30042384F8EF30052384F837
:10238000F0304FF0060984F8F190072384F8F2301A
:10239000082384F8F3304FF0100C84F8F4C02023A5
:1023A00084F8F530402284F8F62084F8F780634BF7
:1023B000C4F8FC3003F50F2303F50063C4F80031C3
:1023C000A3F59E23C4F80431A3F50F23A3F6FF63FE
:1023D000C4F80831A3F5A023A3F20243C4F80C31DA
:1023E000574BC4F8103103F58033C4F8143106EBB1
:1023F000080393E80300C4F8180184F81C1184F85A
:102400001D5184F81E5184F81F5184F82051D6F8CC
:102410008C00C4F8210184F8255184F8265184F8F1
:10242000275184F8285184F82951334653F8980FDE
:10243000C4F82A0198889B79A4F82E0184F83031D9
:1024400084F8315184F832513E4B03CBC4F8330148
:10245000C4F837111B7884F83B3106F1A40393E8E4
:102460000300C4F83C01A4F8401121FA0CF184F8EF
:10247000421184F8435184F84451D6F8B000C4F8AE
:10248000450184F8495184F84A5184F84B5184F845
:102490004C5184F84D51D6F8BC00C4F84E01A4F854
:1024A0005251A4F8545184F85651274B1868C4F877
:1024B0005701264B1868C4F85B01254B1868C4F80F
:1024C0005F01244B1868C4F86301234B1868C4F8F3
:1024D000670184F8739184F874C1642384F87531BA
:1024E00084F8768184F877811E2384F87C3184F81F
:1024F0007E2184F8837184F8847184F8872184F8BC
:10250000907184F8917104F28313C4F8943104F546
:10251000C273C4F8983104F28513C4F89C3104F5F1
:10252000C373C4F8A03104F28713C4F8A431204661
:10253000BDE8F087E8600100F060010053494E00FB
:1025400043563100F8610100046201000862010095
:102550000C6201001062010014620100F0B595B038
:1025600005460C4604A88D310FF068FF684604A9A3
:102570000FF082FF204E6846314610F035F80746CE
:1025800008A8D4F898100A220FF0A8FF384608A926
:1025900010F020F8314610F027F806460CA8D4F8C1
:1025A00094100A220FF09AFF30460CA910F012F88E
:1025B000124910F019F8064610A8D4F888110A221A
:1025C0000FF08CFF304610A910F004F801462846A1
:1025D0000FF052FF10A80FF0E5FE0CA80FF0E2FE7E
:1025E00008A80FF0DFFE68460FF0DCFE04A80FF02D
:1025F000D9FE284615B0F0BD186201001C6201002A
:102600002DE9F8430446894690F8847190F8815189
:10261000C31993F8EC30ED1A05F07F0580F881516D
:1026200090F88331042B00F20481DFE803F00330DB
:102630005785CD00D0F8A060D0F89C30F61A90F8FD
:10264000850111F085F9ACA3D3E9002311F0E6F977
:1026500011F0A6FC8046304611F0ACFD074694F818
:1026600087311D4405F07F052544287911F09EFD32
:10267000A34911F0A7FE414611F0F0FD014638468E
:1026800011F0ECFD11F0B0FFC4F8A400D1E0D0F8D7
:10269000A060D0F89C30F61A90F8850111F058F936
:1026A00095A3D3E9002311F0B9F911F079FC804624
:1026B000304611F07FFD0746680011F07BFD904920
:1026C00011F080FE414611F0C9FD0146384611F077
:1026D000C5FD11F089FFC4F8A400AAE090F88701B5
:1026E000854204D3854294BF0025012500E00025E2
:1026F000D4F8A060D4F89C30F61A94F8850111F053
:1027000027F97DA3D3E9002311F088F911F048FCE3
:102710008046304611F04EFD0746284611F04AFD2E
:10272000414611F09BFD0146384611F097FD11F02E
:102730005BFFC4F8A4007CE090F88771BD42C0F054
:10274000C480D0F8A060D0F89C30F61A90F88501CB
:1027500011F0FEF868A3D3E9002311F05FF911F03E
:102760001FFC8046BD4217D806EBD670401011F012
:1027700021FD0746680011F01DFD614911F022FEA0
:10278000414611F06BFD0146384611F067FD11F02E
:102790002BFFC4F8A4004CE006EBD670401011F0FB
:1027A00009FD0746680011F005FD554911F00AFEC4
:1027B000414611F053FD0146384611F04FFD11F02E
:1027C00013FFC4F8A40034E0D0F8A060D0F89C3027
:1027D000F61A90F8850111F0BBF847A3D3E900235E
:1027E00011F01CF911F0DCFB8046E71B97F8FC3078
:1027F000B9FBF3F203FB129919F0FF0F19D1002076
:10280000FF2110F0C5F90746304611F0D3FC05460C
:10281000384611F0CFFC3A4911F0D4FD414611F091
:102820001DFD0146284611F019FD11F0DDFEC4F82A
:10283000A40094F88531002B42D0D4F8940094F889
:102840008651D4F89C70D4F8A020D4F8A410014488
:102850002944B942B8BF39469142D4BFC4F8981050
:10286000C4F8982041199142D4BFC4F88C11C4F81F
:102870008C2111F09FFC8146304611F09BFC4146B3
:1028800011F0ECFC0146484611F0E0FB06462846F4
:1028900011F090FC0146304611F0D8FB0546384651
:1028A00011F088FC06462846314611F075FE08B145
:1028B000304600E0284611F097FEC4F8880116E083
:1028C000D4F89430C4F8983011E0D0F8A060D0F873
:1028D0009C30F61A90F8850111F03AF806A3D3E976
:1028E000002311F09BF811F05BFB80463CE70020D1
:1028F000BDE8F883AFF300807B14AE47E17A843FF4
:1029000000007F43AFF300802DE9F04F99B00746F8
:102910008B4600920026049605A831463C2212F010
:1029200025FA18A840F8546D314612F00DFD3446D2
:10293000DFF8F8A071E03B5D612B0DD100238DF82D
:1029400010305AF82B20009902EB41123244537494
:102950000136F6B201935FE0622B0ED100238DF8B1
:1029600010305AF82B30009A03EB42139A19552372
:1029700053740136F6B201934EE0632B0ED100235F
:102980008DF810305AF82B30009903EB41139A1947
:10299000AA2353740136F6B201933DE0642B0ED1A5
:1029A00000238DF810305AF82B30009A03EB4213B5
:1029B0009A19FF2353740136F6B201932CE018A93B
:1029C00001F8553D3D446D7804A812F01DFC303DE2
:1029D000092D21D9002509E05AF82B30009903EB85
:1029E00041139844019A88F81120013506EB050837
:1029F0005FFA88F814A804A90FF020FD14A80FF0BE
:102A000019FE814614A80FF0CDFC5FFA89F909F18F
:102A1000FF394D45E0DB464601342546384612F085
:102A2000F1FC844287D319B0BDE8F08FF488FF1F12
:102A30002DE9F04F89B00446E84940F8041BDFF85F
:102A4000CC93802749463A460DF034FC012684F8A1
:102A50009160002584F89250C4F89450C4F89850BE
:102A6000C4F89C50C4F8A050C4F8A45084F8A850EE
:102A700004F1EC002946A82212F078F984F8EC6001
:102A80004FF0020284F8ED204FF0030384F8EE309B
:102A90004FF0040E84F8EFE04FF0050184F8F010D9
:102AA0004FF0060B84F8F1B04FF0070284F8F220E3
:102AB0004FF0080384F8F3304FF0100A84F8F4A0C4
:102AC0004FF0200E84F8F5E04FF0400884F8F680CF
:102AD00084F8F770C249C4F8FC10C24AC4F8002157
:102AE000C14BC4F80431A1F59E21A1F2FF61C4F8E5
:102AF0000811BE4AC4F80C21BD4BC4F81031BD49C1
:102B0000C4F8141109F1800292E80300C4F8180116
:102B100084F81C1184F81D5184F81E5184F81F514B
:102B200084F820514B4653F88C0F0293C4F82101CE
:102B300084F8255184F8265184F8275184F82851C7
:102B400084F82951CE465EF8980FCDF804E0C4F819
:102B50002A01BEF8041005919EF806200692A4F8FA
:102B60002E1184F8302184F8315184F83251A24B6F
:102B700003CBC4F83301C4F837111B78079384F8EA
:102B80003B3109F1A40393E80300C4F83C01A4F825
:102B9000401121FA0AF184F8421184F8435184F873
:102BA0004451CE465EF8B00FCDF80CE0C4F84501B4
:102BB00084F8495184F84A5184F84B5184F84C51B7
:102BC00084F84D51494651F8BC0F0491C4F84E01A8
:102BD000A4F85251A4F8545184F85651874A106809
:102BE000C4F85701864B1868C4F85B01DFF820E28F
:102BF000DEF80000C4F85F0182490868C4F8630188
:102C0000814A1068C4F8670184F873B184F874A12C
:102C10004FF0640384F8753184F8767184F8777125
:102C20004FF01E0E84F87CE184F87E8184F8836185
:102C300084F8846184F8878184F8906184F89161D4
:102C400004F28313C4F8943104F5C273C4F89831C4
:102C500004F28513C4F89C3104F5C373C4F8A031A1
:102C600004F28713C4F8A4315C49C4F8A81104F530
:102C7000D67049463A460DF01DFB84F8396284F857
:102C80003A52C4F83C52C4F84052C4F84452C4F812
:102C90004852C4F84C5284F8505204F52570294625
:102CA000A82212F063F884F894624FF0020284F8CC
:102CB00095224FF0030384F896324FF0040E84F807
:102CC00097E24FF0050184F8981284F899B24FF01A
:102CD000070284F89A224FF0080384F89B3284F8A4
:102CE0009CA24FF0200E84F89DE284F89E8284F826
:102CF0009F723B49C4F8A4123A4AC4F8A8223A4B3E
:102D0000C4F8AC32A1F59E21A1F2FF61C4F8B01263
:102D1000364AC4F8B422364BC4F8B8323549C4F840
:102D2000BC1209F1800292E80300C4F8C00284F8E2
:102D3000C41284F8C55284F8C65284F8C75284F885
:102D4000C852029B1868C4F8C90284F8CD5284F8AE
:102D5000CE5284F8CF5284F8D05284F8D152DDF8A4
:102D600004E0DEF80000C4F8D2020599A4F8D612F7
:102D7000069A84F8D82284F8D95284F8DA521E4B85
:102D800003CBC4F8DB02C4F8DF12079B84F8E332FC
:102D900009F1A40E9EE80300C4F8E402A4F8E812C6
:102DA00021FA0AF184F8EA1284F8EB5284F8EC5222
:102DB00003990868C4F8ED0284F8F15284F8F252DD
:102DC00084F8F35284F8F45284F8F552049A1068A7
:102DD000C4F8F602A4F8FA521CE000BFE860010053
:102DE00053494E005341570053515200524E440034
:102DF0004356310043563200F8610100046201007D
:102E0000086201001062010014620100F06001001C
:102E10000C620100A4F8FC5284F8FE52EA4B1868D8
:102E2000C4F8FF02DFF8D0E3DEF80000C4F80303C3
:102E3000E6490868C4F80703E54A1068C4F80B03BC
:102E4000E44B1868C4F80F0384F81BB384F81CA380
:102E50004FF0640E84F81DE384F81E7384F81F732A
:102E60004FF01E0184F8241384F8268384F82B6322
:102E700084F82C6384F82F8384F8386384F83963EA
:102E800004F22B33C4F83C3304F54B73C4F84033DD
:102E900004F22D33C4F8443304F22E33C4F848331B
:102EA00004F22F33C4F84C33CB4AC4F8502304F552
:102EB000557049463A460DF0FDF984F8E16384F80F
:102EC000E253C4F8E453C4F8E853C4F8EC53C4F82C
:102ED000F053C4F8F45384F8F85304F23C40294604
:102EE000A82211F043FF84F83C644FF0020384F8F9
:102EF0003D344FF0030E84F83EE44FF0040184F8B3
:102F00003F144FF0050284F8402484F841B44FF098
:102F1000070384F842344FF0080E84F843E484F841
:102F200044A44FF0200184F8451484F8468484F8C2
:102F30004774AA4AC4F84C24A94BC4F85034A94990
:102F4000C4F85414A2F59E22A2F2FF62C4F85824D9
:102F5000A54BC4F85C34A549C4F86014A44AC4F86D
:102F6000642409F1800393E80300C4F8680484F83A
:102F70006C1484F86D5484F86E5484F86F5484F89B
:102F80007054DDF808E0DEF80000C4F8710484F83D
:102F9000755484F8765484F8775484F8785484F817
:102FA000795401990868C4F87A04059AA4F87E2433
:102FB000069984F8801484F8815484F882548D4BE7
:102FC00003CBC4F88304C4F88714079B84F88B34BC
:102FD00009F1A40E9EE80300C4F88C04A4F8901430
:102FE00021FA0AF184F8921484F8935484F89454E2
:102FF00003990868C4F8950484F8995484F89A549D
:1030000084F89B5484F89C5484F89D54049A106866
:10301000C4F89E04A4F8A254A4F8A45484F8A654B6
:10302000694B1868C4F8A704DFF8CCE1DEF80000AB
:10303000C4F8AB0465490868C4F8AF04644A106872
:10304000C4F8B304634B1868C4F8B70484F8C3B475
:1030500084F8C4A44FF0640E84F8C5E484F8C67400
:1030600084F8C7744FF01E0184F8CC1484F8CE8421
:1030700084F8D36484F8D46484F8D78484F8E06452
:1030800084F8E16404F2D343C4F8E43404F2D44392
:10309000C4F8E83404F2D543C4F8EC3404F2D6435F
:1030A000C4F8F03404F2D743C4F8F4344A4AC4F8FC
:1030B000F82404F2FC4049463A460DF0FBF884F847
:1030C000896584F88A55C4F88C55C4F89055C4F8BD
:1030D0009455C4F89855C4F89C5584F8A05504F24A
:1030E000E4502946A82211F041FE84F8E4654FF02F
:1030F000020384F8E5354FF0030E84F8E6E54FF05F
:10310000040184F8E7154FF0050284F8E82584F8F7
:10311000E9B54FF0070384F8EA354FF0080E84F85C
:10312000EBE584F8ECA54FF0200184F8ED1584F868
:10313000EE8584F8EF75294AC4F8F425284BC4F8C5
:10314000F8352849C4F8FC15A2F59E22A2F2FF62C8
:10315000C4F80026244BC4F804362449C4F80816E1
:10316000234AC4F80C2609F1800393E80300C4F84D
:10317000100684F8141684F8155684F8165684F848
:10318000175684F81856DDF808E0DEF80000C4F899
:10319000190684F81D5684F81E5604F21F6303F8BE
:1031A000015B03F8015B1D70CA465AF8980FC4F81A
:1031B0002206BAF8041003919AF806200492A4F8A3
:1031C000261684F8282619E0046201000C6201002A
:1031D0001062010014620100E860010053494E00D2
:1031E0005341570053515200524E44004356310050
:1031F00043563200F86101000862010084F8295644
:1032000084F82A56E94B03CBC4F82B06C4F82F16D2
:103210001B78059384F8333609F1A40393E803007F
:10322000C4F83406A4F83816090C84F83A1684F861
:103230003B5684F83C56CE465EF8B00FCDF804E01D
:10324000C4F83D0684F8415684F8425684F8435643
:1032500084F8445684F84556494651F8BC0F02910B
:10326000C4F84606A4F84A56A4F84C5684F84E56BC
:10327000CF4A1068C4F84F06CE4B1868C4F85306FE
:10328000DFF858E3DEF80000C4F85706CA490868BA
:10329000C4F85B06C94A1068C4F85F0684F86BB6C8
:1032A0004FF0100384F86C364FF0640E84F86DE62E
:1032B00084F86E7684F86F764FF01E0184F87416E9
:1032C00084F8768684F87B6684F87C6684F87F864A
:1032D00084F8886684F8896604F27B63C4F88C36C7
:1032E00004F27C63C4F8903604F27D63C4F894362B
:1032F00004F27E63C4F8983604F27F63C4F89C3607
:10330000AF4AC4F8A02604F2A46049463A460CF03D
:10331000D1FF84F8316784F83257C4F83457C4F8C1
:103320003857C4F83C57C4F84057C4F8445784F899
:10333000485704F28C702946A82211F017FD84F832
:103340008C674FF0020384F88D374FF0030E84F83A
:103350008EE74FF0040184F88F174FF0050284F8D0
:10336000902784F891B74FF0070384F892374FF015
:10337000080E84F893E74FF0100184F894174FF08B
:10338000200284F8952784F8968784F897778D4BE8
:10339000C4F89C378C49C4F8A0178C4AC4F8A427F9
:1033A000A3F59E23A3F2FF63C4F8A8378849C4F8A5
:1033B000AC17884AC4F8B027874BC4F8B43709F172
:1033C000800E9EE80300C4F8B80784F8BC1784F8A0
:1033D000BD5784F8BE5784F8BF5784F8C057494694
:1033E00051F88C0F0691C4F8C10784F8C55784F8CA
:1033F000C65784F8C75784F8C85784F8C957DAF80D
:103400000000C4F8CA07039AA4F8CE27049984F8E8
:10341000D01784F8D15784F8D257644B03CBC4F843
:10342000D307C4F8D717059B84F8DB370EF1240EB9
:103430009EE80300C4F8DC07A4F8E017090C84F840
:10344000E21784F8E35784F8E45701990868C4F850
:10345000E50784F8E95784F8EA5784F8EB5784F8CD
:10346000EC5784F8ED57029A1068C4F8EE07A4F8F8
:10347000F257A4F8F45784F8F6574D4B1868C4F87F
:10348000F707DFF830E1DEF80000C4F8FB07534926
:103490000868C4F8FF07484A1068C4F80308474B97
:1034A0001868C4F8070884F813B84FF0100E84F8B1
:1034B00014E84FF0640184F8151884F8167884F83D
:1034C00017784FF01E0284F81C2884F81E8884F8B0
:1034D000236884F8246884F8278884F8306884F89E
:1034E000316804F62303C4F8343804F62403C4F81E
:1034F000383804F62503C4F83C3804F62603C4F82B
:10350000403804F62703C4F844382D4BC4F8483833
:1035100004F64C0049463A460CF0CCFE84F8D968D3
:1035200084F8DA58C4F8DC58C4F8E058C4F8E45811
:10353000C4F8E858C4F8EC5884F8F05804F634108D
:103540002946A82211F012FC84F834694FF0020ECB
:1035500084F835E94FF0030184F836194FF004027E
:1035600084F837294FF0050384F8383984F839B9DD
:103570004FF0070E84F83AE94FF0080184F83B1940
:103580004FF0100284F83C294FF0200384F83D39B5
:1035900084F83E8984F83F790A49C4F844190A4AF4
:1035A000C4F84829094BC4F84C3919E0F861010006
:1035B000046201000862010010620100146201004F
:1035C000E860010053494E005341570053515200E7
:1035D000524E440043563100435632000C62010003
:1035E000A1F59E21A1F2FF61C4F85019E94AC4F87F
:1035F0005429E94BC4F85839E849C4F85C1909F171
:10360000800292E80300C4F8600984F8641984F821
:10361000655984F8665984F8675984F86859069B97
:103620001868C4F8690984F86D5984F86E5984F8EB
:103630006F5984F8705984F87159DAF80000C4F8A9
:1036400072090399A4F87619049A84F8782984F801
:10365000795984F87A59D24B03CBC4F87B09C4F862
:103660007F19059B84F8833909F1A40E9EE80300B5
:10367000C4F88409A4F88819090C84F88A1984F814
:103680008B5984F88C5901990868C4F88D0984F81D
:10369000915984F8925984F8935984F8945984F88C
:1036A0009559029A1068C4F89609A4F89A59A4F892
:1036B0009C5984F89E59BB4B1868C4F89F09DFF8E1
:1036C00004E3DEF80000C4F8A309B7490868C4F8A9
:1036D000A709B64A1068C4F8AB09B54B1868C4F816
:1036E000AF0984F8BBB94FF0100E84F8BCE94FF075
:1036F000640184F8BD1984F8BE7984F8BF794FF06D
:103700001E0284F8C42984F8C68984F8CB6984F839
:10371000CC6984F8CF8984F8D86984F8D96904F62B
:10372000CB13C4F8DC3904F6CC13C4F8E03904F642
:10373000CD13C4F8E43904F6CE13C4F8E83904F61E
:10374000CF13C4F8EC399B4BC4F8F03904F6F410ED
:1037500049463A460CF0AEFD84F8816A84F8825AF4
:10376000C4F8845AC4F8885AC4F88C5AC4F8905AD9
:10377000C4F8945A84F8985A04F6DC202946A82202
:1037800011F0F4FA84F8DC6A4FF0020E84F8DDEAF6
:103790004FF0030184F8DE1A4FF0040284F8DF2AA8
:1037A0004FF0050384F8E03A84F8E1BA4FF0070ED1
:1037B00084F8E2EA4FF0080184F8E31A4FF01002AF
:1037C00084F8E42A4FF0200384F8E53A84F8E68A86
:1037D00084F8E77A7849C4F8EC1A784AC4F8F02AF1
:1037E000774BC4F8F43AA1F59E21A1F2FF61C4F829
:1037F000F81A684AC4F8FC2A674BC4F8003B6749CA
:10380000C4F8041B09F1800292E80300C4F8080B15
:1038100084F80C1B84F80D5B84F80E5B84F80F5B56
:1038200084F8105B069B1868C4F8110B84F8155BCC
:1038300084F8165B84F8175B84F8185B84F8195BCE
:10384000DAF80000C4F81A0B0399A4F81E1B049AB6
:1038500084F8202B84F8215B84F8225B504B03CB47
:10386000C4F8230BC4F8271B059B84F82B3B09F1F4
:10387000A40E9EE80300C4F82C0BA4F8301B090C1E
:1038800084F8321B84F8335B84F8345B0199086850
:10389000C4F8350B84F8395B84F83A5B84F83B5BF9
:1038A00084F83C5B84F83D5B029A1068C4F83E0BD8
:1038B000A4F8425BA4F8445B84F8465B394B186873
:1038C000C4F8470BDFF8FCE0DEF80000C4F84B0B4F
:1038D00035490868C4F84F0B344A1068C4F8530BD4
:1038E000334B1868C4F8570B84F863BB4FF0100AC9
:1038F00084F864AB4FF0640E84F865EB84F8667B63
:1039000084F8677B4FF01E0184F86C1B84F86E8B83
:1039100084F8736B84F8746B84F8778B84F8806B0D
:1039200084F8816B04F67333C4F8843B04F6743373
:10393000C4F8883B04F67533C4F88C3B04F6763340
:10394000C4F8903B04F67733C4F8943B194AC4F8A2
:10395000982B04F69C3049463A460CF0ABFC84F8B0
:10396000296C84F82A5CC4F82C5CC4F8305CC4F878
:10397000345CC4F8385CC4F83C5C84F8405C04F601
:1039800084402946A82211F0F1F984F8846C4FF0A4
:10399000020319E0524E44004356310043563200B0
:1039A000F8610100046201000C6201001062010074
:1039B00014620100E860010053494E005341570072
:1039C000535152000862010084F8853C4FF0030E09
:1039D00084F886EC4FF0040184F8871C4FF0050250
:1039E00084F8882C84F889BC4FF0070384F88A3C5B
:1039F0004FF0080E84F88BEC84F88CAC4FF020016B
:103A000084F88D1C84F88E8C84F88F7CE74AC4F887
:103A1000942CE74BC4F8983CE649C4F89C1CA2F5EA
:103A20009E22A2F2FF62C4F8A02CE34BC4F8A43C8F
:103A3000E249C4F8A81CE24AC4F8AC2C09F180039E
:103A400093E80300C4F8B00C84F8B41C84F8B55CA7
:103A500084F8B65C84F8B75C84F8B85CCE465EF84F
:103A60008C0FCDF808E0C4F8B90C84F8BD5C84F87C
:103A7000BE5C84F8BF5C84F8C05C84F8C15C4946D5
:103A800051F8980F0191C4F8C20C8A88059291F8F8
:103A900006E0CDF818E0A4F8C62C84F8C8EC84F849
:103AA000C95C84F8CA5CC74B03CBC4F8CB0CC4F820
:103AB000CF1C1B78079384F8D33C09F1A40292E849
:103AC0000300C4F8D40CA4F8D81C21FA0AF184F835
:103AD000DA1C84F8DB5C84F8DC5C4B4653F8B00FEE
:103AE0000393C4F8DD0C84F8E15C84F8E25C84F8AC
:103AF000E35C84F8E45C84F8E55CCE465EF8BC0FD9
:103B0000CDF810E0C4F8E60CA4F8EA5CA4F8EC5C8C
:103B100084F8EE5CAC490868C4F8EF0CAB4A106856
:103B2000C4F8F30CAA4B1868C4F8F70CDFF8ACE241
:103B3000DEF80000C4F8FB0CA6490868C4F8FF0CC6
:103B400084F80BBD84F80CAD4FF0640284F80D2DA1
:103B500084F80E7D84F80F7D4FF01E0384F8143D29
:103B600084F8168D84F81B6D84F81C6D84F81F8D05
:103B700084F8286D84F8296D04F61B53C4F82C3D95
:103B800004F61C53C4F8303D04F61D53C4F8343D0C
:103B900004F61E53C4F8383D04F61F53C4F83C3DE8
:103BA0008D49C4F8401D04F6445049463A460CF08D
:103BB00081FB84F8D16D84F8D25DC4F8D45DC4F87B
:103BC000D85DC4F8DC5DC4F8E05DC4F8E45D84F859
:103BD000E85D04F62C602946A82211F0C7F884F8A5
:103BE0002C6E4FF0020284F82D2E4FF0030384F860
:103BF0002E3E4FF0040E84F82FEE4FF0050184F8AE
:103C0000301E84F831BE4FF0070284F8322E4FF098
:103C1000080384F8333E84F834AE4FF0200E84F865
:103C200035EE84F8368E84F8377E6049C4F83C1E41
:103C30005F4AC4F8402E5F4BC4F8443EA1F59E2174
:103C4000A1F2FF61C4F8481E5B4AC4F84C2E5B4BDE
:103C5000C4F8503E5A49C4F8541E09F1800292E853
:103C60000300C4F8580E84F85C1E84F85D5E84F886
:103C70005E5E84F85F5E84F8605E029B1868C4F83C
:103C8000610E84F8655E84F8665E84F8675E84F889
:103C9000685E84F8695EDDF804E0DEF80000C4F8D0
:103CA0006A0E0599A4F86E1E069A84F8702E84F8A0
:103CB000715E84F8725E434B03CBC4F8730EC4F894
:103CC000771E079B84F87B3E09F1A40E9EE8030053
:103CD000C4F87C0EA4F8801E21FA0AF184F8821E32
:103CE00084F8835E84F8845E03990868C4F8850EBE
:103CF00084F8895E84F88A5E84F88B5E84F88C5E32
:103D000084F88D5E049A1068C4F88E0EA4F8925E52
:103D1000A4F8945E84F8965E2B4B1868C4F8970E4E
:103D2000DFF8A8E0DEF80000C4F89B0E2849086818
:103D3000C4F89F0E294A1068C4F8A30E254B1868D2
:103D4000C4F8A70E84F8B3BE84F8B4AE4FF0640E86
:103D500084F8B5EE84F8B67E84F8B77E4FF01E0185
:103D600084F8BC1E84F8BE8E84F8C36E84F8C46EDA
:103D700084F8C78E84F8D06E84F8D16E04F6C363DD
:103D8000C4F8D43E04F6C463C4F8D83E04F6C56350
:103D9000C4F8DC3E04F6C663C4F8E03E04F6C7632C
:103DA000C4F8E43E0C4AC4F8E82E19E053494E002A
:103DB0005341570053515200524E44004356310074
:103DC00043563200F86101000462010008620100FC
:103DD0000C62010014620100E86001001062010041
:103DE00004F6EC6049463A460CF064FA84F8796FC0
:103DF00084F87A5FC4F87C5FC4F8805FC4F8845F9D
:103E0000C4F8885FC4F88C5F84F8905F04F6D470BF
:103E10002946A82210F0AAFF84F8D46F4FF00203BD
:103E200084F8D53F4FF0030E84F8D6EF4FF004012D
:103E300084F8D71F4FF0050284F8D82F84F8D9BF33
:103E40004FF0070384F8DA3F4FF0080E84F8DBEFF9
:103E500084F8DCAF4FF0200184F8DD1F84F8DE8F9A
:103E600084F8DF7FE14AC4F8E42FE14BC4F8E83F6F
:103E7000E049C4F8EC1FA2F59E22A2F2FF62C4F84A
:103E8000F02FDD4BC4F8F43FDC49C4F8F81FDC4ADE
:103E9000C4F8FC2F04F5805309F1800E9EE803005E
:103EA000186019715D719D71DD711D7241F2090219
:103EB000A31802990868A0501D715D719D71DD7194
:103EC0001D7241F21202A318DDF804E0DEF80000D2
:103ED000A05005999980069A9A71DD711D7241F280
:103EE0001B0E04EB0E02C74B03CB44F80E005160CF
:103EF000079B137241F22402A31809F1A40E9EE855
:103F00000300A050998021FA0AF19971DD711D72A8
:103F100041F22D02A31803990868A0501D715D712C
:103F20009D71DD711D7241F23602A318DDF810E0BB
:103F3000DEF80000A0509D80DD801D72B249086847
:103F400041F23F03E050B14A106841F24303E050B0
:103F5000AF4B186841F24703E050DFF8E4E2DEF8C7
:103F6000000041F24B03E050AA49086841F24F03B8
:103F7000E05041F25B0304F803B041F25C0304F843
:103F800003A041F25D034FF06402E25441F25E038C
:103F9000E75441F25F03E75441F264034FF01E011E
:103FA000E15441F2660304F8038041F26B03E654E6
:103FB00041F26C03E65441F26F0304F8038041F2CE
:103FC0007803E65441F27903E65404F6E86303F219
:103FD000831141F27C02A15004F5845203F5C271B1
:103FE000116003F2851141F28402A15003F5C371FF
:103FF00041F28802A15003F2871341F28C02A350D0
:1040000004F584505044FEF789F92B4641F23822DA
:10401000A554324641F24521665441F2482164508C
:1040200004F5D47041F24C21605004F5547041F213
:104030005021605004F59F6041F25421605004F516
:10404000D46041F25821605004F5546041F25C2183
:10405000605004F5935104F51F60086004F64800B1
:1040600041F26421605004F6983041F268216050BA
:1040700004F6E86041F26C21605041F27025661947
:10408000494651F8C80F60518988B180624D03CD0F
:10409000C4F88400C4F8881060490868C4F88D002A
:1040A00084F89120122184F89210C4F89410C4F876
:1040B0009810FF26C4F8A060C4F89C30052184F84D
:1040C000A81084F8833184F8843184F8853184F829
:1040D000863184F88781524F03CFC4F82C02C4F88C
:1040E0003012397884F834124E490868C4F8350221
:1040F00084F8392284F83A22C4F83C22C4F84022D9
:104100000727C4F84872C4F8443284F8502284F86F
:104110002B3384F82C3384F82D3384F82E3384F831
:104120002F8341490868C4F8D403097984F8D81367
:104130003E490868C4F8DD0384F8E123022184F8CD
:10414000E213C4F8E413C4F8E813C4F8F073C4F835
:10415000EC3384F8F82384F8D33484F8D43484F826
:10416000D53484F8D63484F8D784314F03CFC4F8DB
:104170007C05C4F88015397884F884152D490868C1
:10418000C4F8850584F88925642184F88A15C4F863
:104190008C15C4F890157F21C4F89815C4F894358F
:1041A00084F8A02584F87B3684F87C3684F87D3644
:1041B00084F87E3684F87F861F4F03CFC4F8240727
:1041C000C4F82817397884F82C171C490868C4F8F3
:1041D0002D0784F831270A2784F83277C4F834771A
:1041E000C4F83877C4F840672CE000BF53494E004C
:1041F0005341570053515200524E44004356310030
:1042000043563200F86101000462010008620100B7
:104210000C62010014620100346201003C62010082
:10422000406201004C6201005062010058620100CE
:104230005C620100686201006C620100786201004A
:1042400010620100C4F83C3784F8482784F823380A
:1042500084F8243884F8253884F8263884F82788A8
:104260005C490868C4F8CC08097984F8D0185A4920
:104270000868C4F8D50884F8D92884F8DA38C4F86E
:10428000DC38C4F8E038C4F8E868C4F8E43884F8E6
:10429000F02884F8CB3984F8CC3984F8CD3984F807
:1042A000CE3984F8CF89DFF848C1BCE80300C4F8F0
:1042B0006C0FC4F8701F49490868C4F8750F84F87A
:1042C000792F84F87A3FC4F87C3FC4F8803FC4F863
:1042D000886FC4F8843F84F8902F41F26B016354D7
:1042E00041F26C01635441F26D01635441F26E017D
:1042F000635441F26F0104F8018039490868C4F839
:10430000740AC4F87D0A84F8812A84F8823AC4F8D1
:10431000843AC4F8883AC4F8906AC4F88C3A84F8AD
:10432000982A84F8733B84F8743B84F8753B84F8CE
:10433000763B84F8778BDFF8BCC0BCE80300C4F898
:104340001C0CC4F8201C27490868C4F8250C84F804
:10435000292C84F82A7CC4F82C7CC4F8307CC4F85E
:10436000386CC4F8343C84F8402C84F81B3D84F845
:104370001C3D84F81D3D84F81E3D84F81F8D1A4FA6
:1043800003CFC4F8C40DC4F8C81D397884F8CC1D17
:1043900016490868C4F8CD0D84F8D12D082184F899
:1043A000D21DC4F8D41DC4F8D81DC4F8E06DC4F8FB
:1043B000DC3D84F8E82D84F8C33E84F8C43E84F8DC
:1043C000C53E84F8C63E84F8C78E204609B0BDE8D5
:1043D000F08F00BF7C6201008462010090620100E6
:1043E00094620100A0620100A4620100B0620100B9
:1043F00088620100986201002DE9F84F0024964B75
:104400001C600120954B1860954B1C60954BD3F8B0
:1044100098100EF0BDFB944B1860944B197801FB7B
:1044200000F1934B1960934B1C60934B1C60934BB2
:104430001C60934B1C6022460B468C4280F2D1805C
:10444000DFF860B24FF07E5A4FF0804800272546D3
:104450009B1A8C490B60894B1A68874B1B689A42E0
:1044600040F090800022854B1A60012064210EF0FC
:104470008FFB7E4B1B78834A126893420BDDC0B2E0
:104480008149D1F89810884205DA804BC3F800A022
:10449000794B1A606BE058080FF08CFE044610F060
:1044A000A3F810F0010F20460CBF514641460FF013
:1044B000CBFD4FF07C510FF0D1FE0FF05BFA0022E4
:1044C000734B0FF0ABFA0FF043FD014600200EF0E6
:1044D0005FFB0FF06FFE59460FF074FF01460FF0BF
:1044E000B5FD51460FF0B2FD10F07EF80FF062FE00
:1044F0000446664B1860634B18680FF05BFE064677
:104500002046314610F066F898B1204641460FF03B
:104510009BFD0446394610F05DF808B904F10044EB
:104520002046314610F056F808B12046EEE7574BCA
:104530001C600120574BD3F898100EF029FB04465D
:104540004D4B18604F4B18680FF034FE064620465E
:104550000FF030FE4D4B19680FF080FE314610F021
:1045600039F820B1494B1E600122434B1A60474B7A
:10457000186810F039F828443C4B1B7890FBF3F591
:1045800003FB1505414B1C682046394610F022F804
:1045900090B1314ED6F80090204610F025F83E4BF1
:1045A00043F8290009F1010333602C4B1A683449A0
:1045B00041F8225001321A602E4E30680FF0FAFD99
:1045C000014620460FF042FD10F00EF830602B4BF4
:1045D0001A6801321A600246254B1B689842FFF6A2
:1045E00037AF1D4BD3F80080B8F1000F2DDD1F4B06
:1045F00018781B4B1A6800239C46DFF89C90DFF864
:1046000080B09A4614E0334493FBF0F700FB173375
:1046100041F8043F0132531BA342F4DB0CF1010CBF
:104620005FFA8CFC6346C44502DB0D4B1A600CE05C
:1046300059F82340002CF1DD1BF823601546511E6C
:10464000164B03EB81015346DDE7054B1A68144B0B
:104650001A60BDE8F88F00BF98C5FF1F1C89FF1FB7
:10466000D0EAFF1F3CCEFF1F34CEFF1F5C89FF1F27
:1046700060C4FF1FE4CFFF1F18CEFF1F08C4FF1F39
:10468000AC380020A443002044660020DC88FF1FD3
:104690000000244094E2FF1F74E5FF1FE06100204A
:1046A0006CC2FF1F0000204170B5654C654B93E85C
:1046B0000300C4F88400A4F88810090C84F88A1058
:1046C000614B1868C4F88D00012284F891200423FE
:1046D00084F89230C4F89430C4F898301126C4F8A5
:1046E000A060C4F89C2084F8A820002384F88331BB
:1046F00084F8843184F8853184F88631402584F843
:104700008751524952480468A1F88440240C81F82A
:10471000864004888078A1F88D4081F88F0081F868
:10472000912081F89230C1F89430C1F8983002207D
:10473000C1F8A000C1F89C3081F8A82081F883312D
:1047400081F8843181F8853181F8863181F887518B
:10475000404C414903C9C4F88400A4F88810090CEE
:1047600084F88A103D490868C4F88D0084F89120C7
:1047700084F89220C4F89420C4F89820C4F8A0606B
:10478000C4F89C2084F8A82084F8833184F884310C
:1047900084F8853184F8863184F88751304C31496A
:1047A00003C9C4F88400A4F88810090C84F88A109E
:1047B0002D490868C4F88D0084F8912084F892206F
:1047C000C4F89420C4F898206321C4F8A010C4F859
:1047D0009C3084F8A82084F8833184F8843184F8EC
:1047E000853184F8863184F88751204C204903C9EB
:1047F000C4F88400A4F88810090C84F88A101D49B4
:104800000868C4F88D0084F8912084F89220C4F8D8
:104810009420C4F898200821C4F8A010C4F89C2063
:1048200084F8A82084F8833184F8843184F88531B1
:1048300084F8863184F88751FFF7DEFD70BD00BF34
:1048400084240020B4620100D8620100A0FDFF1F93
:10485000BC6201003CCEFF1FC0620100DC620100AF
:1048600044660020C8620100E062010094E2FF1F7C
:10487000D0620100E462010008B5054B1B6890FBA3
:10488000F3F202FB130008B9FFF7B6FD08BD00BF45
:104890006CC2FF1F70B41C4A41F239231468E5183A
:1048A0001A490868E050097929715468E5181849CF
:1048B0000868E0508988A9809468E5181549086857
:1048C000E05009792971D568EC1813490868E85057
:1048D00088888979A080A1711669F5180F4C03CCDE
:1048E000F0506960217829725469E5180C4908680C
:1048F000E0508988A9809169CC180A4A1068C8508C
:104900009388A38070BC7047B488FF1FE8620100E1
:10491000F0620100F8620100006301000863010019
:10492000146301001C6301002DE9F04198B000AF51
:104930006A4C07F1100021460DF080FD07F12000C0
:1049400067490DF07BFD07F1100007F120010DF024
:1049500041FE21460DF048FE044607F13000614952
:104960000DF06CFD204607F130010DF033FE5E497D
:104970000DF03AFE014638460DF07EFD07F130009D
:104980000DF010FD07F120000DF00CFD07F11000F7
:104990000DF008FDBA6802F1080323F00703ADEB40
:1049A000030D38466946013200230DF02BFE4F4CB3
:1049B0002046694608F0E6FE07F1400021466A46B7
:1049C000132308F043FE4A4B97F844201A71BA6C3F
:1049D0009A6097F84C201A7307F1600252F8135D41
:1049E00054689068C3F80D50C3F81140C3F815001F
:1049F000127B5A76FA6DDA6107F1400008F06CFC20
:104A000000253B4C3B4E41F25C28AB5953F8083033
:104A10002046D3F894100DF09BFE23681B682046B7
:104A200023219847AB5903F593531B682046D3F8CD
:104A300094100DF08DFE23681B68204623219847B3
:104A4000AB5941F264229B582046D3F894100DF0E4
:104A50007FFE23681B68204623219847AB5941F20B
:104A600068229B582046D3F894100DF071FE2368FD
:104A70001B68204623219847AB5941F26C229B5872
:104A80002046D3F894100DF063FE23681B6820467F
:104A90002321984723681B6820462D219847043519
:104AA0001C2DB2D1124C23681B6820462421984744
:104AB000114E357805EB4500104B03EB40000949DA
:104AC00010F042FC01353570204608F02FFC3846C6
:104AD0000DF068FC6037BD46BDE8F08180630100E1
:104AE00084630100D488FF1F8C630100C06900202B
:104AF00030C4FF1FB488FF1FE8CFFF1FE063002012
:104B00002DE9F04F9DB000AF40B9884A137888492D
:104B10000B70591C1170874A136003E0844B1A789C
:104B2000844B1A60844C07F1100021460DF086FC7E
:104B300007F1200081490DF081FC07F1100007F119
:104B400020010DF047FD21460DF04EFD054607F111
:104B500030007B490DF072FC284607F130010DF062
:104B600039FD21460DF040FD044607F14000714B30
:104B700019680A220DF0B2FC204607F140010DF041
:104B800029FD70490DF030FD014638460DF074FCEA
:104B900007F140000DF006FC07F130000DF002FCBB
:104BA00007F120000DF0FEFB07F110000DF0FAFBFD
:104BB000BA6802F1080323F00703ADEB030D384692
:104BC0006946013200230DF01DFD5F4C2046694609
:104BD00008F0D8FD07F1500021466A46132308F07B
:104BE00035FD5A4B97F854201A71BA6D9A6097F8B0
:104BF0005C201A7307F1700252F8135D54689068D4
:104C0000C3F80D50C3F81140C3F81500127B5A7653
:104C1000FA6EDA6107F1500008F05EFB00254B4E9A
:104C2000DFF82C8134467BE055F808300AF29249CF
:104C300053F829302046D3F894100DF089FD3368DD
:104C40001B6820465946984755F8083053F82930D4
:104C5000204693F883110A2200230DF03DFD3368AE
:104C60001B6820462321984755F8083053F829300F
:104C7000204693F884110A2200230DF02DFD33689D
:104C80001B6820462321984755F8083053F82930EF
:104C9000204693F885110A2200230DF01DFD33688C
:104CA0001B6820462321984755F8083053F82930CF
:104CB000204693F886110A2200230DF00DFD33687B
:104CC0001B6820462321984755F8083053F82930AF
:104CD000204693F887110A2200230DF0FDFC33686B
:104CE0001B6820462321984755F80830204641F29A
:104CF0003822995C0A2200230DF0EEFC33681B6811
:104D000020463C2198470AF1010ABAF10A0F8BD1DB
:104D100033681B6820467C21984704351C2D19D028
:104D20004FF0000A4FF02B0B7EE700BF30CEFF1F85
:104D3000A099FF1F2CC4FF1F806301009463010032
:104D4000A06301008C630100C069002030C4FF1F14
:104D5000B488FF1F6B4803681B683E2198476A4C64
:104D600004F64808674D2A262846D4F894100DF01A
:104D7000EFFC2B681B6828463146984704F5D4742D
:104D80004445F1D15F4803681B68262198475F4D71
:104D900005F59F695B4C4FF03F080A262046D5F881
:104DA00094100DF0D5FC23681B68204641469847B7
:104DB000204695F88311324600230DF08DFC2368C0
:104DC0001B68204621219847204695F884113246D9
:104DD00000230DF081FC23681B68204621219847A1
:104DE000204695F88511324600230DF075FC2368A6
:104DF0001B68204621219847204695F886113246A7
:104E000000230DF069FC23681B6820462121984788
:104E1000204695F88711324600230DF05DFC23688B
:104E20001B6820462121984705F5D4754D45B5D11D
:104E3000344803681B68262198470025314C344EBE
:104E40004FF04008AB592046D3F894100DF080FC89
:104E500023681B68204641469847AB59204693F883
:104E600083110A2200230DF037FC23681B682046BB
:104E70002F219847AB59204693F884110A2200232A
:104E80000DF02AFC23681B6820462F219847AB5958
:104E9000204693F885110A2200230DF01DFC23689B
:104EA0001B6820462F219847AB59204693F886115E
:104EB0000A2200230DF010FC23681B6820462F21D6
:104EC0009847AB59204693F887110A2200230DF02A
:104ED00003FC23681B6820462F2198470435142DB6
:104EE000B0D1084C23681B682046242198472046EF
:104EF00008F01CFA38460DF055FA7437BD46BDE887
:104F0000F08F00BF30C4FF1F3C3B0020BCC5FF1F1B
:104F1000E088FF1F2DE9F041A0B000AF554C07F12C
:104F2000300021460DF08AFA07F1400052490DF099
:104F300085FA07F1300007F140010DF04BFB2146E7
:104F40000DF052FB044607F150004C490DF076FA83
:104F5000204607F150010DF03DFB014638460DF0AB
:104F60008BFA07F150000DF01DFA07F140000DF02B
:104F700019FA07F130000DF015FABA6802F10803CA
:104F800023F00703ADEB030D3846694601320023D9
:104F90000DF038FB07F1600039496A46012308F03B
:104FA00055FB384B97F864201A71BA6E9A6097F8DF
:104FB0006C201A7307F1800252F8135D54689068F0
:104FC000C3F80D50C3F81140C3F81500127B5A7690
:104FD000FA6FDA6107F1600008F07EF9DFF8A4806B
:104FE000294D2A4C07F110004146012208F0D6FB5A
:104FF00007F1100008F0A6F9D8B9234C23685B68C4
:10500000204623491422984720460DF055FB07F10E
:10501000100008F061F91B4808F088F920461B4B86
:1050200019780A2200230DF057FB38460DF0BAF923
:105030001BE007F1100008F055F9064610F0E2F900
:1050400002462B685B68284631469847237801332F
:10505000DBB223700F4A136007F1100008F066F905
:1050600007F1100008F038F9BCE78037BD46BDE80D
:10507000F08100BF8063010094630100A063010020
:10508000C0690020E4E7FF1F306F002030CEFF1F13
:10509000A86301002CC4FF1F2DE9F04FA7B000AF9B
:1050A0000025FD603D613D75A14E07F10C003146C4
:1050B000082210F0D7F99F4C07F1380021460DF077
:1050C000BDF907F148009C490DF0B8F907F1380027
:1050D00007F148010DF07EFA21460DF085FA07F13F
:1050E0000C010DF081FA95490DF07EFA014607F1A9
:1050F00018000DF0C1F907F148000DF053F907F160
:1051000038000DF04FF98E4C204607F118010DF0D4
:10511000ADFA20460DF0D0FA3A6A02F1080323F006
:105120000703ADEB030D07F11800694601322B466A
:105130000DF068FA834C2046694608F023FB07F11E
:10514000580021466A46132308F080FA7E4C97F8EF
:105150005C3023713B6EA36097F86430237307F1D2
:10516000980353F833ED58689968C4F80DE0C4F813
:105170001100C4F815101B7B63767B6FE36107F1A8
:10518000580008F0A9F8304610F03CF902462368B0
:105190005B6820463146984723685B6820466B4928
:1051A0000122984707F1280069490DF047F9A84600
:1051B000DFF8AC91A2463D609EE0224658F8091007
:1051C00001EB461129444C7C944202D10133DBB2FD
:1051D0005FE0ABB103F1010B786859460DF0B8FA06
:1051E00007F1780059460A220DF078F907F12800F6
:1051F00007F178010DF0C8F907F178000DF0D2F849
:10520000552C17D001D82CB142E0AA2C20D0FF2C6D
:105210002ED03DE0DAF80030DFF848B15B687868FE
:1052200059460122984707F1280059460DF0B4F974
:1052300000232EE0DAF800305B68786845490122E7
:10524000984707F1280043490DF0A6F9002320E014
:10525000DAF80030DFF810B15B687868594601224F
:10526000984707F1280059460DF096F9002310E001
:10527000DAF80030DFF8F4B05B687868594601224C
:10528000984707F1280059460DF086F9002300E001
:1052900000230135202D90D1A3B15C1C78682146F4
:1052A0000DF056FA07F1880021460A220DF016F992
:1052B00007F1280007F188010DF066F907F1880071
:1052C0000DF070F8DAF800305B6878682249012246
:1052D00098470136092E03D0002501223B686DE76F
:1052E000DAF800305B6850461C490122984708F103
:1052F0000408B8F11C0F03D00026C7F804A0EBE7A0
:10530000114808F013F80E4C204607F128010DF063
:10531000ADF920460DF0D0F907F128000DF042F864
:1053200007F118000DF03EF89C37BD46BDE8F08F40
:10533000A488FF1F80630100C06301008C6301002B
:10534000306F0020C069002030C4FF1FC863010017
:1053500028620100D0630100DC630100E06301000A
:10536000F488FF1FCC630100D4630100D8630100FF
:1053700030B49DF80840072800F2B980DFE800F05B
:10538000040E4850575F8D935A4B53F8213002F268
:10539000924253F82230C3F89440A8E0042B00F264
:1053A000A680DFE803F0030D17212B00514B53F8C3
:1053B000213002F2924253F8223083F8834196E082
:1053C0004C4B53F8213002F2924253F8223083F8CA
:1053D00084418CE0474B53F8213002F2924253F85B
:1053E000223083F8854182E0424B53F8213002F2AB
:1053F000924253F8223083F8864178E03D4B53F8CF
:10540000213002F2924253F8223083F887416EE055
:105410004FF4D471384B01FB0232C2F8944066E07D
:10542000344B53F8212041F23823D4545FE04FF439
:10543000D471324B01FB0232C2F8944057E0042B86
:105440002BD8DFE803F0030B131B23004FF4D471B8
:105450002A4B01FB023383F883411EE04FF4D471E1
:10546000264B01FB023383F8844116E04FF4D471DC
:10547000224B01FB023383F885410EE04FF4D471D7
:105480001E4B01FB023383F8864106E04FF4D471D2
:105490001A4B01FB023383F88741194B53F8223032
:1054A000C3F8944023E0042B21D8DFE803F003097C
:1054B0000F151B00124B53F8223083F8834116E07E
:1054C0000F4B53F8223083F8844110E00C4B53F813
:1054D000223083F885410AE0094B53F8223083F8E3
:1054E000864104E0064B53F8223083F8874130BCF4
:1054F000704700BFB488FF1F3C3B0020BCC5FF1FA6
:10550000E088FF1FF0B591B0464C2046464908F0B0
:105510002DF92046454908F029F92046444908F06C
:1055200025F92046434908F021F92046424908F070
:105530001DF9424D2046294608F024F968462146C7
:105540002A46132308F082F83D4C9DF8043023715D
:10555000029BA3609DF80C30237310AB53F8335DAE
:1055600058689968C4F80D50C4F81100C4F81510B3
:105570001B7B6376079BE361684607F0ADFE314D08
:1055800028460FF03FFF024623685B682046294605
:10559000984723682C4E5B68204631460122984785
:1055A0002A4F38460FF02EFF024623685B682046DC
:1055B0003946984723685B68204631460122984760
:1055C000234E204631680DF0C3F8204607F0AEFEAA
:1055D00008A820490CF032FF0CA829460CF02EFF39
:1055E00008A80CA90CF0F6FF1B490CF0FDFF0146C2
:1055F0001A4C20460DF03AF820460DF05DF80CA844
:105600000CF0D0FE08A80CF0CDFE23685B682046A5
:1056100013491322984720460DF04EF800233360BB
:1056200011B0F0BDC069002094630100E463010083
:1056300084630100C0630100F4630100446301005E
:10564000E81100205089FF1F50630100D488FF1F1C
:105650002CC4FF1F5463010060630100306F002001
:1056600004640100032926D8DFE801F0020B141DB1
:10567000114B53F8201041F25C23CB58C3F894200F
:1056800070470D4B53F8203003F593531B68C3F854
:1056900094207047084B53F8201041F26423CB58F4
:1056A000C3F894207047044B53F8201041F268234C
:1056B000CB58C3F894207047B488FF1F2DE9F04100
:1056C00090B008A82649274A012307F0BFFF264BC0
:1056D0009DF824201A710A9A9A609DF82C201A735A
:1056E00010AA52F8135D54689068C3F80D50C3F8BF
:1056F0001140C3F81500127B5A760F9ADA6108A898
:1057000007F0EAFDDFF86080184E194F6846414601
:10571000012208F043F8684607F014FEB8B10024EF
:105720003578684607F0DEFD035D05EB450504EBC3
:1057300045057B550134052CF2D1337801333370A4
:10574000684607F0F3FD684607F0C6FDDEE76846E9
:1057500007F0C2FD044807F0E9FD10B0BDE8F08194
:10576000C06900201864010030C4FF1FE8CFFF1F8C
:10577000E063002038B504461F4B53F820502B7CC3
:10578000012B04D872B62846FCF796FD00E072B6ED
:10579000EB6862B6194A52F824209A422AD013F0D4
:1057A000030F27D116490C709A42ACBF4FF0FF325D
:1057B0000122124941F824304FF4D471114B01FBFE
:1057C000043393F8A810D3F8940002FB0102D3F835
:1057D0009C108A42B8BF0A46D3F8A0104D1EAA42B8
:1057E000A8BF2A46C3F89420C3F89820064B01228C
:1057F0001A559A7138BD00BF3089FF1F0898FF1FE6
:105800002C6900203C3B00202089FF1F38B504464E
:10581000214B53F820502B7C012B04D872B628461C
:10582000FCF74AFD00E072B6EB6862B61B4A52F81C
:1058300024209A422ED013F0030F2BD118490C705C
:105840009A42ACBF4FF0FF320122144941F8243094
:10585000144B1978144B53F8213004F2974153F844
:10586000213093F8A810D3F8940002FB0102D3F87A
:105870009C108A42B8BF0A46D3F8A0104D1EAA4217
:10588000A8BF2A46C3F89420C3F89820074B0122EA
:105890001A559A7138BD00BF3089FF1F0898FF1F45
:1058A0002C6900200498FF1FB488FF1F2089FF1F68
:1058B000F8B50446284B53F820502B7C012B04D814
:1058C00072B62846FCF7F8FC00E072B6EB6862B6E8
:1058D000224A52F824209A423CD013F0030F39D1C7
:1058E0001F490C709A42ACBF4FF0FF3001201B4A99
:1058F00042F82430661D1B4D1B4B1B7855F8233096
:1059000004F2974253F8223093F8A810D3F8947019
:1059100000FB0170D3F89C108842B8BF0846D3F84A
:10592000A01001F1FF3C6045A8BF6046C3F8940099
:10593000C3F898002B1F183553F8042F06F2924134
:1059400052F82120C2F89400AB42F5D1074B012256
:105950001A559A71F8BD00BF3089FF1F0898FF1FC4
:105960002C690020B488FF1F0498FF1F2089FF1FA7
:1059700038B50446214B53F820502B7C012B04D81A
:1059800072B62846FCF798FC00E072B6EB6862B687
:105990001B4A52F824209A422ED013F0030F2BD129
:1059A00018490C709A42ACBF4FF0FF3201221449E3
:1059B00041F82430144B1978144B53F8213004F279
:1059C000924153F8213093F8A810D3F8940002FBC9
:1059D0000102D3F89C108A42B8BF0A46D3F8A0103F
:1059E0004D1EAA42A8BF2A46C3F89420C3F89820A7
:1059F000074B01221A559A7138BD00BF3089FF1F2D
:105A00000898FF1F2C6900200498FF1FB488FF1F0F
:105A10002089FF1FF8B504460546294B53F820603E
:105A2000337C012B04D872B63046FCF745FC00E00D
:105A300072B6F36862B6234A52F824209A423ED0E6
:105A400013F0030F3BD120490C709A42ACBF4FF0CA
:105A5000FF3001201B4A42F824301C4B1E781C4B9F
:105A600053F8263004F2924253F8223093F8A810EB
:105A7000D3F8947000FB0170D3F89C108842B8BF33
:105A80000846D3F8A01001F1FF3C6045A8BF60466E
:105A9000C3F89400C3F898000E4B01221A559A716E
:105AA00000230B4CB34207D054F8232005F2924157
:105AB00052F82120C2F894000133072BF2D1F8BD2F
:105AC0003089FF1F0898FF1F2C6900200498FF1FD2
:105AD000B488FF1F2089FF1F2DE9F0470546A24B20
