:1000000000800020BD010000AD1F0100711F010034
:10001000711F0100711F0100711F0100711F01009C
:10002000711F0100711F0100711F0100AD1F010050
:10003000AD1F0100711F0100AD1F0100611F010014
:10004000AD1F0100AD1F0100AD1F0100AD1F01007C
:10005000AD1F0100AD1F0100AD1F0100AD1F01006C
:10006000AD1F0100AD1F0100AD1F0100AD1F01005C
:10007000AD1F0100AD1F0100AD1F0100AD1F01004C
:10008000AD1F0100AD1F0100AD1F0100AD1F01003C
:10009000AD1F0100AD1F0100AD1F0100AD1F01002C
:1000A00025F20000AD1F0100AD1F0100AD1F0100D2
:1000B000AD1F0100AD1F0100AD1F0100AD1F01000C
:1000C000AD1F0100AD1F0100AD1F0100AD1F0100FC
:1000D000AD1F0100AD1F0100AD1F0100AD1F0100EC
:1000E000AD1F0100AD1F0100AD1F0100AD1F0100DC
:1000F000AD1F0100CD1D0100AD1F0100C92F010082
:10010000AD1F0100E5330100AD1F0100AD1F01006F
:10011000AD1F0100AD1F0100AD1F0100AD1F0100AB
:10012000AD1F0100AD1F0100AD1F0100AD1F01009B
:10013000AD1F0100AD1F0100AD1F0100AD1F01008B
:10014000AD1F0100AD1F0100AD1F0100AD1F01007B
:100150008128010099280100B1280100C928010067
:10016000AD1F0100390B0100AD1F0100AD1F0100E3
:10017000AD1F0100AD1F0100AD1F0100AD1F01004B
:10018000AD1F0100AD1F0100AD1F0100AD1F01003B
:10019000AD1F0100AD1F0100AD1F0100AD1F01002B
:1001A000AD1F0100AD1F0100AD1F0100AD1F01001B
:1001B000AD1F0100AD1F0100AD1F010010B56B4B5D
:1001C0004CF220521A804DF628121A8000BF00BF50
:1001D00011F0F0FE4FF01062654B1A60654A08336B
:1001E0001A60654A04331A60A3F530432C3B1B6840
:1001F00013F4807F06D10022604B1A604FF4A8529E
:10020000043B1A605E4B1B7813F0080F04D05C4B64
:100210001A7842F008021A702A225A4B1A705A4B66
:100220005A4A9A420DD2131D594CE41A24F0030481
:1002300004340023104657495A581A500433A34235
:10024000FAD1554B554A9A4280F08B80131F54497E
:10025000C91A21F003011A1D1144002243F8042F8A
:100260008B42FBD17DE05A581A500433B3F5DE7F40
:10027000F9D14C4B80214C4A03F8011B9342FBD12E
:100280004A4B4B4A1A600A224A4B1A702422A3F6A0
:10029000FF731A70A022013B1A7006331A7812F00D
:1002A000020FFBD0444B1A7812F0100FFBD1424BD7
:1002B0001A7802F00C02082AFAD103223F4B1A7076
:1002C000402201331A7001331A7812F0200FFBD04C
:1002D000394B1A7812F0400FFBD0394A394B1A606B
:1002E000022204331A602022374B1A7006331A7820
:1002F00002F00C020C2AFAD1344A354B1A60354A06
:10030000354B1A60002204331A600722083B1A603A
:10031000324A03F551631A6062B610F0CFFA174BF8
:100320001B6813F0010F05D02D4810F02DFA2D4A4F
:100330002D4B1A602D4B1B7813F0400F0AD02A4B1F
:100340001A68284B9A4205D1254810F01DFA002260
:10035000254B1A6014F0AAF911F032FE12F0BAFB24
:10036000FEE70023124822497DE700BF0E2005402A
:1003700030800440823F04000100002B14D0034071
:1003800002D0074000E00740B096FF1F8088FF1FA3
:10039000B396FF1F2C730100D4700020B096FF1F8E
:1003A000CF70002000E400E05FE400E008ED00E032
:1003B0000082FF1F005006400640064004400640F1
:1003C000000003014480044000400640C0100500C6
:1003D00004800440FF76010014E000E000002020CB
:1003E0003E02F25AA5C3945A1CE0034000F00740B5
:1003F00000000000FFFFFFFFFFFFFFFFFFFFFFFF09
:10040000FFFFFFFFFFFFFFFFFFFFFFFFFEFFFFFFFD
:1004100010B5054C237833B9044B13B10448AFF33E
:1004200000800123237010BDB096FF1F0000000064
:100430002C73010008B5064B1BB106480649AFF303
:1004400000800648036813B1054B03B1984708BD07
:10045000000000002C730100B496FF1FB096FF1F30
:100460000000000030B583B004469DF91C50009593
:100470009DF91850019549B252B25BB20FF0A6FC3B
:10048000024B2360204603B030BD00BF405901003D
:1004900010B584B0044668460D4911F0D7FF2046D8
:1004A00001210FF003FA204601210FF0F9F920464F
:1004B000002105220FF0F0F92046694612F0DEF81F
:1004C00020460FF00DFE684611F074FF04B010BD19
:1004D000685F010030B585B00446002580F83850CB
:1004E00002213C2201230FF001FD20460FF08AFC7F
:1004F0008023009340230193012302932046294641
:100500002A46074B0FF098F820460FF0E9FD4FF40C
:10051000FA7010F0BFF920460FF074FC05B030BD42
:10052000F85901002DE9F0438BB004460D461646FC
:100530001F469DF8489002A8139911F0A5FF06A840
:10054000149911F0A1FF204601210FF0A9F92046CE
:1005500001210FF0ABF92DB220462946721C0FF095
:100560009BF922683FB2CDF800904FF00008CDF81B
:100570000480D2F81CC02046294632463B46E0475C
:10058000204606A912F07AF8204602210FF088F9D9
:10059000204601210FF08AF90A36204629463246C4
:1005A0000FF07AF923684FEA59020092CDF80480DF
:1005B000D3F81CC02046294632463B46E047204639
:1005C00002A912F05BF820460FF08AFD06A811F090
:1005D000F1FE02A811F0EEFE0BB0BDE8F08300BF03
:1005E000F0B58BB004460E4615461F4602A8119979
:1005F00011F04AFF06A8129911F046FF204601218A
:100600000FF04EF9204601210FF050F936B2204686
:1006100031466A1C0FF040F923689DF84020009293
:1006200000220192D3F81CC0204631462A463B46A0
:10063000E047204606A912F021F820460FF050FDB1
:1006400006A811F0B7FE02A811F0B4FE0BB0F0BD81
:100650002DE9F0438BB004460E46154602A81399C7
:1006600011F012FF06A8149911F00EFF2046012187
:100670000FF016F9204601210FF018F90FFA86F94C
:100680002DB2204649462A460FF006F923689DF808
:1006900048800FFA88F8CDF8008000270197D3F83A
:1006A0001CC0204649462A463C23E047204606A96E
:1006B00011F0E4FF204602210FF0F2F8204601215C
:1006C0000FF0F4F83236204631462A460FF0E4F8AF
:1006D0002368CDF800800197DF69204631462A461D
:1006E0003C23B847204602A911F0C8FF20460FF06E
:1006F000F7FC06A811F05EFE02A811F05BFE0BB03D
:10070000BDE8F083F0B587B004460E4615461F4697
:1007100002A80D9911F0B8FE204601210FF0C0F893
:10072000204601210FF0C2F836B2204631466A1C3D
:100730000FF0B2F823689DF8302000920022019259
:10074000D3F81CC0204631462A463B46E0472046A7
:1007500002A911F093FF20460FF0C2FC02A811F08D
:1007600029FE07B0F0BD00BFF0B587B004460E46C5
:1007700015461F4602A80D9911F086FE204600215D
:100780000FF08EF8204601210FF090F836B2204687
:1007900031466A1C0FF080F823689DF830200092E3
:1007A00000220192D3F81CC0204631462A463B461F
:1007B000E047204602A911F061FF20460FF090FCAF
:1007C00002A811F0F7FD07B0F0BD00BFF0B585B08D
:1007D00005460F4616461C46072B03D00D3BDBB2E1
:1007E000012B0BD82A680823009300210191D2F82D
:1007F0001CC0284639463246E04709E003681E22FD
:10080000009200220192D3F81CC032461923E0471F
:100810005CB91823009301930123029328463946BB
:100820003246664B0EF008FF1BE0012C0BD118235B
:100830000093019301230293284639463246604BC8
:100840000EF0FAFE1BE0022C0BD11823009301934B
:10085000012302932846394632465A4B0EF0ECFEED
:100860001BE0032C0BD11823009301930123029367
:10087000284639463246544B0EF0DEFE1BE0042C6F
:100880000BD1182300930193012302932846394684
:1008900032464E4B0EF0D0FE1BE0052C0BD1182338
:1008A0000093019301230293284639463246484B70
:1008B0000EF0C2FE1BE0062C0BD11823009301930F
:1008C00001230293284639463246424B0EF0B4FECD
:1008D0001BE0072C0BD10823009301930123029303
:1008E0002846394632463C4B0EF0A6FE1BE0082C4B
:1008F0000BD1182300930193012302932846394614
:100900003246364B0EF098FE1BE0092C0BD1182313
:100910000093019301230293284639463246304B17
:100920000EF08AFE1BE00A2C0BD1182300930193D2
:10093000012302932846394632462A4B0EF07CFEAC
:100940001BE00B2C0BD1182300930193012302937E
:10095000284639463246244B0EF06EFE1BE00C2C26
:100960000BD11823009301930123029328463946A3
:1009700032461E4B0EF060FE1AE00D2C0BD1082300
:100980000093019301230293284639463246184BBF
:100990000EF052FE0CE00E2C0AD1082300930193B6
:1009A00001230293284639463246124B0EF044FE8C
:1009B00028460FF095FB05B0F0BD00BF04600100B4
:1009C000745F0100F85D0100A4600100185F010080
:1009D000BC5F0100D05E01004C600100405E010080
:1009E0006859010054600100B0590100885E01009F
:1009F000605F01009C6001002DE9F0478AB0044669
:100A00000F46154698469DF848A00368A1F10209D3
:100A10000AF10102009200260196D3F81CC0494653
:100A2000A5F10B0208F10103E047204631460EF024
:100A300037FF204601210EF039FF3FB220463946EC
:100A4000A5F10A020EF028FF02A8139911F01CFD6F
:100A5000204602A911F012FE2368CDF800A0012261
:100A60000192D3F81CC0204649466A1E4346E0471F
:100A7000204631460EF014FF204631460EF016FF98
:100A8000204639462A460EF007FF06A8149911F0B1
:100A9000FBFC204606A911F0F1FD20460FF020FBDB
:100AA00006A811F087FC02A811F084FC0AB0BDE88A
:100AB000F08700BF08B50FF0A5F908BD2DE9F04F8C
:100AC00083B004469146984603688F000526009639
:100AD00000250195D3F81CC0394642460423E0475F
:100AE0002368D3F81CA0009648462946FF2201231C
:100AF00012F060F88346009648462946FF220123FB
:100B000012F058F8B044CBEB080200B20090012379
:100B100001932046394612B20323D04720460FF0F6
:100B2000DFFA03B0BDE8F08F2DE9F04F85B0044641
:100B3000884692461E468F000368082200920025D0
:100B40000195D3F81CC0394632460423E047236898
:100B5000DB6902934FF0060BCDF800B050462946F2
:100B6000FF22012312F026F803905E44CDF800B076
:100B700050462946FF22012312F01CF8039D721BE8
:100B800000B200904FF0010ACDF804A0204639468B
:100B900012B20323029DA84718F0070F226814BF62
:100BA000002301230093CDF804A0D569204607EB6C
:100BB0000A013246A84720460FF092FA05B0BDE878
:100BC000F08F00BF2DE9F04F83B0044690461F46DA
:100BD00003688E000822009200250195D3F81CC0FE
:100BE00031463A460423E0472368D3F81CA04FF06F
:100BF0000609CDF8009040462946FF22012311F056
:100C0000D9FF8346CDF8009040462946FF220123B4
:100C100011F0D0FF4F44CBEB070200B200900195DA
:100C20002046314612B20323D04720460FF058FA2F
:100C300003B0BDE8F08F00BF2DE9F04F85B004464A
:100C400088469346029303689DF838600A22009212
:100C500000250195D3F81CC0029932467823E0475D
:100C60002368DB6903934FF0280ACDF800A04046C3
:100C7000294640F2FF322B4611F09CFF02990144B5
:100C80004FF00809CDF800904FF00108CDF804802E
:100C9000204609B232460223039FB8472368DB6926
:100CA000039300955846294640F2FF32534611F00F
:100CB00081FF029D05F13C073918CDF80090CDF871
:100CC0000480204609B232460223039FB8472046DB
:100CD0000FF006FA05B0BDE8F08F00BF0122014B0E
:100CE0001A707047BCECFF1F0122014B1A7070474D
:100CF00031CEFF1F704700BF10B50446024911F006
:100D0000A5FB204610BD00BFFC61010010B50446E4
:100D1000044821460A22002311F0E6FC024B1C6025
:100D200010BD00BF2C6F00205CECFF1F10B5044607
:100D300011F09AFE204610BD10B4194B9B6F1A6833
:100D400014785A6811785A7A11409A7A02F003029C
:100D5000187A044218BF42F0040209B142F00802B6
:100D600091109972013A0D2A17D8DFE802F0070BAB
:100D70000F0B1613070713160B0F0B07DA68013258
:100D8000DA600AE0DA68013ADA6006E0DA6802322C
:100D9000DA6002E0DA68023ADA605DF8044B704724
:100DA0003469002010B4194B9B6E1A6814785A6885
:100DB00011785A7A11409A7A02F00302187A0442A2
:100DC00018BF42F0040209B142F008029110997272
:100DD000013A0D2A17D8DFE802F0070B0F0B1613A4
:100DE000070713160B0F0B07DA680132DA600AE007
:100DF000DA68013ADA6006E0DA680232DA6002E0C4
:100E0000DA68023ADA605DF8044B70473469002012
:100E100010B4194B5B6E1A6814785A6811785A7AB4
:100E200011409A7A02F00302187A044218BF42F085
:100E3000040209B142F0080291109972013A0D2A98
:100E400017D8DFE802F0070B0F0B1613070713166E
:100E50000B0F0B07DA680132DA600AE0DA68013A50
:100E6000DA6006E0DA680232DA6002E0DA68023A52
:100E7000DA605DF8044B70473469002010B4194BF8
:100E80001B6E1A6814785A6811785A7A11409A7A47
:100E900002F00302187A044218BF42F0040209B1BA
:100EA00042F0080291109972013A0D2A17D8DFE832
:100EB00002F0070B0F0B1613070713160B0F0B0788
:100EC000DA680132DA600AE0DA68013ADA6006E0EC
:100ED000DA680232DA6002E0DA68023ADA605DF873
:100EE000044B70473469002010B4194BDB6D1A684D
:100EF00014785A6811785A7A11409A7A02F00302EB
:100F0000187A044218BF42F0040209B142F0080204
:100F100091109972013A0D2A17D8DFE802F0070BF9
:100F20000F0B1613070713160B0F0B07DA680132A6
:100F3000DA600AE0DA68013ADA6006E0DA6802327A
:100F4000DA6002E0DA68023ADA605DF8044B704772
:100F50003469002010B4194B1B6F1A6814785A6852
:100F600011785A7A11409A7A02F00302187A0442F0
:100F700018BF42F0040209B142F0080291109972C0
:100F8000013A0D2A17D8DFE802F0070B0F0B1613F2
:100F9000070713160B0F0B07DA680132DA600AE055
:100FA000DA68013ADA6006E0DA680232DA6002E012
:100FB000DA68023ADA605DF8044B70473469002061
:100FC00010B4194BDB6E1A6814785A6811785A7A83
:100FD00011409A7A02F00302187A044218BF42F0D4
:100FE000040209B142F0080291109972013A0D2AE7
:100FF00017D8DFE802F0070B0F0B161307071316BD
:101000000B0F0B07DA680132DA600AE0DA68013A9E
:10101000DA6006E0DA680232DA6002E0DA68023AA0
:10102000DA605DF8044B70473469002010B4194B46
:101030005B6F1A6814785A6811785A7A11409A7A54
:1010400002F00302187A044218BF42F0040209B108
:1010500042F0080291109972013A0D2A17D8DFE880
:1010600002F0070B0F0B1613070713160B0F0B07D6
:10107000DA680132DA600AE0DA68013ADA6006E03A
:10108000DA680232DA6002E0DA68023ADA605DF8C1
:10109000044B70473469002010B4194B9B6D1A68DB
:1010A00014785A6811785A7A11409A7A02F0030239
:1010B000187A044218BF42F0040209B142F0080253
:1010C00091109972013A0D2A17D8DFE802F0070B48
:1010D0000F0B1613070713160B0F0B07DA680132F5
:1010E000DA600AE0DA68013ADA6006E0DA680232C9
:1010F000DA6002E0DA68023ADA605DF8044B7047C1
:101100003469002010B4194B5B6D1A6814785A6862
:1011100011785A7A11409A7A02F00302187A04423E
:1011200018BF42F0040209B142F00802911099720E
:10113000013A0D2A17D8DFE802F0070B0F0B161340
:10114000070713160B0F0B07DA680132DA600AE0A3
:10115000DA68013ADA6006E0DA680232DA6002E060
:10116000DA68023ADA605DF8044B704734690020AF
:1011700010B4194B1B6D1A6814785A6811785A7A92
:1011800011409A7A02F00302187A044218BF42F022
:10119000040209B142F0080291109972013A0D2A35
:1011A00017D8DFE802F0070B0F0B1613070713160B
:1011B0000B0F0B07DA680132DA600AE0DA68013AED
:1011C000DA6006E0DA680232DA6002E0DA68023AEF
:1011D000DA605DF8044B70473469002010B4194B95
:1011E000DB6C1A6814785A6811785A7A11409A7A26
:1011F00002F00302187A044218BF42F0040209B157
:1012000042F0080291109972013A0D2A17D8DFE8CE
:1012100002F0070B0F0B1613070713160B0F0B0724
:10122000DA680132DA600AE0DA68013ADA6006E088
:10123000DA680232DA6002E0DA68023ADA605DF80F
:10124000044B70473469002010B4194B9B6C1A682A
:1012500014785A6811785A7A11409A7A02F0030287
:10126000187A044218BF42F0040209B142F00802A1
:1012700091109972013A0D2A17D8DFE802F0070B96
:101280000F0B1613070713160B0F0B07DA68013243
:10129000DA600AE0DA68013ADA6006E0DA68023217
:1012A000DA6002E0DA68023ADA605DF8044B70470F
:1012B0003469002010B4194B5B6C1A6814785A68B2
:1012C00011785A7A11409A7A02F00302187A04428D
:1012D00018BF42F0040209B142F00802911099725D
:1012E000013A0D2A17D8DFE802F0070B0F0B16138F
:1012F000070713160B0F0B07DA680132DA600AE0F2
:10130000DA68013ADA6006E0DA680232DA6002E0AE
:10131000DA68023ADA605DF8044B704734690020FD
:1013200010B4194B1B6C1A6814785A6811785A7AE1
:1013300011409A7A02F00302187A044218BF42F070
:10134000040209B142F0080291109972013A0D2A83
:1013500017D8DFE802F0070B0F0B16130707131659
:101360000B0F0B07DA680132DA600AE0DA68013A3B
:10137000DA6006E0DA680232DA6002E0DA68023A3D
:10138000DA605DF8044B70473469002010B4194BE3
:10139000DB6B1A6814785A6811785A7A11409A7A75
:1013A00002F00302187A044218BF42F0040209B1A5
:1013B00042F0080291109972013A0D2A17D8DFE81D
:1013C00002F0070B0F0B1613070713160B0F0B0773
:1013D000DA680132DA600AE0DA68013ADA6006E0D7
:1013E000DA680232DA6002E0DA68023ADA605DF85E
:1013F000044B70473469002010B4194B9B6B1A687A
:1014000014785A6811785A7A11409A7A02F00302D5
:10141000187A044218BF42F0040209B142F00802EF
:1014200091109972013A0D2A17D8DFE802F0070BE4
:101430000F0B1613070713160B0F0B07DA68013291
:10144000DA600AE0DA68013ADA6006E0DA68023265
:10145000DA6002E0DA68023ADA605DF8044B70475D
:101460003469002010B4194B5B6B1A6814785A6801
:1014700011785A7A11409A7A02F00302187A0442DB
:1014800018BF42F0040209B142F0080291109972AB
:10149000013A0D2A17D8DFE802F0070B0F0B1613DD
:1014A000070713160B0F0B07DA680132DA600AE040
:1014B000DA68013ADA6006E0DA680232DA6002E0FD
:1014C000DA68023ADA605DF8044B7047346900204C
:1014D00010B4194B1B6B1A6814785A6811785A7A31
:1014E00011409A7A02F00302187A044218BF42F0BF
:1014F000040209B142F0080291109972013A0D2AD2
:1015000017D8DFE802F0070B0F0B161307071316A7
:101510000B0F0B07DA680132DA600AE0DA68013A89
:10152000DA6006E0DA680232DA6002E0DA68023A8B
:10153000DA605DF8044B70473469002010B4194B31
:10154000DB6A1A6814785A6811785A7A11409A7AC4
:1015500002F00302187A044218BF42F0040209B1F3
:1015600042F0080291109972013A0D2A17D8DFE86B
:1015700002F0070B0F0B1613070713160B0F0B07C1
:10158000DA680132DA600AE0DA68013ADA6006E025
:10159000DA680232DA6002E0DA68023ADA605DF8AC
:1015A000044B70473469002010B4194B9B6A1A68C9
:1015B00014785A6811785A7A11409A7A02F0030224
:1015C000187A044218BF42F0040209B142F008023E
:1015D00091109972013A0D2A17D8DFE802F0070B33
:1015E0000F0B1613070713160B0F0B07DA680132E0
:1015F000DA600AE0DA68013ADA6006E0DA680232B4
:10160000DA6002E0DA68023ADA605DF8044B7047AB
:101610003469002010B4194B5B6A1A6814785A6850
:1016200011785A7A11409A7A02F00302187A044229
:1016300018BF42F0040209B142F0080291109972F9
:10164000013A0D2A17D8DFE802F0070B0F0B16132B
:10165000070713160B0F0B07DA680132DA600AE08E
:10166000DA68013ADA6006E0DA680232DA6002E04B
:10167000DA68023ADA605DF8044B7047346900209A
:1016800010B4194B1B6A1A6814785A6811785A7A80
:1016900011409A7A02F00302187A044218BF42F00D
:1016A000040209B142F0080291109972013A0D2A20
:1016B00017D8DFE802F0070B0F0B161307071316F6
:1016C0000B0F0B07DA680132DA600AE0DA68013AD8
:1016D000DA6006E0DA680232DA6002E0DA68023ADA
:1016E000DA605DF8044B70473469002010B4194B80
:1016F000DB691A6814785A6811785A7A11409A7A14
:1017000002F00302187A044218BF42F0040209B141
:1017100042F0080291109972013A0D2A17D8DFE8B9
:1017200002F0070B0F0B1613070713160B0F0B070F
:10173000DA680132DA600AE0DA68013ADA6006E073
:10174000DA680232DA6002E0DA68023ADA605DF8FA
:10175000044B70473469002010B4194B9B691A6818
:1017600014785A6811785A7A11409A7A02F0030272
:10177000187A044218BF42F0040209B142F008028C
:1017800091109972013A0D2A17D8DFE802F0070B81
:101790000F0B1613070713160B0F0B07DA6801322E
:1017A000DA600AE0DA68013ADA6006E0DA68023202
:1017B000DA6002E0DA68023ADA605DF8044B7047FA
:1017C0003469002010B4194B5B691A6814785A68A0
:1017D00011785A7A11409A7A02F00302187A044278
:1017E00018BF42F0040209B142F008029110997248
:1017F000013A0D2A17D8DFE802F0070B0F0B16137A
:10180000070713160B0F0B07DA680132DA600AE0DC
:10181000DA68013ADA6006E0DA680232DA6002E099
:10182000DA68023ADA605DF8044B704734690020E8
:1018300010B4194B1B691A6814785A6811785A7ACF
:1018400011409A7A02F00302187A044218BF42F05B
:10185000040209B142F0080291109972013A0D2A6E
:1018600017D8DFE802F0070B0F0B16130707131644
:101870000B0F0B07DA680132DA600AE0DA68013A26
:10188000DA6006E0DA680232DA6002E0DA68023A28
:10189000DA605DF8044B70473469002010B4194BCE
:1018A000DB681A6814785A6811785A7A11409A7A63
:1018B00002F00302187A044218BF42F0040209B190
:1018C00042F0080291109972013A0D2A17D8DFE808
:1018D00002F0070B0F0B1613070713160B0F0B075E
:1018E000DA680132DA600AE0DA68013ADA6006E0C2
:1018F000DA680232DA6002E0DA68023ADA605DF849
:10190000044B70473469002010B4194B9B681A6867
:1019100014785A6811785A7A11409A7A02F00302C0
:10192000187A044218BF42F0040209B142F00802DA
:1019300091109972013A0D2A17D8DFE802F0070BCF
:101940000F0B1613070713160B0F0B07DA6801327C
:10195000DA600AE0DA68013ADA6006E0DA68023250
:10196000DA6002E0DA68023ADA605DF8044B704748
:101970003469002010B4194B5B681A6814785A68EF
:1019800011785A7A11409A7A02F00302187A0442C6
:1019900018BF42F0040209B142F008029110997296
:1019A000013A0D2A17D8DFE802F0070B0F0B1613C8
:1019B000070713160B0F0B07DA680132DA600AE02B
:1019C000DA68013ADA6006E0DA680232DA6002E0E8
:1019D000DA68023ADA605DF8044B70473469002037
:1019E00010B4194B1B681A6814785A6811785A7A1F
:1019F00011409A7A02F00302187A044218BF42F0AA
:101A0000040209B142F0080291109972013A0D2ABC
:101A100017D8DFE802F0070B0F0B16130707131692
:101A20000B0F0B07DA680132DA600AE0DA68013A74
:101A3000DA6006E0DA680232DA6002E0DA68023A76
:101A4000DA605DF8044B70473469002010B41A4B1B
:101A5000D3F880301A6814785A6811785A7A11408D
:101A60009A7A02F00302187A044218BF42F0040284
:101A700009B142F0080291109972013A0D2A17D863
:101A8000DFE802F0070B0F0B1613070713160B0FF7
:101A90000B07DA680132DA600AE0DA68013ADA60E4
:101AA00006E0DA680232DA6002E0DA68023ADA6006
:101AB0005DF8044B704700BF3469002010B4194B27
:101AC000DB6F1A6814785A6811785A7A11409A7A3A
:101AD00002F00302187A044218BF42F0040209B16E
:101AE00042F0080291109972013A0D2A17D8DFE8E6
:101AF00002F0070B0F0B1613070713160B0F0B073C
:101B0000DA680132DA600AE0DA68013ADA6006E09F
:101B1000DA680232DA6002E0DA68023ADA605DF826
:101B2000044B70473469002010B41A4BD3F884304A
:101B30001A6814785A6811785A7A11409A7A02F021
:101B40000302187A044218BF42F0040209B142F0BD
:101B5000080291109972013A0D2A17D8DFE802F0B5
:101B6000070B0F0B1613070713160B0F0B07DA687B
:101B70000132DA600AE0DA68013ADA6006E0DA682F
:101B80000232DA6002E0DA68023ADA605DF8044BA9
:101B9000704700BF3469002038B504460D4608463A
:101BA00013F038FC024623685B68204629469847B4
:101BB0000546204610F088FD284438BD70B504461F
:101BC0000E461546084602210EF020FE2846022148
:101BD0000EF01CFEA64A52F8363003F50071216063
:101BE0000121217252F8352002F5007060606172A7
:101BF0000021E1604FF47A4101397FF4FDAF93F8A1
:101C0000003203F0010392F8002212F0010F1CBF12
:101C100043F00203DBB2A372212E00F29681DFE8CB
:101C200016F022002B0034003D0046004F00580003
:101C300061006A0073007C0085008E009700A000A0
:101C4000A900B200BB00C400CD00D600DF00E80050
:101C5000F100FA0003010C0115011E0165016E017E
:101C6000770180018A01834B1C6000208249042295
:101C70000EF02AFD012369E17E4B5C6001207F4963
:101C800004220EF021FD012360E17A4B9C600220CA
:101C90007B4904220EF018FD012357E1754BDC60EF
:101CA0000320784904220EF00FFD01234EE1714B11
:101CB0001C610420744902460EF006FD012345E133
:101CC0006C4B5C610520714904220EF0FDFC012380
:101CD0003CE1684B9C6106206D4904220EF0F4FC47
:101CE000012333E1634BDC6107206A4904220EF0D3
:101CF000EBFC01232AE15F4B1C62082066490422A9
:101D00000EF0E2FC012321E15A4B5C620920634999
:101D100004220EF0D9FC012318E1564B9C620A20E4
:101D20005F4904220EF0D0FC01230FE1514BDC622D
:101D30000B205C4904220EF0C7FC012306E14D4B49
:101D40001C630C20584904220EF0BEFC0123FDE068
:101D5000484B5C630D20554904220EF0B5FC01236D
:101D6000F4E0444B9C630E20514904220EF0ACFC7D
:101D70000123EBE03F4BDC630F204E4904220EF0C1
:101D8000A3FC0123E2E03B4B1C6410204A490422DF
:101D90000EF09AFC0123D9E0364B5C6411204749D0
:101DA00004220EF091FC0123D0E0324B9C641220FF
:101DB000434904220EF088FC0123C7E02D4BDC646C
:101DC0001320404904220EF07FFC0123BEE0294B82
:101DD0001C6514203C4904220EF076FC0123B5E07A
:101DE000244B5C651520394904220EF06DFC01235B
:101DF000ACE0204B9C651620354904220EF064FCB3
:101E00000123A3E01B4BDC651720324904220EF0AE
:101E10005BFC01239AE0174B1C6618202E49042214
:101E20000EF052FC012391E0124B5C6619202B4905
:101E300004220EF049FC012388E00E4B9C661A2018
:101E4000274904220EF040FC01237FE0094BDC66A9
:101E50001B20244904220EF037FC012376E0054BB9
:101E60001C671C20204904220EF02EFC01236DE08B
:101E7000386F010034690020E11900007519000075
:101E8000091900009D18000031180000C517000056
:101E900059170000ED16000081160000151600000D
:101EA000A91500003D150000D114000065140000C4
:101EB000F91300008D13000021130000B51200007B
:101EC00049120000DD110000711100000511000031
:101ED00099100000E90E00007D0E0000110E0000B8
:101EE000A50D0000C10F0000550F0000A54B5C6759
:101EF0001D20A54904220EF0E7FB012326E0A14B9B
:101F00009C671E20A14904220EF0DEFB01231DE088
:101F10009C4BDC671F209E4904220EF0D5FB012359
:101F200014E0984BC3F8804020209A4904220EF018
:101F3000CBFB01230AE0934BC3F884402120964950
:101F400004220EF0C1FB012300E000232374212DA5
:101F500000F29B81DFE815F022002B0034003D00E9
:101F600046004F00580061006A0073007C00850045
:101F70008E009700A000A900B200BB00C400CD00F5
:101F8000D600DF00E800F100FA0003010C0158015F
:101F900061016A0173017C0185018F01794B1C602D
:101FA00000207E4904220EF08FFB01226EE1754B6A
:101FB0005C6001207A4904220EF086FB012265E173
:101FC000704B9C600220774904220EF07DFB0122B9
:101FD0005CE16C4BDC600320734904220EF074FB5F
:101FE000012253E1674B1C610420704902460EF048
:101FF0006BFB01224AE1634B5C6105206C490422C2
:102000000EF062FB012241E15E4B9C6106206949B2
:1020100004220EF059FB012238E15A4BDC61072003
:10202000654904220EF050FB01222FE1554B1C6242
:102030000820624904220EF047FB012226E1514BA1
:102040005C6209205E4904220EF03EFB01221DE184
:102050004C4B9C620A205B4904220EF035FB0122A6
:1020600014E1484BDC620B20574904220EF02CFB94
:1020700001220BE1434B1C630C20544904220EF057
:1020800023FB012202E13F4B5C630D2050490422F7
:102090000EF01AFB0122F9E03A4B9C630E204D49E9
:1020A00004220EF011FB0122F0E0364BDC630F201E
:1020B000494904220EF008FB0122E7E0314B1C6481
:1020C0001020464904220EF0FFFA0122DEE02D4BDB
:1020D0005C641120424904220EF0F6FA0122D5E098
:1020E000284B9C6412203F4904220EF0EDFA012295
:1020F000CCE0244BDC6413203B4904220EF0E4FACC
:102100000122C3E01F4B1C651420384904220EF045
:10211000DBFA0122BAE01B4B5C651520344904222E
:102120000EF0D2FA0122B1E0164B9C65162031491F
:1021300004220EF0C9FA0122A8E0124BDC65172038
:102140002D4904220EF0C0FA01229FE00D4B1C66BF
:1021500018202A4904220EF0B7FA012296E0094B12
:102160005C661920264904220EF0AEFA01228DE0A9
:10217000044B9C661A20234904220EF0A5FA012282
:1021800084E000BF346900202D100000390D0000EC
:10219000BD1A00004D1A0000291B0000E1190000C3
:1021A00075190000091900009D1800003118000081
:1021B000C517000059170000ED1600008116000039
:1021C00015160000A91500003D150000D1140000EF
:1021D00065140000F91300008D13000021130000A6
:1021E000B512000049120000DD110000711100005D
:1021F0000511000099100000E90E00007D0E00009E
:10220000110E0000A50D0000234BDC661B202349A6
:1022100004220EF059FA012238E01F4B1C671C20E3
:102220001F4904220EF050FA01222FE01A4B5C677E
:102230001D201C4904220EF047FA012226E0164B0D
:102240009C671E20184904220EF03EFA01221DE070
:10225000114BDC671F20154904220EF035FA0122CC
:1022600014E00D4BC3F880402020114904220EF0E9
:102270002BFA01220AE0084BC3F8844021200D49C3
:1022800004220EF021FA012200E00022237C1344F4
:102290002374204670BD00BF34690020C10F0000C8
:1022A000550F00002D100000390D0000BD1A000070
:1022B0004D1A0000291B000010B403681C78436805
:1022C0001A78437A1A40837A03F00303017A0C42A6
:1022D00018BF43F004030AB143F008039A10827256
:1022E000013B0D2B17D8DFE803F0070B0F0B16137C
:1022F000070713160B0F0B07C3680133C3600AE00F
:10230000C368013BC36006E0C3680233C36002E0F8
:10231000C368023BC3605DF8044B70472DE9F0478A
:102320000446844B40F8043B834E4FF0800831460E
:1023300042460DF0C7FF012784F89170002584F80C
:102340009250C4F89450C4F89850C4F89C50C4F803
:10235000A050C4F8A45084F8A85004F1EC00294619
:10236000A82212F00BFD84F8EC70022384F8ED3003
:10237000032384F8EE30042384F8EF30052384F837
:10238000F0304FF0060984F8F190072384F8F2301A
:10239000082384F8F3304FF0100C84F8F4C02023A5
:1023A00084F8F530402284F8F62084F8F780634BF7
:1023B000C4F8FC3003F50F2303F50063C4F80031C3
:1023C000A3F59E23C4F80431A3F50F23A3F6FF63FE
:1023D000C4F80831A3F5A023A3F20243C4F80C31DA
:1023E000574BC4F8103103F58033C4F8143106EBB1
:1023F000080393E80300C4F8180184F81C1184F85A
:102400001D5184F81E5184F81F5184F82051D6F8CC
:102410008C00C4F8210184F8255184F8265184F8F1
:10242000275184F8285184F82951334653F8980FDE
:10243000C4F82A0198889B79A4F82E0184F83031D9
:1024400084F8315184F832513E4B03CBC4F8330148
:10245000C4F837111B7884F83B3106F1A40393E8E4
:102460000300C4F83C01A4F8401121FA0CF184F8EF
:10247000421184F8435184F84451D6F8B000C4F8AE
:10248000450184F8495184F84A5184F84B5184F845
:102490004C5184F84D51D6F8BC00C4F84E01A4F854
:1024A0005251A4F8545184F85651274B1868C4F877
:1024B0005701264B1868C4F85B01254B1868C4F80F
:1024C0005F01244B1868C4F86301234B1868C4F8F3
:1024D000670184F8739184F874C1642384F87531BA
:1024E00084F8768184F877811E2384F87C3184F81F
:1024F0007E2184F8837184F8847184F8872184F8BC
:10250000907184F8917104F28313C4F8943104F546
:10251000C273C4F8983104F28513C4F89C3104F5F1
:10252000C373C4F8A03104F28713C4F8A431204661
:10253000BDE8F087F86001000061010053494E00DA
:102540004356310008620100146201001862010064
:102550001C6201002062010024620100F0B595B008
:1025600005460C4604A88D310FF070FF684604A99B
:102570000FF08AFF204E6846314610F03DF80746BE
:1025800008A8D4F898100A220FF0B0FF384608A91E
:1025900010F028F8314610F02FF806460CA8D4F8B1
:1025A00094100A220FF0A2FF30460CA910F01AF87E
:1025B000124910F021F8064610A8D4F888110A2212
:1025C0000FF094FF304610A910F00CF80146284691
:1025D0000FF05AFF10A80FF0EDFE0CA80FF0EAFE66
:1025E00008A80FF0E7FE68460FF0E4FE04A80FF01D
:1025F000E1FE284615B0F0BD286201002C62010002
:102600002DE9F8430446894690F8847190F8815189
:10261000C31993F8EC30ED1A05F07F0580F881516D
:1026200090F88331042B00F20481DFE803F00330DB
:102630005785CD00D0F8A060D0F89C30F61A90F8FD
:10264000850111F08DF9ACA3D3E9002311F0EEF967
:1026500011F0AEFC8046304611F0B4FD074694F808
:1026600087311D4405F07F052544287911F0A6FD2A
:10267000A34911F0AFFE414611F0F8FD014638467E
:1026800011F0F4FD11F0B8FFC4F8A400D1E0D0F8C7
:10269000A060D0F89C30F61A90F8850111F060F92E
:1026A00095A3D3E9002311F0C1F911F081FC804614
:1026B000304611F087FD0746680011F083FD904910
:1026C00011F088FE414611F0D1FD0146384611F067
:1026D000CDFD11F091FFC4F8A400AAE090F88701A5
:1026E000854204D3854294BF0025012500E00025E2
:1026F000D4F8A060D4F89C30F61A94F8850111F053
:102700002FF97DA3D3E9002311F090F911F050FCCB
:102710008046304611F056FD0746284611F052FD1E
:10272000414611F0A3FD0146384611F09FFD11F01E
:1027300063FFC4F8A4007CE090F88771BD42C0F04C
:10274000C480D0F8A060D0F89C30F61A90F88501CB
:1027500011F006F968A3D3E9002311F067F911F02D
:1027600027FC8046BD4217D806EBD670401011F00A
:1027700029FD0746680011F025FD614911F02AFE88
:10278000414611F073FD0146384611F06FFD11F01E
:1027900033FFC4F8A4004CE006EBD670401011F0F3
:1027A00011FD0746680011F00DFD554911F012FEAC
:1027B000414611F05BFD0146384611F057FD11F01E
:1027C0001BFFC4F8A40034E0D0F8A060D0F89C301F
:1027D000F61A90F8850111F0C3F847A3D3E9002356
:1027E00011F024F911F0E4FB8046E71B97F8FC3068
:1027F000B9FBF3F203FB129919F0FF0F19D1002076
:10280000FF2110F0CDF90746304611F0DBFC0546FC
:10281000384611F0D7FC3A4911F0DCFD414611F081
:1028200025FD0146284611F021FD11F0E5FEC4F812
:10283000A40094F88531002B42D0D4F8940094F889
:102840008651D4F89C70D4F8A020D4F8A410014488
:102850002944B942B8BF39469142D4BFC4F8981050
:10286000C4F8982041199142D4BFC4F88C11C4F81F
:102870008C2111F0A7FC8146304611F0A3FC4146A3
:1028800011F0F4FC0146484611F0E8FB06462846E4
:1028900011F098FC0146304611F0E0FB0546384641
:1028A00011F090FC06462846314611F07DFE08B135
:1028B000304600E0284611F09FFEC4F8880116E07B
:1028C000D4F89430C4F8983011E0D0F8A060D0F873
:1028D0009C30F61A90F8850111F042F806A3D3E96E
:1028E000002311F0A3F811F063FB80463CE70020C1
:1028F000BDE8F883AFF300807B14AE47E17A843FF4
:1029000000007F43AFF300802DE9F04F99B00746F8
:102910008B4600920026049605A831463C2212F010
:102920002DFA18A840F8546D314612F015FD3446C2
:10293000DFF8F8A071E03B5D612B0DD100238DF82D
:1029400010305AF82B20009902EB41123244537494
:102950000136F6B201935FE0622B0ED100238DF8B1
:1029600010305AF82B30009A03EB42139A19552372
:1029700053740136F6B201934EE0632B0ED100235F
:102980008DF810305AF82B30009903EB41139A1947
:10299000AA2353740136F6B201933DE0642B0ED1A5
:1029A00000238DF810305AF82B30009A03EB4213B5
:1029B0009A19FF2353740136F6B201932CE018A93B
:1029C00001F8553D3D446D7804A812F025FC303DDA
:1029D000092D21D9002509E05AF82B30009903EB85
:1029E00041139844019A88F81120013506EB050837
:1029F0005FFA88F814A804A90FF028FD14A80FF0B6
:102A000021FE814614A80FF0D5FC5FFA89F909F17F
:102A1000FF394D45E0DB464601342546384612F085
:102A2000F9FC844287D319B0BDE8F08FF488FF1F0A
:102A30002DE9F04F89B00446E84940F8041BDFF85F
:102A4000CC93802749463A460DF03CFC012684F899
:102A50009160002584F89250C4F89450C4F89850BE
:102A6000C4F89C50C4F8A050C4F8A45084F8A850EE
:102A700004F1EC002946A82212F080F984F8EC60F9
:102A80004FF0020284F8ED204FF0030384F8EE309B
:102A90004FF0040E84F8EFE04FF0050084F8F000EA
:102AA0004FF0060B84F8F1B04FF0070184F8F210F4
:102AB0004FF0080284F8F3204FF0100A84F8F4A0D5
:102AC0004FF0200384F8F5304FF0400884F8F6808A
:102AD00084F8F770C248C4F8FC00C249C4F8001179
:102AE000C14AC4F80421C14BC4F80831A0F51F2025
:102AF000A0F60130C4F80C01BD49C4F81011BD4A5C
:102B0000C4F8142109F1800393E80300C4F8180104
:102B100084F81C1184F81D5184F81E5184F81F514B
:102B200084F82051CE465EF88C0FCDF804E0C4F84E
:102B3000210184F8255184F8265184F8275184F81E
:102B4000285184F82951494651F8980F0091C4F84A
:102B50002A018A88049291F806E0CDF814E0A4F8DE
:102B60002E2184F830E184F8315184F83251A24B9F
:102B700003CBC4F83301C4F837111B78069384F8EB
:102B80003B3109F1A40292E80300C4F83C01A4F827
:102B9000401121FA0AF184F8421184F8435184F873
:102BA00044514B4653F8B00F0293C4F8450184F8E2
:102BB000495184F84A5184F84B5184F84C5184F8B7
:102BC0004D51CE465EF8BC0FCDF80CE0C4F84E0176
:102BD000A4F85251A4F8545184F856518749086812
:102BE000C4F85701864A1068C4F85B01854B186821
:102BF000C4F85F01DFF818E2DEF80000C4F86301F2
:102C000081490868C4F8670184F873B184F874A135
:102C10004FF0640284F8752184F8767184F8777136
:102C20004FF01E0384F87C3184F87E8184F8836140
:102C300084F8846184F8878184F8906184F89161D4
:102C400004F28313C4F8943104F5C273C4F89831C4
:102C500004F28513C4F89C3104F5C373C4F8A031A1
:102C600004F28713C4F8A4315C48C4F8A80104F541
:102C7000D67049463A460DF025FB84F8396284F84F
:102C80003A52C4F83C52C4F84052C4F84452C4F812
:102C90004852C4F84C5284F8505204F52570294625
:102CA000A82212F06BF884F894624FF0020184F8C5
:102CB00095124FF0030284F896224FF0040384F833
:102CC00097324FF0050E84F898E284F899B24FF0ED
:102CD000070084F89A024FF0080184F89B1284F8E8
:102CE0009CA24FF0200284F89D2284F89E8284F8F2
:102CF0009F723B4BC4F8A4323A48C4F8A8023A4940
:102D0000C4F8AC12394AC4F8B022A3F51F23A3F6C5
:102D10000133C4F8B4323648C4F8B8023549C4F8AF
:102D2000BC1209F1800292E80300C4F8C00284F8E2
:102D3000C41284F8C55284F8C65284F8C75284F885
:102D4000C852019B1868C4F8C90284F8CD5284F8AF
:102D5000CE5284F8CF5284F8D05284F8D152DDF8A4
:102D600000E0DEF80000C4F8D2020498A4F8D6020D
:102D7000059984F8D81284F8D95284F8DA521E4B97
:102D800003CBC4F8DB02C4F8DF12069B84F8E332FD
:102D900009F1A40E9EE80300C4F8E402A4F8E812C6
:102DA00021FA0AF184F8EA1284F8EB5284F8EC5222
:102DB00002990868C4F8ED0284F8F15284F8F252DE
:102DC00084F8F35284F8F45284F8F552039A1068A8
:102DD000C4F8F602A4F8FA521CE000BFF860010043
:102DE00053494E0053415700535152005452490029
:102DF000435631004356320008620100146201005C
:102E0000186201001C6201002462010000610100DF
:102E100020620100A4F8FC5284F8FE52EB4B1868C3
:102E2000C4F8FF02DFF8D4E3DEF80000C4F80303BF
:102E3000E7490868C4F80703E64A1068C4F80B03BA
:102E4000E54B1868C4F80F0384F81BB384F81CA37F
:102E50004FF0640E84F81DE384F81E7384F81F732A
:102E60004FF01E0084F8240384F8268384F82B6333
:102E700084F82C6384F82F8384F8386384F83963EA
:102E800004F22B33C4F83C3304F54B73C4F84033DD
:102E900004F22D33C4F8443304F22E33C4F848331B
:102EA00004F22F33C4F84C33CC49C4F8501304F562
:102EB000557049463A460DF005FA84F8E16384F806
:102EC000E253C4F8E453C4F8E853C4F8EC53C4F82C
:102ED000F053C4F8F45384F8F85304F23C40294604
:102EE000A82211F04BFF84F83C644FF0020284F8F2
:102EF0003D244FF0030384F83E344FF0040E84F871
:102F00003FE44FF0050084F8400484F841B44FF0EA
:102F1000070184F842144FF0080284F8432484F82F
:102F200044A44FF0200384F8453484F8468484F8A0
:102F30004774AB48C4F84C04AA49C4F85014AA4AD0
:102F4000C4F85424A94BC4F85834A0F51F20A0F6A7
:102F50000130C4F85C04A649C4F86014A54AC4F85A
:102F6000642409F1800393E80300C4F8680484F83A
:102F70006C1484F86D5484F86E5484F86F5484F89B
:102F80007054DDF804E0DEF80000C4F8710484F841
:102F9000755484F8765484F8775484F8785484F817
:102FA000795400990868C4F87A04049AA4F87E2435
:102FB000059884F8800484F8815484F882548E4BF8
:102FC00003CBC4F88304C4F88714069984F88B14DF
:102FD00009F1A40292E80300C4F88C04A4F8901448
:102FE00021FA0AF184F8921484F8935484F89454E2
:102FF000029B1868C4F8950484F8995484F89A548C
:1030000084F89B5484F89C5484F89D54DDF80CE0BB
:10301000DEF80000C4F89E04A4F8A254A4F8A45456
:1030200084F8A65469490868C4F8A704734A10686C
:10303000C4F8AB04664B1868C4F8AF04DFF894E139
:10304000DEF80000C4F8B30463490868C4F8B704A4
:1030500084F8C3B484F8C4A44FF0640284F8C5248F
:1030600084F8C67484F8C7744FF01E0384F8CC3417
:1030700084F8CE8484F8D36484F8D46484F8D78444
:1030800084F8E06484F8E16404F2D343C4F8E434DF
:1030900004F2D443C4F8E83404F2D543C4F8EC3461
:1030A00004F2D643C4F8F03404F2D743C4F8F4343D
:1030B0004A48C4F8F80404F2FC4049463A460DF088
:1030C00001F984F8896584F88A55C4F88C55C4F8E8
:1030D0009055C4F89455C4F89855C4F89C5584F894
:1030E000A05504F2E4502946A82211F047FE84F8C6
:1030F000E4654FF0020184F8E5154FF0030284F80F
:10310000E6254FF0040384F8E7354FF0050E84F808
:10311000E8E584F8E9B54FF0070084F8EA054FF0D8
:10312000080184F8EB1584F8ECA54FF0200284F830
:10313000ED2584F8EE8584F8EF75294BC4F8F43555
:103140002848C4F8F8052849C4F8FC15274AC4F8EB
:103150000026A3F51F23A3F60133C4F80436244840
:10316000C4F808062349C4F80C1609F1800292E855
:103170000300C4F8100684F8141684F8155684F871
:10318000165684F8175684F81856019B1868C4F828
:10319000190684F81D5684F81E5604F21F6303F8BE
:1031A000015B03F8015B1D70CA465AF8980FC4F81A
:1031B0002206BAF804E0CDF808E09AF80600039079
:1031C000A4F826E684F828061AE000BF146201007D
:1031D0001C6201002062010024620100F86001000D
:1031E00053494E0053415700535152005452490025
:1031F0004356310043563200086201001862010054
:1032000084F8295684F82A56EA4B03CBC4F82B06D7
:10321000C4F82F161B78049384F8333609F1A402FE
:1032200092E80300C4F83406A4F83816090C84F8B0
:103230003A1684F83B5684F83C564B4653F8B00F88
:103240000093C4F83D0684F8415684F8425684F849
:10325000435684F8445684F84556CE465EF8BC0F73
:10326000CDF804E0C4F84606A4F84A56A4F84C5633
:1032700084F84E56D0490868C4F84F06CF4A106803
:10328000C4F85306CE4B1868C4F85706DFF854E369
:10329000DEF80000C4F85B06CA490868C4F85F0697
:1032A00084F86BB64FF0100284F86C264FF064037C
:1032B00084F86D3684F86E7684F86F764FF01E0EC3
:1032C00084F874E684F8768684F87B6684F87C66F5
:1032D00084F87F8684F8886684F8896604F27B63C4
:1032E000C4F88C3604F27C63C4F8903604F27D6333
:1032F000C4F8943604F27E63C4F8983604F27F630F
:10330000C4F89C36B048C4F8A00604F2A46049464C
:103310003A460CF0D7FF84F8316784F83257C4F886
:103320003457C4F83857C4F83C57C4F84057C4F869
:10333000445784F8485704F28C702946A82211F0AB
:103340001DFD84F88C674FF0020184F88D174FF053
:10335000030284F88E274FF0040384F88F374FF070
:10336000050E84F890E784F891B74FF0070084F8D1
:1033700092074FF0080184F893174FF0100284F879
:1033800094274FF0200384F8953784F8968784F8C3
:1033900097778E48C4F89C078D49C4F8A0178D4ACA
:1033A000C4F8A4278C4BC4F8A837A0F51F20A0F6BA
:1033B0000130C4F8AC078949C4F8B017884AC4F88A
:1033C000B42709F1800393E80300C4F8B80784F830
:1033D000BC1784F8BD5784F8BE5784F8BF5784F8EB
:1033E000C057CE465EF88C0FCDF814E0C4F8C10784
:1033F00084F8C55784F8C65784F8C75784F8C85767
:1034000084F8C957DAF80000C4F8CA070298A4F88B
:10341000CE07039984F8D01784F8D15784F8D2578F
:10342000644B03CBC4F8D307C4F8D717049B84F8C4
:10343000DB3709F1A40E9EE80300C4F8DC07A4F80A
:10344000E017090C84F8E21784F8E35784F8E4578E
:1034500000990868C4F8E50784F8E95784F8EA5742
:1034600084F8EB5784F8EC5784F8ED57019A10680C
:10347000C4F8EE07A4F8F257A4F8F45784F8F65706
:103480004D4B1868C4F8F707DFF830E1DEF80000AC
:10349000C4F8FB074A490868C4F8FF07514A106896
:1034A000C4F80308474B1868C4F8070884F813B831
:1034B0004FF0100E84F814E84FF0640084F81508FB
:1034C00084F8167884F817784FF01E0184F81C18D9
:1034D00084F81E8884F8236884F8246884F8278890
:1034E00084F8306884F8316804F62303C4F834386B
:1034F00004F62403C4F8383804F62503C4F83C382D
:1035000004F62603C4F8403804F62703C4F8443808
:103510002D4AC4F8482804F64C0049463A460CF0B7
:10352000D1FE84F8D96884F8DA58C4F8DC58C4F8B5
:10353000E058C4F8E458C4F8E858C4F8EC5884F8E3
:10354000F05804F634102946A82211F017FC84F82C
:1035500034694FF0020384F835394FF0030E84F8D4
:1035600036E94FF0040084F837094FF0050184F87C
:10357000381984F839B94FF0070284F83A294FF026
:10358000080384F83B394FF0100E84F83CE94FF003
:10359000200084F83D0984F83E8984F83F790B497E
:1035A000C4F844190A4AC4F848290A4BC4F84C39EB
:1035B0001AE000BF086201001462010018620100F5
:1035C0001C62010024620100F860010053494E00B2
:1035D0005341570053515200545249004356310051
:1035E0004356320020620100EA48C4F85009A1F5B0
:1035F0001F21A1F60131C4F85419E74AC4F858292B
:10360000E64BC4F85C3909F1800E9EE80300C4F86B
:10361000600984F8641984F8655984F8665984F857
:10362000675984F8685905990868C4F8690984F8E5
:103630006D5984F86E5984F86F5984F8705984F87C
:103640007159DAF80000C4F87209029AA4F87629D0
:10365000039884F8780984F8795984F87A59D04B1A
:1036600003CBC4F87B09C4F87F19049984F8831943
:1036700009F1A40292E80300C4F88409A4F88819A7
:10368000090C84F88A1984F88B5984F88C59009BAA
:103690001868C4F88D0984F8915984F8925984F80F
:1036A000935984F8945984F89559DDF804E0DEF8CC
:1036B0000000C4F89609A4F89A59A4F89C5984F813
:1036C0009E59B8490868C4F89F09B74A1068C4F8F9
:1036D000A309B64B1868C4F8A709DFF8E8E2DEF8DA
:1036E0000000C4F8AB09B2490868C4F8AF0984F80F
:1036F000BBB94FF0100284F8BC294FF0640384F882
:10370000BD3984F8BE7984F8BF794FF01E0E84F875
:10371000C4E984F8C68984F8CB6984F8CC6984F854
:10372000CF8984F8D86984F8D96904F6CB13C4F832
:10373000DC3904F6CC13C4F8E03904F6CD13C4F830
:10374000E43904F6CE13C4F8E83904F6CF13C4F80C
:10375000EC399848C4F8F00904F6F41049463A46A2
:103760000CF0B0FD84F8816A84F8825AC4F8845A57
:10377000C4F8885AC4F88C5AC4F8905AC4F8945AB9
:1037800084F8985A04F6DC202946A82211F0F6FAAB
:1037900084F8DC6A4FF0020184F8DD1A4FF003026E
:1037A00084F8DE2A4FF0040384F8DF3A4FF0050E68
:1037B00084F8E0EA84F8E1BA4FF0070084F8E20AFE
:1037C0004FF0080184F8E31A4FF0100284F8E42A5D
:1037D0004FF0200384F8E53A84F8E68A84F8E77A23
:1037E0007548C4F8EC0A7549C4F8F01A744AC4F86C
:1037F000F42A684BC4F8F83AA0F51F20A0F601306F
:10380000C4F8FC0A6449C4F8001B644AC4F8042BD9
:1038100009F1800393E80300C4F8080B84F80C1B3B
:1038200084F80D5B84F80E5B84F80F5B84F8105B02
:10383000DDF814E0DEF80000C4F8110B84F8155B25
:1038400084F8165B84F8175B84F8185B84F8195BBE
:10385000DAF80000C4F81A0B0298A4F81E0B0399BA
:1038600084F8201B84F8215B84F8225B4C4B03CB4B
:10387000C4F8230BC4F8271B049B84F82B3B09F1E5
:10388000A40E9EE80300C4F82C0BA4F8301B090C0E
:1038900084F8321B84F8335B84F8345B0099086841
:1038A000C4F8350B84F8395B84F83A5B84F83B5BE9
:1038B00084F83C5B84F83D5B019A1068C4F83E0BC9
:1038C000A4F8425BA4F8445B84F8465B354B186867
:1038D000C4F8470BDFF8D0E0DEF80000C4F84B0B6B
:1038E00032490868C4F84F0B364A1068C4F8530BC5
:1038F0002F4B1868C4F8570B84F863BB4FF0100EB9
:1039000084F864EB4FF0640084F8650BB84684F8E3
:10391000667B84F8677B1E2684F86C6B4FF0400949
:1039200084F86E9B012784F8737B84F8747B84F899
:10393000779B84F8807B84F8817B04F67333C4F82A
:10394000843B04F67433C4F8883B04F67533C4F83A
:103950008C3B04F67633C4F8903B04F67733C4F816
:10396000943B1449C4F8981BDFF85CA004F69C3023
:10397000514642460CF0A6FC84F8297C84F82A5C67
:10398000C4F82C5CC4F8305CC4F8345CC4F8385C0F
:103990001CE000BF545249004356310043563200E8
:1039A0000862010014620100186201001C6201003B
:1039B00024620100F860010053494E005341570052
:1039C000535152002062010000610100C4F83C5CC8
:1039D00084F8405C04F684402946A82211F0CEF910
:1039E00084F8847C4FF0020284F8852C4FF00303A6
:1039F00084F8863C4FF0040E84F887EC4FF0050005
:103A000084F8880C84F889BC4FF0070184F88A1C7C
:103A10004FF0080284F88B2C4FF0100384F88C3C94
:103A20004FF0200E84F88DEC84F88E9C84F88F8CF7
:103A3000E648C4F8940CE649C4F8981CE54AC4F872
:103A40009C2CE54BC4F8A03CA0F51F20A0F601304B
:103A5000C4F8A40CE149C4F8A81CE14AC4F8AC2C91
:103A60000AF1800393E80300C4F8B00C84F8B41C96
:103A700084F8B55C84F8B65C84F8B75C84F8B85C0C
:103A8000D6465EF88C0FCDF804E0C4F8B90C84F883
:103A9000BD5C84F8BE5C84F8BF5C84F8C05C84F8CC
:103AA000C15C514651F8980F0091C4F8C20C8A8845
:103AB000049291F806E0CDF814E0A4F8C62C84F83E
:103AC000C8EC84F8C95C84F8CA5CC64B03CBC4F864
:103AD000CB0CC4F8CF1C1B78069384F8D33C0AF1B6
:103AE000A40292E80300C4F8D40CA4F8D81C090C72
:103AF00084F8DA1C84F8DB5C84F8DC5C534653F809
:103B0000B00F0293C4F8DD0C84F8E15C84F8E25C49
:103B100084F8E35C84F8E45C84F8E55CD6465EF8FF
:103B2000BC0FCDF80CE0C4F8E60CA4F8EA5CA4F8ED
:103B3000EC5C84F8EE5CAC490868C4F8EF0CAB4A66
:103B40001068C4F8F30CAA4B1868C4F8F70CDFF837
:103B5000ACE2DEF80000C4F8FB0CA6490868C4F823
:103B6000FF0C84F80BBD4FF0100284F80C2D4FF0C1
:103B7000640384F80D3D84F80E8D84F80F8D84F86D
:103B8000146D84F8169D84F81B7D84F81C7D84F8E0
:103B90001F9D84F8287D84F8297D04F61B53C4F802
:103BA0002C3D04F61C53C4F8303D04F61D53C4F8F4
:103BB000343D04F61E53C4F8383D04F61F53C4F8D0
:103BC0003C3D04F554600790FEF7A8FB8A49C4F811
:103BD000E81E04F6EC60514642460CF073FB84F894
:103BE000797F84F87A5FC4F87C5FC4F8805FC4F89A
:103BF000845FC4F8885FC4F88C5F84F8905F04F633
:103C0000D4702946A82211F0B9F884F8D47F4FF077
:103C1000020284F8D52F4FF0030384F8D63F4FF00B
:103C2000040E84F8D7EF4FF0050084F8D80F84F81D
:103C3000D9BF4FF0070184F8DA1F4FF0080284F86B
:103C4000DB2F4FF0100384F8DC3F4FF0200E84F898
:103C5000DDEF84F8DE9F84F8DF8F5C48C4F8E40F62
:103C60005B49C4F8E81F5B4AC4F8EC2F5A4BC4F810
:103C7000F03FA0F51F20A0F60130C4F8F40F57491B
:103C8000C4F8F81F564AC4F8FC2F04F580530AF113
:103C9000800E9EE80300186019715D719D71DD71E1
:103CA0001D7241F20902A31801990868A0501D7104
:103CB0005D719D71DD711D7241F21202A318DDF874
:103CC00000E0DEF80000A0500498988005999971F2
:103CD000DD711D7241F21B0E04EB0E02414B03CB52
:103CE00044F80E005160069B137241F22402A3189F
:103CF0000AF1A40E9EE80300A0509980090C997166
:103D0000DD711D7241F22D02A31802990868A050BE
:103D10001D715D719D71DD711D7241F23602A31836
:103D2000DDF80CE0DEF80000A0509D80DD801D7203
:103D30002D49086841F23F03E0502C4A106841F2D7
:103D40004303E0502A4B186841F24703E050DFF884
:103D5000ACE0DEF8000041F24B03E0502549086872
:103D600041F24F03E05041F25B0304F803B041F22B
:103D70005C034FF01002E25441F25D034FF0640027
:103D8000E05441F25E0304F8038041F25F0304F85B
:103D9000038041F26403E65441F2660304F80390A1
:103DA00041F26B03E75441F26C03E75441F26F03B5
:103DB00004F8039041F27803E75441F27903E754A1
:103DC00004F6E86303F283111AE000BF53494E0082
:103DD0005341570053515200545249004356310049
:103DE00043563200086201001462010018620100AB
:103DF0001C62010024620100F860010020620100E1
:103E000041F27C02A15004F5845203F5C2711160A5
:103E100003F2851141F28402A15003F5C37141F20E
:103E20008802A15003F2871341F28C02A35041F2A1
:103E30009003E618E349E150301D514642460CF02C
:103E400041FA86F8917086F89250C6F89450C6F8F8
:103E50009850C6F89C50C6F8A050C6F8A45086F8F2
:103E6000A85006F1EC002946A82210F087FF86F83A
:103E7000EC704FF0020286F8ED204FF0030386F855
:103E8000EE304FF0040086F8EF004FF0050186F8A1
:103E9000F01086F8F1B04FF0070286F8F2204FF0EC
:103EA000080386F8F3304FF0100086F8F4004FF066
:103EB000200186F8F51086F8F69086F8F780C24A59
:103EC000C6F8FC20C14BC6F80031C148C6F8040151
:103ED000C049C6F80811A2F51F22A2F60132C6F8A1
:103EE0000C21BD4BC6F81031BC48C6F814010AF1CC
:103EF000800292E80300C6F8180186F81C1186F8C3
:103F00001D5186F81E5186F81F5186F82051019BDD
:103F10001868C6F8210186F8255186F8265186F8DA
:103F2000275186F8285186F8295100990868C6F863
:103F30002A01049AA6F82E21059886F8300186F801
:103F4000315186F83251A64B03CBC6F83301C6F87F
:103F50003711069986F83B110AF1A40292E8030092
:103F6000C6F83C01A6F84011090C86F8421186F803
:103F7000435186F84451029B1868C6F8450186F8FB
:103F8000495186F84A5186F84B5186F84C5186F8CB
:103F90004D5103990868C6F84E01A6F85251A6F88B
:103FA000545186F856518F4B1868C6F8570104F5DE
:103FB000845310338C4A1068C3F85B018B4A106835
:103FC000C3F85F018A4A1068C3F86301894A106820
:103FD000C3F8670183F873B1102283F874214FF09E
:103FE000640C83F875C183F8768183F877811E228B
:103FF00083F87C2183F87E913A4683F8837183F8B5
:10400000847183F8879183F8907183F8917103F23A
:104010008311C3F8941103F5C271C3F8981103F228
:104020008511C3F89C1103F5C371C3F8A01103F205
:104030008711C3F8A411002341F23821635441F2DF
:104040004521675441F24821645004F5D47041F28F
:104050004C21605004F5547041F25021605004F539
:104060009F6041F25421605004F5D46041F2582120
:10407000605041F25C210798605004F5935104F5BB
:104080001F60086004F6480041F26421605004F6A5
:10409000983041F26821605004F6E86041F26C21EA
:1040A000605041F27026A719514651F8C80FA0512F
:1040B0008988B980504E03CEC4F88400C4F88810B3
:1040C0004E490868C4F88D0084F89120122184F8C4
:1040D0009210C4F89410C4F89810FF26C4F8A06099
:1040E000C4F89C30052184F8A81084F8833184F842
:1040F000843184F8853184F8863184F88791404F83
:1041000003CFC4F82C02C4F83012397884F8341282
:104110003C490868C4F8350284F8392284F83A2208
:10412000C4F83C22C4F840220727C4F84872C4F8F7
:10413000443284F8502284F82B3384F82C3384F8EA
:104140002D3384F82E3384F82F932F490868C4F850
:10415000D403097984F8D8132C490868C4F8DD031E
:1041600084F8E123022184F8E213C4F8E413C4F8CC
:10417000E813C4F8F073C4F8EC3384F8F82384F837
:10418000D33484F8D43484F8D53484F8D63484F81D
:10419000D7941F4F03CFC4F87C05C4F88015397835
:1041A00084F884151B490868C4F8850584F88925B6
:1041B00084F88AC5C4F88CC5C4F890C57F21C4F8BA
:1041C000981529E0F860010053494E00534157000B
:1041D0005351520054524900435631004356320065
:1041E0000862010014620100186201001C620100F3
:1041F0002062010024620100446201004C6201005F
:10420000506201005C6201006062010068620100AE
:104210006C62010078620100C4F8943584F8A0252E
:1042200084F87B3684F87C3684F87D3684F87E36D4
:1042300084F87F966F4F03CFC4F82407C4F828177B
:10424000397884F82C176C490868C4F82D0784F86D
:1042500031270A2784F83277C4F83477C4F83877DE
:10426000C4F84067C4F83C3784F8482784F82338FA
:1042700084F8243884F8253884F8263884F8279878
:104280005E490868C4F8CC08097984F8D0185C49FC
:104290000868C4F8D50884F8D92884F8DA38C4F84E
:1042A000DC38C4F8E038C4F8E868C4F8E43884F8C6
:1042B000F02884F8CB3984F8CC3984F8CD3984F8E7
:1042C000CE3984F8CF99DFF850C1BCE80300C4F8B8
:1042D0006C0FC4F8701F4B490868C4F8750F84F858
:1042E000792F84F87A3FC4F87C3FC4F8803FC4F843
:1042F000886FC4F8843F84F8902F41F26B016354B7
:1043000041F26C01635441F26D01635441F26E015C
:10431000635441F26F0104F801903B490868C4F806
:10432000740AC4F87D0A84F8812A84F8823AC4F8B1
:10433000843AC4F8883AC4F8906AC4F88C3A84F88D
:10434000982A84F8733B84F8743B84F8753B84F8AE
:10435000763B84F8779BDFF8C4C0BCE80300C4F860
:104360001C0CC4F8201C29490868C4F8250C84F8E2
:10437000292C84F82A7CC4F82C7CC4F8307CC4F83E
:10438000386CC4F8343C84F8402C84F81B3D84F825
:104390001C3D84F81D3D84F81E3D84F81F9D1C4F74
:1043A00003CFC4F8C40DC4F8C81D397884F8CC1DF7
:1043B00018490868C4F8CD0D84F8D12D082184F877
:1043C000D21DC4F8D41DC4F8D81DC4F8E06DC4F8DB
:1043D000DC3D84F8E82D84F8C33E84F8C43E84F8BC
:1043E000C53E84F8C63E84F8C79E204609B0BDE8A5
:1043F000F08F00BF7C620100886201008C620100C6
:1044000094620100A0620100A4620100B062010098
:10441000B4620100C062010098620100A86201005C
:104420002DE9F84F0024964B1C600120954B186035
:10443000954B1C60954BD3F898100EF0B1FB944B44
:104440001860944B197801FB00F1934B1960934B62
:104450001C60934B1C60934B1C60934B1C6022466A
:104460000B468C4280F2D180DFF860B24FF07E5A6A
:104470004FF08048002725469B1A8C490B60894BDA
:104480001A68874B1B689A4240F090800022854B47
:104490001A60012064210EF083FB7E4B1B78834A57
:1044A000126893420BDDC0B28149D1F8981088425E
:1044B00005DA804BC3F800A0794B1A606BE058080E
:1044C0000FF080FE044610F097F810F0010F204620
:1044D0000CBF514641460FF0BFFD4FF07C510FF02D
:1044E000C5FE0FF04FFA0022734B0FF09FFA0FF04A
:1044F00037FD014600200EF053FB0FF063FE5946D6
:104500000FF068FF01460FF0A9FD51460FF0A6FD20
:1045100010F072F80FF056FE0446664B1860634BBD
:1045200018680FF04FFE06462046314610F05AF844
:1045300098B1204641460FF08FFD0446394610F0F1
:1045400051F808B904F100442046314610F04AF809
:1045500008B12046EEE7574B1C600120574BD3F8BB
:1045600098100EF01DFB04464D4B18604F4B186819
:104570000FF028FE064620460FF024FE4D4B19682A
:104580000FF074FE314610F02DF820B1494B1E603B
:104590000122434B1A60474B186810F02DF828444D
:1045A0003C4B1B7890FBF3F503FB1505414B1C6856
:1045B0002046394610F016F890B1314ED6F80090EA
:1045C000204610F019F83E4B43F8290009F1010389
:1045D00033602C4B1A68344941F8225001321A607A
:1045E0002E4E30680FF0EEFD014620460FF036FDEE
:1045F00010F002F830602B4B1A6801321A60024644
:10460000254B1B689842FFF637AF1D4BD3F800804F
:10461000B8F1000F2DDD1F4B18781B4B1A680023D3
:104620009C46DFF89C90DFF880B09A4614E0334453
:1046300093FBF0F700FB173341F8043F0132531BA3
:10464000A342F4DB0CF1010C5FFA8CFC6346C44519
:1046500002DB0D4B1A600CE059F82340002CF1DD11
:104660001BF823601546511E164B03EB8101534680
:10467000DDE7054B1A68144B1A60BDE8F88F00BFE0
:1046800098C5FF1F1C89FF1F78ECFF1F3CCEFF1F42
:1046900034CEFF1F5C89FF1F60C4FF1FE4CFFF1FE4
:1046A00018CEFF1F08C4FF1F543A002020EBFF1F45
:1046B000ECCFFF1FD488FF1F0000244038E4FF1F09
:1046C00018E7FF1F846300206CC2FF1F0000204119
:1046D00070B5654C654B93E80300C4F88400A4F8FA
:1046E0008810090C84F88A10614B1868C4F88D0092
:1046F000012284F89120042384F89230C4F8943085
:10470000C4F898301023C4F8A0300226C4F89C6086
:1047100084F8A820002384F8833184F8843184F855
:10472000853184F88631402584F8875151495248B3
:104730000468A1F88440240C81F8864004888078BD
:10474000A1F88D4081F88F0081F8912081F8923096
:10475000C1F89430C1F89830C1F8A060C1F89C301D
:1047600081F8A82081F8833181F8843181F885317E
:1047700081F8863181F88751404C414903C9C4F81A
:104780008400A4F88810090C84F88A103D49086850
:10479000C4F88D0084F8912084F89220C4F8942005
:1047A000C4F898201121C4F8A010C4F89C2084F803
:1047B000A82084F8833184F8843184F8853184F822
:1047C000863184F88751304C304903C9C4F88400DD
:1047D000A4F88810090C84F88A102D490868C4F8D8
:1047E0008D0084F8912084F89220C4F89420C4F8B5
:1047F00098206321C4F8A010C4F89C3084F8A82045
:1048000084F8833184F8843184F8853184F88631E2
:1048100084F887511F4C204903C9C4F88400A4F8C8
:104820008810090C84F88A101C490868C4F88D00A7
:1048300084F8912084F89220C4F89420C4F8982039
:104840000821C4F8A010C4F89C2084F8A82084F89B
:10485000833184F8843184F8853184F8863184F892
:104860008751FFF7DDFD70BD2C260020C4620100DA
:10487000E862010048FFFF1FCC6201003CCEFF1F31
:10488000D0620100EC620100ECCFFF1FD862010092
:10489000F062010038E4FF1FE0620100F4620100F1
:1048A00008B5054B1B6890FBF3F202FB130008B937
:1048B000FFF7B6FD08BD00BF6CC2FF1F70B41C4AF5
:1048C00041F239231468E5181A490868E05009795B
:1048D00029715468E51818490868E0508988A9804A
:1048E0009468E51815490868E05009792971D56878
:1048F000EC1813490868E85088888979A080A1716C
:104900001669F5180F4C03CCF050696021782972B4
:104910005469E5180C490868E0508988A9809169B4
:10492000CC180A4A1068C8509388A38070BC70479E
:10493000B488FF1FF86201000063010008630100F2
:104940001063010018630100246301002C6301005F
:104950002DE9F04198B000AF6A4C07F110002146F4
:104960000DF074FD07F1200067490DF06FFD07F1B0
:10497000100007F120010DF035FE21460DF03CFE40
:10498000044607F1300061490DF060FD204607F153
:1049900030010DF027FE5E490DF02EFE014638462F
:1049A0000DF072FD07F130000DF004FD07F120005D
:1049B0000DF000FD07F110000DF0FCFCBA6802F1EB
:1049C000080323F00703ADEB030D384669460132B7
:1049D00000230DF01FFE4F4C2046694608F0DAFE1A
:1049E00007F1400021466A46132308F037FE4A4B80
:1049F00097F844201A71BA6C9A6097F84C201A7391
:104A000007F1600252F8135D54689068C3F80D50C6
:104A1000C3F81140C3F81500127B5A76FA6DDA61BB
:104A200007F1400008F060FC00253B4C3B4E41F292
:104A30005C28AB5953F808302046D3F894100DF099
:104A40008FFE23681B68204623219847AB5903F546
:104A500093531B682046D3F894100DF081FE236811
:104A60001B68204623219847AB5941F264229B588A
:104A70002046D3F894100DF073FE23681B6820467F
:104A800023219847AB5941F268229B582046D3F81E
:104A900094100DF065FE23681B682046232198477B
:104AA000AB5941F26C229B582046D3F894100DF07C
:104AB00057FE23681B6820462321984723681B68FC
:104AC00020462D21984704351C2DB2D1124C236865
:104AD0001B68204624219847114E357805EB450088
:104AE000104B03EB4000094910F036FC01353570DE
:104AF000204608F023FC38460DF05CFC6037BD46CC
:104B0000BDE8F0819063010094630100D888FF1F25
:104B10009C630100BC69002030C4FF1FB488FF1FE4
:104B2000E8CFFF1F846500202DE9F04F9DB000AF56
:104B300040B9884A137888490B70591C1170874A0C
:104B4000136003E0844B1A78844B1A60844C07F19D
:104B5000100021460DF07AFC07F1200081490DF08C
:104B600075FC07F1100007F120010DF03BFD214617
:104B70000DF042FD054607F130007B490DF066FC63
:104B8000284607F130010DF02DFD21460DF034FDD2
:104B9000044607F14000714B19680A220DF0A6FC8B
:104BA000204607F140010DF01DFD70490DF024FD78
:104BB000014638460DF068FC07F140000DF0FAFBA5
:104BC00007F130000DF0F6FB07F120000DF0F2FBCD
:104BD00007F110000DF0EEFBBA6802F1080323F0B4
:104BE0000703ADEB030D38466946013200230DF093
:104BF00011FD5F4C2046694608F0CCFD07F15000DE
:104C000021466A46132308F029FD5A4B97F8542091
:104C10001A71BA6D9A6097F85C201A7307F17002E6
:104C200052F8135D54689068C3F80D50C3F81140F2
:104C3000C3F81500127B5A76FA6EDA6107F150005C
:104C400008F052FB00254B4EDFF82C8134467BE008
:104C500055F808300AF2924953F829302046D3F823
:104C600094100DF07DFD33681B6820465946984727
:104C700055F8083053F82930204693F883110A225A
:104C800000230DF031FD33681B682046232198472F
:104C900055F8083053F82930204693F884110A2239
:104CA00000230DF021FD33681B682046232198471F
:104CB00055F8083053F82930204693F885110A2218
:104CC00000230DF011FD33681B682046232198470F
:104CD00055F8083053F82930204693F886110A22F7
:104CE00000230DF001FD33681B68204623219847FF
:104CF00055F8083053F82930204693F887110A22D6
:104D000000230DF0F1FC33681B68204623219847EF
:104D100055F80830204641F23822995C0A220023D7
:104D20000DF0E2FC33681B6820463C2198470AF1ED
:104D3000010ABAF10A0F8BD133681B6820467C2127
:104D4000984704351C2D19D04FF0000A4FF02B0B5B
:104D50007EE700BF30CEFF1FA099FF1F2CC4FF1FAE
:104D600090630100A4630100B06301009C63010033
:104D7000BC69002030C4FF1FB488FF1F6B48036864
:104D80001B683E2198476A4C04F64808674D2A265E
:104D90002846D4F894100DF0E3FC2B681B682846D5
:104DA0003146984704F5D4744445F1D15F4803680F
:104DB0001B68262198475F4D05F59F695B4C4FF0B6
:104DC0003F080A262046D5F894100DF0C9FC236848
:104DD0001B68204641469847204695F88311324685
:104DE00000230DF081FC23681B6820462121984791
:104DF000204695F88411324600230DF075FC236897
:104E00001B68204621219847204695F88511324697
:104E100000230DF069FC23681B6820462121984778
:104E2000204695F88611324600230DF05DFC23687C
:104E30001B68204621219847204695F88711324665
:104E400000230DF051FC23681B6820462121984760
:104E500005F5D4754D45B5D1344803681B68262146
:104E600098470025314C344E4FF04008AB5920464E
:104E7000D3F894100DF074FC23681B68204641465B
:104E80009847AB59204693F883110A2200230DF06E
:104E90002BFC23681B6820462F219847AB592046DE
:104EA00093F884110A2200230DF01EFC23681B686E
:104EB00020462F219847AB59204693F885110A22A6
:104EC00000230DF011FC23681B6820462F21984712
:104ED000AB59204693F886110A2200230DF004FCFA
:104EE00023681B6820462F219847AB59204693F82A
:104EF00087110A2200230DF0F7FB23681B68204668
:104F00002F2198470435142DB0D1084C23681B6815
:104F1000204624219847204608F010FA38460DF024
:104F200049FA7437BD46BDE8F08F00BF30C4FF1F9B
:104F3000E43C0020BCC5FF1FE088FF1F2DE9F041C5
:104F4000A0B000AF554C07F1300021460DF07EFABD
:104F500007F1400052490DF079FA07F1300007F1EE
:104F600040010DF03FFB21460DF046FB044607F1E2
:104F700050004C490DF06AFA204607F150010DF03F
:104F800031FB014638460DF07FFA07F150000DF075
:104F900011FA07F140000DF00DFA07F130000DF0A5
:104FA00009FABA6802F1080323F00703ADEB030D19
:104FB00038466946013200230DF02CFB07F16000F2
:104FC00039496A46012308F049FB384B97F86420B9
:104FD0001A71BA6E9A6097F86C201A7307F1800202
:104FE00052F8135D54689068C3F80D50C3F811402F
:104FF000C3F81500127B5A76FA6FDA6107F1600088
:1050000008F072F9DFF8A480294D2A4C07F110004E
:105010004146012208F0CAFB07F1100008F09AF996
:10502000D8B9234C23685B6820462349142298474B
:1050300020460DF049FB07F1100008F055F91B4818
:1050400008F07CF920461B4B19780A2200230DF04A
:105050004BFB38460DF0AEF91BE007F1100008F0ED
:1050600049F9064610F0D6F902462B685B682846D7
:105070003146984723780133DBB223700F4A13601F
:1050800007F1100008F05AF907F1100008F02CF9A8
:10509000BCE78037BD46BDE8F08100BF90630100EA
:1050A000A4630100B0630100BC6900208CE9FF1F0C
:1050B0002C6F002030CEFF1FB86301002CC4FF1FEF
:1050C0002DE9F04FA7B000AF0025FD603D613D75B3
:1050D000A14E07F10C003146082210F0CBF99F4C8D
:1050E00007F1380021460DF0B1F907F148009C495D
:1050F0000DF0ACF907F1380007F148010DF072FA34
:1051000021460DF079FA07F10C010DF075FA954979
:105110000DF072FA014607F118000DF0B5F907F12C
:1051200048000DF047F907F138000DF043F98E4CB7
:10513000204607F118010DF0A1FA20460DF0C4FA3F
:105140003A6A02F1080323F00703ADEB030D07F100
:105150001800694601322B460DF05CFA834C20465C
:10516000694608F017FB07F1580021466A461323E9
:1051700008F074FA7E4C97F85C3023713B6EA360A4
:1051800097F86430237307F1980353F833ED5868A8
:105190009968C4F80DE0C4F81100C4F815101B7B21
:1051A00063767B6FE36107F1580008F09DF83046A5
:1051B00010F030F9024623685B6820463146984774
:1051C00023685B6820466B490122984707F1280055
:1051D00069490DF03BF9A846DFF8AC91A2463D6065
:1051E0009EE0224658F8091001EB461129444C7CF8
:1051F000944202D10133DBB25FE0ABB103F1010BAA
:10520000786859460DF0ACFA07F1780059460A2241
:105210000DF06CF907F1280007F178010DF0BCF9E9
:1052200007F178000DF0C6F8552C17D001D82CB135
:1052300042E0AA2C20D0FF2C2ED03DE0DAF800303E
:10524000DFF848B15B68786859460122984707F152
:10525000280059460DF0A8F900232EE0DAF80030B6
:105260005B68786845490122984707F1280043495F
:105270000DF09AF9002320E0DAF80030DFF810B1E1
:105280005B68786859460122984707F1280059461B
:105290000DF08AF9002310E0DAF80030DFF8F4B0FE
:1052A0005B68786859460122984707F128005946FB
:1052B0000DF07AF9002300E000230135202D90D174
:1052C000A3B15C1C786821460DF04AFA07F188000A
:1052D00021460A220DF00AF907F1280007F188019A
:1052E0000DF05AF907F188000DF064F8DAF8003093
:1052F0005B6878682249012298470136092E03D05D
:10530000002501223B686DE7DAF800305B68504603
:105310001C490122984708F10408B8F11C0F03D07A
:105320000026C7F804A0EBE7114808F007F80E4C78
:10533000204607F128010DF0A1F920460DF0C4F92F
:1053400007F128000DF036F807F118000DF032F8DB
:105350009C37BD46BDE8F08FA488FF1F9063010015
:10536000D06301009C6301002C6F0020BC69002009
:1053700030C4FF1FD863010038620100E063010000
:10538000EC630100F0630100F488FF1FDC6301009F
:10539000E4630100E863010030B49DF80840072889
:1053A00000F2B980DFE800F0040E4850575F8D939B
:1053B0005A4B53F8213002F2924253F82230C3F88C
:1053C0009440A8E0042B00F2A680DFE803F0030D70
:1053D00017212B00514B53F8213002F2924253F81F
:1053E000223083F8834196E04C4B53F8213002F28F
:1053F000924253F8223083F884418CE0474B53F8B3
:10540000213002F2924253F8223083F8854182E043
:10541000424B53F8213002F2924253F8223083F883
:10542000864178E03D4B53F8213002F2924253F826
:10543000223083F887416EE04FF4D471384B01FB82
:105440000232C2F8944066E0344B53F8212041F216
:105450003823D4545FE04FF4D471324B01FB023255
:10546000C2F8944057E0042B2BD8DFE803F0030B7D
:10547000131B23004FF4D4712A4B01FB023383F832
:1054800083411EE04FF4D471264B01FB023383F8B5
:10549000844116E04FF4D471224B01FB023383F8B0
:1054A00085410EE04FF4D4711E4B01FB023383F8AB
:1054B000864106E04FF4D4711A4B01FB023383F8A6
:1054C0008741194B53F82230C3F8944023E0042B52
:1054D00021D8DFE803F003090F151B00124B53F826
:1054E000223083F8834116E00F4B53F8223083F8C3
:1054F000844110E00C4B53F8223083F885410AE0D8
:10550000094B53F8223083F8864104E0064B53F8E8
:10551000223083F8874130BC704700BFB488FF1F3A
:10552000E43C0020BCC5FF1FE088FF1FF0B591B030
:10553000464C2046464908F021F92046454908F0E6
:105540001DF92046444908F019F92046434908F05E
:1055500015F92046424908F011F9424D20462946E6
:1055600008F018F9684621462A46132308F076F811
:105570003D4C9DF804302371029BA3609DF80C30D4
:10558000237310AB53F8335D58689968C4F80D5015
:10559000C4F81100C4F815101B7B6376079BE36108
:1055A000684607F0A1FE314D28460FF033FF024652
:1055B00023685B6820462946984723682C4E5B6821
:1055C00020463146012298472A4F38460FF022FFE5
:1055D000024623685B6820463946984723685B6823
:1055E0002046314601229847234E204631680DF06F
:1055F000B7F8204607F0A2FE08A820490CF026FFC5
:105600000CA829460CF022FF08A80CA90CF0EAFF10
:105610001B490CF0F1FF01461A4C20460DF02EF804
:1056200020460DF051F80CA80CF0C4FE08A80CF0B0
:10563000C1FE23685B682046134913229847204621
:105640000DF042F80023336011B0F0BDBC690020BA
:10565000A4630100F463010094630100D0630100BE
:105660000464010054630100901300205089FF1F5F
:1056700060630100D888FF1F2CC4FF1F6463010012
:10568000706301002C6F002014640100032926D8E8
:10569000DFE801F0020B141D114B53F8201041F20A
:1056A0005C23CB58C3F8942070470D4B53F820303F
:1056B00003F593531B68C3F894207047084B53F8C5
:1056C000201041F26423CB58C3F894207047044B58
:1056D00053F8201041F26823CB58C3F89420704748
:1056E000B488FF1F2DE9F04190B008A82649274A49
:1056F000012307F0B3FF264B9DF824201A710A9A64
:105700009A609DF82C201A7310AA52F8135D546801
:105710009068C3F80D50C3F81140C3F81500127B10
:105720005A760F9ADA6108A807F0DEFDDFF860808C
:10573000184E194F68464146012208F037F868466E
:1057400007F008FEB8B100243578684607F0D2FDAE
:10575000035D05EB450504EB45057B550134052C40
:10576000F2D1337801333370684607F0E7FD6846BD
:1057700007F0BAFDDEE7684607F0B6FD044807F01B
:10578000DDFD10B0BDE8F081BC6900202864010097
:1057900030C4FF1FE8CFFF1F8465002038B50446E2
:1057A0001F4B53F820502B7C012B04D872B628468F
:1057B000FCF782FD00E072B6EB6862B6194A52F857
:1057C00024209A422AD013F0030F27D116490C70D7
:1057D0009A42ACBF4FF0FF320122124941F8243007
:1057E0004FF4D471114B01FB043393F8A810D3F894
:1057F000940002FB0102D3F89C108A42B8BF0A460B
:10580000D3F8A0104D1EAA42A8BF2A46C3F8942080
:10581000C3F89820064B01221A559A7138BD00BF73
:105820003089FF1F0898FF1F28690020E43C0020F2
:105830002089FF1F38B50446214B53F820502B7C9C
:10584000012B04D872B62846FCF736FD00E072B68C
:10585000EB6862B61B4A52F824209A422ED013F00D
:10586000030F2BD118490C709A42ACBF4FF0FF3296
:105870000122144941F82430144B1978144B53F881
:10588000213004F2974153F8213093F8A810D3F84F
:10589000940002FB0102D3F89C108A42B8BF0A466A
:1058A000D3F8A0104D1EAA42A8BF2A46C3F89420E0
:1058B000C3F89820074B01221A559A7138BD00BFD2
:1058C0003089FF1F0898FF1F286900200498FF1FD8
:1058D000B488FF1F2089FF1FF8B50446284B53F8F2
:1058E00020502B7C012B04D872B62846FCF7E4FC30
:1058F00000E072B6EB6862B6224A52F824209A425F
:105900003CD013F0030F39D11F490C709A42ACBF41
:105910004FF0FF3001201B4A42F82430661D1B4D1A
:105920001B4B1B7855F8233004F2974253F8223072
:1059300093F8A810D3F8947000FB0170D3F89C1072
:105940008842B8BF0846D3F8A01001F1FF3C60457B
:10595000A8BF6046C3F89400C3F898002B1F183501
:1059600053F8042F06F2924152F82120C2F8940015
:10597000AB42F5D1074B01221A559A71F8BD00BF11
:105980003089FF1F0898FF1F28690020B488FF1F77
:105990000498FF1F2089FF1F38B50446214B53F898
:1059A00020502B7C012B04D872B62846FCF784FCCF
:1059B00000E072B6EB6862B61B4A52F824209A42A5
:1059C0002ED013F0030F2BD118490C709A42ACBFA4
:1059D0004FF0FF320122144941F82430144B19785A
:1059E000144B53F8213004F2924153F8213093F8CC
:1059F000A810D3F8940002FB0102D3F89C108A424D
:105A0000B8BF0A46D3F8A0104D1EAA42A8BF2A4626
:105A1000C3F89420C3F89820074B01221A559A71B5
:105A200038BD00BF3089FF1F0898FF1F286900207C
:105A30000498FF1FB488FF1F2089FF1FF8B5044694
:105A40000546294B53F82060337C012B04D872B6ED
:105A50003046FCF731FC00E072B6F36862B6234AC8
:105A600052F824209A423ED013F0030F3BD1204934
:105A70000C709A42ACBF4FF0FF3001201B4A42F835
:105A800024301C4B1E781C4B53F8263004F29242F3
:105A900053F8223093F8A810D3F8947000FB0170EB
:105AA000D3F89C108842B8BF0846D3F8A01001F183
:105AB000FF3C6045A8BF6046C3F89400C3F8980057
:105AC0000E4B01221A559A7100230B4CB34207D09A
:105AD00054F8232005F2924152F82120C2F8940094
