:1000000000800020BD010000A50701006907010074
:10001000690701006907010069070100690701001C
:10002000690701006907010069070100A5070100D0
:10003000A507010069070100A50701005907010094
:10004000A5070100A5070100A5070100A5070100FC
:10005000A5070100A5070100A5070100A5070100EC
:10006000A5070100A5070100A5070100A5070100DC
:10007000A5070100A5070100A5070100A5070100CC
:10008000A5070100A5070100A5070100A5070100BC
:10009000A5070100A5070100A5070100A5070100AC
:1000A00025F20000A5070100A5070100A507010032
:1000B000A5070100A5070100A5070100A50701008C
:1000C000A5070100A5070100A5070100A50701007C
:1000D000A5070100A5070100A5070100A50701006C
:1000E000A5070100A5070100A5070100A50701005C
:1000F000A5070100E5110100A5070100412F01003E
:10010000A50701005D330100A5070100A507010057
:10011000A5070100A5070100A5070100A50701002B
:10012000A5070100A5070100A5070100A50701001B
:10013000A5070100A5070100A5070100A50701000B
:10014000A5070100A5070100A5070100A5070100FB
:100150003924010051240100692401008124010097
:10016000A5070100AD140100A5070100A5070100C6
:10017000A5070100A5070100A5070100A5070100CB
:10018000A5070100A5070100A5070100A5070100BB
:10019000A5070100A5070100A5070100A5070100AB
:1001A000A5070100A5070100A5070100A50701009B
:1001B000A5070100A5070100A507010010B56B4BBD
:1001C0004CF220521A804DF628121A8000BF00BF50
:1001D00010F0ECFA4FF01062654B1A60654A083374
:1001E0001A60654A04331A60A3F530432C3B1B6840
:1001F00013F4807F06D10022604B1A604FF4A8529E
:10020000043B1A605E4B1B7813F0080F04D05C4B64
:100210001A7842F008021A702A225A4B1A705A4B66
:100220005A4A9A420DD2131D594CE41A24F0030481
:1002300004340023104657495A581A500433A34235
:10024000FAD1554B554A9A4280F08B80131F54497E
:10025000C91A21F003011A1D1144002243F8042F8A
:100260008B42FBD17DE05A581A500433B3F5DE7F40
:10027000F9D14C4B80214C4A03F8011B9342FBD12E
:100280004A4B4B4A1A600A224A4B1A702422A3F6A0
:10029000FF731A70A022013B1A7006331A7812F00D
:1002A000020FFBD0444B1A7812F0100FFBD1424BD7
:1002B0001A7802F00C02082AFAD103223F4B1A7076
:1002C000402201331A7001331A7812F0200FFBD04C
:1002D000394B1A7812F0400FFBD0394A394B1A606B
:1002E000022204331A602022374B1A7006331A7820
:1002F00002F00C020C2AFAD1344A354B1A60354A06
:10030000354B1A60002204331A600722083B1A603A
:10031000324A03F551631A6062B610F00DFD174BB7
:100320001B6813F0010F05D02D4810F06BFC2D4A0F
:100330002D4B1A602D4B1B7813F0400F0AD02A4B1F
:100340001A68284B9A4205D1254810F05BFC002220
:10035000254B1A6014F0AAF910F02EFA12F06AF97F
:10036000FEE70023124822497DE700BF0E2005402A
:1003700030800440823F04000100002B14D0034071
:1003800002D0074000E00740B096FF1F8088FF1FA3
:10039000B396FF1F3C730100D4700020B096FF1F7E
:1003A000CF70002000E400E05FE400E008ED00E032
:1003B0000082FF1F005006400640064004400640F1
:1003C000000003014480044000400640C0100500C6
:1003D00004800440FF76010014E000E000002020CB
:1003E000EAF65C5AA5C3945A1CE0034000F00740AB
:1003F00000000000FFFFFFFFFFFFFFFFFFFFFFFF09
:10040000FFFFFFFFFFFFFFFFFFFFFFFFFEFFFFFFFD
:1004100010B5054C237833B9044B13B10448AFF33E
:1004200000800123237010BDB096FF1F0000000064
:100430003C73010008B5064B1BB106480649AFF3F3
:1004400000800648036813B1054B03B1984708BD07
:10045000000000003C730100B496FF1FB096FF1F20
:10046000000000000122014B1A707047BCECFF1F16
:100470000122014B1A70704731CEFF1F704700BF39
:1004800010B50446024912F039FA204610BD00BFEB
:10049000445A010010B50446044821460A220023AC
:1004A00012F01AF9024B1C6010BD00BF306F002023
:1004B0005CECFF1F10B5044612F0B2F8204610BDE8
:1004C00010B41A4BD3F880301A6814785A6811782F
:1004D0005A7A11409A7A02F00302187A044218BF3D
:1004E00042F0040209B142F0080291109972013AF7
:1004F0000D2A17D8DFE802F0070B0F0B16130707BA
:1005000013160B0F0B07DA680132DA600AE0DA68BB
:10051000013ADA6006E0DA680232DA6002E0DA68AC
:10052000023ADA605DF8044B704700BF346900207E
:1005300010B4194B9B6F1A6814785A6811785A7A5C
:1005400011409A7A02F00302187A044218BF42F06E
:10055000040209B142F0080291109972013A0D2A81
:1005600017D8DFE802F0070B0F0B16130707131657
:100570000B0F0B07DA680132DA600AE0DA68013A39
:10058000DA6006E0DA680232DA6002E0DA68023A3B
:10059000DA605DF8044B70473469002010B4194BE1
:1005A0005B6F1A6814785A6811785A7A11409A7AEF
:1005B00002F00302187A044218BF42F0040209B1A3
:1005C00042F0080291109972013A0D2A17D8DFE81B
:1005D00002F0070B0F0B1613070713160B0F0B0771
:1005E000DA680132DA600AE0DA68013ADA6006E0D5
:1005F000DA680232DA6002E0DA68023ADA605DF85C
:10060000044B70473469002010B4194B1B6F1A68F3
:1006100014785A6811785A7A11409A7A02F00302D3
:10062000187A044218BF42F0040209B142F00802ED
:1006300091109972013A0D2A17D8DFE802F0070BE2
:100640000F0B1613070713160B0F0B07DA6801328F
:10065000DA600AE0DA68013ADA6006E0DA68023263
:10066000DA6002E0DA68023ADA605DF8044B70475B
:100670003469002010B4194BDB6E1A6814785A687C
:1006800011785A7A11409A7A02F00302187A0442D9
:1006900018BF42F0040209B142F0080291109972A9
:1006A000013A0D2A17D8DFE802F0070B0F0B1613DB
:1006B000070713160B0F0B07DA680132DA600AE03E
:1006C000DA68013ADA6006E0DA680232DA6002E0FB
:1006D000DA68023ADA605DF8044B7047346900204A
:1006E00010B4194B9B6E1A6814785A6811785A7AAC
:1006F00011409A7A02F00302187A044218BF42F0BD
:10070000040209B142F0080291109972013A0D2ACF
:1007100017D8DFE802F0070B0F0B161307071316A5
:100720000B0F0B07DA680132DA600AE0DA68013A87
:10073000DA6006E0DA680232DA6002E0DA68023A89
:10074000DA605DF8044B70473469002010B4194B2F
:100750005B6E1A6814785A6811785A7A11409A7A3E
:1007600002F00302187A044218BF42F0040209B1F1
:1007700042F0080291109972013A0D2A17D8DFE869
:1007800002F0070B0F0B1613070713160B0F0B07BF
:10079000DA680132DA600AE0DA68013ADA6006E023
:1007A000DA680232DA6002E0DA68023ADA605DF8AA
:1007B000044B70473469002010B4194B1B6E1A6843
:1007C00014785A6811785A7A11409A7A02F0030222
:1007D000187A044218BF42F0040209B142F008023C
:1007E00091109972013A0D2A17D8DFE802F0070B31
:1007F0000F0B1613070713160B0F0B07DA680132DE
:10080000DA600AE0DA68013ADA6006E0DA680232B1
:10081000DA6002E0DA68023ADA605DF8044B7047A9
:100820003469002010B4194BDB6D1A6814785A68CB
:1008300011785A7A11409A7A02F00302187A044227
:1008400018BF42F0040209B142F0080291109972F7
:10085000013A0D2A17D8DFE802F0070B0F0B161329
:10086000070713160B0F0B07DA680132DA600AE08C
:10087000DA68013ADA6006E0DA680232DA6002E049
:10088000DA68023ADA605DF8044B70473469002098
:1008900010B4194BDB6F1A6814785A6811785A7AB9
:1008A00011409A7A02F00302187A044218BF42F00B
:1008B000040209B142F0080291109972013A0D2A1E
:1008C00017D8DFE802F0070B0F0B161307071316F4
:1008D0000B0F0B07DA680132DA600AE0DA68013AD6
:1008E000DA6006E0DA680232DA6002E0DA68023AD8
:1008F000DA605DF8044B70473469002010B4194B7E
:100900009B6D1A6814785A6811785A7A11409A7A4D
:1009100002F00302187A044218BF42F0040209B13F
:1009200042F0080291109972013A0D2A17D8DFE8B7
:1009300002F0070B0F0B1613070713160B0F0B070D
:10094000DA680132DA600AE0DA68013ADA6006E071
:10095000DA680232DA6002E0DA68023ADA605DF8F8
:10096000044B70473469002010B4194B5B6D1A6852
:1009700014785A6811785A7A11409A7A02F0030270
:10098000187A044218BF42F0040209B142F008028A
:1009900091109972013A0D2A17D8DFE802F0070B7F
:1009A0000F0B1613070713160B0F0B07DA6801322C
:1009B000DA600AE0DA68013ADA6006E0DA68023200
:1009C000DA6002E0DA68023ADA605DF8044B7047F8
:1009D0003469002010B4194B1B6D1A6814785A68DA
:1009E00011785A7A11409A7A02F00302187A044276
:1009F00018BF42F0040209B142F008029110997246
:100A0000013A0D2A17D8DFE802F0070B0F0B161377
:100A1000070713160B0F0B07DA680132DA600AE0DA
:100A2000DA68013ADA6006E0DA680232DA6002E097
:100A3000DA68023ADA605DF8044B704734690020E6
:100A400010B4194BDB6C1A6814785A6811785A7A0A
:100A500011409A7A02F00302187A044218BF42F059
:100A6000040209B142F0080291109972013A0D2A6C
:100A700017D8DFE802F0070B0F0B16130707131642
:100A80000B0F0B07DA680132DA600AE0DA68013A24
:100A9000DA6006E0DA680232DA6002E0DA68023A26
:100AA000DA605DF8044B70473469002010B4194BCC
:100AB0009B6C1A6814785A6811785A7A11409A7A9D
:100AC00002F00302187A044218BF42F0040209B18E
:100AD00042F0080291109972013A0D2A17D8DFE806
:100AE00002F0070B0F0B1613070713160B0F0B075C
:100AF000DA680132DA600AE0DA68013ADA6006E0C0
:100B0000DA680232DA6002E0DA68023ADA605DF846
:100B1000044B70473469002010B4194B5B6C1A68A1
:100B200014785A6811785A7A11409A7A02F00302BE
:100B3000187A044218BF42F0040209B142F00802D8
:100B400091109972013A0D2A17D8DFE802F0070BCD
:100B50000F0B1613070713160B0F0B07DA6801327A
:100B6000DA600AE0DA68013ADA6006E0DA6802324E
:100B7000DA6002E0DA68023ADA605DF8044B704746
:100B80003469002010B4194B1B6C1A6814785A6829
:100B900011785A7A11409A7A02F00302187A0442C4
:100BA00018BF42F0040209B142F008029110997294
:100BB000013A0D2A17D8DFE802F0070B0F0B1613C6
:100BC000070713160B0F0B07DA680132DA600AE029
:100BD000DA68013ADA6006E0DA680232DA6002E0E6
:100BE000DA68023ADA605DF8044B70473469002035
:100BF00010B4194BDB6B1A6814785A6811785A7A5A
:100C000011409A7A02F00302187A044218BF42F0A7
:100C1000040209B142F0080291109972013A0D2ABA
:100C200017D8DFE802F0070B0F0B16130707131690
:100C30000B0F0B07DA680132DA600AE0DA68013A72
:100C4000DA6006E0DA680232DA6002E0DA68023A74
:100C5000DA605DF8044B70473469002010B4194B1A
:100C60009B6B1A6814785A6811785A7A11409A7AEC
:100C700002F00302187A044218BF42F0040209B1DC
:100C800042F0080291109972013A0D2A17D8DFE854
:100C900002F0070B0F0B1613070713160B0F0B07AA
:100CA000DA680132DA600AE0DA68013ADA6006E00E
:100CB000DA680232DA6002E0DA68023ADA605DF895
:100CC000044B70473469002010B4194B5B6B1A68F1
:100CD00014785A6811785A7A11409A7A02F003020D
:100CE000187A044218BF42F0040209B142F0080227
:100CF00091109972013A0D2A17D8DFE802F0070B1C
:100D00000F0B1613070713160B0F0B07DA680132C8
:100D1000DA600AE0DA68013ADA6006E0DA6802329C
:100D2000DA6002E0DA68023ADA605DF8044B704794
:100D30003469002010B4194B1B6B1A6814785A6878
:100D400011785A7A11409A7A02F00302187A044212
:100D500018BF42F0040209B142F0080291109972E2
:100D6000013A0D2A17D8DFE802F0070B0F0B161314
:100D7000070713160B0F0B07DA680132DA600AE077
:100D8000DA68013ADA6006E0DA680232DA6002E034
:100D9000DA68023ADA605DF8044B70473469002083
:100DA00010B4194BDB6A1A6814785A6811785A7AA9
:100DB00011409A7A02F00302187A044218BF42F0F6
:100DC000040209B142F0080291109972013A0D2A09
:100DD00017D8DFE802F0070B0F0B161307071316DF
:100DE0000B0F0B07DA680132DA600AE0DA68013AC1
:100DF000DA6006E0DA680232DA6002E0DA68023AC3
:100E0000DA605DF8044B70473469002010B4194B68
:100E10009B6A1A6814785A6811785A7A11409A7A3B
:100E200002F00302187A044218BF42F0040209B12A
:100E300042F0080291109972013A0D2A17D8DFE8A2
:100E400002F0070B0F0B1613070713160B0F0B07F8
:100E5000DA680132DA600AE0DA68013ADA6006E05C
:100E6000DA680232DA6002E0DA68023ADA605DF8E3
:100E7000044B70473469002010B4194B5B6A1A6840
:100E800014785A6811785A7A11409A7A02F003025B
:100E9000187A044218BF42F0040209B142F0080275
:100EA00091109972013A0D2A17D8DFE802F0070B6A
:100EB0000F0B1613070713160B0F0B07DA68013217
:100EC000DA600AE0DA68013ADA6006E0DA680232EB
:100ED000DA6002E0DA68023ADA605DF8044B7047E3
:100EE0003469002010B4194B1B6A1A6814785A68C8
:100EF00011785A7A11409A7A02F00302187A044261
:100F000018BF42F0040209B142F008029110997230
:100F1000013A0D2A17D8DFE802F0070B0F0B161362
:100F2000070713160B0F0B07DA680132DA600AE0C5
:100F3000DA68013ADA6006E0DA680232DA6002E082
:100F4000DA68023ADA605DF8044B704734690020D1
:100F500010B4194BDB691A6814785A6811785A7AF8
:100F600011409A7A02F00302187A044218BF42F044
:100F7000040209B142F0080291109972013A0D2A57
:100F800017D8DFE802F0070B0F0B1613070713162D
:100F90000B0F0B07DA680132DA600AE0DA68013A0F
:100FA000DA6006E0DA680232DA6002E0DA68023A11
:100FB000DA605DF8044B70473469002010B4194BB7
:100FC0009B691A6814785A6811785A7A11409A7A8B
:100FD00002F00302187A044218BF42F0040209B179
:100FE00042F0080291109972013A0D2A17D8DFE8F1
:100FF00002F0070B0F0B1613070713160B0F0B0747
:10100000DA680132DA600AE0DA68013ADA6006E0AA
:10101000DA680232DA6002E0DA68023ADA605DF831
:10102000044B70473469002010B4194B5B691A688F
:1010300014785A6811785A7A11409A7A02F00302A9
:10104000187A044218BF42F0040209B142F00802C3
:1010500091109972013A0D2A17D8DFE802F0070BB8
:101060000F0B1613070713160B0F0B07DA68013265
:10107000DA600AE0DA68013ADA6006E0DA68023239
:10108000DA6002E0DA68023ADA605DF8044B704731
:101090003469002010B4194B1B691A6814785A6817
:1010A00011785A7A11409A7A02F00302187A0442AF
:1010B00018BF42F0040209B142F00802911099727F
:1010C000013A0D2A17D8DFE802F0070B0F0B1613B1
:1010D000070713160B0F0B07DA680132DA600AE014
:1010E000DA68013ADA6006E0DA680232DA6002E0D1
:1010F000DA68023ADA605DF8044B70473469002020
:1011000010B4194BDB681A6814785A6811785A7A47
:1011100011409A7A02F00302187A044218BF42F092
:10112000040209B142F0080291109972013A0D2AA5
:1011300017D8DFE802F0070B0F0B1613070713167B
:101140000B0F0B07DA680132DA600AE0DA68013A5D
:10115000DA6006E0DA680232DA6002E0DA68023A5F
:10116000DA605DF8044B70473469002010B4194B05
:101170009B681A6814785A6811785A7A11409A7ADA
:1011800002F00302187A044218BF42F0040209B1C7
:1011900042F0080291109972013A0D2A17D8DFE83F
:1011A00002F0070B0F0B1613070713160B0F0B0795
:1011B000DA680132DA600AE0DA68013ADA6006E0F9
:1011C000DA680232DA6002E0DA68023ADA605DF880
:1011D000044B70473469002010B4194B5B681A68DF
:1011E00014785A6811785A7A11409A7A02F00302F8
:1011F000187A044218BF42F0040209B142F0080212
:1012000091109972013A0D2A17D8DFE802F0070B06
:101210000F0B1613070713160B0F0B07DA680132B3
:10122000DA600AE0DA68013ADA6006E0DA68023287
:10123000DA6002E0DA68023ADA605DF8044B70477F
:101240003469002010B4194B1B681A6814785A6866
:1012500011785A7A11409A7A02F00302187A0442FD
:1012600018BF42F0040209B142F0080291109972CD
:10127000013A0D2A17D8DFE802F0070B0F0B1613FF
:10128000070713160B0F0B07DA680132DA600AE062
:10129000DA68013ADA6006E0DA680232DA6002E01F
:1012A000DA68023ADA605DF8044B7047346900206E
:1012B00010B41A4BD3F884301A6814785A6811782D
:1012C0005A7A11409A7A02F00302187A044218BF3F
:1012D00042F0040209B142F0080291109972013AF9
:1012E0000D2A17D8DFE802F0070B0F0B16130707BC
:1012F00013160B0F0B07DA680132DA600AE0DA68BE
:10130000013ADA6006E0DA680232DA6002E0DA68AE
:10131000023ADA605DF8044B704700BF3469002080
:1013200038B504460D46084614F074F802462368A2
:101330005B682046294698470546204611F0BCF9CF
:10134000284438BD70B504460E46154608460221AD
:101350000FF09AFC284602210FF096FCA64A52F89C
:10136000363003F5007121600121217252F83520D9
:1013700002F50070606061720021E1604FF47A4113
:1013800001397FF4FDAF93F8003203F0010392F8C6
:10139000002212F0010F1CBF43F00203DBB2A37264
:1013A000212E00F29681DFE816F022002B00340097
:1013B0003D0046004F00580061006A0073007C0049
:1013C00085008E009700A000A900B200BB00C400F9
:1013D000CD00D600DF00E800F100FA0003010C01A7
:1013E00015011E0165016E01770180018A01834BA1
:1013F0001C600020824904220FF0A4FB012369E154
:101400007E4B5C6001207F4904220FF09BFB01238F
:1014100060E17A4B9C6002207B4904220FF092FB32
:10142000012357E1754BDC600320784904220FF05B
:1014300089FB01234EE1714B1C6104207449024673
:101440000FF080FB012345E16C4B5C610520714985
:1014500004220FF077FB01233CE1684B9C610620DE
:101460006D4904220FF06EFB012333E1634BDC6115
:1014700007206A4904220FF065FB01232AE15F4B34
:101480001C620820664904220FF05CFB012321E165
:101490005A4B5C620920634904220FF053FB01237D
:1014A00018E1564B9C620A205F4904220FF04AFB68
:1014B00001230FE1514BDC620B205C4904220FF049
:1014C00041FB012306E14D4B1C630C2058490422CB
:1014D0000FF038FB0123FDE0484B5C630D205549BC
:1014E00004220FF02FFB0123F4E0444B9C630E20F9
:1014F000514904220FF026FB0123EBE03F4BDC6354
:101500000F204E4904220FF01DFB0123E2E03B4B6C
:101510001C6410204A4904220FF014FB0123D9E077
:10152000364B5C641120474904220FF00BFB01236A
:10153000D0E0324B9C641220434904220FF002FB9E
:101540000123C7E02D4BDC641320404904220FF037
:10155000F9FA0123BEE0294B1C6514203C49042202
:101560000FF0F0FA0123B5E0244B5C6515203949F2
:1015700004220FF0E7FA0123ACE0204B9C65162013
:10158000354904220FF0DEFA0123A3E01B4BDC6592
:101590001720324904220FF0D5FA01239AE0174BA5
:1015A0001C6618202E4904220FF0CCFA012391E08A
:1015B000124B5C6619202B4904220FF0C3FA012359
:1015C00088E00E4B9C661A20274904220FF0BAFAD5
:1015D00001237FE0094BDC661B20244904220FF025
:1015E000B1FA012376E0054B1C671C202049042238
:1015F0000FF0A8FA01236DE0606F0100346900204C
:1016000045120000D91100006D1100000111000009
:101610009510000029100000BD0F0000510F0000C0
:10162000E50E0000790E00000D0E0000A10D000077
:10163000350D0000C90C00005D0C0000F10B00002E
:10164000850B0000190B0000AD0A0000410A0000E4
:10165000D509000069090000FD0800002508000008
:10166000B90700004D070000E10600007506000004
:1016700009060000A54B5C671D20A54904220FF058
:1016800061FA012326E0A14B9C671E20A149042298
:101690000FF058FA01231DE09C4BDC671F209E4988
:1016A00004220FF04FFA012314E0984BC3F8804056
:1016B00020209A4904220FF045FA01230AE0934BB7
:1016C000C3F884402120964904220FF03BFA0123FD
:1016D00000E000232374212D00F29B81DFE815F048
:1016E00022002B0034003D0046004F0058006100EE
:1016F0006A0073007C0085008E009700A000A9009E
:10170000B200BB00C400CD00D600DF00E800F1004D
:10171000FA0003010C01580161016A0173017C01A7
:1017200085018F01794B1C6000207E4904220FF057
:1017300009FA01226EE1754B5C6001207A490422AE
:101740000FF000FA012265E1704B9C60022077499E
:1017500004220FF0F7F901225CE16C4BDC600320FE
:10176000734904220FF0EEF9012253E1674B1C612B
:101770000420704902460FF0E5F901224AE1634B6B
:101780005C6105206C4904220FF0DCF9012241E183
:101790005E4B9C610620694904220FF0D3F90122B7
:1017A00038E15A4BDC610720654904220FF0CAF981
:1017B00001222FE1554B1C620820624904220FF0E0
:1017C000C1F9012226E1514B5C6209205E490422E5
:1017D0000FF0B8F901221DE14C4B9C620A205B49D5
:1017E00004220FF0AFF9012214E1484BDC620B2018
:1017F000574904220FF0A6F901220BE1434B1C6369
:101800000C20544904220FF09DF9012202E13F4BC4
:101810005C630D20504904220FF094F90122F9E095
:101820003A4B9C630E204D4904220FF08BF90122A4
:10183000F0E0364BDC630F20494904220FF082F9B7
:101840000122E7E0314B1C641020464904220FF0CE
:1018500079F90122DEE02D4B5C641120424904221B
:101860000FF070F90122D5E0284B9C6412203F490B
:1018700004220FF067F90122CCE0244BDC64132032
:101880003B4904220FF05EF90122C3E01F4B1C65A7
:101890001420384904220FF055F90122BAE01B4BFD
:1018A0005C651520344904220FF04CF90122B1E0A7
:1018B000164B9C651620314904220FF043F9012292
:1018C000A8E0124BDC6517202D4904220FF03AF9ED
:1018D00001229FE00D4B1C6618202A4904220FF0BC
:1018E00031F9012296E0094B5C6619202649042251
:1018F0000FF028F901228DE0044B9C661A20234941
:1019000004220FF01FF9012284E000BF3469002097
:101910009D0500003105000091080000C104000091
:10192000B112000045120000D91100006D11000035
:10193000011100009510000029100000BD0F0000EB
:10194000510F0000E50E0000790E00000D0E0000A2
:10195000A10D0000350D0000C90C00005D0C000059
:10196000F10B0000850B0000190B0000AD0A000010
:10197000410A0000D509000069090000FD080000C7
:1019800025080000B90700004D070000E10600002F
:10199000234BDC661B20234904220FF0D3F80122DD
:1019A00038E01F4B1C671C201F4904220FF0CAF8A7
:1019B00001222FE01A4B5C671D201C4904220FF006
:1019C000C1F8012226E0164B9C671E20184904220C
:1019D0000FF0B8F801221DE0114BDC671F201549FC
:1019E00004220FF0AFF8012214E00D4BC3F8804041
:1019F0002020114904220FF0A5F801220AE0084B2B
:101A0000C3F8844021200D4904220FF09BF80122E5
:101A100000E00022237C13442374204670BD00BFE5
:101A20003469002075060000090600009D050000CD
:101A30003105000091080000C1040000B11200004F
:101A400010B403681C7843681A78437A1A40837A82
:101A500003F00303017A0C4218BF43F004030AB1F8
:101A600043F008039A108272013B0D2B17D8DFE870
:101A700003F0070B0F0B1613070713160B0F0B07BB
:101A8000C3680133C3600AE0C368013BC36006E07A
:101A9000C3680233C36002E0C368023BC3605DF801
:101AA000044B70472DE9F0470446844B40F8043B53
:101AB000834E4FF08008314642460EF003FC01276A
:101AC00084F89170002584F89250C4F89450C4F8BA
:101AD0009850C4F89C50C4F8A050C4F8A45084F89E
:101AE000A85004F1EC002946A82213F047F984F825
:101AF000EC70022384F8ED30032384F8EE300423E5
:101B000084F8EF30052384F8F0304FF0060984F8AC
:101B1000F190072384F8F230082384F8F3304FF073
:101B2000100C84F8F4C0202384F8F530402284F8A7
:101B3000F62084F8F780634BC4F8FC3003F50F23DC
:101B400003F50063C4F80031A3F59E23C4F8043103
:101B5000A3F50F23A3F6FF63C4F80831A3F5A02370
:101B6000A3F20243C4F80C31574BC4F8103103F50B
:101B70008033C4F8143106EB080393E80300C4F87B
:101B8000180184F81C1184F81D5184F81E5184F842
:101B90001F5184F82051D6F88C00C4F8210184F834
:101BA000255184F8265184F8275184F8285184F867
:101BB0002951334653F8980FC4F82A0198889B7925
:101BC000A4F82E0184F8303184F8315184F8325170
:101BD0003E4B03CBC4F83301C4F837111B7884F8AB
:101BE0003B3106F1A40393E80300C4F83C01A4F8D8
:101BF000401121FA0CF184F8421184F8435184F821
:101C00004451D6F8B000C4F8450184F8495184F82D
:101C10004A5184F84B5184F84C5184F84D51D6F810
:101C2000BC00C4F84E01A4F85251A4F8545184F8F1
:101C30005651274B1868C4F85701264B1868C4F84A
:101C40005B01254B1868C4F85F01244B1868C4F881
:101C50006301234B1868C4F8670184F8739184F812
:101C600074C1642384F8753184F8768184F87781AF
:101C70001E2384F87C3184F87E2184F8837184F8F3
:101C8000847184F8872184F8907184F8917104F24A
:101C90008313C4F8943104F5C273C4F8983104F284
:101CA0008513C4F89C3104F5C373C4F8A03104F261
:101CB0008713C4F8A4312046BDE8F08740590100DD
:101CC0004859010053494E0043563100505A010013
:101CD0005C5A0100605A0100645A0100685A010010
:101CE0006C5A0100F0B595B005460C4604A88D313C
:101CF00010F004FE684604A910F01EFE204E68464F
:101D0000314610F0D1FE074608A8D4F898100A22F0
:101D100010F044FE384608A910F0BCFE314610F021
:101D2000C3FE06460CA8D4F894100A2210F036FE22
:101D300030460CA910F0AEFE124910F0B5FE064672
:101D400010A8D4F888110A2210F028FE304610A9F5
:101D500010F0A0FE0146284610F0EEFD10A810F08D
:101D600081FD0CA810F07EFD08A810F07BFD6846F0
:101D700010F078FD04A810F075FD284615B0F0BDF0
:101D8000705A0100745A01002DE9F843044689464F
:101D900090F8847190F88151C31993F8EC30ED1AE2
:101DA00005F07F0580F8815190F88331042B00F213
:101DB0000481DFE803F003305785CD00D0F8A06040
:101DC000D0F89C30F61A90F8850111F0C9FDACA34B
:101DD000D3E9002311F02AFE12F0EAF880463046DB
:101DE00012F0F0F9074694F887311D4405F07F059D
:101DF0002544287912F0E2F9A34912F0EBFA4146A2
:101E000012F034FA0146384612F030FA12F0F4FBC0
:101E1000C4F8A400D1E0D0F8A060D0F89C30F61A45
:101E200090F8850111F09CFD95A3D3E9002311F0F2
:101E3000FDFD12F0BDF88046304612F0C3F90746AA
:101E4000680012F0BFF9904912F0C4FA414612F04E
:101E50000DFA0146384612F009FA12F0CDFBC4F82B
:101E6000A400AAE090F88701854204D3854294BF7C
:101E70000025012500E00025D4F8A060D4F89C30AE
:101E8000F61A94F8850111F06BFD7DA3D3E90023C8
:101E900011F0CCFD12F08CF88046304612F092F929
:101EA0000746284612F08EF9414612F0DFF9014646
:101EB000384612F0DBF912F09FFBC4F8A4007CE076
:101EC00090F88771BD42C0F0C480D0F8A060D0F80F
:101ED0009C30F61A90F8850111F042FD68A3D3E911
:101EE000002311F0A3FD12F063F88046BD4217D81D
:101EF00006EBD670401012F065F90746680012F044
:101F000061F9614912F066FA414612F0AFF90146F3
:101F1000384612F0ABF912F06FFBC4F8A4004CE0A5
:101F200006EBD670401012F04DF90746680012F02B
:101F300049F9554912F04EFA414612F097F9014617
:101F4000384612F093F912F057FBC4F8A40034E0BD
:101F5000D0F8A060D0F89C30F61A90F8850111F006
:101F6000FFFC47A3D3E9002311F060FD12F020F835
:101F70008046E71B97F8FC30B9FBF3F203FB12999C
:101F800019F0FF0F19D10020FF2110F053FC074674
:101F9000304612F017F90546384612F013F93A495F
:101FA00012F018FA414612F061F90146284612F083
:101FB0005DF912F021FBC4F8A40094F88531002BE0
:101FC00042D0D4F8940094F88651D4F89C70D4F898
:101FD000A020D4F8A41001442944B942B8BF39461E
:101FE0009142D4BFC4F89810C4F898204119914286
:101FF000D4BFC4F88C11C4F88C2112F0E3F88146E8
:10200000304612F0DFF8414612F030F901464846FA
:1020100012F024F80646284612F0D4F8014630465D
:1020200012F01CF80546384612F0CCF80646284651
:10203000314612F0B9FA08B1304600E0284612F0F5
:10204000DBFAC4F8880116E0D4F89430C4F898306C
:1020500011E0D0F8A060D0F89C30F61A90F8850115
:1020600011F07EFC06A3D3E9002311F0DFFC11F090
:102070009FFF80463CE70020BDE8F883AFF3008077
:102080007B14AE47E17A843F00007F43AFF30080CA
:102090002DE9F04F99B007468B4600920026049632
:1020A00005A831463C2212F069FE18A840F8546D8C
:1020B000314613F051F93446DFF8F8A071E03B5D8A
:1020C000612B0DD100238DF810305AF82B20009988
:1020D00002EB4112324453740136F6B201935FE0D1
:1020E000622B0ED100238DF810305AF82B30009A55
:1020F00003EB42139A19552353740136F6B2019338
:102100004EE0632B0ED100238DF810305AF82B309F
:10211000009903EB41139A19AA2353740136F6B2BE
:1021200001933DE0642B0ED100238DF810305AF856
:102130002B30009A03EB42139A19FF235374013694
:10214000F6B201932CE018A901F8553D3D446D7895
:1021500004A813F061F8303D092D21D9002509E0CC
:102160005AF82B30009903EB41139844019A88F8F0
:102170001120013506EB05085FFA88F814A804A9B8
:1021800010F0BCFB14A810F0B5FC814614A810F0A8
:1021900069FB5FFA89F909F1FF394D45E0DB4646F5
:1021A00001342546384613F035F9844287D319B0F7
:1021B000BDE8F08FF488FF1F2DE9F04F89B0044689
:1021C000E84940F8041BDFF8CC93802749463A469B
:1021D0000EF078F8012684F89160002584F892507A
:1021E000C4F89450C4F89850C4F89C50C4F8A05057
:1021F000C4F8A45084F8A85004F1EC002946A822A1
:1022000012F0BCFD84F8EC604FF0020284F8ED207F
:102210004FF0030384F8EE304FF0040E84F8EFE043
:102220004FF0050084F8F0004FF0060B84F8F1B091
:102230004FF0070184F8F2104FF0080284F8F32001
:102240004FF0100A84F8F4A04FF0200384F8F53022
:102250004FF0400884F8F68084F8F770C248C4F85C
:10226000FC00C249C4F80011C14AC4F80421C14BA2
:10227000C4F80831A0F51F20A0F60130C4F80C0105
:10228000BD49C4F81011BD4AC4F8142109F18003F6
:1022900093E80300C4F8180184F81C1184F81D5158
:1022A00084F81E5184F81F5184F82051CE465EF800
:1022B0008C0FCDF804E0C4F8210184F8255184F88E
:1022C000265184F8275184F8285184F82951494629
:1022D00051F8980F0091C4F82A018A88049291F865
:1022E00006E0CDF814E0A4F82E2184F830E184F85B
:1022F000315184F83251A24B03CBC4F83301C4F8F6
:1023000037111B78069384F83B3109F1A40292E857
:102310000300C4F83C01A4F8401121FA0AF184F842
:10232000421184F8435184F844514B4653F8B00F9E
:102330000293C4F8450184F8495184F84A5184F85D
:102340004B5184F84C5184F84D51CE465EF8BC0F89
:10235000CDF80CE0C4F84E01A4F85251A4F8545141
:1023600084F8565187490868C4F85701864A1068AE
:10237000C4F85B01854B1868C4F85F01DFF818E208
:10238000DEF80000C4F8630181490868C4F86701F9
:1023900084F873B184F874A14FF0640284F8752155
:1023A00084F8767184F877714FF01E0384F87C31DD
:1023B00084F87E8184F8836184F8846184F887815D
:1023C00084F8906184F8916104F28313C4F8943125
:1023D00004F5C273C4F8983104F28513C4F89C3133
:1023E00004F5C373C4F8A03104F28713C4F8A43110
:1023F0005C48C4F8A80104F5D67049463A460DF089
:1024000061FF84F8396284F83A52C4F83C52C4F847
:102410004052C4F84452C4F84852C4F84C5284F8AC
:10242000505204F525702946A82212F0A7FC84F822
:1024300094624FF0020184F895124FF0030284F881
:1024400096224FF0040384F897324FF0050E84F87B
:1024500098E284F899B24FF0070084F89A024FF09E
:10246000080184F89B1284F89CA24FF0200284F8A3
:102470009D2284F89E8284F89F723B4BC4F8A4325C
:102480003A48C4F8A8023A49C4F8AC12394AC4F828
:10249000B022A3F51F23A3F60133C4F8B4323648A3
:1024A000C4F8B8023549C4F8BC1209F1800292E8B8
:1024B0000300C4F8C00284F8C41284F8C55284F83A
:1024C000C65284F8C75284F8C852019B1868C4F8F1
:1024D000C90284F8CD5284F8CE5284F8CF5284F8E1
:1024E000D05284F8D152DDF800E0DEF80000C4F8E4
:1024F000D2020498A4F8D602059984F8D81284F878
:10250000D95284F8DA521E4B03CBC4F8DB02C4F86C
:10251000DF12069B84F8E33209F1A40E9EE8030063
:10252000C4F8E402A4F8E81221FA0AF184F8EA12E5
:1025300084F8EB5284F8EC5202990868C4F8ED0272
:1025400084F8F15284F8F25284F8F35284F8F45289
:1025500084F8F552039A1068C4F8F602A4F8FA5207
:102560001CE000BF4059010053494E005341570041
:1025700053515200545249004356310043563200E1
:10258000505A01005C5A0100605A0100645A01006F
:102590006C5A010048590100685A0100A4F8FC5225
:1025A00084F8FE52EA4B1868C4F8FF02DFF8D0E363
:1025B000DEF80000C4F80303E6490868C4F807031E
:1025C000E54A1068C4F80B03E44B1868C4F80F031D
:1025D00084F81BB384F81CA34FF0640E84F81DE349
:1025E00084F81E7384F81F734FF01E0084F82403D0
:1025F00084F8268384F82B6384F82C6384F82F8373
:1026000084F8386384F8396304F22B33C4F83C331C
:1026100004F54B73C4F8403304F22D33C4F844334B
:1026200004F22E33C4F8483304F22F33C4F84C3389
:1026300004F5547107910846FFF734FAC84AC4F804
:10264000F82404F2FC4049463A460DF03BFE84F87B
:10265000896584F88A55C4F88C55C4F89055C4F837
:102660009455C4F89855C4F89C5584F8A05504F2C4
:10267000E4502946A82212F081FB84F8E4654FF06B
:10268000020384F8E5354FF0030E84F8E6E54FF0D9
:10269000040084F8E7054FF0050184F8E81584F894
:1026A000E9B54FF0070284F8EA254FF0080384F8F3
:1026B000EB3584F8ECA54FF0200E84F8EDE584F8B6
:1026C000EE8584F8EF75A748C4F8F405A649C4F868
:1026D000F815A64AC4F8FC25A54BC4F80036A0F5A9
:1026E0001F20A0F60130C4F80406A249C4F8081659
:1026F000A14AC4F80C2609F1800393E80300C4F84A
:10270000100684F8141684F8155684F8165684F8C2
:10271000175684F81856DDF804E0DEF80000C4F817
:10272000190684F81D5684F81E5684F81F5684F83E
:10273000205684F8215600990868C4F82206049AA5
:10274000A4F82626059884F8280684F8295684F8E3
:102750002A568A4B03CBC4F82B06C4F82F160699C9
:1027600084F8331609F1A40292E80300C4F8340691
:10277000A4F8381621FA0AF184F83A1684F83B5680
:1027800084F83C56029B1868C4F83D0684F841560C
:1027900084F8425684F8435684F8445684F84556E3
:1027A000DDF80CE0DEF80000C4F84606A4F84A564E
:1027B000A4F84C5684F84E5665490868C4F84F068C
:1027C0006F4A1068C4F85306624B1868C4F857067D
:1027D000DFF884E1DEF80000C4F85B065F490868B2
:1027E000C4F85F0684F86BB684F86CA64FF06402F8
:1027F00084F86D2684F86E7684F86F764FF01E03A9
:1028000084F8743684F8768684F87B6684F87C666F
:1028100084F87F8684F8886684F8896604F27B638E
:10282000C4F88C3604F27C63C4F8903604F27D63FD
:10283000C4F8943604F27E63C4F8983604F27F63D9
:10284000C4F89C364648C4F8A00604F2A460494681
:102850003A460DF037FD84F8316784F83257C4F8F2
:102860003457C4F83857C4F83C57C4F84057C4F834
:10287000445784F8485704F28C702946A82212F075
:102880007DFA84F88C674FF0020184F88D174FF0C1
:10289000030284F88E274FF0040384F88F374FF03B
:1028A000050E84F890E784F891B74FF0070084F89C
:1028B00092074FF0080184F8931784F894A74FF01B
:1028C000200284F8952784F8968784F89777254B1B
:1028D000C4F89C372448C4F8A0072449C4F8A417B6
:1028E000234AC4F8A827A3F51F23A3F60133C4F88D
:1028F000AC372048C4F8B0071F49C4F8B41709F131
:10290000800292E80300C4F8B80784F8BC1784F882
:10291000BD5784F8BE5784F8BF5784F8C057019B51
:102920001868C4F8C10784F8C55704F2C67303F8E1
:10293000015B03F8015B03F8015B1D70CA465AF89E
:10294000980FC4F8CA07BAF804E0CDF808E019E017
:102950005C5A0100645A0100685A01006C5A010077
:102960004059010053494E00534157005351520002
:10297000545249004356310043563200505A010028
:10298000605A01009AF806000390A4F8CEE784F894
:10299000D00784F8D15784F8D257EA4B03CBC4F858
:1029A000D307C4F8D7171B78049384F8DB3709F1F1
:1029B000A40292E80300C4F8DC07A4F8E017090CAD
:1029C00084F8E21784F8E35784F8E4574B4653F849
:1029D000B00F0093C4F8E50784F8E95784F8EA5784
:1029E00084F8EB5784F8EC5784F8ED57CE465EF840
:1029F000BC0FCDF804E0C4F8EE07A4F8F257A4F831
:102A0000F45784F8F657D0490868C4F8F707CF4A56
:102A10001068C4F8FB07CE4B1868C4F8FF07DFF84E
:102A200054E3DEF80000C4F80308CA490868C4F893
:102A3000070884F813B84FF0100284F814284FF0F8
:102A4000640384F8153884F8167884F817784FF002
:102A50001E0E84F81CE884F81E8884F8236884F825
:102A6000246884F8278884F8306884F8316804F68C
:102A70002303C4F8343804F62403C4F8383804F6C1
:102A80002503C4F83C3804F62603C4F8403804F69D
:102A90002703C4F84438B048C4F8480804F64C008A
:102AA00049463A460DF00EFC84F8D96884F8DA58A5
:102AB000C4F8DC58C4F8E058C4F8E458C4F8E8583E
:102AC000C4F8EC5884F8F05804F634102946A822CB
:102AD00012F054F984F834694FF0020184F8351982
:102AE0004FF0030284F836294FF0040384F8373995
:102AF0004FF0050E84F838E984F839B94FF0070033
:102B000084F83A094FF0080184F83B194FF010029D
:102B100084F83C294FF0200384F83D3984F83E893D
:102B200084F83F798D48C4F844098D49C4F84819A0
:102B30008C4AC4F84C298C4BC4F85039A0F51F209E
:102B4000A0F60130C4F854098849C4F85819884AD5
:102B5000C4F85C2909F1800393E80300C4F8600914
:102B600084F8641984F8655984F8665984F86759BB
:102B700084F86859CE465EF88C0FCDF814E0C4F89E
:102B8000690984F86D5984F86E5984F86F5984F88E
:102B9000705984F87159DAF80000C4F87209029883
:102BA000A4F87609039984F8781984F8795984F897
:102BB0007A59644B03CBC4F87B09C4F87F19049B92
:102BC00084F8833909F1A40E9EE80300C4F884094F
:102BD000A4F88819090C84F88A1984F88B5984F8A8
:102BE0008C5900990868C4F88D0984F8915984F8C3
:102BF000925984F8935984F8945984F89559019A14
:102C00001068C4F89609A4F89A59A4F89C5984F855
:102C10009E594D4B1868C4F89F09DFF830E1DEF883
:102C20000000C4F8A3094A490868C4F8A709514A32
:102C30001068C4F8AB09474B1868C4F8AF0984F8AA
:102C4000BBB94FF0100E84F8BCE94FF0640084F873
:102C5000BD0984F8BE7984F8BF794FF01E0184F86D
:102C6000C41984F8C68984F8CB6984F8CC6984F8DF
:102C7000CF8984F8D86984F8D96904F6CB13C4F8ED
:102C8000DC3904F6CC13C4F8E03904F6CD13C4F8EB
:102C9000E43904F6CE13C4F8E83904F6CF13C4F8C7
:102CA000EC392D4AC4F8F02904F6F41049463A46A6
:102CB0000DF008FB84F8816A84F8825AC4F8845ABB
:102CC000C4F8885AC4F88C5AC4F8905AC4F8945A74
:102CD00084F8985A04F6DC202946A82212F04EF80F
:102CE00084F8DC6A4FF0020384F8DD3A4FF0030EFB
:102CF00084F8DEEA4FF0040084F8DF0A4FF00501A3
:102D000084F8E01A84F8E1BA4FF0070284F8E22A66
:102D10004FF0080384F8E33A4FF0100E84F8E4EA29
:102D20004FF0200084F8E50A84F8E68A84F8E77A10
:102D30000A49C4F8EC1A0A4AC4F8F02A094BC4F844
:102D4000F43A19E0505A01005C5A0100605A01003F
:102D5000645A01006C5A01004059010053494E0069
:102D600053415700535152005452490043563100C9
:102D700043563200685A0100EA48C4F8F80AA1F53F
:102D80001F21A1F60131C4F8FC1AE74AC4F8002B50
:102D9000E64BC4F8043B09F1800E9EE80300C4F83A
:102DA000080B84F80C1B84F80D5B84F80E5B84F828
:102DB0000F5B84F8105B05990868C4F8110B84F860
:102DC000155B84F8165B84F8175B84F8185B84F84D
:102DD000195BDAF80000C4F81A0B029AA4F81E2B4B
:102DE000039884F8200B84F8215B84F8225BD04B95
:102DF00003CBC4F8230BC4F8271B049984F82B1BBE
:102E000009F1A40292E80300C4F82C0BA4F8301BCB
:102E1000090C84F8321B84F8335B84F8345B009B24
:102E20001868C4F8350B84F8395B84F83A5B84F889
:102E30003B5B84F83C5B84F83D5BDDF804E0DEF846
:102E40000000C4F83E0BA4F8425BA4F8445B84F88D
:102E5000465BB8490868C4F8470BB74A1068C4F81D
:102E60004B0BB64B1868C4F84F0BDFF8E8E2DEF8FE
:102E70000000C4F8530BB2490868C4F8570B84F833
:102E800063BB4FF0100284F8642B4FF0640384F8A6
:102E9000653B84F8667B84F8677B4FF01E0E84F8F0
:102EA0006CEB84F86E8B84F8736B84F8746B84F825
:102EB000778B84F8806B84F8816B04F67333C4F8E5
:102EC000843B04F67433C4F8883B04F67533C4F8C5
:102ED0008C3B04F67633C4F8903B04F67733C4F8A1
:102EE000943B9848C4F8980B04F69C3049463A46FF
:102EF0000DF0E8F984F8296C84F82A5CC4F82C5C9D
:102F0000C4F8305CC4F8345CC4F8385CC4F83C5C89
:102F100084F8405C04F684402946A82211F02EFF74
:102F200084F8846C4FF0020184F8851C4FF0030292
:102F300084F8862C4FF0040384F8873C4FF0050E8C
:102F400084F888EC84F889BC4FF0070084F88A0C78
:102F50004FF0080184F88B1C4FF0100284F88C2C81
:102F60004FF0200384F88D3C84F88E8C84F88F7C9D
:102F70007548C4F8940C7549C4F8981C744AC4F890
:102F80009C2C684BC4F8A03CA0F51F20A0F6013093
:102F9000C4F8A40C6449C4F8A81C644AC4F8AC2C56
:102FA00009F1800393E80300C4F8B00C84F8B41C62
:102FB00084F8B55C84F8B65C84F8B75C84F8B85CD7
:102FC000DDF814E0DEF80000C4F8B90C84F8BD5C4C
:102FD00084F8BE5C84F8BF5C84F8C05C84F8C15C93
:102FE000DAF80000C4F8C20C0298A4F8C60C0399E1
:102FF00084F8C81C84F8C95C84F8CA5C4C4B03CBC9
:10300000C4F8CB0CC4F8CF1C049B84F8D33C09F162
:10301000A40E9EE80300C4F8D40CA4F8D81C090C34
:1030200084F8DA1C84F8DB5C84F8DC5C00990868BE
:10303000C4F8DD0C84F8E15C84F8E25C84F8E35CBD
:1030400084F8E45C84F8E55C019A1068C4F8E60C46
:10305000A4F8EA5CA4F8EC5C84F8EE5C354B1868E4
:10306000C4F8EF0CDFF8D0E0DEF80000C4F8F30C91
:1030700032490868C4F8F70C364A1068C4F8FB0CEB
:103080002F4B1868C4F8FF0C4FF0060E84F80BEDB8
:103090004FF0100084F80C0D4FF0640184F80D1D02
:1030A00084F80E7D84F80F7D4FF01E0A84F814AD6D
:1030B00084F8168D84F81B6D84F81C6D84F81F8DC0
:1030C00084F8286D84F8296D04F61B53C4F82C3D50
:1030D00004F61C53C4F8303D04F61D53C4F8343DC7
:1030E00004F61E53C4F8383D04F61F53C4F83C3DA3
:1030F000144AC4F8402D04F6445049463A460DF0AF
:10310000E1F884F8D16D84F8D25DC4F8D45DC4F8D8
:10311000D85DC4F8DC5DC4F8E05DC4F8E45D84F813
:10312000E85D19E0545249004356310043563200DD
:10313000505A01005C5A0100605A0100645A0100B3
:103140006C5A01004059010053494E005341570049
:1031500053515200685A010004F62C602946A822F7
:1031600011F00CFE84F82C6E4FF0020384F82D3E13
:103170004FF0030E84F82EEE4FF0040084F82F0E6B
:103180004FF0050184F8301E4FF0060284F8312E0E
:103190004FF0070384F8323E4FF0080E84F833EE08
:1031A0004FF0100084F8340E4FF0200184F8351EE3
:1031B00084F8368E84F8377EE54AC4F83C2EE54B19
:1031C000C4F8403EE448C4F8440EE449C4F8481E3C
:1031D000A2F51F22A2F60132C4F84C2EE04BC4F82F
:1031E000503EE048C4F8540E09F1800292E8030012
:1031F000C4F8580E84F85C1E84F85D5E84F85E5E48
:1032000084F85F5E84F8605E4B4653F88C0F009341
:10321000C4F8610E84F8655E84F8665E84F8675EC3
:1032200084F8685E84F8695ECB465BF8980FC4F852
:103230006A0EBBF804E0CDF80CE09BF806000490A1
:10324000A4F86EEE84F8700E84F8715E84F8725EF5
:10325000C54B03CBC4F8730EC4F8771E1B780593D7
:1032600084F87B3E09F1A40292E80300C4F87C0EC6
:10327000A4F8801E090C84F8821E84F8835E84F80A
:10328000845E4B4653F8B00F0193C4F8850E84F862
:10329000895E84F88A5E84F88B5E84F88C5E84F89C
:1032A0008D5ECE465EF8BC0FCDF808E0C4F88E0EF9
:1032B000A4F8925EA4F8945E84F8965EAB49086820
:1032C000C4F8970EAA4A1068C4F89B0EA94B186858
:1032D000C4F89F0EDFF8A8E2DEF80000C4F8A30EE1
:1032E000A5490868C4F8A70E4FF0060284F8B32E6B
:1032F0004FF0100384F8B43E4FF0640E84F8B5EE3E
:1033000084F8B67E84F8B77E84F8BCAE84F8BE8EAE
:1033100084F8C36E84F8C46E84F8C78E84F8D06EC7
:1033200084F8D16E04F6C363C4F8D43E04F6C463D3
:10333000C4F8D83E04F6C563C4F8DC3E04F6C663A0
:10334000C4F8E03E04F6C763C4F8E43E8B48C4F812
:10335000E80E04F6EC6049463A460CF0B3FF84F8F8
:10336000796F84F87A5FC4F87C5FC4F8805FC4F832
:10337000845FC4F8885FC4F88C5F84F8905F04F6BB
:10338000D4702946A82211F0F9FC84F8D46F4FF0CC
:10339000020184F8D51F4FF0030284F8D62F4FF0B6
:1033A000040384F8D73F4FF0050E84F8D8EF4FF0B0
:1033B000060084F8D90F4FF0070184F8DA1F4FF0A8
:1033C000080284F8DB2F4FF0100384F8DC3F4FF045
:1033D000200E84F8DDEF84F8DE8F84F8DF7F5C4810
:1033E000C4F8E40F5B49C4F8E81F5B4AC4F8EC2F4B
:1033F0005A4BC4F8F03FA0F51F20A0F60130C4F8E6
:10340000F40F5749C4F8F81F564AC4F8FC2F04F5C6
:10341000805309F1800E9EE80300186019715D71F8
:103420009D71DD711D7241F20902A31800990868AF
:10343000A0501D715D719D71DD711D7241F212020E
:10344000A318DBF80000A050039A9A8004989871A2
:10345000DD711D7241F21B0E04EB0E02424B03CBD9
:1034600044F80E0051600599117241F22402A3182C
:1034700009F1A40E9EE80300A0509980090C9971EF
:10348000DD711D7241F22D02A31801990868A05048
:103490001D715D719D71DD711D7241F23602A318BF
:1034A000DDF808E0DEF80000A0509D80DD801D7290
:1034B0002E49086841F23F03E0502D4A106841F25E
:1034C0004303E0502B4B186841F24703E050DFF80C
:1034D000B0E0DEF8000041F24B03E05026490868F6
:1034E00041F24F03E05041F25B034FF00602E25419
:1034F00041F25C034FF01000E05441F25D034FF0E5
:103500006401E15441F25E03E75441F25F03E75482
:1035100041F2640304F803A041F2660304F8038057
:1035200041F26B03E65441F26C03E65441F26F033F
:1035300004F8038041F27803E65441F27903E6543B
:1035400004F6E86303F2831141F27C02A15019E012
:1035500053494E00534157005351520054524900B1
:103560004356310043563200505A01005C5A010064
:10357000605A0100645A01006C5A01004059010070
:10358000685A010004F5845203F5C271116003F218
:10359000851141F28402A15003F5C37141F2880202
:1035A000A15003F2871341F28C02A35041F2900321
:1035B00004EB030AE44AE2500AF1040049463A46A1
:1035C0000CF080FE8AF891608AF89250CAF8945004
:1035D000CAF89850CAF89C50CAF8A050CAF8A4502B
:1035E0008AF8A8500AF1EC002946A82211F0C6FB7F
:1035F0008AF8EC604FF002038AF8ED304FF00300D8
:103600008AF8EE004FF004018AF8EF104FF005023F
:103610008AF8F0204FF006038AF8F1304FF00700E7
:103620008AF8F2004FF008018AF8F3104FF0100208
:103630008AF8F4204FF020038AF8F5308AF8F680F3
:103640008AF8F770C148CAF8FC00C149CAF80011ED
:10365000C04ACAF80421C04BCAF80831A0F51F209F
:10366000A0F60130CAF80C01BC49CAF81011BC4AD6
:10367000CAF8142109F1800393E80300CAF818017D
:103680008AF81C118AF81D518AF81E518AF81F51B8
:103690008AF8205100990868CAF821018AF8255152
:1036A0008AF826518AF827518AF828518AF8295130
:1036B000DBF80000CAF82A01039AAAF82E21049820
:1036C0008AF830018AF831518AF83251A54B03CB80
:1036D000CAF83301CAF8371105998AF83B1109F184
:1036E000A40292E80300CAF83C01AAF84011090CB0
:1036F0008AF842118AF843518AF84451019B1868AC
:10370000CAF845018AF849518AF84A518AF84B515A
:103710008AF84C518AF84D5102990868CAF84E014E
:10372000AAF85251AAF854518AF856518E4B18688B
:10373000CAF8570104F5845310338C4A1068C3F853
:103740005B018B4A1068C3F85F018A4A1068C3F8AE
:103750006301894A1068C3F86701062283F8732160
:10376000102283F874214FF0640C83F875C183F83C
:10377000767183F877711E2283F87C2183F87E812D
:10378000324683F8836183F8846183F8878183F804
:10379000906183F8916103F28311C3F8941103F5EA
:1037A000C271C3F8981103F28511C3F89C1103F597
:1037B000C371C3F8A01103F28711C3F8A411002349
:1037C00041F23821635441F24521665441F24821C7
:1037D000645004F5D47041F24C21605041F2502104
:1037E0000798605004F59F6041F25421605004F541
:1037F000D46041F25821605004F5546041F25C21DC
:10380000605004F5935104F51F60086004F6480009
:1038100041F26421605004F6983041F26821605012
:1038200004F6E86041F26C21605041F27026A7195D
:10383000494651F8C80FA0518988B9804F4E03CE30
:10384000C4F88400C4F888104D490868C4F88D0095
:1038500084F89120122184F89210C4F89410C4F8CE
:103860009810FF26C4F8A060C4F89C30052184F8A5
:10387000A81084F8833184F8843184F8853184F881
:10388000863184F887813F4F03CFC4F82C02C4F8F7
:103890003012397884F834123B490868C4F835028C
:1038A00084F8392284F83A22C4F83C22C4F8402231
:1038B0000727C4F84872C4F8443284F8502284F8C8
:1038C0002B3384F82C3384F82D3384F82E3384F88A
:1038D0002F832E490868C4F8D403097984F8D813D3
:1038E0002B490868C4F8DD0384F8E123022184F839
:1038F000E213C4F8E413C4F8E813C4F8F073C4F88E
:10390000EC3384F8F82384F8D33484F8D43484F87E
:10391000D53484F8D63484F8D7841E4F03CFC4F846
:103920007C05C4F88015397884F884151A4908682C
:10393000C4F8850584F8892584F88AC5C4F88CC53F
:10394000C4F890C57F2129E04059010053494E0039
:1039500053415700535152005452490043563100CD
:1039600043563200505A01005C5A0100605A01006F
:10397000645A0100685A01006C5A01008C5A010017
:10398000945A0100985A0100A45A0100A85A010053
:10399000B05A0100B45A0100C05A0100C4F8981589
:1039A000C4F8943584F8A02584F87B3684F87C36F6
:1039B00084F87D3684F87E3684F87F866F4F03CF97
:1039C000C4F82407C4F82817397884F82C176C49F0
:1039D0000868C4F82D0784F831270A2784F832775D
:1039E000C4F83477C4F83877C4F84067C4F83C3773
:1039F00084F8482784F8233884F8243884F8253854
:103A000084F8263884F827885E490868C4F8CC080A
:103A1000097984F8D0185C490868C4F8D50884F896
:103A2000D92884F8DA38C4F8DC38C4F8E038C4F8A7
:103A3000E868C4F8E43884F8F02884F8CB3984F8CE
:103A4000CC3984F8CD3984F8CE3984F8CF89DFF8C1
:103A500050C1BCE80300C4F86C0FC4F8701F4B4998
:103A60000868C4F8750F84F8792F84F87A3FC4F891
:103A70007C3FC4F8803FC4F8886FC4F8843F84F862
:103A8000902F41F26B01635441F26C01635441F297
:103A90006D01635441F26E01635441F26F0104F809
:103AA00001803B490868C4F8740AC4F87D0A84F8A8
:103AB000812A84F8823AC4F8843AC4F8883AC4F86F
:103AC000906AC4F88C3A84F8982A84F8733B84F896
:103AD000743B84F8753B84F8763B84F8778BDFF889
:103AE000C4C0BCE80300C4F81C0CC4F8201C29495D
:103AF0000868C4F8250C84F8292C84F82A7CC4F8BA
:103B00002C7CC4F8307CC4F8386CC4F8343C84F89D
:103B1000402C84F81B3D84F81C3D84F81D3D84F83E
:103B20001E3D84F81F8D1C4F03CFC4F8C40DC4F88C
:103B3000C81D397884F8CC1D18490868C4F8CD0D23
:103B400084F8D12D082184F8D21DC4F8D41DC4F8FE
:103B5000D81DC4F8E06DC4F8DC3D84F8E82D84F885
:103B6000C33E84F8C43E84F8C53E84F8C63E84F85B
:103B7000C78E204609B0BDE8F08F00BFC45A0100CF
:103B8000D05A0100D45A0100DC5A0100E85A010061
:103B9000EC5A0100F85A0100FC5A0100085B0100D0
:103BA000E05A0100F05A01002DE9F84F0024964B2D
:103BB0001C600120954B1860954B1C60954BD3F809
:103BC00098100EF037FE944B1860944B197801FB57
:103BD00000F1934B1960934B1C60934B1C60934B0B
:103BE0001C60934B1C6022460B468C4280F2D180B5
:103BF000DFF860B24FF07E5A4FF08048002725462C
:103C00009B1A8C490B60894B1A68874B1B689A4238
:103C100040F090800022854B1A60012064210EF054
:103C200009FE7E4B1B78834A126893420BDDC0B2BB
:103C30008149D1F89810884205DA804BC3F800A07A
:103C4000794B1A606BE0580810F0BCFA044610F08B
:103C5000D3FC10F0010F20460CBF5146414610F036
:103C6000FBF94FF07C5110F001FB0FF08BFE0022AE
:103C7000734B0FF0DBFE10F073F9014600200EF0DD
:103C8000D9FD10F09FFA594610F0A4FB014610F040
:103C9000E5F9514610F0E2F910F0AEFC10F092FA9E
:103CA0000446664B1860634B186810F08BFA0646A2
:103CB0002046314610F096FC98B12046414610F05F
:103CC000CBF90446394610F08DFC08B904F10044E4
:103CD0002046314610F086FC08B12046EEE7574BEF
:103CE0001C600120574BD3F898100EF0A3FD04463A
:103CF0004D4B18604F4B186810F064FA064620468A
:103D000010F060FA4D4B196810F0B0FA314610F01F
:103D100069FC20B1494B1E600122434B1A60474B9E
:103D2000186810F069FC28443C4B1B7890FBF3F5B5
:103D300003FB1505414B1C682046394610F052FC28
:103D400090B1314ED6F80090204610F055FC3E4B15
:103D500043F8290009F1010333602C4B1A683449F8
:103D600041F8225001321A602E4E306810F02AFAC3
:103D70000146204610F072F910F03EFC30602B4BEB
:103D80001A6801321A600246254B1B689842FFF6FA
:103D900037AF1D4BD3F80080B8F1000F2DDD1F4B5E
:103DA00018781B4B1A6800239C46DFF89C90DFF8BC
:103DB00080B09A4614E0334493FBF0F700FB1733CE
:103DC00041F8043F0132531BA342F4DB0CF1010C18
:103DD0005FFA8CFC6346C44502DB0D4B1A600CE0B5
:103DE00059F82340002CF1DD1BF823601546511EC5
:103DF000164B03EB81015346DDE7054B1A68144B64
:103E00001A60BDE8F88F00BF98C5FF1F1C89FF1F0F
:103E100078ECFF1F3CCEFF1F34CEFF1F5C89FF1FD5
:103E200060C4FF1FE4CFFF1F18CEFF1F08C4FF1F91
:103E3000543A002020EBFF1FECCFFF1FD488FF1F58
:103E40000000244038E4FF1F18E7FF1F84630020B0
:103E50006CC2FF1F0000204138B5654C654B93E8EC
:103E60000300C4F88400A4F88810090C84F88A10B0
:103E7000614B1868C4F88D00012284F89120042356
:103E800084F89230C4F89430C4F898308123C4F890
:103E9000A030C4F89C2084F8A820002384F8833143
:103EA00084F8843184F8853184F88631402584F89B
:103EB0008751524952480468A1F88440240C81F883
:103EC000864004888078A1F88D4081F88F0081F8C1
:103ED000912081F89230C1F89430C1F898300220D6
:103EE000C1F8A000C1F89C3081F8A82081F8833186
:103EF00081F8843181F8853181F8863181F88751E4
:103F0000404C414903C9C4F88400A4F88810090C46
:103F100084F88A103D490868C4F88D0084F891201F
:103F200084F89220C4F89420C4F898201121C4F891
:103F3000A010C4F89C2084F8A82084F8833184F869
:103F4000843184F8853184F8863184F88751304C87
:103F5000304903C9C4F88400A4F88810090C84F817
:103F60008A102D490868C4F88D0084F8912084F8DF
:103F70009220C4F89420C4F898206321C4F8A010BB
:103F8000C4F89C3084F8A82084F8833184F8843104
:103F900084F8853184F8863184F887511F4C204994
:103FA00003C9C4F88400A4F88810090C84F88A10A6
:103FB0001C490868C4F88D0084F8912084F8922088
:103FC000C4F89420C4F898200821C4F8A010C4F8BC
:103FD0009C2084F8A82084F8833184F8843184F804
:103FE000853184F8863184F88751FFF7DDFD38BDCF
:103FF0002C2600200C5B0100305B010048FFFF1FF6
:10400000145B01003CCEFF1F185B0100345B010014
:10401000ECCFFF1F205B0100385B010038E4FF1F7D
:10402000285B01003C5B010008B5054B1B6890FB59
:10403000F3F202FB130008B9FFF7B6FD08BD00BF9D
:104040006CC2FF1F70B41C4A41F239231468E51892
:104050001A490868E050097929715468E518184927
:104060000868E0508988A9809468E51815490868AF
:10407000E05009792971D568EC1813490868E850AF
:1040800088888979A080A1711669F5180F4C03CC36
:10409000F0506960217829725469E5180C49086864
:1040A000E0508988A9809169CC180A4A1068C850E4
:1040B0009388A38070BC7047B488FF1F405B0100E9
:1040C000485B0100505B0100585B0100605B010030
:1040D0006C5B0100745B01002DE9F04198B000AF0A
:1040E0006A4C07F1100021460EF008FC07F1200091
:1040F00067490EF003FC07F1100007F120010EF0F4
:10410000C9FC21460EF0D0FC044607F1300061499D
:104110000EF0F4FB204607F130010EF0BBFC5E49C7
:104120000EF0C2FC014638460EF006FC07F13000E6
:104130000EF098FB07F120000EF094FB07F1100041
:104140000EF090FBBA6802F1080323F00703ADEB11
:10415000030D38466946013200230EF0B3FC4F4C84
:104160002046694609F016FB07F1400021466A46E1
:10417000132309F073FA4A4B97F844201A71BA6C6A
:104180009A6097F84C201A7307F1600252F8135D99
:1041900054689068C3F80D50C3F81140C3F8150077
:1041A000127B5A76FA6DDA6107F1400009F09CF84B
:1041B00000253B4C3B4E41F25C28AB5953F808308C
:1041C0002046D3F894100EF0C3FA23681B682046EB
:1041D00023219847AB5903F593531B682046D3F826
:1041E00094100EF0B5FA23681B68204623219847E7
:1041F000AB5941F264229B582046D3F894100EF03C
:10420000A7FA23681B68204623219847AB5941F23F
:1042100068229B582046D3F894100EF099FA236830
:104220001B68204623219847AB5941F26C229B58CA
:104230002046D3F894100EF08BFA23681B682046B2
:104240002321984723681B6820462D219847043571
:104250001C2DB2D1124C23681B682046242198479C
:10426000114E357805EB4500104B03EB4000094932
:1042700011F072F801353570204609F05FF83846C4
:104280000EF0F0FA6037BD46BDE8F081D85B010062
:10429000DC5B0100D888FF1FE45B0100BC690020E3
:1042A00030C4FF1FB488FF1FE8CFFF1F84650020C4
:1042B0002DE9F04F9DB000AF40B9884A1378884986
:1042C0000B70591C1170874A136003E0844B1A78F5
:1042D000844B1A60844C07F1100021460EF00EFB4F
:1042E00007F1200081490EF009FB07F1100007F1EA
:1042F00020010EF0CFFB21460EF0D6FB054607F15C
:1043000030007B490EF0FAFA284607F130010EF032
:10431000C1FB21460EF0C8FB044607F14000714B7B
:1043200019680A220EF03AFB204607F140010EF010
:10433000B1FB70490EF0B8FB014638460EF0FCFAAE
:1043400007F140000EF08EFA07F130000EF08AFA05
:1043500007F120000EF086FA07F110000EF082FA45
:10436000BA6802F1080323F00703ADEB030D3846EA
:104370006946013200230EF0A5FB5F4C20466946DA
:1043800009F008FA07F1500021466A46132309F0A4
:1043900065F95A4B97F854201A71BA6D9A6097F8DC
:1043A0005C201A7307F1700252F8135D546890682C
:1043B000C3F80D50C3F81140C3F81500127B5A76AC
:1043C000FA6EDA6107F1500008F08EFF00254B4EBF
:1043D000DFF82C8134467BE055F808300AF2924928
:1043E00053F829302046D3F894100EF0B1F9336811
:1043F0001B6820465946984755F8083053F829302D
:10440000204693F883110A2200230EF065F93368E1
:104410001B6820462321984755F8083053F8293067
:10442000204693F884110A2200230EF055F93368D0
:104430001B6820462321984755F8083053F8293047
:10444000204693F885110A2200230EF045F93368BF
:104450001B6820462321984755F8083053F8293027
:10446000204693F886110A2200230EF035F93368AE
:104470001B6820462321984755F8083053F8293007
:10448000204693F887110A2200230EF025F933689D
:104490001B6820462321984755F80830204641F2F2
:1044A0003822995C0A2200230EF016F933681B6843
:1044B00020463C2198470AF1010ABAF10A0F8BD134
:1044C00033681B6820467C21984704351C2D19D081
:1044D0004FF0000A4FF02B0B7EE700BF30CEFF1FDE
:1044E000A099FF1F2CC4FF1FD85B0100EC5B0100EB
:1044F000F85B0100E45B0100BC69002030C4FF1FD1
:10450000B488FF1F6B4803681B683E2198476A4CBC
:1045100004F64808674D2A262846D4F894100EF071
:1045200017F92B681B6828463146984704F5D47460
:104530004445F1D15F4803681B68262198475F4DC9
:1045400005F59F695B4C4FF03F080A262046D5F8D9
:1045500094100EF0FDF823681B68204641469847EA
:10456000204695F88311324600230EF0B5F82368F3
:104570001B68204621219847204695F88411324631
:1045800000230EF0A9F823681B68204621219847D4
:10459000204695F88511324600230EF09DF82368D9
:1045A0001B68204621219847204695F886113246FF
:1045B00000230EF091F823681B68204621219847BC
:1045C000204695F88711324600230EF085F82368BF
:1045D0001B6820462121984705F5D4754D45B5D176
:1045E000344803681B68262198470025314C344E17
:1045F0004FF04008AB592046D3F894100EF0A8F8BD
:1046000023681B68204641469847AB59204693F8DB
:1046100083110A2200230EF05FF823681B682046EE
:104620002F219847AB59204693F884110A22002382
:104630000EF052F823681B6820462F219847AB598B
:10464000204693F885110A2200230EF045F82368CE
:104650001B6820462F219847AB59204693F88611B6
:104660000A2200230EF038F823681B6820462F2109
:104670009847AB59204693F887110A2200230EF081
:104680002BF823681B6820462F2198470435142DEA
:10469000B0D1084C23681B68204624219847204647
:1046A00008F04CFE38460EF0DDF87437BD46BDE824
:1046B000F08F00BF30C4FF1FE43C0020BCC5FF1FCB
:1046C000E088FF1F2DE9F041A0B000AF554C07F185
:1046D000300021460EF012F907F1400052490EF069
:1046E0000DF907F1300007F140010EF0D3F9214632
:1046F0000EF0DAF9044607F150004C490EF0FEF8CE
:10470000204607F150010EF0C5F9014638460EF07B
:1047100013F907F150000EF0A5F807F140000EF074
:10472000A1F807F130000EF09DF8BA6802F1080315
:1047300023F00703ADEB030D384669460132002331
:104740000EF0C0F907F1600039496A46012308F00C
:1047500085FF384B97F864201A71BA6E9A6097F803
:104760006C201A7307F1800252F8135D5468906848
:10477000C3F80D50C3F81140C3F81500127B5A76E8
:10478000FA6FDA6107F1600008F0AEFDDFF8A4808F
:10479000294D2A4C07F110004146012209F006F884
:1047A00007F1100008F0D6FDD8B9234C23685B68E8
:1047B000204623491422984720460DF07DFF07F13B
:1047C000100008F091FD1B4808F0B8FD20461B4B77
:1047D00019780A2200230DF07FFF38460EF042F8C8
:1047E0001BE007F1100008F085FD064610F012FEF0
:1047F00002462B685B682846314698472378013388
:10480000DBB223700F4A136007F1100008F096FD29
:1048100007F1100008F068FDBCE78037BD46BDE831
:10482000F08100BFD85B0100EC5B0100F85B010088
:10483000BC6900208CE9FF1F306F002030CEFF1FC5
:10484000005C01002CC4FF1F2DE9F04FA7B000AFA2
:104850000025FD603D613D75A14E07F10C0031461C
:10486000082210F007FE9F4C07F1380021460EF099
:1048700045F807F148009C490EF040F807F1380070
:1048800007F148010EF006F921460EF00DF907F187
:104890000C010EF009F995490EF006F9014607F1F1
:1048A00018000EF049F807F148000DF0DBFF07F1A2
:1048B00038000DF0D7FF8E4C204607F118010DF09F
:1048C000D5FE20460DF0F8FE3A6A02F1080323F007
:1048D0000703ADEB030D07F11800694601322B46C3
:1048E0000EF0F0F8834C2046694608F053FF07F1BC
:1048F000580021466A46132308F0B0FE7E4C97F814
:104900005C3023713B6EA36097F86430237307F12A
:10491000980353F833ED58689968C4F80DE0C4F86B
:104920001100C4F815101B7B63767B6FE36107F100
:10493000580008F0D9FC304610F06CFD02462368A0
:104940005B6820463146984723685B6820466B4980
:104950000122984707F1280069490DF0CFFFA846CA
:10496000DFF8AC91A2463D609EE0224658F809105F
:1049700001EB461129444C7C944202D10133DBB255
:104980005FE0ABB103F1010B786859460DF0E0FE32
:1049900007F1780059460A220EF000F807F12800C6
:1049A00007F178010EF050F807F178000DF05AFF8A
:1049B000552C17D001D82CB142E0AA2C20D0FF2CC6
:1049C0002ED03DE0DAF80030DFF848B15B68786857
:1049D00059460122984707F1280059460EF03CF845
:1049E00000232EE0DAF800305B6878684549012240
:1049F000984707F1280043490EF02EF8002320E0E5
:104A0000DAF80030DFF810B15B68786859460122A7
:104A1000984707F1280059460EF01EF8002310E0D1
:104A2000DAF80030DFF8F4B05B68786859460122A4
:104A3000984707F1280059460EF00EF8002300E0D1
:104A400000230135202D90D1A3B15C1C786821464C
:104A50000DF07EFE07F1880021460A220DF09EFF30
:104A600007F1280007F188010DF0EEFF07F188003B
:104A70000DF0F8FEDAF800305B6878682249012210
:104A800098470136092E03D0002501223B686DE7C7
:104A9000DAF800305B6850461C490122984708F15B
:104AA0000408B8F11C0F03D00026C7F804A0EBE7F8
:104AB000114808F043FC0E4C204607F128010DF088
:104AC000D5FD20460DF0F8FD07F128000DF0CAFED7
:104AD00007F118000DF0C6FE9C37BD46BDE8F08F0B
:104AE000A488FF1FD85B0100185C0100E45B010093
:104AF000306F0020BC69002030C4FF1F205C010023
:104B0000805A0100285C0100345C0100385C01001F
:104B1000F488FF1F245C01002C5C0100305C010064
:104B200030B49DF80840072800F2B980DFE800F0B3
:104B3000040E4850575F8D935A4B53F8213002F2C0
:104B4000924253F82230C3F89440A8E0042B00F2BC
:104B5000A680DFE803F0030D17212B00514B53F81B
:104B6000213002F2924253F8223083F8834196E0DA
:104B70004C4B53F8213002F2924253F8223083F822
:104B800084418CE0474B53F8213002F2924253F8B3
:104B9000223083F8854182E0424B53F8213002F203
:104BA000924253F8223083F8864178E03D4B53F827
:104BB000213002F2924253F8223083F887416EE0AE
:104BC0004FF4D471384B01FB0232C2F8944066E0D6
:104BD000344B53F8212041F23823D4545FE04FF492
:104BE000D471324B01FB0232C2F8944057E0042BDF
:104BF0002BD8DFE803F0030B131B23004FF4D47111
:104C00002A4B01FB023383F883411EE04FF4D47139
:104C1000264B01FB023383F8844116E04FF4D47134
:104C2000224B01FB023383F885410EE04FF4D4712F
:104C30001E4B01FB023383F8864106E04FF4D4712A
:104C40001A4B01FB023383F88741194B53F822308A
:104C5000C3F8944023E0042B21D8DFE803F00309D4
:104C60000F151B00124B53F8223083F8834116E0D6
:104C70000F4B53F8223083F8844110E00C4B53F86B
:104C8000223083F885410AE0094B53F8223083F83B
:104C9000864104E0064B53F8223083F8874130BC4C
:104CA000704700BFB488FF1FE43C0020BCC5FF1F55
:104CB000E088FF1FF0B591B0464C2046464908F009
:104CC0005DFD2046454908F059FD2046444908F05D
:104CD00055FD2046434908F051FD2046424908F061
:104CE0004DFD424D2046294608F054FD68462146B8
:104CF0002A46132308F0B2FC3D4C9DF80430237182
:104D0000029BA3609DF80C30237310AB53F8335D06
:104D100058689968C4F80D50C4F81100C4F815100B
:104D20001B7B6376079BE361684608F0DDFA314D33
:104D3000284610F06FFB024623685B682046294630
:104D4000984723682C4E5B682046314601229847DD
:104D50002A4F384610F05EFB024623685B68204607
:104D60003946984723685B682046314601229847B8
:104D7000234E204631680DF0EBFC204608F0DEFAA9
:104D800008A820490DF0BAFD0CA829460DF0B6FD83
:104D900008A80CA90DF07EFE1B490DF085FE01460A
:104DA0001A4C20460DF062FC20460DF085FC0CA844
:104DB0000DF058FD08A80DF055FD23685B682046EE
:104DC00013491322984720460DF076FC00233360E8
:104DD00011B0F0BDBC690020EC5B01003C5C01003F
:104DE000DC5B0100185C01004C5C01009C5B010075
:104DF000901300205089FF1FA85B0100D888FF1F77
:104E00002CC4FF1FAC5B0100B85B0100306F0020B9
:104E10005C5C0100032926D8DFE801F0020B141DB9
:104E2000114B53F8201041F25C23CB58C3F8942067
:104E300070470D4B53F8203003F593531B68C3F8AC
:104E400094207047084B53F8201041F26423CB584C
:104E5000C3F894207047044B53F8201041F26823A4
:104E6000CB58C3F894207047B488FF1F2DE9F04158
:104E700090B008A82649274A012308F0EFFB264BEB
:104E80009DF824201A710A9A9A609DF82C201A73B2
:104E900010AA52F8135D54689068C3F80D50C3F817
:104EA0001140C3F81500127B5A760F9ADA6108A8F0
:104EB00008F01AFADFF86080184E194F684641462C
:104EC000012208F073FC684608F044FAB8B10024E7
:104ED0003578684608F00EFA035D05EB450504EBEE
:104EE00045057B550134052CF2D1337801333370FD
:104EF000684608F023FA684608F0F6F9DEE76846E7
:104F000008F0F2F9044808F019FA10B0BDE8F08191
:104F1000BC690020705C010030C4FF1FE8CFFF1F98
:104F20008465002038B504461F4B53F820502B7C75
:104F3000012B04D872B62846FCF782FD00E072B659
:104F4000EB6862B6194A52F824209A422AD013F02C
:104F5000030F27D116490C709A42ACBF4FF0FF32B5
:104F60000122124941F824304FF4D471114B01FB56
:104F7000043393F8A810D3F8940002FB0102D3F88D
:104F80009C108A42B8BF0A46D3F8A0104D1EAA4210
:104F9000A8BF2A46C3F89420C3F89820064B0122E4
:104FA0001A559A7138BD00BF3089FF1F0898FF1F3E
:104FB00028690020E43C00202089FF1F38B5044602
:104FC000214B53F820502B7C012B04D872B6284675
:104FD000FCF736FD00E072B6EB6862B61B4A52F889
:104FE00024209A422ED013F0030F2BD118490C70B5
:104FF0009A42ACBF4FF0FF320122144941F82430ED
:10500000144B1978144B53F8213004F2974153F89C
:10501000213093F8A810D3F8940002FB0102D3F8D2
:105020009C108A42B8BF0A46D3F8A0104D1EAA426F
:10503000A8BF2A46C3F89420C3F89820074B012242
:105040001A559A7138BD00BF3089FF1F0898FF1F9D
:10505000286900200498FF1FB488FF1F2089FF1FC4
:10506000F8B50446284B53F820502B7C012B04D86C
:1050700072B62846FCF7E4FC00E072B6EB6862B654
:10508000224A52F824209A423CD013F0030F39D11F
:105090001F490C709A42ACBF4FF0FF3001201B4AF1
:1050A00042F82430661D1B4D1B4B1B7855F82330EE
:1050B00004F2974253F8223093F8A810D3F8947072
:1050C00000FB0170D3F89C108842B8BF0846D3F8A3
:1050D000A01001F1FF3C6045A8BF6046C3F89400F2
:1050E000C3F898002B1F183553F8042F06F292418D
:1050F00052F82120C2F89400AB42F5D1074B0122AF
:105100001A559A71F8BD00BF3089FF1F0898FF1F1C
:1051100028690020B488FF1F0498FF1F2089FF1F03
:1051200038B50446214B53F820502B7C012B04D872
:1051300072B62846FCF784FC00E072B6EB6862B6F3
:105140001B4A52F824209A422ED013F0030F2BD181
:1051500018490C709A42ACBF4FF0FF32012214493B
:1051600041F82430144B1978144B53F8213004F2D1
:10517000924153F8213093F8A810D3F8940002FB21
:105180000102D3F89C108A42B8BF0A46D3F8A01097
:105190004D1EAA42A8BF2A46C3F89420C3F89820FF
:1051A000074B01221A559A7138BD00BF3089FF1F85
:1051B0000898FF1F286900200498FF1FB488FF1F6C
:1051C0002089FF1F70B5044605462A4B53F820601E
:1051D000337C012B04D872B63046FCF731FC00E07A
:1051E00072B6F36862B6244A52F824209A423FD03D
:1051F00013F0030F3CD121490C709A42ACBF4FF021
:10520000FF3201221C4941F824301D4B1E781D4BF2
:1052100053F8263004F2924153F8213093F8A81045
:10522000D3F8940002FB0100D3F89C108842A8BF79
:105230000146D3F8A00001388142A8BF0146C3F857
:105240009410C3F89810104B01221A559A7100233C
:105250000C4CB34209D054F8232005F2924052F886
:105260002020C2F89410C2F898100133072BF0D117
:1052700070BD00BF3089FF1F0898FF1F28690020FC
:105280000498FF1FB488FF1F2089FF1FFFFFFFFF47
:105290002DE9F0470546A24B53F82040237C012B13
:1052A00004D872B62046FCF7CBFB00E072B6E36888
:1052B00062B69C4A52F825209A4200F0D88113F039
:1052C000030F40F0D48198490D709A42ACBF4FF063
:1052D000FF3C4FF0010C934A42F825309349944823
:1052E000037851F82320934B1C7804F2924452F82F
:1052F000242002EB8504D4F8944194F80080E04423
:1053000028EAE8782A4492F873C1E045B4BF4246DF
:1053100062462270027851F822201B7803F29243F1
:1053200052F8234094F8829109F1010909F07F09AC
:1053300084F8829194F884A194F8818104EB0A03A3
:1053400093F8EC30C3EB080808F07F0884F88181FB
:1053500094F88331042B00F22681DFE813F0050076
:1053600034005D008F00EF00D4F8A060D4F89C30CA
:10537000F61A94F885010EF0F3FA67A3D3E9002337
:105380000EF054FB0EF014FE074694F88731984453
:1053900008F07F08A04498F804000EF00FFF66495B
:1053A0000FF018F8014638460EF060FF8046304690
:1053B0000EF008FF014640460EF058FF0FF01CF9B2
:1053C000C4F8A400EFE0D4F8A060D4F89C30F61A3A
:1053D00094F885010EF0C4FA4FA3D3E900230EF030
:1053E00025FB0EF0E5FD07464FEA48000EF0EAFE09
:1053F00051490EF0EFFF014638460EF037FF804668
:1054000030460EF0DFFE014640460EF02FFF0FF053
:10541000F3F8C4F8A400C6E094F88701804506D3E9
:10542000804594BF4FF000084FF0010801E04FF0B5
:105430000008D4F8A060D4F89C30F61A94F88501DE
:105440000EF08EFA34A3D3E900230EF0EFFA0EF03B
:10545000AFFD074640460EF0B5FE014638460EF059
:1054600005FF804630460EF0ADFE014640460EF088
:10547000FDFE0FF0C1F8C4F8A40094E094F8879101
:10548000C845C0F0E280D4F8A060D4F89C30F61A89
:1054900094F885010EF064FA1FA3D3E900230EF0FF
:1054A000C5FA0EF085FD0746C84519D84FEA4800F1
:1054B0000EF088FE20490EF08DFF014638460EF0B2
:1054C000D5FE804606EBD67040100EF07BFE0146FE
:1054D00040460EF0CBFE0FF08FF8C4F8A40062E057
:1054E0004FEA48000EF06EFE13490EF073FF0146BE
:1054F00038460EF0BBFE804606EBD67040100EF02C
:1055000061FE014640460EF0B1FE0FF075F8C4F89A
:10551000A40048E0AFF300807B14AE47E17A843FFB
:105520003089FF1F0898FF1F28690020B488FF1FDB
:105530000498FF1FD088FF1F00007F43D4F8A060AD
:10554000D4F89C30F61A94F885010EF009FA4AA3B3
:10555000D3E900230EF06AFA0EF02AFD0746CAEBE3
:10556000040A9AF8FC30B9FBF3F203FB129919F024
:10557000FF0F18D10020FF210DF05CF90EF022FE84
:105580003F490EF027FF014638460EF06FFE804679
:1055900030460EF017FE014640460EF067FE0FF053
:1055A0002BF8C4F8A40094F88531002B43D0D4F82C
:1055B000940094F88681D4F89C90D4F8A020D4F874
:1055C000A410014441444945B8BF49469142D4BF63
:1055D000C4F89810C4F8982000EB08019142D4BF99
:1055E000C4F88C11C4F88C210EF0ECFD82463046D4
:1055F0000EF0E8FD39460EF039FE014650460EF039
:105600002DFD064640460EF0DDFD014630460EF00B
:1056100025FD064648460EF0D5FD0746304639467C
:105620000EF0C2FF08B1384600E030460EF0E4FF4D
:10563000C4F8880103E0D4F89430C4F89830114BD2
:1056400001225A559A71BDE8F087D4F8A060D4F8C9
:105650009C30F61A94F885010EF082F906A3D3E97E
:1056600000230EF0E3F90EF0A3FC07461EE7BDE8A9
:10567000F08700BFAFF300807B14AE47E17A843F30
:1056800000007F432089FF1FF8B504462C4B18709B
:1056900005462C4B53F82060337C012B04D872B69E
:1056A0003046FCF7CDF900E072B6F36862B6264AE0
:1056B00052F824209A4241D013F0030F3ED19A426F
:1056C000ACBF4FF0FF3201221F4941F824301F4B7D
:1056D00018781F4951F8201004F2924051F8200028
:1056E00000EB8401D1F894110E78324422EAE27280
:1056F000204490F873018242A8BF02460A70154AFE
:1057000001211155917119780023114805F16407A1
:10571000BF0099420FD050F8234005F2924254F84E
:10572000226050F8214054F822203A44546806EB95
:105730008302C2F894410133072BEAD1F8BD00BFC0
:10574000286900203089FF1F0898FF1F0498FF1F59
:10575000B488FF1F2089FF1F38B50446174B53F844
:1057600020502B7C012B04D872B62846FCF768F930
:1057700000E072B6EB6862B6114A52F824209A42F1
:105780001AD013F0030F17D19A42ACBF4FF0FF327B
:1057900001220B4941F824300A4B185D0A4B0121C4
:1057A000195599710244D2B2302AB8BF30227C2AEE
:1057B000A8BF7C22034B1A5538BD00BF3089FF1F9C
:1057C0000898FF1F5089FF1F2089FF1F38B5044626
:1057D000174B53F820502B7C012B04D872B6284667
:1057E000FCF72EF900E072B6EB6862B6114A52F887
:1057F00024209A421AD013F0030F17D19A42ACBF5B
:105800004FF0FF3201220B4941F824300A4B185D5A
:105810000A4B0121195599710244D2B2302AB8BFFE
:1058200030227C2AA8BF7C22034B1A5538BD00BF0A
:105830003089FF1F0898FF1FD888FF1F2089FF1F8E
:105840002DE9F04705469C4B53F82040237C012B63
:1058500004D872B62046FCF7F3F800E072B6E368AD
:1058600062B6964A52F825209A4200F0CA8113F097
:10587000030F40F0C68192490D709A42ACBF4FF0C1
:10588000FF3201228D4941F825308E4B8E49087830
:1058900053F8204004EB8500D0F8940190F800C044
:1058A000624422EAE2722C4494F87341A242A8BFF7
:1058B000224602700A7853F8224094F8829109F146
:1058C000010909F07F0984F8829194F884A194F881
:1058D000818104EB0A0393F8EC30C3EB080808F06D
:1058E0007F0884F8818194F88331042B00F22581AC
:1058F000DFE813F0050034005D008F00EE00D4F8FF
:10590000A060D4F89C30F61A94F885010EF028F8BF
:1059100067A3D3E900230EF089F80EF049FB074690
:1059200094F88731984408F07F08A04498F8040060
:105930000EF044FC65490EF04DFD014638460EF070
:1059400095FC804630460EF03DFC014640460EF088
:105950008DFC0EF051FEC4F8A400EEE0D4F8A06077
:10596000D4F89C30F61A94F885010DF0F9FF50A395
:10597000D3E900230EF05AF80EF01AFB07464FEA5F
:1059800048000EF01FFC51490EF024FD0146384638
:105990000EF06CFC804630460EF014FC014640468A
:1059A0000EF064FC0EF028FEC4F8A400C5E094F8E4
:1059B0008701804506D3804594BF4FF000084FF023
:1059C000010801E04FF00008D4F8A060D4F89C3042
:1059D000F61A94F885010DF0C3FF35A3D3E900232F
:1059E0000EF024F80EF0E4FA074640460EF0EAFB0B
:1059F000014638460EF03AFC804630460EF0E2FB97
:105A0000014640460EF032FC0EF0F6FDC4F8A4004C
:105A100093E094F88791C845C0F0E180D4F8A06085
:105A2000D4F89C30F61A94F885010DF099FF20A364
:105A3000D3E900230DF0FAFF0EF0BAFA0746C84585
:105A400019D84FEA48000EF0BDFB20490EF0C2FC09
:105A5000014638460EF00AFC804606EBD670401030
:105A60000EF0B0FB014640460EF000FC0EF0C4FD07
:105A7000C4F8A40061E04FEA48000EF0A3FB13490C
:105A80000EF0A8FC014638460EF0F0FB804606EB0F
:105A9000D67040100EF096FB014640460EF0E6FB35
:105AA0000EF0AAFDC4F8A40047E000BFAFF30080E9
:105AB0007B14AE47E17A843F3089FF1F0898FF1FAF
:105AC00028690020E088FF1FD088FF1F00007F4367
:105AD000D4F8A060D4F89C30F61A94F885010DF043
