:1000000000800020BD010000E51D0100A91D0100C8
:10001000A91D0100A91D0100A91D0100A91D0100C4
:10002000A91D0100A91D0100A91D0100E51D010078
:10003000E51D0100A91D0100E51D0100991D01003C
:10004000E51D0100E51D0100E51D0100E51D0100A4
:10005000E51D0100E51D0100E51D0100E51D010094
:10006000E51D0100E51D0100E51D0100E51D010084
:10007000E51D0100E51D0100E51D0100E51D010074
:10008000E51D0100E51D0100E51D0100E51D010064
:10009000E51D0100E51D0100E51D0100E51D010054
:1000A0005DF00000E51D0100E51D0100E51D0100FA
:1000B000E51D0100E51D0100E51D0100E51D010034
:1000C000E51D0100E51D0100E51D0100E51D010024
:1000D000E51D0100E51D0100E51D0100E51D010014
:1000E000E51D0100E51D0100E51D0100E51D010004
:1000F000E51D0100051C0100E51D01004D2F01005B
:10010000E51D010069330100E51D0100E51D010049
:10011000E51D0100E51D0100E51D0100E51D0100D3
:10012000E51D0100E51D0100E51D0100E51D0100C3
:10013000E51D0100E51D0100E51D0100E51D0100B3
:10014000E51D0100E51D0100E51D0100E51D0100A3
:10015000052801001D280100352801004D28010057
:10016000E51D010071090100E51D0100E51D01000B
:10017000E51D0100E51D0100E51D0100E51D010073
:10018000E51D0100E51D0100E51D0100E51D010063
:10019000E51D0100E51D0100E51D0100E51D010053
:1001A000E51D0100E51D0100E51D0100E51D010043
:1001B000E51D0100E51D0100E51D010010B56B4BBB
:1001C0004CF220521A804DF628121A8000BF00BF50
:1001D00011F00CFE4FF01062654B1A60654A08334F
:1001E0001A60654A04331A60A3F530432C3B1B6840
:1001F00013F4807F06D10022604B1A604FF4A8529E
:10020000043B1A605E4B1B7813F0080F04D05C4B64
:100210001A7842F008021A702A225A4B1A705A4B66
:100220005A4A9A420DD2131D594CE41A24F0030481
:1002300004340023104657495A581A500433A34235
:10024000FAD1554B554A9A4280F08B80131F54497E
:10025000C91A21F003011A1D1144002243F8042F8A
:100260008B42FBD17DE05A581A500433B3F5DE7F40
:10027000F9D14C4B80214C4A03F8011B9342FBD12E
:100280004A4B4B4A1A600A224A4B1A702422A3F6A0
:10029000FF731A70A022013B1A7006331A7812F00D
:1002A000020FFBD0444B1A7812F0100FFBD1424BD7
:1002B0001A7802F00C02082AFAD103223F4B1A7076
:1002C000402201331A7001331A7812F0200FFBD04C
:1002D000394B1A7812F0400FFBD0394A394B1A606B
:1002E000022204331A602022374B1A7006331A7820
:1002F00002F00C020C2AFAD1344A354B1A60354A06
:10030000354B1A60002204331A600722083B1A603A
:10031000324A03F551631A6062B610F0EBF9174BDD
:100320001B6813F0010F05D02D4810F049F92D4A34
:100330002D4B1A602D4B1B7813F0400F0AD02A4B1F
:100340001A68284B9A4205D1254810F039F9002245
:10035000254B1A6014F08CF911F04EFD12F07CFB65
:10036000FEE70023124822497DE700BF0E2005402A
:1003700030800440823F04000100002B14D0034071
:1003800002D0074000E00740C896FF1F8088FF1F8B
:10039000CB96FF1F4C730100EC700020C896FF1F26
:1003A000E770002000E400E05FE400E008ED00E01A
:1003B0000082FF1F005006400640064004400640F1
:1003C000000003014480044000400640C0100500C6
:1003D00004800440FF76010014E000E000002020CB
:1003E000A4633F5BA5C3945A1CE0034000F00740A0
:1003F00000000000FFFFFFFFFFFFFFFFFFFFFFFF09
:10040000FFFFFFFFFFFFFFFFFFFFFFFFFEFFFFFFFD
:1004100010B5054C237833B9044B13B10448AFF33E
:1004200000800123237010BDC896FF1F000000004C
:100430004C73010008B5064B1BB106480649AFF3E3
:1004400000800648036813B1054B03B1984708BD07
:10045000000000004C730100CC96FF1FC896FF1FE0
:100460000000000030B583B004469DF91C50009593
:100470009DF91850019549B252B25BB20FF0C2FB20
:10048000024B2360204603B030BD00BF005901007D
:1004900010B584B0044668460D4911F0F3FE2046BD
:1004A00001210FF01FF9204601210FF015F9204618
:1004B000002105220FF00CF92046694611F0FAFFE1
:1004C00020460FF029FD684611F090FE04B010BDE3
:1004D000285F010030B585B00446002580F838500B
:1004E00002213C2201230FF01DFC20460FF0A6FB49
:1004F0008023009340230193012302932046294641
:100500002A46074B0EF0B4FF20460FF005FD4FF4CE
:10051000FA7010F0DBF820460FF090FB05B030BD0C
:10052000B85901002DE9F0438BB004460D4616463C
:100530001F469DF8489002A8139911F0C1FE06A825
:10054000149911F0BDFE204601210FF0C5F8204698
:1005500001210FF0C7F82DB220462946721C0FF07A
:10056000B7F822683FB2CDF800904FF00008CDF800
:100570000480D2F81CC02046294632463B46E0475C
:10058000204606A911F096FF204602210FF0A4F89C
:10059000204601210FF0A6F80A36204629463246A9
:1005A0000FF096F823684FEA59020092CDF80480C4
:1005B000D3F81CC02046294632463B46E047204639
:1005C00002A911F077FF20460FF0A6FC06A811F053
:1005D0000DFE02A811F00AFE0BB0BDE8F08300BFCB
:1005E000F0B58BB004460E4615461F4602A8119979
:1005F00011F066FE06A8129911F062FE2046012154
:100600000FF06AF8204601210FF06CF836B2204650
:1006100031466A1C0FF05CF823689DF84020009278
:1006200000220192D3F81CC0204631462A463B46A0
:10063000E047204606A911F03DFF20460FF06CFC74
:1006400006A811F0D3FD02A811F0D0FD0BB0F0BD4B
:100650002DE9F0438BB004460E46154602A81399C7
:1006600011F02EFE06A8149911F02AFE2046012151
:100670000FF032F8204601210FF034F80FFA86F916
:100680002DB2204649462A460FF022F823689DF8ED
:1006900048800FFA88F8CDF8008000270197D3F83A
:1006A0001CC0204649462A463C23E047204606A96E
:1006B00011F000FF204602210FF00EF82046012124
:1006C0000FF010F83236204631462A460FF000F877
:1006D0002368CDF800800197DF69204631462A461D
:1006E0003C23B847204602A911F0E4FE20460FF053
:1006F00013FC06A811F07AFD02A811F077FD0BB0EB
:10070000BDE8F083F0B587B004460E4615461F4697
:1007100002A80D9911F0D4FD204601210EF0DCFF56
:10072000204601210EF0DEFF36B2204631466A1C1B
:100730000EF0CEFF23689DF8302000920022019237
:10074000D3F81CC0204631462A463B46E0472046A7
:1007500002A911F0AFFE20460FF0DEFB02A811F057
:1007600045FD07B0F0BD00BFF0B587B004460E46AA
:1007700015461F4602A80D9911F0A2FD2046002142
:100780000EF0AAFF204601210EF0ACFF36B2204643
:1007900031466A1C0EF09CFF23689DF830200092C1
:1007A00000220192D3F81CC0204631462A463B461F
:1007B000E047204602A911F07DFE20460FF0ACFB79
:1007C00002A811F013FD07B0F0BD00BFF0B585B071
:1007D00005460F4616461C46072B03D00D3BDBB2E1
:1007E000012B0BD82A680823009300210191D2F82D
:1007F0001CC0284639463246E04709E003681E22FD
:10080000009200220192D3F81CC032461923E0471F
:100810005CB91823009301930123029328463946BB
:100820003246664B0EF024FE1BE0012C0BD1182340
:100830000093019301230293284639463246604BC8
:100840000EF016FE1BE0022C0BD11823009301932F
:10085000012302932846394632465A4B0EF008FED1
:100860001BE0032C0BD11823009301930123029367
:10087000284639463246544B0EF0FAFD1BE0042C54
:100880000BD1182300930193012302932846394684
:1008900032464E4B0EF0ECFD1BE0052C0BD118231D
:1008A0000093019301230293284639463246484B70
:1008B0000EF0DEFD1BE0062C0BD1182300930193F4
:1008C00001230293284639463246424B0EF0D0FDB2
:1008D0001BE0072C0BD10823009301930123029303
:1008E0002846394632463C4B0EF0C2FD1BE0082C30
:1008F0000BD1182300930193012302932846394614
:100900003246364B0EF0B4FD1BE0092C0BD11823F8
:100910000093019301230293284639463246304B17
:100920000EF0A6FD1BE00A2C0BD1182300930193B7
:10093000012302932846394632462A4B0EF098FD91
:100940001BE00B2C0BD1182300930193012302937E
:10095000284639463246244B0EF08AFD1BE00C2C0B
:100960000BD11823009301930123029328463946A3
:1009700032461E4B0EF07CFD1AE00D2C0BD10823E5
:100980000093019301230293284639463246184BBF
:100990000EF06EFD0CE00E2C0AD10823009301939B
:1009A00001230293284639463246124B0EF060FD71
:1009B00028460FF0B1FA05B0F0BD00BFC45F0100DA
:1009C000345F0100B85D010064600100D85E010081
:1009D0007C5F0100905E01000C600100005E010080
:1009E000285901001460010070590100485E01009F
:1009F000205F01005C6001002DE9F0478AB00446E9
:100A00000F46154698469DF848A00368A1F10209D3
:100A10000AF10102009200260196D3F81CC0494653
:100A2000A5F10B0208F10103E047204631460EF024
:100A300053FE204601210EF055FE3FB220463946B6
:100A4000A5F10A020EF044FE02A8139911F038FC39
:100A5000204602A911F02EFD2368CDF800A0012246
:100A60000192D3F81CC0204649466A1E4346E0471F
:100A7000204631460EF030FE204631460EF032FE62
:100A8000204639462A460EF023FE06A8149911F096
:100A900017FC204606A911F00DFD20460FF03CFA88
:100AA00006A811F0A3FB02A811F0A0FB0AB0BDE854
:100AB000F08700BF08B50FF0C1F808BD2DE9F04F71
:100AC00083B004469146984603688F000526009639
:100AD00000250195D3F81CC0394642460423E0475F
:100AE0002368D3F81CA0009648462946FF2201231C
:100AF00012F022F88346009648462946FF22012339
:100B000012F01AF8B044CBEB080200B200900123B7
:100B100001932046394612B20323D04720460FF0F6
:100B2000FBF903B0BDE8F08F2DE9F04F85B0044626
:100B3000884692461E468F000368082200920025D0
:100B40000195D3F81CC0394632460423E047236898
:100B5000DB6902934FF0060BCDF800B050462946F2
:100B6000FF22012311F0E8FF03905E44CDF800B0AE
:100B700050462946FF22012311F0DEFF039D721B20
:100B800000B200904FF0010ACDF804A0204639468B
:100B900012B20323029DA84718F0070F226814BF62
:100BA000002301230093CDF804A0D569204607EB6C
:100BB0000A013246A84720460FF0AEF905B0BDE85D
:100BC000F08F00BF2DE9F04F83B0044690461F46DA
:100BD00003688E000822009200250195D3F81CC0FE
:100BE00031463A460423E0472368D3F81CA04FF06F
:100BF0000609CDF8009040462946FF22012311F056
:100C00009BFF8346CDF8009040462946FF220123F2
:100C100011F092FF4F44CBEB070200B20090019518
:100C20002046314612B20323D04720460FF074F914
:100C300003B0BDE8F08F00BF2DE9F04F85B004464A
:100C400088469346029303689DF838600A22009212
:100C500000250195D3F81CC0029932467823E0475D
:100C60002368DB6903934FF0280ACDF800A04046C3
:100C7000294640F2FF322B4611F05EFF02990144F3
:100C80004FF00809CDF800904FF00108CDF804802E
:100C9000204609B232460223039FB8472368DB6926
:100CA000039300955846294640F2FF32534611F00F
:100CB00043FF029D05F13C073918CDF80090CDF8AF
:100CC0000480204609B232460223039FB8472046DB
:100CD0000FF022F905B0BDE8F08F00BF0122014BF3
:100CE0001A7070472CEBFF1F0022014B1A707047DF
:100CF00049CEFF1F704700BF10B50446024911F0EE
:100D0000C1FA204610BD00BFBC61010010B5044609
:100D1000044821460A22002311F002FC024B1C6009
:100D200010BD00BF446F0020CCEAFF1F10B5044681
:100D300011F05CFE204610BD10B4194B9B6D1A6873
:100D400014785A6811785A7A11409A7A02F003029C
:100D5000187A044218BF42F0040209B142F00802B6
:100D600091109972013A0D2A17D8DFE802F0070BAB
:100D70000F0B1613070713160B0F0B07DA68013258
:100D8000DA600AE0DA68013ADA6006E0DA6802322C
:100D9000DA6002E0DA68023ADA605DF8044B704724
:100DA0004C69002010B41A4BD3F884301A681478B8
:100DB0005A6811785A7A11409A7A02F00302187A26
:100DC000044218BF42F0040209B142F00802911037
:100DD0009972013A0D2A17D8DFE802F0070B0F0BC2
:100DE0001613070713160B0F0B07DA680132DA60C8
:100DF0000AE0DA68013ADA6006E0DA680232DA60BC
:100E000002E0DA68023ADA605DF8044B704700BF2E
:100E10004C69002010B41A4BD3F880301A6814784B
:100E20005A6811785A7A11409A7A02F00302187AB5
:100E3000044218BF42F0040209B142F008029110C6
:100E40009972013A0D2A17D8DFE802F0070B0F0B51
:100E50001613070713160B0F0B07DA680132DA6057
:100E60000AE0DA68013ADA6006E0DA680232DA604B
:100E700002E0DA68023ADA605DF8044B704700BFBE
:100E80004C69002010B4194BDB6F1A6814785A684B
:100E900011785A7A11409A7A02F00302187A0442C1
:100EA00018BF42F0040209B142F008029110997291
:100EB000013A0D2A17D8DFE802F0070B0F0B1613C3
:100EC000070713160B0F0B07DA680132DA600AE026
:100ED000DA68013ADA6006E0DA680232DA6002E0E3
:100EE000DA68023ADA605DF8044B70474C6900201A
:100EF00010B4194B9B6F1A6814785A6811785A7A93
:100F000011409A7A02F00302187A044218BF42F0A4
:100F1000040209B142F0080291109972013A0D2AB7
:100F200017D8DFE802F0070B0F0B1613070713168D
:100F30000B0F0B07DA680132DA600AE0DA68013A6F
:100F4000DA6006E0DA680232DA6002E0DA68023A71
:100F5000DA605DF8044B70474C69002010B4194BFF
:100F60005B6F1A6814785A6811785A7A11409A7A25
:100F700002F00302187A044218BF42F0040209B1D9
:100F800042F0080291109972013A0D2A17D8DFE851
:100F900002F0070B0F0B1613070713160B0F0B07A7
:100FA000DA680132DA600AE0DA68013ADA6006E00B
:100FB000DA680232DA6002E0DA68023ADA605DF892
:100FC000044B70474C69002010B4194B1B6F1A6812
:100FD00014785A6811785A7A11409A7A02F003020A
:100FE000187A044218BF42F0040209B142F0080224
:100FF00091109972013A0D2A17D8DFE802F0070B19
:101000000F0B1613070713160B0F0B07DA680132C5
:10101000DA600AE0DA68013ADA6006E0DA68023299
:10102000DA6002E0DA68023ADA605DF8044B704791
:101030004C69002010B4194BDB6E1A6814785A689A
:1010400011785A7A11409A7A02F00302187A04420F
:1010500018BF42F0040209B142F0080291109972DF
:10106000013A0D2A17D8DFE802F0070B0F0B161311
:10107000070713160B0F0B07DA680132DA600AE074
:10108000DA68013ADA6006E0DA680232DA6002E031
:10109000DA68023ADA605DF8044B70474C69002068
:1010A00010B4194B9B6E1A6814785A6811785A7AE2
:1010B00011409A7A02F00302187A044218BF42F0F3
:1010C000040209B142F0080291109972013A0D2A06
:1010D00017D8DFE802F0070B0F0B161307071316DC
:1010E0000B0F0B07DA680132DA600AE0DA68013ABE
:1010F000DA6006E0DA680232DA6002E0DA68023AC0
:10110000DA605DF8044B70474C69002010B4194B4D
:101110005B6E1A6814785A6811785A7A11409A7A74
:1011200002F00302187A044218BF42F0040209B127
:1011300042F0080291109972013A0D2A17D8DFE89F
:1011400002F0070B0F0B1613070713160B0F0B07F5
:10115000DA680132DA600AE0DA68013ADA6006E059
:10116000DA680232DA6002E0DA68023ADA605DF8E0
:10117000044B70474C69002010B4194B1B6E1A6861
:1011800014785A6811785A7A11409A7A02F0030258
:10119000187A044218BF42F0040209B142F0080272
:1011A00091109972013A0D2A17D8DFE802F0070B67
:1011B0000F0B1613070713160B0F0B07DA68013214
:1011C000DA600AE0DA68013ADA6006E0DA680232E8
:1011D000DA6002E0DA68023ADA605DF8044B7047E0
:1011E0004C69002010B4194BDB6D1A6814785A68EA
:1011F00011785A7A11409A7A02F00302187A04425E
:1012000018BF42F0040209B142F00802911099722D
:10121000013A0D2A17D8DFE802F0070B0F0B16135F
:10122000070713160B0F0B07DA680132DA600AE0C2
:10123000DA68013ADA6006E0DA680232DA6002E07F
:10124000DA68023ADA605DF8044B70474C690020B6
:1012500010B4194B9B691A6814785A6811785A7A35
:1012600011409A7A02F00302187A044218BF42F041
:10127000040209B142F0080291109972013A0D2A54
:1012800017D8DFE802F0070B0F0B1613070713162A
:101290000B0F0B07DA680132DA600AE0DA68013A0C
:1012A000DA6006E0DA680232DA6002E0DA68023A0E
:1012B000DA605DF8044B70474C69002010B4194B9C
:1012C0005B691A6814785A6811785A7A11409A7AC8
:1012D00002F00302187A044218BF42F0040209B176
:1012E00042F0080291109972013A0D2A17D8DFE8EE
:1012F00002F0070B0F0B1613070713160B0F0B0744
:10130000DA680132DA600AE0DA68013ADA6006E0A7
:10131000DA680232DA6002E0DA68023ADA605DF82E
:10132000044B70474C69002010B4194B1B691A68B4
:1013300014785A6811785A7A11409A7A02F00302A6
:10134000187A044218BF42F0040209B142F00802C0
:1013500091109972013A0D2A17D8DFE802F0070BB5
:101360000F0B1613070713160B0F0B07DA68013262
:10137000DA600AE0DA68013ADA6006E0DA68023236
:10138000DA6002E0DA68023ADA605DF8044B70472E
:101390004C69002010B4194BDB681A6814785A683D
:1013A00011785A7A11409A7A02F00302187A0442AC
:1013B00018BF42F0040209B142F00802911099727C
:1013C000013A0D2A17D8DFE802F0070B0F0B1613AE
:1013D000070713160B0F0B07DA680132DA600AE011
:1013E000DA68013ADA6006E0DA680232DA6002E0CE
:1013F000DA68023ADA605DF8044B70474C69002005
:1014000010B4194B9B681A6814785A6811785A7A84
:1014100011409A7A02F00302187A044218BF42F08F
:10142000040209B142F0080291109972013A0D2AA2
:1014300017D8DFE802F0070B0F0B16130707131678
:101440000B0F0B07DA680132DA600AE0DA68013A5A
:10145000DA6006E0DA680232DA6002E0DA68023A5C
:10146000DA605DF8044B70474C69002010B4194BEA
:101470005B681A6814785A6811785A7A11409A7A17
:1014800002F00302187A044218BF42F0040209B1C4
:1014900042F0080291109972013A0D2A17D8DFE83C
:1014A00002F0070B0F0B1613070713160B0F0B0792
:1014B000DA680132DA600AE0DA68013ADA6006E0F6
:1014C000DA680232DA6002E0DA68023ADA605DF87D
:1014D000044B70474C69002010B4194B1B681A6804
:1014E00014785A6811785A7A11409A7A02F00302F5
:1014F000187A044218BF42F0040209B142F008020F
:1015000091109972013A0D2A17D8DFE802F0070B03
:101510000F0B1613070713160B0F0B07DA680132B0
:10152000DA600AE0DA68013ADA6006E0DA68023284
:10153000DA6002E0DA68023ADA605DF8044B70477C
:101540004C69002010B4194B9B6B1A6814785A68C8
:1015500011785A7A11409A7A02F00302187A0442FA
:1015600018BF42F0040209B142F0080291109972CA
:10157000013A0D2A17D8DFE802F0070B0F0B1613FC
:10158000070713160B0F0B07DA680132DA600AE05F
:10159000DA68013ADA6006E0DA680232DA6002E01C
:1015A000DA68023ADA605DF8044B70474C69002053
:1015B00010B4194B5B6B1A6814785A6811785A7A10
:1015C00011409A7A02F00302187A044218BF42F0DE
:1015D000040209B142F0080291109972013A0D2AF1
:1015E00017D8DFE802F0070B0F0B161307071316C7
:1015F0000B0F0B07DA680132DA600AE0DA68013AA9
:10160000DA6006E0DA680232DA6002E0DA68023AAA
:10161000DA605DF8044B70474C69002010B4194B38
:101620001B6B1A6814785A6811785A7A11409A7AA2
:1016300002F00302187A044218BF42F0040209B112
:1016400042F0080291109972013A0D2A17D8DFE88A
:1016500002F0070B0F0B1613070713160B0F0B07E0
:10166000DA680132DA600AE0DA68013ADA6006E044
:10167000DA680232DA6002E0DA68023ADA605DF8CB
:10168000044B70474C69002010B4194BDB6A1A6890
:1016900014785A6811785A7A11409A7A02F0030243
:1016A000187A044218BF42F0040209B142F008025D
:1016B00091109972013A0D2A17D8DFE802F0070B52
:1016C0000F0B1613070713160B0F0B07DA680132FF
:1016D000DA600AE0DA68013ADA6006E0DA680232D3
:1016E000DA6002E0DA68023ADA605DF8044B7047CB
:1016F0004C69002010B4194B9B6A1A6814785A6818
:1017000011785A7A11409A7A02F00302187A044248
:1017100018BF42F0040209B142F008029110997218
:10172000013A0D2A17D8DFE802F0070B0F0B16134A
:10173000070713160B0F0B07DA680132DA600AE0AD
:10174000DA68013ADA6006E0DA680232DA6002E06A
:10175000DA68023ADA605DF8044B70474C690020A1
:1017600010B4194B5B6A1A6814785A6811785A7A5F
:1017700011409A7A02F00302187A044218BF42F02C
:10178000040209B142F0080291109972013A0D2A3F
:1017900017D8DFE802F0070B0F0B16130707131615
:1017A0000B0F0B07DA680132DA600AE0DA68013AF7
:1017B000DA6006E0DA680232DA6002E0DA68023AF9
:1017C000DA605DF8044B70474C69002010B4194B87
:1017D0001B6A1A6814785A6811785A7A11409A7AF2
:1017E00002F00302187A044218BF42F0040209B161
:1017F00042F0080291109972013A0D2A17D8DFE8D9
:1018000002F0070B0F0B1613070713160B0F0B072E
:10181000DA680132DA600AE0DA68013ADA6006E092
:10182000DA680232DA6002E0DA68023ADA605DF819
:10183000044B70474C69002010B4194BDB691A68DF
:1018400014785A6811785A7A11409A7A02F0030291
:10185000187A044218BF42F0040209B142F00802AB
:1018600091109972013A0D2A17D8DFE802F0070BA0
:101870000F0B1613070713160B0F0B07DA6801324D
:10188000DA600AE0DA68013ADA6006E0DA68023221
:10189000DA6002E0DA68023ADA605DF8044B704719
:1018A0004C69002010B4194B9B6C1A6814785A6864
:1018B00011785A7A11409A7A02F00302187A044297
:1018C00018BF42F0040209B142F008029110997267
:1018D000013A0D2A17D8DFE802F0070B0F0B161399
:1018E000070713160B0F0B07DA680132DA600AE0FC
:1018F000DA68013ADA6006E0DA680232DA6002E0B9
:10190000DA68023ADA605DF8044B70474C690020EF
:1019100010B4194B5B6C1A6814785A6811785A7AAB
:1019200011409A7A02F00302187A044218BF42F07A
:10193000040209B142F0080291109972013A0D2A8D
:1019400017D8DFE802F0070B0F0B16130707131663
:101950000B0F0B07DA680132DA600AE0DA68013A45
:10196000DA6006E0DA680232DA6002E0DA68023A47
:10197000DA605DF8044B70474C69002010B4194BD5
:101980001B6C1A6814785A6811785A7A11409A7A3E
:1019900002F00302187A044218BF42F0040209B1AF
:1019A00042F0080291109972013A0D2A17D8DFE827
:1019B00002F0070B0F0B1613070713160B0F0B077D
:1019C000DA680132DA600AE0DA68013ADA6006E0E1
:1019D000DA680232DA6002E0DA68023ADA605DF868
:1019E000044B70474C69002010B4194BDB6B1A682C
:1019F00014785A6811785A7A11409A7A02F00302E0
:101A0000187A044218BF42F0040209B142F00802F9
:101A100091109972013A0D2A17D8DFE802F0070BEE
:101A20000F0B1613070713160B0F0B07DA6801329B
:101A3000DA600AE0DA68013ADA6006E0DA6802326F
:101A4000DA6002E0DA68023ADA605DF8044B704767
:101A50004C69002010B4194B1B6D1A6814785A6831
:101A600011785A7A11409A7A02F00302187A0442E5
:101A700018BF42F0040209B142F0080291109972B5
:101A8000013A0D2A17D8DFE802F0070B0F0B1613E7
:101A9000070713160B0F0B07DA680132DA600AE04A
:101AA000DA68013ADA6006E0DA680232DA6002E007
:101AB000DA68023ADA605DF8044B70474C6900203E
:101AC00010B4194BDB6C1A6814785A6811785A7A7A
:101AD00011409A7A02F00302187A044218BF42F0C9
:101AE000040209B142F0080291109972013A0D2ADC
:101AF00017D8DFE802F0070B0F0B161307071316B2
:101B00000B0F0B07DA680132DA600AE0DA68013A93
:101B1000DA6006E0DA680232DA6002E0DA68023A95
:101B2000DA605DF8044B70474C69002010B4194B23
:101B30005B6D1A6814785A6811785A7A11409A7A4B
:101B400002F00302187A044218BF42F0040209B1FD
:101B500042F0080291109972013A0D2A17D8DFE875
:101B600002F0070B0F0B1613070713160B0F0B07CB
:101B7000DA680132DA600AE0DA68013ADA6006E02F
:101B8000DA680232DA6002E0DA68023ADA605DF8B6
:101B9000044B70474C69002038B504460D46084692
:101BA00013F01AFC024623685B68204629469847D2
:101BB0000546204610F0A4FC284438BD70B5044604
:101BC0000E461546084602210EF03CFD284602212D
:101BD0000EF038FDA64A52F8363003F50071216048
:101BE0000121217252F8352002F5007060606172A7
:101BF0000021E1604FF47A4101397FF4FDAF93F8A1
:101C0000003203F0010392F8002212F0010F1CBF12
:101C100043F00203DBB2A372212E00F29681DFE8CB
:101C200016F022002B0034003D0046004F00580003
:101C300061006A0073007C0085008E009700A000A0
:101C4000A900B200BB00C400CD00D600DF00E80050
:101C5000F100FA0003010C0115011E0165016E017E
:101C6000770180018A01834B1C6000208249042295
:101C70000EF046FC012369E17E4B5C6001207F4948
:101C800004220EF03DFC012360E17A4B9C600220AF
:101C90007B4904220EF034FC012357E1754BDC60D4
:101CA0000320784904220EF02BFC01234EE1714BF6
:101CB0001C610420744902460EF022FC012345E118
:101CC0006C4B5C610520714904220EF019FC012364
:101CD0003CE1684B9C6106206D4904220EF010FC2B
:101CE000012333E1634BDC6107206A4904220EF0D3
:101CF00007FC01232AE15F4B1C620820664904228D
:101D00000EF0FEFB012321E15A4B5C62092063497E
:101D100004220EF0F5FB012318E1564B9C620A20C9
:101D20005F4904220EF0ECFB01230FE1514BDC6212
:101D30000B205C4904220EF0E3FB012306E14D4B2E
:101D40001C630C20584904220EF0DAFB0123FDE04D
:101D5000484B5C630D20554904220EF0D1FB012352
:101D6000F4E0444B9C630E20514904220EF0C8FB62
:101D70000123EBE03F4BDC630F204E4904220EF0C1
:101D8000BFFB0123E2E03B4B1C6410204A490422C4
:101D90000EF0B6FB0123D9E0364B5C6411204749B5
:101DA00004220EF0ADFB0123D0E0324B9C641220E4
:101DB000434904220EF0A4FB0123C7E02D4BDC6451
:101DC0001320404904220EF09BFB0123BEE0294B67
:101DD0001C6514203C4904220EF092FB0123B5E05F
:101DE000244B5C651520394904220EF089FB012340
:101DF000ACE0204B9C651620354904220EF080FB98
:101E00000123A3E01B4BDC651720324904220EF0AE
:101E100077FB01239AE0174B1C6618202E490422F9
:101E20000EF06EFB012391E0124B5C6619202B49EA
:101E300004220EF065FB012388E00E4B9C661A20FD
:101E4000274904220EF05CFB01237FE0094BDC668E
:101E50001B20244904220EF053FB012376E0054B9E
:101E60001C671C20204904220EF04AFB01236DE070
:101E7000586F01004C690020D91400006D14000057
:101E8000011400009513000029130000BD1200008A
:101E90005112000039180000CD1700006117000032
:101EA000F5160000891600001D160000B11500008F
:101EB00045150000E91900007D1900001119000006
:101EC000A5180000C11A0000551A00002D1B0000C3
:101ED000390D0000E5110000791100000D1100001E
:101EE000A110000035100000C90F0000A54B5C6771
:101EF0001D20A54904220EF003FB012326E0A14B7F
:101F00009C671E20A14904220EF0FAFA01231DE06D
:101F10009C4BDC671F209E4904220EF0F1FA01233E
:101F200014E0984BC3F8804020209A4904220EF018
:101F3000E7FA01230AE0934BC3F884402120964935
:101F400004220EF0DDFA012300E000232374212D8A
:101F500000F29B81DFE815F022002B0034003D00E9
:101F600046004F00580061006A0073007C00850045
:101F70008E009700A000A900B200BB00C400CD00F5
:101F8000D600DF00E800F100FA0003010C0158015F
:101F900061016A0173017C0185018F01794B1C602D
:101FA00000207E4904220EF0ABFA01226EE1754B4F
:101FB0005C6001207A4904220EF0A2FA012265E158
:101FC000704B9C600220774904220EF099FA01229E
:101FD0005CE16C4BDC600320734904220EF090FA44
:101FE000012253E1674B1C610420704902460EF048
:101FF00087FA01224AE1634B5C6105206C490422A7
:102000000EF07EFA012241E15E4B9C610620694997
:1020100004220EF075FA012238E15A4BDC610720E8
:10202000654904220EF06CFA01222FE1554B1C6227
:102030000820624904220EF063FA012226E1514B86
:102040005C6209205E4904220EF05AFA01221DE169
:102050004C4B9C620A205B4904220EF051FA01228B
:1020600014E1484BDC620B20574904220EF048FA79
:1020700001220BE1434B1C630C20544904220EF057
:102080003FFA012202E13F4B5C630D2050490422DC
:102090000EF036FA0122F9E03A4B9C630E204D49CE
:1020A00004220EF02DFA0122F0E0364BDC630F2003
:1020B000494904220EF024FA0122E7E0314B1C6466
:1020C0001020464904220EF01BFA0122DEE02D4BBF
:1020D0005C641120424904220EF012FA0122D5E07C
:1020E000284B9C6412203F4904220EF009FA012279
:1020F000CCE0244BDC6413203B4904220EF000FAB0
:102100000122C3E01F4B1C651420384904220EF045
:10211000F7F90122BAE01B4B5C6515203449042213
:102120000EF0EEF90122B1E0164B9C651620314904
:1021300004220EF0E5F90122A8E0124BDC6517201D
:102140002D4904220EF0DCF901229FE00D4B1C66A4
:1021500018202A4904220EF0D3F9012296E0094BF7
:102160005C661920264904220EF0CAF901228DE08E
:10217000044B9C661A20234904220EF0C1F9012267
:1021800084E000BF4C6900205D0F0000F10E0000EC
:10219000850E0000150E0000A50D0000D9140000EA
:1021A0006D140000011400009513000029130000B5
:1021B000BD1200005112000039180000CD170000B8
:1021C00061170000F5160000891600001D160000BA
:1021D000B115000045150000E91900007D19000047
:1021E00011190000A5180000C11A0000551A0000BE
:1021F0002D1B0000390D0000E511000079110000D1
:102200000D110000A1100000234BDC661B202349A8
:1022100004220EF075F9012238E01F4B1C671C20C8
:102220001F4904220EF06CF901222FE01A4B5C6763
:102230001D201C4904220EF063F9012226E0164BF2
:102240009C671E20184904220EF05AF901221DE055
:10225000114BDC671F20154904220EF051F90122B1
:1022600014E00D4BC3F880402020114904220EF0E9
:1022700047F901220AE0084BC3F8844021200D49A8
:1022800004220EF03DF9012200E00022237C1344D9
:102290002374204670BD00BF4C690020351000003B
:1022A000C90F00005D0F0000F10E0000850E000058
:1022B000150E0000A50D000010B403681C784368DB
:1022C0001A78437A1A40837A03F00303017A0C42A6
:1022D00018BF43F004030AB143F008039A10827256
:1022E000013B0D2B17D8DFE803F0070B0F0B16137C
:1022F000070713160B0F0B07C3680133C3600AE00F
:10230000C368013BC36006E0C3680233C36002E0F8
:10231000C368023BC3605DF8044B70472DE9F0478A
:102320000446844B40F8043B834E4FF0800831460E
:1023300042460DF0E3FE012784F89170002584F8F1
:102340009250C4F89450C4F89850C4F89C50C4F803
:10235000A050C4F8A45084F8A85004F1EC00294619
:10236000A82212F0EDFC84F8EC70022384F8ED3022
:10237000032384F8EE30042384F8EF30052384F837
:10238000F0304FF0060984F8F190072384F8F2301A
:10239000082384F8F3304FF0100C84F8F4C02023A5
:1023A00084F8F530402284F8F62084F8F780634BF7
:1023B000C4F8FC3003F50F2303F50063C4F80031C3
:1023C000A3F59E23C4F80431A3F50F23A3F6FF63FE
:1023D000C4F80831A3F5A023A3F20243C4F80C31DA
:1023E000574BC4F8103103F58033C4F8143106EBB1
:1023F000080393E80300C4F8180184F81C1184F85A
:102400001D5184F81E5184F81F5184F82051D6F8CC
:102410008C00C4F8210184F8255184F8265184F8F1
:10242000275184F8285184F82951334653F8980FDE
:10243000C4F82A0198889B79A4F82E0184F83031D9
:1024400084F8315184F832513E4B03CBC4F8330148
:10245000C4F837111B7884F83B3106F1A40393E8E4
:102460000300C4F83C01A4F8401121FA0CF184F8EF
:10247000421184F8435184F84451D6F8B000C4F8AE
:10248000450184F8495184F84A5184F84B5184F845
:102490004C5184F84D51D6F8BC00C4F84E01A4F854
:1024A0005251A4F8545184F85651274B1868C4F877
:1024B0005701264B1868C4F85B01254B1868C4F80F
:1024C0005F01244B1868C4F86301234B1868C4F8F3
:1024D000670184F8739184F874C1642384F87531BA
:1024E00084F8768184F877811E2384F87C3184F81F
:1024F0007E2184F8837184F8847184F8872184F8BC
:10250000907184F8917104F28313C4F8943104F546
:10251000C273C4F8983104F28513C4F89C3104F5F1
:10252000C373C4F8A03104F28713C4F8A431204661
:10253000BDE8F087B8600100C060010053494E005B
:1025400043563100C8610100D4610100D861010027
:10255000DC610100E0610100E4610100F0B595B0CB
:1025600005460C4604A88D310FF08CFE684604A980
:102570000FF0A6FE204E684631460FF059FF074681
:1025800008A8D4F898100A220FF0CCFE384608A903
:102590000FF044FF31460FF04BFF06460CA8D4F86D
:1025A00094100A220FF0BEFE30460CA90FF036FF41
:1025B00012490FF03DFF064610A8D4F888110A22F0
:1025C0000FF0B0FE304610A90FF028FF0146284654
:1025D0000FF076FE10A80FF009FE0CA80FF006FE13
:1025E00008A80FF003FE68460FF000FE04A80FF0E5
:1025F000FDFD284615B0F0BD64630100E8610100EF
:102600002DE9F04383B00646894690F8845190F84E
:102610008141431993F8EC30E41A04F07F0480F808
:10262000814190F88331062B00F2A281DFE813F09C
:10263000070034005B008900D10008015A01D0F87E
:10264000A070D0F89C30FF1A90F8850111F04AF97B
:102650009FA3D3E9002311F0ABF911F08BFC804666
:10266000384611F091FD054696F887311C4404F078
:102670007F043444207911F083FD974911F08CFEDA
:10268000414611F0D5FD0146284611F0D1FD11F06B
:1026900095FFC6F8A4006BE1D0F8A070D0F89C308C
:1026A000FF1A90F8850111F01DF989A3D3E90023E1
:1026B00011F07EF911F05EFC8046384611F064FDA1
:1026C0000546600011F060FD834911F065FE41464A
:1026D00011F0AEFD0146284611F0AAFD11F06EFF83
:1026E000C6F8A40044E190F88701844204D38442F0
:1026F00094BF0024012400E00024D6F8A070D6F88E
:102700009C30FF1A96F8850111F0ECF870A3D3E91C
:10271000002311F04DF911F02DFC8046384611F0E0
:1027200033FD0546204611F02FFD414611F080FD96
:102730000146284611F07CFD11F040FFC6F8A400C8
:1027400016E190F88751AC42C0F05E81D0F8A070DD
:10275000D0F89C30FF1A90F8850111F0C3F85CA303
:10276000D3E9002311F024F911F004FC8046AC42B7
:1027700017D807EBD770401011F006FD0546600032
:1027800011F002FD544911F007FE414611F050FDD1
:102790000146284611F04CFD11F010FFC6F8A400C8
:1027A000E6E007EBD770401011F0EEFC0546600044
:1027B00011F0EAFC484911F0EFFD414611F038FDF7
:1027C0000146284611F034FD11F0F8FEC6F8A400C9
:1027D000CEE0D0F8A070D0F89C30FF1A90F88501B8
:1027E00011F080F83AA3D3E9002311F0E1F811F0D9
:1027F000C1FB8046751B95F8FC30B9FBF3F203FB77
:10280000129919F0FF0F40F0B3800020FF2110F063
:1028100089F90546384611F0B7FC0446284611F000
:10282000B3FC2D4911F0B8FD414611F001FD014600
:10283000204611F0FDFC11F0C1FEC6F8A40097E09F
:10284000D0F8A070D0F89C30FF1A244BD86A96F8C4
:1028500085310093002140F2FF320B4610F06CF9F5
:10286000044696F8850111F03DF819A3D3E9002339
:1028700011F09EF811F07EFB8046204611F084FC9A
:1028800011F042F804460D46DFF8549002230093FD
:10289000484622460B460FF08BFE48460FF030FEAE
:1028A000204629460AA3D3E9002311F081F8044603
:1028B0000D46384611F016F802460B4620462946CA
:1028C00011F076F811F00EFBC6F8A40050E000BF3E
:1028D0007B14AE47E17A843F00007F438CE7FF1F03
:1028E000446F0020D0F8A070D0F89C30FF1A544BF1
:1028F000D86A96F885310093002140F2FF320B46EA
:1029000010F01AF9044696F8850110F0EBFF4AA37F
:10291000D3E9002311F04CF811F02CFB804620463F
:1029200011F032FC10F0F0FF04460D46DFF8149170
:1029300002230093484622460B460FF039FE4846D4
:102940000FF0DEFD204629463BA3D3E9002311F01A
:102950002FF804460D46384610F0C4FF02460B46D9
:102960002046294611F024F811F0BCFAC6F8A4005C
:1029700096F88531002B42D0D6F8940096F886411F
:10298000D6F89C50D6F8A020D6F8A41001442144D3
:10299000A942B8BF29469142D4BFC6F89810C6F8DC
:1029A000982001199142D4BFC6F88C11C6F88C2129
:1029B00011F0EAFB8146384611F0E6FB414611F082
:1029C00037FC0146484611F02BFB0746204611F024
:1029D000DBFB0146384611F023FB0446284611F084
:1029E000D3FB05462046294611F0C0FD08B1284614
:1029F00000E0204611F0E2FDC6F8880116E0D6F8A6
:102A00009430C6F8983011E0D0F8A070D0F89C301F
:102A1000FF1A90F8850110F065FF07A3D3E90023A2
:102A200010F0C6FF11F0A6FA8046A2E6002003B01F
:102A3000BDE8F083AFF300807B14AE47E17A843FBA
:102A4000C4E7FF1F446F00202DE9F04F99B00746FF
:102A50008B4600920026049605A831463C2212F0CF
:102A60006FF918A840F8546D314612F057FC3446FF
:102A7000DFF8F8A071E03B5D612B0DD100238DF8EC
:102A800010305AF82B20009902EB41123244537453
:102A90000136F6B201935FE0622B0ED100238DF870
:102AA00010305AF82B30009A03EB42139A19552331
:102AB00053740136F6B201934EE0632B0ED100231E
:102AC0008DF810305AF82B30009903EB41139A1906
:102AD000AA2353740136F6B201933DE0642B0ED164
:102AE00000238DF810305AF82B30009A03EB421374
:102AF0009A19FF2353740136F6B201932CE018A9FA
:102B000001F8553D3D446D7804A812F067FB303D57
:102B1000092D21D9002509E05AF82B30009903EB43
:102B200041139844019A88F81120013506EB0508F5
:102B30005FFA88F814A804A90FF0A4FB14A80FF0FA
:102B40009DFC814614A80FF051FB5FFA89F909F149
:102B5000FF394D45E0DB464601342546384612F044
:102B60003BFC844287D319B0BDE8F08F0C89FF1F6E
:102B70002DE9F04F89B00446E84940F8041BDFF81E
:102B8000CC93802749463A460DF0B8FA012684F8DE
:102B90009160002584F89250C4F89450C4F898507D
:102BA000C4F89C50C4F8A050C4F8A45084F8A850AD
:102BB00004F1EC002946A82212F0C2F884F8EC6077
:102BC0004FF0020284F8ED204FF0030384F8EE305A
:102BD0004FF0040E84F8EFE04FF0050084F8F000A9
:102BE0004FF0060B84F8F1B04FF0070184F8F210B3
:102BF0004FF0080284F8F3204FF0100A84F8F4A094
:102C00004FF0200384F8F5304FF0400884F8F68048
:102C100084F8F770C248C4F8FC00C249C4F8001137
:102C2000C14AC4F80421C14BC4F80831A0F51F20E3
:102C3000A0F60130C4F80C01BD49C4F81011BD4A1A
:102C4000C4F8142109F1800393E80300C4F81801C3
:102C500084F81C1184F81D5184F81E5184F81F510A
:102C600084F82051CE465EF88C0FCDF808E0C4F809
:102C7000210184F8255184F8265184F8275184F8DD
:102C8000285184F82951494651F8980F0191C4F808
:102C90002A018A88059291F806E0CDF818E0A4F898
:102CA0002E2184F830E184F8315184F83251A24B5E
:102CB00003CBC4F83301C4F837111B78079384F8A9
:102CC0003B3109F1A40292E80300C4F83C01A4F8E6
:102CD000401121FA0AF184F8421184F8435184F832
:102CE00044514B4653F8B00F0393C4F8450184F8A0
:102CF000495184F84A5184F84B5184F84C5184F876
:102D00004D51CE465EF8BC0FCDF810E0C4F84E0130
:102D1000A4F85251A4F8545184F8565187490868D0
:102D2000C4F85701864A1068C4F85B01854B1868DF
:102D3000C4F85F01DFF818E2DEF80000C4F86301B0
:102D400081490868C4F8670184F873B184F874A1F4
:102D50004FF0640284F8752184F8767184F87771F5
:102D60004FF01E0384F87C3184F87E8184F88361FF
:102D700084F8846184F8878184F8906184F8916193
:102D800004F28313C4F8943104F5C273C4F8983183
:102D900004F28513C4F89C3104F5C373C4F8A03160
:102DA00004F28713C4F8A4315C48C4F8A80104F500
:102DB000D67049463A460DF0A1F984F8396284F894
:102DC0003A52C4F83C52C4F84052C4F84452C4F8D1
:102DD0004852C4F84C5284F8505204F525702946E4
:102DE000A82211F0ADFF84F894624FF0020184F83C
:102DF00095124FF0030284F896224FF0040384F8F2
:102E000097324FF0050E84F898E284F899B24FF0AB
:102E1000070084F89A024FF0080184F89B1284F8A6
:102E20009CA24FF0200284F89D2284F89E8284F8B0
:102E30009F723B4BC4F8A4323A48C4F8A8023A49FE
:102E4000C4F8AC12394AC4F8B022A3F51F23A3F684
:102E50000133C4F8B4323648C4F8B8023549C4F86E
:102E6000BC1209F1800292E80300C4F8C00284F8A1
:102E7000C41284F8C55284F8C65284F8C75284F844
:102E8000C852029B1868C4F8C90284F8CD5284F86D
:102E9000CE5284F8CF5284F8D05284F8D152DDF863
:102EA00004E0DEF80000C4F8D2020598A4F8D602C7
:102EB000069984F8D81284F8D95284F8DA521E4B55
:102EC00003CBC4F8DB02C4F8DF12079B84F8E332BB
:102ED00009F1A40E9EE80300C4F8E402A4F8E81285
:102EE00021FA0AF184F8EA1284F8EB5284F8EC52E1
:102EF00003990868C4F8ED0284F8F15284F8F2529C
:102F000084F8F35284F8F45284F8F552049A106865
:102F1000C4F8F602A4F8FA521CE000BFB860010041
:102F200053494E00534157005351520054524900E7
:102F30004356310043563200C8610100D46101009C
:102F4000D8610100DC610100E4610100C0600100A2
:102F5000E0610100A4F8FC5284F8FE52EB4B1868C3
:102F6000C4F8FF02DFF8D4E3DEF80000C4F803037E
:102F7000E7490868C4F80703E64A1068C4F80B0379
:102F8000E54B1868C4F80F0384F81BB384F81CA33E
:102F90004FF0640E84F81DE384F81E7384F81F73E9
:102FA0004FF01E0084F8240384F8268384F82B63F2
:102FB00084F82C6384F82F8384F8386384F83963A9
:102FC00004F22B33C4F83C3304F54B73C4F840339C
:102FD00004F22D33C4F8443304F22E33C4F84833DA
:102FE00004F22F33C4F84C33CC49C4F8501304F521
:102FF000557049463A460DF081F884F8E16384F84B
:10300000E253C4F8E453C4F8E853C4F8EC53C4F8EA
:10301000F053C4F8F45384F8F85304F23C402946C2
:10302000A82211F08DFE84F83C644FF0020284F86F
:103030003D244FF0030384F83E344FF0040E84F82F
:103040003FE44FF0050084F8400484F841B44FF0A9
:10305000070184F842144FF0080284F8432484F8EE
:1030600044A44FF0200384F8453484F8468484F85F
:103070004774AB48C4F84C04AA49C4F85014AA4A8F
:10308000C4F85424A94BC4F85834A0F51F20A0F666
:103090000130C4F85C04A649C4F86014A54AC4F819
:1030A000642409F1800393E80300C4F8680484F8F9
:1030B0006C1484F86D5484F86E5484F86F5484F85A
:1030C0007054DDF808E0DEF80000C4F8710484F8FC
:1030D000755484F8765484F8775484F8785484F8D6
:1030E000795401990868C4F87A04059AA4F87E24F2
:1030F000069884F8800484F8815484F882548E4BB6
:1031000003CBC4F88304C4F88714079984F88B149C
:1031100009F1A40292E80300C4F88C04A4F8901406
:1031200021FA0AF184F8921484F8935484F89454A0
:10313000039B1868C4F8950484F8995484F89A5449
:1031400084F89B5484F89C5484F89D54DDF810E076
:10315000DEF80000C4F89E04A4F8A254A4F8A45415
:1031600084F8A65469490868C4F8A704734A10682B
:10317000C4F8AB04664B1868C4F8AF04DFF894E1F8
:10318000DEF80000C4F8B30463490868C4F8B70463
:1031900084F8C3B484F8C4A44FF0640284F8C5244E
:1031A00084F8C67484F8C7744FF01E0384F8CC34D6
:1031B00084F8CE8484F8D36484F8D46484F8D78403
:1031C00084F8E06484F8E16404F2D343C4F8E4349E
:1031D00004F2D443C4F8E83404F2D543C4F8EC3420
:1031E00004F2D643C4F8F03404F2D743C4F8F434FC
:1031F0004A48C4F8F80404F2FC4049463A460CF048
:103200007DFF84F8896584F88A55C4F88C55C4F824
:103210009055C4F89455C4F89855C4F89C5584F852
:10322000A05504F2E4502946A82211F089FD84F843
:10323000E4654FF0020184F8E5154FF0030284F8CD
:10324000E6254FF0040384F8E7354FF0050E84F8C7
:10325000E8E584F8E9B54FF0070084F8EA054FF097
:10326000080184F8EB1584F8ECA54FF0200284F8EF
:10327000ED2584F8EE8584F8EF75294BC4F8F43514
:103280002848C4F8F8052849C4F8FC15274AC4F8AA
:103290000026A3F51F23A3F60133C4F804362448FF
:1032A000C4F808062349C4F80C1609F1800292E814
:1032B0000300C4F8100684F8141684F8155684F830
:1032C000165684F8175684F81856029B1868C4F8E6
:1032D000190684F81D5684F81E5604F21F6303F87D
:1032E000015B03F8015B1D70CA465AF8980FC4F8D9
:1032F0002206BAF804E0CDF80CE09AF80600049033
:10330000A4F826E684F828061AE000BFD46101007C
:10331000DC610100E0610100E4610100B8600100CE
:1033200053494E00534157005351520054524900E3
:103330004356310043563200C8610100D861010094
:1033400084F8295684F82A56EA4B03CBC4F82B0696
:10335000C4F82F161B78059384F8333609F1A402BC
:1033600092E80300C4F83406A4F83816090C84F86F
:103370003A1684F83B5684F83C564B4653F8B00F47
:103380000193C4F83D0684F8415684F8425684F807
:10339000435684F8445684F84556CE465EF8BC0F32
:1033A000CDF808E0C4F84606A4F84A56A4F84C56EE
:1033B00084F84E56D0490868C4F84F06CF4A1068C2
:1033C000C4F85306CE4B1868C4F85706DFF854E328
:1033D000DEF80000C4F85B06CA490868C4F85F0656
:1033E00084F86BB64FF0100284F86C264FF064033B
:1033F00084F86D3684F86E7684F86F764FF01E0E82
:1034000084F874E684F8768684F87B6684F87C66B3
:1034100084F87F8684F8886684F8896604F27B6382
:10342000C4F88C3604F27C63C4F8903604F27D63F1
:10343000C4F8943604F27E63C4F8983604F27F63CD
:10344000C4F89C36B048C4F8A00604F2A46049460B
:103450003A460CF053FE84F8316784F83257C4F8CA
:103460003457C4F83857C4F83C57C4F84057C4F828
:10347000445784F8485704F28C702946A82211F06A
:103480005FFC84F88C674FF0020184F88D174FF0D1
:10349000030284F88E274FF0040384F88F374FF02F
:1034A000050E84F890E784F891B74FF0070084F890
:1034B00092074FF0080184F893174FF0100284F838
:1034C00094274FF0200384F8953784F8968784F882
:1034D00097778E48C4F89C078D49C4F8A0178D4A89
:1034E000C4F8A4278C4BC4F8A837A0F51F20A0F679
:1034F0000130C4F8AC078949C4F8B017884AC4F849
:10350000B42709F1800393E80300C4F8B80784F8EE
:10351000BC1784F8BD5784F8BE5784F8BF5784F8A9
:10352000C057CE465EF88C0FCDF818E0C4F8C1073E
:1035300084F8C55784F8C65784F8C75784F8C85725
:1035400084F8C957DAF80000C4F8CA070398A4F849
:10355000CE07049984F8D01784F8D15784F8D2574D
:10356000644B03CBC4F8D307C4F8D717059B84F882
:10357000DB3709F1A40E9EE80300C4F8DC07A4F8C9
:10358000E017090C84F8E21784F8E35784F8E4574D
:1035900001990868C4F8E50784F8E95784F8EA5700
:1035A00084F8EB5784F8EC5784F8ED57029A1068CA
:1035B000C4F8EE07A4F8F257A4F8F45784F8F657C5
:1035C0004D4B1868C4F8F707DFF830E1DEF800006B
:1035D000C4F8FB074A490868C4F8FF07514A106855
:1035E000C4F80308474B1868C4F8070884F813B8F0
:1035F0004FF0100E84F814E84FF0640084F81508BA
:1036000084F8167884F817784FF01E0184F81C1897
:1036100084F81E8884F8236884F8246884F827884E
:1036200084F8306884F8316804F62303C4F8343829
:1036300004F62403C4F8383804F62503C4F83C38EB
:1036400004F62603C4F8403804F62703C4F84438C7
:103650002D4AC4F8482804F64C0049463A460CF076
:103660004DFD84F8D96884F8DA58C4F8DC58C4F8F9
:10367000E058C4F8E458C4F8E858C4F8EC5884F8A2
:10368000F05804F634102946A82211F059FB84F8AA
:1036900034694FF0020384F835394FF0030E84F893
:1036A00036E94FF0040084F837094FF0050184F83B
:1036B000381984F839B94FF0070284F83A294FF0E5
:1036C000080384F83B394FF0100E84F83CE94FF0C2
:1036D000200084F83D0984F83E8984F83F790B493D
:1036E000C4F844190A4AC4F848290A4BC4F84C39AA
:1036F0001AE000BFC8610100D4610100D861010077
:10370000DC610100E4610100B860010053494E0032
:10371000534157005351520054524900435631000F
:1037200043563200E0610100EA48C4F85009A1F5AF
:103730001F21A1F60131C4F85419E74AC4F85829E9
:10374000E64BC4F85C3909F1800E9EE80300C4F82A
:10375000600984F8641984F8655984F8665984F816
:10376000675984F8685906990868C4F8690984F8A3
:103770006D5984F86E5984F86F5984F8705984F83B
:103780007159DAF80000C4F87209039AA4F876298E
:10379000049884F8780984F8795984F87A59D04BD8
:1037A00003CBC4F87B09C4F87F19059984F8831901
:1037B00009F1A40292E80300C4F88409A4F8881966
:1037C000090C84F88A1984F88B5984F88C59019B68
:1037D0001868C4F88D0984F8915984F8925984F8CE
:1037E000935984F8945984F89559DDF808E0DEF887
:1037F0000000C4F89609A4F89A59A4F89C5984F8D2
:103800009E59B8490868C4F89F09B74A1068C4F8B7
:10381000A309B64B1868C4F8A709DFF8E8E2DEF898
:103820000000C4F8AB09B2490868C4F8AF0984F8CD
:10383000BBB94FF0100284F8BC294FF0640384F840
:10384000BD3984F8BE7984F8BF794FF01E0E84F834
:10385000C4E984F8C68984F8CB6984F8CC6984F813
:10386000CF8984F8D86984F8D96904F6CB13C4F8F1
:10387000DC3904F6CC13C4F8E03904F6CD13C4F8EF
:10388000E43904F6CE13C4F8E83904F6CF13C4F8CB
:10389000EC399848C4F8F00904F6F41049463A4661
:1038A0000CF02CFC84F8816A84F8825AC4F8845A9B
:1038B000C4F8885AC4F88C5AC4F8905AC4F8945A78
:1038C00084F8985A04F6DC202946A82211F038FA28
:1038D00084F8DC6A4FF0020184F8DD1A4FF003022D
:1038E00084F8DE2A4FF0040384F8DF3A4FF0050E27
:1038F00084F8E0EA84F8E1BA4FF0070084F8E20ABD
:103900004FF0080184F8E31A4FF0100284F8E42A1B
:103910004FF0200384F8E53A84F8E68A84F8E77AE1
:103920007548C4F8EC0A7549C4F8F01A744AC4F82A
:10393000F42A684BC4F8F83AA0F51F20A0F601302D
:10394000C4F8FC0A6449C4F8001B644AC4F8042B98
:1039500009F1800393E80300C4F8080B84F80C1BFA
:1039600084F80D5B84F80E5B84F80F5B84F8105BC1
:10397000DDF818E0DEF80000C4F8110B84F8155BE0
:1039800084F8165B84F8175B84F8185B84F8195B7D
:10399000DAF80000C4F81A0B0398A4F81E0B049977
:1039A00084F8201B84F8215B84F8225B4C4B03CB0A
:1039B000C4F8230BC4F8271B059B84F82B3B09F1A3
:1039C000A40E9EE80300C4F82C0BA4F8301B090CCD
:1039D00084F8321B84F8335B84F8345B01990868FF
:1039E000C4F8350B84F8395B84F83A5B84F83B5BA8
:1039F00084F83C5B84F83D5B029A1068C4F83E0B87
:103A0000A4F8425BA4F8445B84F8465B354B186825
:103A1000C4F8470BDFF8D0E0DEF80000C4F84B0B29
:103A200032490868C4F84F0B364A1068C4F8530B83
:103A30002F4B1868C4F8570B84F863BB4FF0100A7B
:103A400084F864AB4FF0640E84F865EB84F8667B11
:103A500084F8677B4FF01E0084F86C0B84F86E8B43
:103A600084F8736B84F8746B84F8778B84F8806BBC
:103A700084F8816B04F67333C4F8843B04F6743322
:103A8000C4F8883B04F67533C4F88C3B04F67633EF
:103A9000C4F8903B04F67733C4F8943B1549C4F856
:103AA000981B04F69C3049463A460CF027FB84F8F4
:103AB000296C84F82A5CC4F82C5CC4F8305CC4F827
:103AC000345CC4F8385CC4F83C5C84F8405C04F6B0
:103AD000844019E0545249004356310043563200A5
:103AE000C8610100D4610100D8610100DC610100FE
:103AF000E4610100B860010053494E005341570092
:103B000053515200E06101002946A82211F018F932
:103B100084F8846C4FF0020284F8852C4FF0030384
:103B200084F8863C4FF0040E84F887EC4FF00500D3
:103B300084F8880C84F889BC4FF0070184F88A1C4B
:103B40004FF0080284F88B2C84F88CAC4FF02003E3
:103B500084F88D3C84F88E8C84F88F7CE748C4F818
:103B6000940CE749C4F8981CE64AC4F89C2CE64B30
:103B7000C4F8A03CA0F51F20A0F60130C4F8A40CA6
:103B8000E249C4F8A81CE24AC4F8AC2C09F180034D
:103B900093E80300C4F8B00C84F8B41C84F8B55C56
:103BA00084F8B65C84F8B75C84F8B85CCE465EF8FE
:103BB0008C0FCDF808E0C4F8B90C84F8BD5C84F82B
:103BC000BE5C84F8BF5C84F8C05C84F8C15C494684
:103BD00051F8980F0191C4F8C20C8A88059291F8A7
:103BE00006E0CDF818E0A4F8C62C84F8C8EC84F8F8
:103BF000C95C84F8CA5CC74B03CBC4F8CB0CC4F8CF
:103C0000CF1C1B78079384F8D33C09F1A40292E8F7
:103C10000300C4F8D40CA4F8D81C21FA0AF184F8E3
:103C2000DA1C84F8DB5C84F8DC5C4B4653F8B00F9C
:103C30000393C4F8DD0C84F8E15C84F8E25C84F85A
:103C4000E35C84F8E45C84F8E55CCE465EF8BC0F87
:103C5000CDF810E0C4F8E60CA4F8EA5CA4F8EC5C3B
:103C600084F8EE5CAC490868C4F8EF0CAB4A106805
:103C7000C4F8F30CAA4B1868C4F8F70CDFF8ACE2F0
:103C8000DEF80000C4F8FB0CA6490868C4F8FF0C75
:103C900084F80BBD84F80CAD4FF0640284F80D2D50
:103CA00084F80E7D84F80F7D4FF01E0384F8143DD8
:103CB00084F8168D84F81B6D84F81C6D84F81F8DB4
:103CC00084F8286D84F8296D04F61B53C4F82C3D44
:103CD00004F61C53C4F8303D04F61D53C4F8343DBB
:103CE00004F61E53C4F8383D04F61F53C4F83C3D97
:103CF0008D48C4F8400D04F6445049463A460CF04D
:103D0000FDF984F8D16D84F8D25DC4F8D45DC4F8AF
:103D1000D85DC4F8DC5DC4F8E05DC4F8E45D84F807
:103D2000E85D04F62C602946A82211F009F884F811
:103D30002C6E4FF0020184F82D1E4FF0030284F820
:103D40002E2E4FF0040384F82F3E4FF0050E84F81A
:103D500030EE84F831BE4FF0070084F8320E4FF099
:103D6000080184F8331E84F834AE4FF0200284F842
:103D7000352E84F8368E84F8377E604BC4F83C3E8E
:103D80005F48C4F8400E5F49C4F8441E5E4AC4F858
:103D9000482EA3F51F23A3F60133C4F84C3E5B481D
:103DA000C4F8500E5A49C4F8541E09F1800292E832
:103DB0000300C4F8580E84F85C1E84F85D5E84F835
:103DC0005E5E84F85F5E84F8605E029B1868C4F8EB
:103DD000610E84F8655E84F8665E84F8675E84F838
:103DE000685E84F8695EDDF804E0DEF80000C4F87F
:103DF0006A0E0598A4F86E0E069984F8701E84F871
:103E0000715E84F8725E434B03CBC4F8730EC4F842
:103E1000771E079B84F87B3E09F1A40E9EE8030001
:103E2000C4F87C0EA4F8801E21FA0AF184F8821EE0
:103E300084F8835E84F8845E03990868C4F8850E6C
:103E400084F8895E84F88A5E84F88B5E84F88C5EE0
:103E500084F88D5E049A1068C4F88E0EA4F8925E01
:103E6000A4F8945E84F8965E2B4B1868C4F8970EFD
:103E7000DFF8A8E0DEF80000C4F89B0E28490868C7
:103E8000C4F89F0E294A1068C4F8A30E254B186881
:103E9000C4F8A70E84F8B3BE84F8B4AE4FF0640E35
:103EA00084F8B5EE84F8B67E84F8B77E4FF01E0035
:103EB00084F8BC0E84F8BE8E84F8C36E84F8C46E99
:103EC00084F8C78E84F8D06E84F8D16E04F6C3638C
:103ED000C4F8D43E04F6C463C4F8D83E04F6C563FF
:103EE000C4F8DC3E04F6C663C4F8E03E04F6C763DB
:103EF000C4F8E43E0C49C4F8E81E19E053494E00EA
:103F00005341570053515200545249004356310017
:103F100043563200C8610100D4610100D86101003C
:103F2000DC610100E4610100B8600100E0610100B2
:103F300004F6EC6049463A460CF0E0F884F8796FF4
:103F400084F87A5FC4F87C5FC4F8805FC4F8845F4B
:103F5000C4F8885FC4F88C5F84F8905F04F6D4706E
:103F60002946A82210F0ECFE84F8D46F4FF002022C
:103F700084F8D52F4FF0030384F8D63F4FF0040E9A
:103F800084F8D7EF4FF0050084F8D80F84F8D9BF34
:103F90004FF0070184F8DA1F4FF0080284F8DB2F96
:103FA00084F8DCAF4FF0200384F8DD3F84F8DE8F27
:103FB00084F8DF7FE548C4F8E40FE549C4F8E81F5A
:103FC000E44AC4F8EC2FE44BC4F8F03FA0F51F20FE
:103FD000A0F60130C4F8F40FE049C4F8F81FE04A35
:103FE000C4F8FC2F04F5805309F1800E9EE803000D
:103FF000186019715D719D71DD711D7241F20902C8
:10400000A31802990868A0501D715D719D71DD7142
:104010001D7241F21202A318DDF804E0DEF8000080
:10402000A0500598988006999971DD711D7241F232
:104030001B0E04EB0E02CB4B03CB44F80E00516079
:10404000079B137241F22402A31809F1A40E9EE803
:104050000300A050998021FA0AF19971DD711D7257
:1040600041F22D02A31803990868A0501D715D71DB
:104070009D71DD711D7241F23602A318DDF810E06A
:10408000DEF80000A0509D80DD801D72B6490868F2
:1040900041F23F03E050B54A106841F24303E0505B
:1040A000B34B186841F24703E050DFF8D0E2DEF886
:1040B000000041F24B03E050AE49086841F24F0363
:1040C000E05041F25B0304F803B041F25C0304F8F2
:1040D00003A041F25D034FF06402E25441F25E033B
:1040E000E75441F25F03E75441F264034FF01E00CE
:1040F000E05441F2660304F8038041F26B03E65496
:1041000041F26C03E65441F26F0304F8038041F27C
:104110007803E65441F27903E65404F6E86303F2C7
:10412000831141F27C02A15004F5845203F5C2715F
:10413000116003F2851141F28402A15003F5C371AD
:1041400041F28802A15003F2871341F28C02A3507E
:1041500041F290038849E15004F584555544C8461E
:10416000B946281D41463A460BF0C8FF374685F848
:104170009160002685F89260C5F89460C5F8986053
:10418000C5F89C60C5F8A060C5F8A46085F8A86073
:1041900005F1EC003146A82210F0D2FD85F8EC7054
:1041A0004FF0020A85F8EDA0032385F8EE300423D2
:1041B00085F8EF304FF0050285F8F0204FF0060348
:1041C00085F8F1304FF0070B85F8F2B04FF0080C8E
:1041D00085F8F3C04FF0100085F8F400202385F82F
:1041E000F530402385F8F63085F8F790574AC5F842
:1041F000FC2002F50F2202F50062C5F80021A2F5AD
:104200009E22C5F80421A2F50F22A2F6FF62C5F88E
:104210000821A2F5A022A2F20242C5F80C214F4AC1
:10422000C5F8102102F58032C5F8142108EB090207
:1042300092E80300C5F8180185F81C1185F81D6186
:1042400085F81E6185F81F6185F82061D8F88C001B
:10425000C5F8210185F8256185F8266185F8276173
:1042600085F8286185F82961424652F8980FC5F80B
:104270002A0190889279A5F82E0185F8302185F8D9
:10428000316185F8326105F233120192354A03CA71
:10429000C5F83301019841601278027208F1A40256
:1042A00092E80300C5F83C01A5F84011090C85F817
:1042B000421185F8436185F84461D8F8B000C5F82B
:1042C000450185F8496185F84A6185F84B6185F8B3
:1042D0004C6185F84D61D8F8BC00C5F84E01A5F8D1
:1042E0005261A5F8546185F856611F4A1068C5F8F7
:1042F00057011E4A1068C5F85B011D4A1068C5F8D1
:104300005F011E4A1068C5F863011A4A1068C5F8B3
:1043100067014FF0060185F873114FF0100285F820
:104320007421642285F8752185F8769185F8779156
:104330001E2185F87C1185F87E3185F8837185F81A
:10434000847185F8873185F8907119E053494E00E2
:1043500053415700535152005452490043563100C3
:1043600043563200C8610100D4610100D8610100E8
:10437000DC610100E4610100B8600100E06101005E
:1043800085F8917105F28311C5F8941105F5C27194
:10439000C5F8981105F28511C5F89C1105F5C37192
:1043A000C5F8A01105F28711C5F8A41141F2382112
:1043B000665441F24521675441F24821645004F5A6
:1043C000D47041F24C21605004F5547041F25021F8
:1043D000605004F59F6041F25421605004F5D460B0
:1043E00041F25821605004F5546041F25C21605064
:1043F00004F5935104F51F60086004F6480041F28B
:104400006421605004F6983041F26821605004F64F
:10441000E86041F26C21605041F27021651858F853
:10442000C80F6050B8F80410A980BB4D03CDC4F884
:104430008400C4F88810B9490868C4F88D0084F86D
:104440009170122184F89210C4F89410C4F8981056
:10445000FF25C4F8A050C4F89C604FF0050084F814
:10446000A80084F8836184F8846184F8856184F805
:10447000866184F88731DFF8DC82B8E80300C4F88D
:104480002C02C4F8301298F8001084F83412A449B1
:104490000868C4F8350284F8397284F83A72C4F8AE
:1044A0003C72C4F84072C4F848B2C4F8446284F85C
:1044B000507284F82B6384F82C6384F82D6384F89D
:1044C0002E6384F82F3397490868C4F8D403097918
:1044D00084F8D81394490868C4F8DD0384F8E173BC
:1044E00084F8E2A3C4F8E4A3C4F8E8A3C4F8F0B3E2
:1044F000C4F8EC6384F8F87384F8D36484F8D46463
:1045000084F8D56484F8D66484F8D734DFF8488218
:10451000B8E80300C4F87C05C4F8801598F80010CA
:1045200084F8841581490868C4F8850584F889757C
:1045300084F88A25C4F88C25C4F890257F22C4F815
:104540009825C4F8946584F8A07584F87B6684F88F
:104550007C6684F87D6684F87E6684F87F36744ACB
:1045600003CAC4F82407C4F82817127884F82C2743
:10457000704A1068C4F82D0784F831770A2284F84D
:104580003227C4F83427C4F83827C4F84057C4F891
:104590003C6784F8487784F8236884F8246884F8B2
:1045A000256884F8266884F8273863490868C4F8C1
:1045B000CC08097984F8D01860490868C4F8D5088F
:1045C00084F8D97884F8DA68C4F8DC68C4F8E0685C
:1045D000C4F8E858C4F8E46884F8F07884F8CB6943
:1045E00084F8CC6984F8CD6984F8CE6984F8CF3931
:1045F000DFF86881B8E80300C4F86C0FC4F8701FD6
:104600004F490868C4F8750F84F8797F84F87A6F89
:10461000C4F87C6FC4F8806FC4F8885FC4F8846FF6
:1046200084F8907F41F26B01665441F26C0166544C
:1046300041F26D01665441F26E01665441F26F0120
:10464000635440490868C4F8740AC4F87D0A84F8C1
:10465000817A84F8826AC4F8846AC4F8886AC4F8E3
:10466000905AC4F88C6A84F8987A84F8736B84F84A
:10467000746B84F8756B84F8766B84F8773BDFF89D
:10468000E080B8E80300C4F81C0CC4F8201C2E49D4
:104690000868C4F8250C84F8297C84F82A2CC4F80E
:1046A0002C2CC4F8302CC4F8385CC4F8346C84F872
:1046B000407C84F81B6D84F81C6D84F81D6D84F8B3
:1046C0001E6D84F81F3D214A03CAC4F8C40DC4F806
:1046D000C81D127884F8CC2D1D4A1068C4F8CD0D81
:1046E00084F8D17D84F8D2CDC4F8D4CDC4F8D8CD27
:1046F000C4F8E05DC4F8DC6D84F8E87D84F8C36E2E
:1047000084F8C46E84F8C56E84F8C66E84F8C73E1B
:10471000204609B0BDE8F08FF4610100FC610100A2
:104720000C620100106201001862010028620100A1
:104730002C620100386201003C6201004462010009
:104740005062010054620100606201006462010075
:1047500070620100006201001C62010048620100F9
:10476000586201002DE9F84F0024964B1C6001208F
:10477000954B1860954B1C60954BD3F898100EF034
:10478000D1F9944B1860944B197801FB00F1934BCD
:104790001960934B1C60934B1C60934B1C60934BB4
:1047A0001C6022460B468C4280F2D180DFF860B25A
:1047B0004FF07E5A4FF08048002725469B1A8C49BF
:1047C0000B60894B1A68874B1B689A4240F09080B7
:1047D0000022854B1A60012064210EF0A3F97E4B64
:1047E0001B78834A126893420BDDC0B28149D1F82D
:1047F0009810884205DA804BC3F800A0794B1A6004
:104800006BE058080FF0C0FC04460FF0D7FE10F024
:10481000010F20460CBF514641460FF0FFFB4FF001
:104820007C510FF005FD0FF06FF80022734B0FF075
:10483000BFF80FF057FB014600200EF073F90FF0A0
:10484000A3FC59460FF0A8FD01460FF0E9FB5146C5
:104850000FF0E6FB0FF0B2FE0FF096FC0446664B3D
:104860001860634B18680FF08FFC064620463146EF
:104870000FF09AFE98B1204641460FF0CFFB044658
:1048800039460FF091FE08B904F100442046314644
:104890000FF08AFE08B12046EEE7574B1C6001205E
:1048A000574BD3F898100EF03DF904464D4B186065
:1048B0004F4B18680FF068FC064620460FF064FC6A
:1048C0004D4B19680FF0B4FC31460FF06DFE20B16E
:1048D000494B1E600122434B1A60474B18680FF08A
:1048E0006DFE28443C4B1B7890FBF3F503FB15054C
:1048F000414B1C68204639460FF056FE90B1314EB0
:10490000D6F8009020460FF059FE3E4B43F82900A0
:1049100009F1010333602C4B1A68344941F82250E5
:1049200001321A602E4E30680FF02EFC01462046F0
:104930000FF076FB0FF042FE30602B4B1A6801320D
:104940001A600246254B1B689842FFF637AF1D4B95
:10495000D3F80080B8F1000F2DDD1F4B18781B4BEA
:104960001A6800239C46DFF89C90DFF880B09A46D6
:1049700014E0334493FBF0F700FB173341F8043F96
:104980000132531BA342F4DB0CF1010C5FFA8CFCE7
:104990006346C44502DB0D4B1A600CE059F8234016
:1049A000002CF1DD1BF823601546511E164B03EB5E
:1049B00081015346DDE7054B1A68144B1A60BDE8C8
:1049C000F88F00BFB0C5FF1F3489FF1FE8EAFF1F43
:1049D00054CEFF1F4CCEFF1F7489FF1F78C4FF1FEA
:1049E000FCCFFF1F30CEFF1F20C4FF1FC4380020A4
:1049F000BC43002058660020F488FF1F00002440BC
:104A0000ACE2FF1F8CE5FF1FF461002084C2FF1F92
:104A10000000204170B5654C654B93E80300C4F875
:104A20008400A4F88810090C84F88A10614B186877
:104A3000C4F88D00012284F89120042384F8923078
:104A4000C4F89430C4F898301126C4F8A060C4F8B3
:104A50009C2084F8A820002384F8833184F88431D2
:104A600084F8853184F88631402584F8875152498D
:104A700052480468A1F88440240C81F886400488D8
:104A80008078A1F88D4081F88F0081F8912081F81D
:104A90009230C1F89430C1F898300220C1F8A000DB
:104AA000C1F89C3081F8A82081F8833181F88431E5
:104AB00081F8853181F8863181F88751404C414930
:104AC00003C9C4F88400A4F88810090C84F88A107B
:104AD0003D490868C4F88D0084F8912084F892203C
:104AE000C4F89420C4F89820C4F8A060C4F89C20AE
:104AF00084F8A82084F8833184F8843184F88531DF
:104B000084F8863184F88751304C314903C9C4F8A0
:104B10008400A4F88810090C84F88A102D490868CC
:104B2000C4F88D0084F8912084F89220C4F8942071
:104B3000C4F898206321C4F8A010C4F89C3084F80D
:104B4000A82084F8833184F8843184F8853184F88E
:104B5000863184F88751204C204903C9C4F8840069
:104B6000A4F88810090C84F88A101D490868C4F854
:104B70008D0084F8912084F89220C4F89420C4F821
:104B800098200821C4F8A010C4F89C2084F8A8201C
:104B900084F8833184F8843184F8853184F886314F
:104BA00084F88751FFF7DEFD70BD00BF9C24002014
:104BB0007462010098620100B8FDFF1F7C62010071
:104BC00054CEFF1F806201009C62010058660020E5
:104BD00088620100A0620100ACE2FF1F9062010048
:104BE000A462010008B5054B1B6890FBF3F202FBC1
:104BF000130008B9FFF7B6FD08BD00BF84C2FF1F50
:104C000070B41C4A41F239231468E5181A4908683F
:104C1000E050097929715468E51818490868E0508E
:104C20008988A9809468E51815490868E0500979D1
:104C30002971D568EC1813490868E8508888897983
:104C4000A080A1711669F5180F4C03CCF050696073
:104C5000217829725469E5180C490868E050898860
:104C6000A9809169CC180A4A1068C8509388A3801B
:104C700070BC7047CC88FF1FA8620100B0620100C1
:104C8000B8620100C0620100C8620100D462010084
:104C9000DC6201002DE9F04FA9B000AF824C07F1B2
:104CA000100021460DF0EEFA07F120007F490DF0CB
:104CB000E9FA07F1100007F120010DF0AFFB2146E2
:104CC0000DF0B6FB044607F1300079490DF0DAFA31
:104CD000204607F130010DF0A1FB76490DF0A8FB4D
:104CE000014638460DF0ECFA07F130000DF07EFA7F
:104CF00007F120000DF07AFA07F110000DF076FAB6
:104D0000BA6802F1080323F00703ADEB030D384640
:104D10006946013200230DF099FB674C2046694635
:104D200008F054FC07F1400021466A46132308F0BE
:104D3000B1FB624B97F844201A71BA6C9A6097F8ED
:104D40004C201A7307F1A00252F8535D5468906822
:104D5000C3F80D50C3F81140C3F81500127B5A7602
:104D6000FA6DDA6107F1400008F0DAF90025A9468A
:104D7000534E07F1600053490DF084FA07F17000BB
:104D800049460A220DF0CEFA07F1600007F17001E2
:104D90000DF044FB4C490DF04BFB014630460DF045
:104DA00089FB07F170000DF021FA07F160000DF0AA
:104DB0001DFADFF8248155F8083041F2642B53F8CE
:104DC0000B3007F18000D3F894100A220DF0AAFAF4
:104DD000304607F180010DF06DFB07F180000DF00A
:104DE00005FA33685B68304638490922984755F818
:104DF000083041F2682A53F80A3007F19000D3F8DE
:104E000094100A220DF08EFA304607F190010DF051
:104E100051FB30460DF074FB07F190000DF0E6F900
:104E2000264C55F8083053F80B302046D3F8941030
:104E30000DF0B2FB23681B6820462321984755F8E4
:104E4000083053F80A302046D3F894100DF0A4FB34
:104E500023681B6820462321984723681B68204647
:104E60002D21984709F101090435B9F1070F80D1C7
:104E700023681B68204624219847154E357805EB9A
:104E80004500144B03EB4000094910F047FA013587
:104E90003570204608F06EF938460DF0A7F9A437B2
:104EA000BD46BDE8F08F00BF4063010044630100D0
:104EB000EC88FF1F4C630100D469002048C4FF1F29
:104EC000446F0020546301005C63010068630100CB
:104ED00000D0FF1FF4630020CC88FF1F2DE9F04FA6
:104EE0009DB000AF40B9884A137888490B70591CAF
:104EF0001170874A136003E0844B1A78844B1A6060
:104F0000844C07F1100021460DF0BCF907F1200098
:104F100081490DF0B7F907F1100007F120010DF0FC
:104F20007DFA21460DF084FA054607F130007B49F1
:104F30000DF0A8F9284607F130010DF06FFA21466F
:104F40000DF076FA044607F14000714B19680A2209
:104F50000DF0E8F9204607F140010DF05FFA7049C5
:104F60000DF066FA014638460DF0AAF907F1400047
:104F70000DF03CF907F130000DF038F907F1200091
:104F80000DF034F907F110000DF030F9BA6802F1B4
:104F9000080323F00703ADEB030D384669460132E1
:104FA00000230DF053FA5F4C2046694608F00EFBD3
:104FB00007F1500021466A46132308F06BFA5A4B5A
:104FC00097F854201A71BA6D9A6097F85C201A739A
:104FD00007F1700252F8135D54689068C3F80D50E1
:104FE000C3F81140C3F81500127B5A76FA6EDA61E5
:104FF00007F1500008F094F800254B4EDFF82C81A3
:1050000034467BE055F808300AF2924953F82930CB
:105010002046D3F894100DF0BFFA33681B68204681
:105020005946984755F8083053F82930204693F8E8
:1050300083110A2200230DF073FA33681B6820469F
:105040002321984755F8083053F82930204693F823
:1050500084110A2200230DF063FA33681B6820468E
:105060002321984755F8083053F82930204693F803
:1050700085110A2200230DF053FA33681B6820467D
:105080002321984755F8083053F82930204693F8E3
:1050900086110A2200230DF043FA33681B6820466C
:1050A0002321984755F8083053F82930204693F8C3
:1050B00087110A2200230DF033FA33681B6820465B
:1050C0002321984755F80830204641F23822995C50
:1050D0000A2200230DF024FA33681B6820463C2185
:1050E00098470AF1010ABAF10A0F8BD133681B689D
:1050F00020467C21984704351C2D19D04FF0000A1A
:105100004FF02B0B7EE700BF48CEFF1FB899FF1F63
:1051100044C4FF1F40630100746301008063010009
:105120004C630100D469002048C4FF1FCC88FF1FD6
:105130006B4803681B683E2198476A4C04F6480890
:10514000674D2A262846D4F894100DF025FA2B68CE
:105150001B6828463146984704F5D4744445F1D17C
:105160005F4803681B68262198475F4D05F59F69D6
:105170005B4C4FF03F080A262046D5F894100DF0FE
:105180000BFA23681B68204641469847204695F84D
:105190008311324600230DF0C3F923681B682046B3
:1051A00021219847204695F88411324600230DF0BE
:1051B000B7F923681B68204621219847204695F8B7
:1051C0008511324600230DF0ABF923681B68204699
:1051D00021219847204695F88611324600230DF08C
:1051E0009FF923681B68204621219847204695F89F
:1051F0008711324600230DF093F923681B6820467F
:105200002121984705F5D4754D45B5D1344803683B
:105210001B68262198470025314C344E4FF040083A
:10522000AB592046D3F894100DF0B6F923681B68EB
:10523000204641469847AB59204693F883110A22ED
:1052400000230DF06DF923681B6820462F21984735
:10525000AB59204693F884110A2200230DF060F91F
:1052600023681B6820462F219847AB59204693F8A6
:1052700085110A2200230DF053F923681B6820468C
:105280002F219847AB59204693F886110A22002314
:105290000DF046F923681B6820462F219847AB592B
:1052A000204693F887110A2200230DF039F923686C
:1052B0001B6820462F2198470435142DB0D1084C87
:1052C00023681B68204624219847204607F052FF98
:1052D00038460CF08BFF7437BD46BDE8F08F00BF39
:1052E00048C4FF1F543B0020D4C5FF1FF888FF1F90
:1052F0002DE9F041A0B000AF554C07F13000214638
:105300000CF0C0FF07F1400052490CF0BBFF07F161
:10531000300007F140010DF081F821460DF088F8CA
:10532000044607F150004C490CF0ACFF204607F151
:1053300050010DF073F8014638460CF0C1FF07F13B
:1053400050000CF053FF07F140000CF04FFF07F145
:1053500030000CF04BFFBA6802F1080323F007039A
:10536000ADEB030D38466946013200230DF06EF8AF
:1053700007F1600039496A46012308F08BF8384B81
:1053800097F864201A71BA6E9A6097F86C201A73B5
:1053900007F1800252F8135D54689068C3F80D500D
:1053A000C3F81140C3F81500127B5A76FA6FDA6120
:1053B00007F1600007F0B4FEDFF8A480294D2A4C05
:1053C00007F110004146012208F00CF907F1100026
:1053D00007F0DCFED8B9234C23685B6820462349DC
:1053E0001422984720460DF08BF807F1100007F0C3
:1053F00097FE1B4807F0BEFE20461B4B19780A2279
:1054000000230DF08DF838460CF0F0FE1BE007F19C
:10541000100007F08BFE06460FF0DEFF02462B68F9
:105420005B6828463146984723780133DBB2237006
:105430000F4A136007F1100007F09CFE07F11000FF
:1054400007F06EFEBCE78037BD46BDE8F08100BFC7
:10545000406301007463010080630100D46900208F
:10546000FCE7FF1F446F002048CEFF1F8863010048
:1054700044C4FF1F2DE9F04FA7B000AF0025FD6029
:105480003D613D759D4E07F10C00314608220FF03D
:10549000D3FF9B4C07F1380021460CF0F3FE07F1D7
:1054A000480098490CF0EEFE07F1380007F148017A
:1054B0000CF0B4FF21460CF0BBFF07F10C010CF01F
:1054C000B7FF91490CF0B4FF014607F118000CF04A
:1054D000F7FE07F148000CF089FE07F138000CF0E8
:1054E00085FE8A4C204607F118010CF0E3FF2046A8
:1054F0000DF006F83A6A02F1080323F00703ADEB5A
:10550000030D07F11800694601322B460CF09EFF8F
:105510007F4C2046694608F059F807F158002146AB
:105520006A46132307F0B6FF7A4C97F85C30237174
:105530003B6EA36097F86430237307F1980353F828
:1055400033ED58689968C4F80DE0C4F81100C4F848
:1055500015101B7B63767B6FE36107F1580007F042
:10556000DFFD30460FF038FF024623685B682046B7
:105570003146984723685B6820466749012298476F
:1055800007F1280065490CF07DFEA846DFF89C91E4
:10559000A2463D609EE0224658F8091001EB4611F4
:1055A00029444C7C944202D10133DBB25FE0ABB1C1
:1055B00003F1010B786859460CF0EEFF07F1780013
:1055C00059460A220CF0AEFE07F1280007F17801D7
:1055D0000CF0FEFE07F178000CF008FE552C17D0F9
:1055E00001D82CB142E0AA2C20D0FF2C2ED03DE0D7
:1055F000DAF80030DFF838B15B6878685946012284
:10560000984707F1280059460CF0EAFE00232EE0E7
:10561000DAF800305B68786841490122984707F161
:1056200028003F490CF0DCFE002320E0DAF80030CF
:10563000DFF800B15B68786859460122984707F1A6
:10564000280059460CF0CCFE002310E0DAF80030B8
:10565000DFF8E4B05B68786859460122984707F1A3
:10566000280059460CF0BCFE002300E00023013561
:10567000202D90D1A3B15C1C786821460CF08CFFE2
:1056800007F1880021460A220CF04CFE07F12800A1
:1056900007F188010CF09CFE07F188000CF0A6FDD4
:1056A000DAF800305B6878681E49012298470136B5
:1056B000092E03D0002501223B686DE7DAF800309F
:1056C0005B68504618490122984708F10408B8F170
:1056D0001C0F03D00026C7F804A0EBE70D4807F025
:1056E00049FD07F128000CF081FD07F118000CF0CE
:1056F0007DFD9C37BD46BDE8F08F00BFBC88FF1F15
:1057000040630100A06301004C630100446F00206E
:10571000D469002048C4FF1FA86301001064010081
:10572000B0630100BC630100C06301000C89FF1F6E
:10573000AC630100B4630100B863010030B49DF8AC
:105740000840072800F2D080DFE800F004255F67FA
:105750006E76A4AA012A0CD012B1042A12D0C3E09A
:10576000624B53F8212041F24823D358C3F89440A8
:10577000BAE05E4B53F8212041F24C23D358C3F8D2
:105780009440B1E0594B53F8212041F25823D358AB
:10579000C3F89440A8E0042B00F2A680DFE803F0F1
:1057A000030D17212B00514B53F8213002F2924286
:1057B00053F8223083F8834196E04C4B53F8213064
:1057C00002F2924253F8223083F884418CE0474B36
:1057D00053F8213002F2924253F8223083F8854187
:1057E00082E0424B53F8213002F2924253F82230C9
:1057F00083F8864178E03D4B53F8213002F2924223
:1058000053F8223083F887416EE04FF4D471384B5F
:1058100001FB0232C2F8944066E0344B53F8212079
:1058200041F23823D4545FE04FF4D471314B01FB83
:105830000232C2F8944057E0042B2BD8DFE803F083
:10584000030B131B23004FF4D4712A4B01FB0233CB
:1058500083F883411EE04FF4D471264B01FB0233E1
:1058600083F8844116E04FF4D471224B01FB0233DC
:1058700083F885410EE04FF4D4711E4B01FB0233D7
:1058800083F8864106E04FF4D4711A4B01FB0233D2
:1058900083F88741184B53F82230C3F8944023E033
:1058A000042B21D8DFE803F003090F151B00124B6E
:1058B00053F8223083F8834116E00F4B53F822301F
:1058C00083F8844110E00C4B53F8223083F8854173
:1058D0000AE0094B53F8223083F8864104E0064B76
:1058E00053F8223083F8874130BC7047CC88FF1FC3
:1058F000543B0020D4C5FF1FF888FF1FF0B591B0BE
:10590000464C2046464907F055FE2046454907F0DB
:1059100051FE2046444907F04DFE2046434907F01A
:1059200049FE2046424907F045FE424D20462946A1
:1059300007F04CFE684621462A46132307F0AAFDCD
:105940003D4C9DF804302371029BA3609DF80C3000
:10595000237310AB53F8335D58689968C4F80D5041
:10596000C4F81100C4F815101B7B6376079BE36134
:10597000684607F0D5FB314D28460FF02DFD024655
:1059800023685B6820462946984723682C4E5B684D
:1059900020463146012298472A4F38460FF01CFD19
:1059A000024623685B6820463946984723685B684F
:1059B0002046314601229847234E204631680CF09C
:1059C000EBFD204607F0D6FB08A820490CF05AFC56
:1059D0000CA829460CF056FC08A80CA90CF01EFDDA
:1059E0001B490CF025FD01461A4C20460CF062FDC7
:1059F00020460CF085FD0CA80CF0F8FB08A80CF074
:105A0000F5FB23685B68204613491322984720461C
:105A10000CF076FD0023336011B0F0BDD469002096
:105A200074630100C463010044630100A0630100CA
:105A3000D463010004630100001200206889FF1F85
:105A400010630100EC88FF1F44C4FF1F14630100B2
:105A500020630100446F0020E463010011B10129BB
:105A600009D07047084B53F8201041F26423CB58FB
:105A7000C3F894207047044B53F8201041F2682378
:105A8000CB58C3F894207047CC88FF1F30B4354BF7
:105A900053F820301A7C012A2FD872B61A6815786C
:105AA0005A6811785A7A11409A7A02F003021C7AE5
:105AB000254218BF42F0040209B142F008029110D9
:105AC0009972013A0D2A19D8DFE802F0070B0F0B83
:105AD0001813070713180B0F0B07DA680132DA6087
