:1000000000800020BD010000251F0100E91E010045
:10001000E91E0100E91E0100E91E0100E91E0100C0
:10002000E91E0100E91E0100E91E0100251F010073
:10003000251F0100E91E0100251F0100D91E010036
:10004000251F0100251F0100251F0100251F01009C
:10005000251F0100251F0100251F0100251F01008C
:10006000251F0100251F0100251F0100251F01007C
:10007000251F0100251F0100251F0100251F01006C
:10008000251F0100251F0100251F0100251F01005C
:10009000251F0100251F0100251F0100251F01004C
:1000A0009DF10000251F0100251F0100251F0100F3
:1000B000251F0100251F0100251F0100251F01002C
:1000C000251F0100251F0100251F0100251F01001C
:1000D000251F0100251F0100251F0100251F01000C
:1000E000251F0100251F0100251F0100251F0100FC
:1000F000251F0100451D0100251F0100412F0100A2
:10010000251F01005D330100251F0100251F01008F
:10011000251F0100251F0100251F0100251F0100CB
:10012000251F0100251F0100251F0100251F0100BB
:10013000251F0100251F0100251F0100251F0100AB
:10014000251F0100251F0100251F0100251F01009B
:10015000F927010011280100292801004128010088
:10016000251F0100B10A0100251F0100251F010004
:10017000251F0100251F0100251F0100251F01006B
:10018000251F0100251F0100251F0100251F01005B
:10019000251F0100251F0100251F0100251F01004B
:1001A000251F0100251F0100251F0100251F01003B
:1001B000251F0100251F0100251F010010B56B4BF5
:1001C0004CF220521A804DF628121A8000BF00BF50
:1001D00011F0ACFE4FF01062654B1A60654A0833AF
:1001E0001A60654A04331A60A3F530432C3B1B6840
:1001F00013F4807F06D10022604B1A604FF4A8529E
:10020000043B1A605E4B1B7813F0080F04D05C4B64
:100210001A7842F008021A702A225A4B1A705A4B66
:100220005A4A9A420DD2131D594CE41A24F0030481
:1002300004340023104657495A581A500433A34235
:10024000FAD1554B554A9A4280F08B80131F54497E
:10025000C91A21F003011A1D1144002243F8042F8A
:100260008B42FBD17DE05A581A500433B3F5DE7F40
:10027000F9D14C4B80214C4A03F8011B9342FBD12E
:100280004A4B4B4A1A600A224A4B1A702422A3F6A0
:10029000FF731A70A022013B1A7006331A7812F00D
:1002A000020FFBD0444B1A7812F0100FFBD1424BD7
:1002B0001A7802F00C02082AFAD103223F4B1A7076
:1002C000402201331A7001331A7812F0200FFBD04C
:1002D000394B1A7812F0400FFBD0394A394B1A606B
:1002E000022204331A602022374B1A7006331A7820
:1002F00002F00C020C2AFAD1344A354B1A60354A06
:10030000354B1A60002204331A600722083B1A603A
:10031000324A03F551631A6062B610F08BFA174B3C
:100320001B6813F0010F05D02D4810F0E9F92D4A94
:100330002D4B1A602D4B1B7813F0400F0AD02A4B1F
:100340001A68284B9A4205D1254810F0D9F90022A5
:10035000254B1A6014F066F911F0EEFD12F076FBF1
:10036000FEE70023124822497DE700BF0E2005402A
:1003700030800440823F04000100002B14D0034071
:1003800002D0074000E00740B096FF1F8088FF1FA3
:10039000B396FF1FA4720100D4700020B096FF1F17
:1003A000CF70002000E400E05FE400E008ED00E032
:1003B0000082FF1F005006400640064004400640F1
:1003C000000003014480044000400640C0100500C6
:1003D00004800440FF76010014E000E000002020CB
:1003E000E310F35AA5C3945A1CE0034000F0074001
:1003F00000000000FFFFFFFFFFFFFFFFFFFFFFFF09
:10040000FFFFFFFFFFFFFFFFFFFFFFFFFEFFFFFFFD
:1004100010B5054C237833B9044B13B10448AFF33E
:1004200000800123237010BDB096FF1F0000000064
:10043000A472010008B5064B1BB106480649AFF38C
:1004400000800648036813B1054B03B1984708BD07
:1004500000000000A4720100B496FF1FB096FF1FB9
:100460000000000030B583B004469DF91C50009593
:100470009DF91850019549B252B25BB20FF062FC7F
:10048000024B2360204603B030BD00BFB8580100C6
:1004900010B584B0044668460D4911F093FF20461C
:1004A00001210FF0BFF9204601210FF0B5F92046D8
:1004B000002105220FF0ACF92046694612F09AF8A7
:1004C00020460FF0C9FD684611F030FF04B010BDA2
:1004D000E05E010030B585B00446002580F8385054
:1004E00002213C2201230FF0BDFC20460FF046FC08
:1004F0008023009340230193012302932046294641
:100500002A46074B0FF054F820460FF0A5FD4FF494
:10051000FA7010F07BF920460FF030FC05B030BDCA
:10052000705901002DE9F0438BB004460D46164684
:100530001F469DF8489002A8139911F061FF06A884
:10054000149911F05DFF204601210FF065F9204656
:1005500001210FF067F92DB220462946721C0FF0D9
:1005600057F922683FB2CDF800904FF00008CDF85F
:100570000480D2F81CC02046294632463B46E0475C
:10058000204606A912F036F8204602210FF044F961
:10059000204601210FF046F90A3620462946324608
:1005A0000FF036F923684FEA59020092CDF8048023
:1005B000D3F81CC02046294632463B46E047204639
:1005C00002A912F017F820460FF046FD06A811F018
:1005D000ADFE02A811F0AAFE0BB0BDE8F08300BF8B
:1005E000F0B58BB004460E4615461F4602A8119979
:1005F00011F006FF06A8129911F002FF2046012112
:100600000FF00AF9204601210FF00CF936B220460E
:1006100031466A1C0FF0FCF823689DF840200092D8
:1006200000220192D3F81CC0204631462A463B46A0
:10063000E047204606A911F0DDFF20460FF00CFD33
:1006400006A811F073FE02A811F070FE0BB0F0BD09
:100650002DE9F0438BB004460E46154602A81399C7
:1006600011F0CEFE06A8149911F0CAFE2046012111
:100670000FF0D2F8204601210FF0D4F80FFA86F9D6
:100680002DB2204649462A460FF0C2F823689DF84D
:1006900048800FFA88F8CDF8008000270197D3F83A
:1006A0001CC0204649462A463C23E047204606A96E
:1006B00011F0A0FF204602210FF0AEF820460121E4
:1006C0000FF0B0F83236204631462A460FF0A0F837
:1006D0002368CDF800800197DF69204631462A461D
:1006E0003C23B847204602A911F084FF20460FF0B2
:1006F000B3FC06A811F01AFE02A811F017FE0BB009
:10070000BDE8F083F0B587B004460E4615461F4697
:1007100002A80D9911F074FE204601210FF07CF81B
:10072000204601210FF07EF836B2204631466A1C81
:100730000FF06EF823689DF830200092002201929D
:10074000D3F81CC0204631462A463B46E0472046A7
:1007500002A911F04FFF20460FF07EFC02A811F015
:10076000E5FD07B0F0BD00BFF0B587B004460E460A
:1007700015461F4602A80D9911F042FE20460021A1
:100780000FF04AF8204601210FF04CF836B220460F
:1007900031466A1C0FF03CF823689DF83020009227
:1007A00000220192D3F81CC0204631462A463B461F
:1007B000E047204602A911F01DFF20460FF04CFC37
:1007C00002A811F0B3FD07B0F0BD00BFF0B585B0D1
:1007D00005460F4616461C46072B03D00D3BDBB2E1
:1007E000012B0BD82A680823009300210191D2F82D
:1007F0001CC0284639463246E04709E003681E22FD
:10080000009200220192D3F81CC032461923E0471F
:100810005CB91823009301930123029328463946BB
:100820003246664B0EF0C4FE1BE0012C0BD11823A0
:100830000093019301230293284639463246604BC8
:100840000EF0B6FE1BE0022C0BD11823009301938F
:10085000012302932846394632465A4B0EF0A8FE31
:100860001BE0032C0BD11823009301930123029367
:10087000284639463246544B0EF09AFE1BE0042CB3
:100880000BD1182300930193012302932846394684
:1008900032464E4B0EF08CFE1BE0052C0BD118237C
:1008A0000093019301230293284639463246484B70
:1008B0000EF07EFE1BE0062C0BD118230093019353
:1008C00001230293284639463246424B0EF070FE11
:1008D0001BE0072C0BD10823009301930123029303
:1008E0002846394632463C4B0EF062FE1BE0082C8F
:1008F0000BD1182300930193012302932846394614
:100900003246364B0EF054FE1BE0092C0BD1182357
:100910000093019301230293284639463246304B17
:100920000EF046FE1BE00A2C0BD118230093019316
:10093000012302932846394632462A4B0EF038FEF0
:100940001BE00B2C0BD1182300930193012302937E
:10095000284639463246244B0EF02AFE1BE00C2C6A
:100960000BD11823009301930123029328463946A3
:1009700032461E4B0EF01CFE1AE00D2C0BD1082344
:100980000093019301230293284639463246184BBF
:100990000EF00EFE0CE00E2C0AD1082300930193FA
:1009A00001230293284639463246124B0EF000FED0
:1009B00028460FF051FB05B0F0BD00BF7C5F010081
:1009C000EC5E0100705D01001C600100905E0100A2
:1009D000345F0100485E0100C45F0100B85D0100A2
:1009E000E0580100CC5F010028590100005E0100C1
:1009F000D85E0100146001002DE9F0478AB004467A
:100A00000F46154698469DF848A00368A1F10209D3
:100A10000AF10102009200260196D3F81CC0494653
:100A2000A5F10B0208F10103E047204631460EF024
:100A3000F3FE204601210EF0F5FE3FB22046394676
:100A4000A5F10A020EF0E4FE02A8139911F0D8FCF9
:100A5000204602A911F0CEFD2368CDF800A00122A6
:100A60000192D3F81CC0204649466A1E4346E0471F
:100A7000204631460EF0D0FE204631460EF0D2FE22
:100A8000204639462A460EF0C3FE06A8149911F0F6
:100A9000B7FC204606A911F0ADFD20460FF0DCFAA8
:100AA00006A811F043FC02A811F040FC0AB0BDE812
:100AB000F08700BF08B50FF061F908BD2DE9F04FD0
:100AC00083B004469146984603688F000526009639
:100AD00000250195D3F81CC0394642460423E0475F
:100AE0002368D3F81CA0009648462946FF2201231C
:100AF00012F01CF88346009648462946FF2201233F
:100B000012F014F8B044CBEB080200B200900123BD
:100B100001932046394612B20323D04720460FF0F6
:100B20009BFA03B0BDE8F08F2DE9F04F85B0044685
:100B3000884692461E468F000368082200920025D0
:100B40000195D3F81CC0394632460423E047236898
:100B5000DB6902934FF0060BCDF800B050462946F2
:100B6000FF22012311F0E2FF03905E44CDF800B0B4
:100B700050462946FF22012311F0D8FF039D721B26
:100B800000B200904FF0010ACDF804A0204639468B
:100B900012B20323029DA84718F0070F226814BF62
:100BA000002301230093CDF804A0D569204607EB6C
:100BB0000A013246A84720460FF04EFA05B0BDE8BC
:100BC000F08F00BF2DE9F04F83B0044690461F46DA
:100BD00003688E000822009200250195D3F81CC0FE
:100BE00031463A460423E0472368D3F81CA04FF06F
:100BF0000609CDF8009040462946FF22012311F056
:100C000095FF8346CDF8009040462946FF220123F8
:100C100011F08CFF4F44CBEB070200B2009001951E
:100C20002046314612B20323D04720460FF014FA73
:100C300003B0BDE8F08F00BF2DE9F04F85B004464A
:100C400088469346029303689DF838600A22009212
:100C500000250195D3F81CC0029932467823E0475D
:100C60002368DB6903934FF0280ACDF800A04046C3
:100C7000294640F2FF322B4611F058FF02990144F9
:100C80004FF00809CDF800904FF00108CDF804802E
:100C9000204609B232460223039FB8472368DB6926
:100CA000039300955846294640F2FF32534611F00F
:100CB0003DFF029D05F13C073918CDF80090CDF8B5
:100CC0000480204609B232460223039FB8472046DB
:100CD0000FF0C2F905B0BDE8F08F00BF0122014B53
:100CE0001A707047BCECFF1F0122014B1A7070474D
:100CF00031CEFF1F704700BF10B50446024911F006
:100D000061FB204610BD00BF7461010010B50446B0
:100D1000044821460A22002311F0A2FC024B1C6069
:100D200010BD00BF2C6F00205CECFF1F10B5044607
:100D300011F056FE204610BD10B41A4BD3F8803087
:100D40001A6814785A6811785A7A11409A7A02F01F
:100D50000302187A044218BF42F0040209B142F0BB
:100D6000080291109972013A0D2A17D8DFE802F0B3
:100D7000070B0F0B1613070713160B0F0B07DA6879
:100D80000132DA600AE0DA68013ADA6006E0DA682D
:100D90000232DA6002E0DA68023ADA605DF8044BA7
:100DA000704700BF3469002010B4194B9B6F1A685C
:100DB00014785A6811785A7A11409A7A02F003022C
:100DC000187A044218BF42F0040209B142F0080246
:100DD00091109972013A0D2A17D8DFE802F0070B3B
:100DE0000F0B1613070713160B0F0B07DA680132E8
:100DF000DA600AE0DA68013ADA6006E0DA680232BC
:100E0000DA6002E0DA68023ADA605DF8044B7047B3
:100E10003469002010B4194B5B6F1A6814785A6853
:100E200011785A7A11409A7A02F00302187A044231
:100E300018BF42F0040209B142F008029110997201
:100E4000013A0D2A17D8DFE802F0070B0F0B161333
:100E5000070713160B0F0B07DA680132DA600AE096
:100E6000DA68013ADA6006E0DA680232DA6002E053
:100E7000DA68023ADA605DF8044B704734690020A2
:100E800010B4194B1B6F1A6814785A6811785A7A83
:100E900011409A7A02F00302187A044218BF42F015
:100EA000040209B142F0080291109972013A0D2A28
:100EB00017D8DFE802F0070B0F0B161307071316FE
:100EC0000B0F0B07DA680132DA600AE0DA68013AE0
:100ED000DA6006E0DA680232DA6002E0DA68023AE2
:100EE000DA605DF8044B70473469002010B4194B88
:100EF000DB6E1A6814785A6811785A7A11409A7A17
:100F000002F00302187A044218BF42F0040209B149
:100F100042F0080291109972013A0D2A17D8DFE8C1
:100F200002F0070B0F0B1613070713160B0F0B0717
:100F3000DA680132DA600AE0DA68013ADA6006E07B
:100F4000DA680232DA6002E0DA68023ADA605DF802
:100F5000044B70473469002010B4194B9B6E1A681B
:100F600014785A6811785A7A11409A7A02F003027A
:100F7000187A044218BF42F0040209B142F0080294
:100F800091109972013A0D2A17D8DFE802F0070B89
:100F90000F0B1613070713160B0F0B07DA68013236
:100FA000DA600AE0DA68013ADA6006E0DA6802320A
:100FB000DA6002E0DA68023ADA605DF8044B704702
:100FC0003469002010B4194B5B6E1A6814785A68A3
:100FD00011785A7A11409A7A02F00302187A044280
:100FE00018BF42F0040209B142F008029110997250
:100FF000013A0D2A17D8DFE802F0070B0F0B161382
:10100000070713160B0F0B07DA680132DA600AE0E4
:10101000DA68013ADA6006E0DA680232DA6002E0A1
:10102000DA68023ADA605DF8044B704734690020F0
:1010300010B4194B1B6E1A6814785A6811785A7AD2
:1010400011409A7A02F00302187A044218BF42F063
:10105000040209B142F0080291109972013A0D2A76
:1010600017D8DFE802F0070B0F0B1613070713164C
:101070000B0F0B07DA680132DA600AE0DA68013A2E
:10108000DA6006E0DA680232DA6002E0DA68023A30
:10109000DA605DF8044B70473469002010B4194BD6
:1010A000DB6D1A6814785A6811785A7A11409A7A66
:1010B00002F00302187A044218BF42F0040209B198
:1010C00042F0080291109972013A0D2A17D8DFE810
:1010D00002F0070B0F0B1613070713160B0F0B0766
:1010E000DA680132DA600AE0DA68013ADA6006E0CA
:1010F000DA680232DA6002E0DA68023ADA605DF851
:10110000044B70473469002010B4194BDB6F1A6828
:1011100014785A6811785A7A11409A7A02F00302C8
:10112000187A044218BF42F0040209B142F00802E2
:1011300091109972013A0D2A17D8DFE802F0070BD7
:101140000F0B1613070713160B0F0B07DA68013284
:10115000DA600AE0DA68013ADA6006E0DA68023258
:10116000DA6002E0DA68023ADA605DF8044B704750
:101170003469002010B4194B9B6D1A6814785A68B2
:1011800011785A7A11409A7A02F00302187A0442CE
:1011900018BF42F0040209B142F00802911099729E
:1011A000013A0D2A17D8DFE802F0070B0F0B1613D0
:1011B000070713160B0F0B07DA680132DA600AE033
:1011C000DA68013ADA6006E0DA680232DA6002E0F0
:1011D000DA68023ADA605DF8044B7047346900203F
:1011E00010B4194B5B6D1A6814785A6811785A7AE2
:1011F00011409A7A02F00302187A044218BF42F0B2
:10120000040209B142F0080291109972013A0D2AC4
:1012100017D8DFE802F0070B0F0B1613070713169A
:101220000B0F0B07DA680132DA600AE0DA68013A7C
:10123000DA6006E0DA680232DA6002E0DA68023A7E
:10124000DA605DF8044B70473469002010B4194B24
:101250001B6D1A6814785A6811785A7A11409A7A74
:1012600002F00302187A044218BF42F0040209B1E6
:1012700042F0080291109972013A0D2A17D8DFE85E
:1012800002F0070B0F0B1613070713160B0F0B07B4
:10129000DA680132DA600AE0DA68013ADA6006E018
:1012A000DA680232DA6002E0DA68023ADA605DF89F
:1012B000044B70473469002010B4194BDB6C1A687A
:1012C00014785A6811785A7A11409A7A02F0030217
:1012D000187A044218BF42F0040209B142F0080231
:1012E00091109972013A0D2A17D8DFE802F0070B26
:1012F0000F0B1613070713160B0F0B07DA680132D3
:10130000DA600AE0DA68013ADA6006E0DA680232A6
:10131000DA6002E0DA68023ADA605DF8044B70479E
:101320003469002010B4194B9B6C1A6814785A6801
:1013300011785A7A11409A7A02F00302187A04421C
:1013400018BF42F0040209B142F0080291109972EC
:10135000013A0D2A17D8DFE802F0070B0F0B16131E
:10136000070713160B0F0B07DA680132DA600AE081
:10137000DA68013ADA6006E0DA680232DA6002E03E
:10138000DA68023ADA605DF8044B7047346900208D
:1013900010B4194B5B6C1A6814785A6811785A7A31
:1013A00011409A7A02F00302187A044218BF42F000
:1013B000040209B142F0080291109972013A0D2A13
:1013C00017D8DFE802F0070B0F0B161307071316E9
:1013D0000B0F0B07DA680132DA600AE0DA68013ACB
:1013E000DA6006E0DA680232DA6002E0DA68023ACD
:1013F000DA605DF8044B70473469002010B4194B73
:101400001B6C1A6814785A6811785A7A11409A7AC3
:1014100002F00302187A044218BF42F0040209B134
:1014200042F0080291109972013A0D2A17D8DFE8AC
:1014300002F0070B0F0B1613070713160B0F0B0702
:10144000DA680132DA600AE0DA68013ADA6006E066
:10145000DA680232DA6002E0DA68023ADA605DF8ED
:10146000044B70473469002010B4194BDB6B1A68C9
:1014700014785A6811785A7A11409A7A02F0030265
:10148000187A044218BF42F0040209B142F008027F
:1014900091109972013A0D2A17D8DFE802F0070B74
:1014A0000F0B1613070713160B0F0B07DA68013221
:1014B000DA600AE0DA68013ADA6006E0DA680232F5
:1014C000DA6002E0DA68023ADA605DF8044B7047ED
:1014D0003469002010B4194B9B6B1A6814785A6851
:1014E00011785A7A11409A7A02F00302187A04426B
:1014F00018BF42F0040209B142F00802911099723B
:10150000013A0D2A17D8DFE802F0070B0F0B16136C
:10151000070713160B0F0B07DA680132DA600AE0CF
:10152000DA68013ADA6006E0DA680232DA6002E08C
:10153000DA68023ADA605DF8044B704734690020DB
:1015400010B4194B5B6B1A6814785A6811785A7A80
:1015500011409A7A02F00302187A044218BF42F04E
:10156000040209B142F0080291109972013A0D2A61
:1015700017D8DFE802F0070B0F0B16130707131637
:101580000B0F0B07DA680132DA600AE0DA68013A19
:10159000DA6006E0DA680232DA6002E0DA68023A1B
:1015A000DA605DF8044B70473469002010B4194BC1
:1015B0001B6B1A6814785A6811785A7A11409A7A13
:1015C00002F00302187A044218BF42F0040209B183
:1015D00042F0080291109972013A0D2A17D8DFE8FB
:1015E00002F0070B0F0B1613070713160B0F0B0751
:1015F000DA680132DA600AE0DA68013ADA6006E0B5
:10160000DA680232DA6002E0DA68023ADA605DF83B
:10161000044B70473469002010B4194BDB6A1A6818
:1016200014785A6811785A7A11409A7A02F00302B3
:10163000187A044218BF42F0040209B142F00802CD
:1016400091109972013A0D2A17D8DFE802F0070BC2
:101650000F0B1613070713160B0F0B07DA6801326F
:10166000DA600AE0DA68013ADA6006E0DA68023243
:10167000DA6002E0DA68023ADA605DF8044B70473B
:101680003469002010B4194B9B6A1A6814785A68A0
:1016900011785A7A11409A7A02F00302187A0442B9
:1016A00018BF42F0040209B142F008029110997289
:1016B000013A0D2A17D8DFE802F0070B0F0B1613BB
:1016C000070713160B0F0B07DA680132DA600AE01E
:1016D000DA68013ADA6006E0DA680232DA6002E0DB
:1016E000DA68023ADA605DF8044B7047346900202A
:1016F00010B4194B5B6A1A6814785A6811785A7AD0
:1017000011409A7A02F00302187A044218BF42F09C
:10171000040209B142F0080291109972013A0D2AAF
:1017200017D8DFE802F0070B0F0B16130707131685
:101730000B0F0B07DA680132DA600AE0DA68013A67
:10174000DA6006E0DA680232DA6002E0DA68023A69
:10175000DA605DF8044B70473469002010B4194B0F
:101760001B6A1A6814785A6811785A7A11409A7A62
:1017700002F00302187A044218BF42F0040209B1D1
:1017800042F0080291109972013A0D2A17D8DFE849
:1017900002F0070B0F0B1613070713160B0F0B079F
:1017A000DA680132DA600AE0DA68013ADA6006E003
:1017B000DA680232DA6002E0DA68023ADA605DF88A
:1017C000044B70473469002010B4194BDB691A6868
:1017D00014785A6811785A7A11409A7A02F0030202
:1017E000187A044218BF42F0040209B142F008021C
:1017F00091109972013A0D2A17D8DFE802F0070B11
:101800000F0B1613070713160B0F0B07DA680132BD
:10181000DA600AE0DA68013ADA6006E0DA68023291
:10182000DA6002E0DA68023ADA605DF8044B704789
:101830003469002010B4194B9B691A6814785A68EF
:1018400011785A7A11409A7A02F00302187A044207
:1018500018BF42F0040209B142F0080291109972D7
:10186000013A0D2A17D8DFE802F0070B0F0B161309
:10187000070713160B0F0B07DA680132DA600AE06C
:10188000DA68013ADA6006E0DA680232DA6002E029
:10189000DA68023ADA605DF8044B70473469002078
:1018A00010B4194B5B691A6814785A6811785A7A1F
:1018B00011409A7A02F00302187A044218BF42F0EB
:1018C000040209B142F0080291109972013A0D2AFE
:1018D00017D8DFE802F0070B0F0B161307071316D4
:1018E0000B0F0B07DA680132DA600AE0DA68013AB6
:1018F000DA6006E0DA680232DA6002E0DA68023AB8
:10190000DA605DF8044B70473469002010B4194B5D
:101910001B691A6814785A6811785A7A11409A7AB1
:1019200002F00302187A044218BF42F0040209B11F
:1019300042F0080291109972013A0D2A17D8DFE897
:1019400002F0070B0F0B1613070713160B0F0B07ED
:10195000DA680132DA600AE0DA68013ADA6006E051
:10196000DA680232DA6002E0DA68023ADA605DF8D8
:10197000044B70473469002010B4194BDB681A68B7
:1019800014785A6811785A7A11409A7A02F0030250
:10199000187A044218BF42F0040209B142F008026A
:1019A00091109972013A0D2A17D8DFE802F0070B5F
:1019B0000F0B1613070713160B0F0B07DA6801320C
:1019C000DA600AE0DA68013ADA6006E0DA680232E0
:1019D000DA6002E0DA68023ADA605DF8044B7047D8
:1019E0003469002010B4194B9B681A6814785A683F
:1019F00011785A7A11409A7A02F00302187A044256
:101A000018BF42F0040209B142F008029110997225
:101A1000013A0D2A17D8DFE802F0070B0F0B161357
:101A2000070713160B0F0B07DA680132DA600AE0BA
:101A3000DA68013ADA6006E0DA680232DA6002E077
:101A4000DA68023ADA605DF8044B704734690020C6
:101A500010B4194B5B681A6814785A6811785A7A6E
:101A600011409A7A02F00302187A044218BF42F039
:101A7000040209B142F0080291109972013A0D2A4C
:101A800017D8DFE802F0070B0F0B16130707131622
:101A90000B0F0B07DA680132DA600AE0DA68013A04
:101AA000DA6006E0DA680232DA6002E0DA68023A06
:101AB000DA605DF8044B70473469002010B4194BAC
:101AC0001B681A6814785A6811785A7A11409A7A01
:101AD00002F00302187A044218BF42F0040209B16E
:101AE00042F0080291109972013A0D2A17D8DFE8E6
:101AF00002F0070B0F0B1613070713160B0F0B073C
:101B0000DA680132DA600AE0DA68013ADA6006E09F
:101B1000DA680232DA6002E0DA68023ADA605DF826
:101B2000044B70473469002010B41A4BD3F884304A
:101B30001A6814785A6811785A7A11409A7A02F021
:101B40000302187A044218BF42F0040209B142F0BD
:101B5000080291109972013A0D2A17D8DFE802F0B5
:101B6000070B0F0B1613070713160B0F0B07DA687B
:101B70000132DA600AE0DA68013ADA6006E0DA682F
:101B80000232DA6002E0DA68023ADA605DF8044BA9
:101B9000704700BF3469002038B504460D4608463A
:101BA00013F0F4FB024623685B68204629469847F9
:101BB0000546204610F044FD284438BD70B5044663
:101BC0000E461546084602210EF0DCFD284602218D
:101BD0000EF0D8FDA64A52F8363003F500712160A8
:101BE0000121217252F8352002F5007060606172A7
:101BF0000021E1604FF47A4101397FF4FDAF93F8A1
:101C0000003203F0010392F8002212F0010F1CBF12
:101C100043F00203DBB2A372212E00F29681DFE8CB
:101C200016F022002B0034003D0046004F00580003
:101C300061006A0073007C0085008E009700A000A0
:101C4000A900B200BB00C400CD00D600DF00E80050
:101C5000F100FA0003010C0115011E0165016E017E
:101C6000770180018A01834B1C6000208249042295
:101C70000EF0E6FC012369E17E4B5C6001207F49A8
:101C800004220EF0DDFC012360E17A4B9C6002200F
:101C90007B4904220EF0D4FC012357E1754BDC6034
:101CA0000320784904220EF0CBFC01234EE1714B56
:101CB0001C610420744902460EF0C2FC012345E178
:101CC0006C4B5C610520714904220EF0B9FC0123C4
:101CD0003CE1684B9C6106206D4904220EF0B0FC8B
:101CE000012333E1634BDC6107206A4904220EF0D3
:101CF000A7FC01232AE15F4B1C62082066490422ED
:101D00000EF09EFC012321E15A4B5C6209206349DD
:101D100004220EF095FC012318E1564B9C620A2028
:101D20005F4904220EF08CFC01230FE1514BDC6271
:101D30000B205C4904220EF083FC012306E14D4B8D
:101D40001C630C20584904220EF07AFC0123FDE0AC
:101D5000484B5C630D20554904220EF071FC0123B1
:101D6000F4E0444B9C630E20514904220EF068FCC1
:101D70000123EBE03F4BDC630F204E4904220EF0C1
:101D80005FFC0123E2E03B4B1C6410204A49042223
:101D90000EF056FC0123D9E0364B5C641120474914
:101DA00004220EF04DFC0123D0E0324B9C64122043
:101DB000434904220EF044FC0123C7E02D4BDC64B0
:101DC0001320404904220EF03BFC0123BEE0294BC6
:101DD0001C6514203C4904220EF032FC0123B5E0BE
:101DE000244B5C651520394904220EF029FC01239F
:101DF000ACE0204B9C651620354904220EF020FCF7
:101E00000123A3E01B4BDC651720324904220EF0AE
:101E100017FC01239AE0174B1C6618202E49042258
:101E20000EF00EFC012391E0124B5C6619202B4949
:101E300004220EF005FC012388E00E4B9C661A205C
:101E4000274904220EF0FCFB01237FE0094BDC66EE
:101E50001B20244904220EF0F3FB012376E0054BFE
:101E60001C671C20204904220EF0EAFB01236DE0D0
:101E7000B06E010034690020BD1A0000511A000044
:101E8000E5190000791900000D190000A1180000E3
:101E900035180000C91700005D170000F11600009A
:101EA0008516000019160000AD1500004115000050
:101EB000D514000069140000FD1300009113000008
:101EC00025130000B91200004D120000E1110000BE
:101ED000751100009D10000031100000C50F0000BA
:101EE000590F0000ED0E0000810E0000A54B5C674D
:101EF0001D20A54904220EF0A3FB012326E0A14BDF
:101F00009C671E20A14904220EF09AFB01231DE0CC
:101F10009C4BDC671F209E4904220EF091FB01239D
:101F200014E0984BC3F8804020209A4904220EF018
:101F300087FB01230AE0934BC3F884402120964994
:101F400004220EF07DFB012300E000232374212DE9
:101F500000F29B81DFE815F022002B0034003D00E9
:101F600046004F00580061006A0073007C00850045
:101F70008E009700A000A900B200BB00C400CD00F5
:101F8000D600DF00E800F100FA0003010C0158015F
:101F900061016A0173017C0185018F01794B1C602D
:101FA00000207E4904220EF04BFB01226EE1754BAE
:101FB0005C6001207A4904220EF042FB012265E1B7
:101FC000704B9C600220774904220EF039FB0122FD
:101FD0005CE16C4BDC600320734904220EF030FBA3
:101FE000012253E1674B1C610420704902460EF048
:101FF00027FB01224AE1634B5C6105206C49042206
:102000000EF01EFB012241E15E4B9C6106206949F6
:1020100004220EF015FB012238E15A4BDC61072047
:10202000654904220EF00CFB01222FE1554B1C6286
:102030000820624904220EF003FB012226E1514BE5
:102040005C6209205E4904220EF0FAFA01221DE1C9
:102050004C4B9C620A205B4904220EF0F1FA0122EB
:1020600014E1484BDC620B20574904220EF0E8FAD9
:1020700001220BE1434B1C630C20544904220EF057
:10208000DFFA012202E13F4B5C630D20504904223C
:102090000EF0D6FA0122F9E03A4B9C630E204D492E
:1020A00004220EF0CDFA0122F0E0364BDC630F2063
:1020B000494904220EF0C4FA0122E7E0314B1C64C6
:1020C0001020464904220EF0BBFA0122DEE02D4B1F
:1020D0005C641120424904220EF0B2FA0122D5E0DC
:1020E000284B9C6412203F4904220EF0A9FA0122D9
:1020F000CCE0244BDC6413203B4904220EF0A0FA10
:102100000122C3E01F4B1C651420384904220EF045
:1021100097FA0122BAE01B4B5C6515203449042272
:102120000EF08EFA0122B1E0164B9C651620314963
:1021300004220EF085FA0122A8E0124BDC6517207C
:102140002D4904220EF07CFA01229FE00D4B1C6603
:1021500018202A4904220EF073FA012296E0094B56
:102160005C661920264904220EF06AFA01228DE0ED
:10217000044B9C661A20234904220EF061FA0122C6
:1021800084E000BF34690020150E0000A90D000096
:1021900009110000390D0000291B0000BD1A0000C4
:1021A000511A0000E5190000791900000D1900000E
:1021B000A118000035180000C91700005D170000C5
:1021C000F11600008516000019160000AD1500007C
:1021D00041150000D514000069140000FD13000033
:1021E0009113000025130000B91200004D120000E9
:1021F000E1110000751100009D1000003110000079
:10220000C50F0000590F0000234BDC661B2023493B
:1022100004220EF015FA012238E01F4B1C671C2027
:102220001F4904220EF00CFA01222FE01A4B5C67C2
:102230001D201C4904220EF003FA012226E0164B51
:102240009C671E20184904220EF0FAF901221DE0B5
:10225000114BDC671F20154904220EF0F1F9012211
:1022600014E00D4BC3F880402020114904220EF0E9
:10227000E7F901220AE0084BC3F8844021200D4908
:1022800004220EF0DDF9012200E00022237C134439
:102290002374204670BD00BF34690020ED0E00009D
:1022A000810E0000150E0000A90D000009110000AC
:1022B000390D0000291B000010B403681C78436826
:1022C0001A78437A1A40837A03F00303017A0C42A6
:1022D00018BF43F004030AB143F008039A10827256
:1022E000013B0D2B17D8DFE803F0070B0F0B16137C
:1022F000070713160B0F0B07C3680133C3600AE00F
:10230000C368013BC36006E0C3680233C36002E0F8
:10231000C368023BC3605DF8044B70472DE9F0478A
:102320000446844B40F8043B834E4FF0800831460E
:1023300042460DF083FF012784F89170002584F850
:102340009250C4F89450C4F89850C4F89C50C4F803
:10235000A050C4F8A45084F8A85004F1EC00294619
:10236000A82212F0C7FC84F8EC70022384F8ED3048
:10237000032384F8EE30042384F8EF30052384F837
:10238000F0304FF0060984F8F190072384F8F2301A
:10239000082384F8F3304FF0100C84F8F4C02023A5
:1023A00084F8F530402284F8F62084F8F780634BF7
:1023B000C4F8FC3003F50F2303F50063C4F80031C3
:1023C000A3F59E23C4F80431A3F50F23A3F6FF63FE
:1023D000C4F80831A3F5A023A3F20243C4F80C31DA
:1023E000574BC4F8103103F58033C4F8143106EBB1
:1023F000080393E80300C4F8180184F81C1184F85A
:102400001D5184F81E5184F81F5184F82051D6F8CC
:102410008C00C4F8210184F8255184F8265184F8F1
:10242000275184F8285184F82951334653F8980FDE
:10243000C4F82A0198889B79A4F82E0184F83031D9
:1024400084F8315184F832513E4B03CBC4F8330148
:10245000C4F837111B7884F83B3106F1A40393E8E4
:102460000300C4F83C01A4F8401121FA0CF184F8EF
:10247000421184F8435184F84451D6F8B000C4F8AE
:10248000450184F8495184F84A5184F84B5184F845
:102490004C5184F84D51D6F8BC00C4F84E01A4F854
:1024A0005251A4F8545184F85651274B1868C4F877
:1024B0005701264B1868C4F85B01254B1868C4F80F
:1024C0005F01244B1868C4F86301234B1868C4F8F3
:1024D000670184F8739184F874C1642384F87531BA
:1024E00084F8768184F877811E2384F87C3184F81F
:1024F0007E2184F8837184F8847184F8872184F8BC
:10250000907184F8917104F28313C4F8943104F546
:10251000C273C4F8983104F28513C4F89C3104F5F1
:10252000C373C4F8A03104F28713C4F8A431204661
:10253000BDE8F087706001007860010053494E00EB
:1025400043563100806101008C61010090610100FF
:1025500094610100986101009C610100F0B595B0A3
:1025600005460C4604A88D310FF02CFF684604A9DF
:102570000FF046FF204E684631460FF0F9FF074640
:1025800008A8D4F898100A220FF06CFF384608A962
:102590000FF0E4FF31460FF0EBFF06460CA8D4F82D
:1025A00094100A220FF05EFF30460CA90FF0D6FF00
:1025B00012490FF0DDFF064610A8D4F888110A2250
:1025C0000FF050FF304610A90FF0C8FF0146284613
:1025D0000FF016FF10A80FF0A9FE0CA80FF0A6FE32
:1025E00008A80FF0A3FE68460FF0A0FE04A80FF0A5
:1025F0009DFE284615B0F0BDA0610100A461010058
:102600002DE9F8430446894690F8847190F8815189
:10261000C31993F8EC30ED1A05F07F0580F881516D
:1026200090F88331042B00F20481DFE803F00330DB
:102630005785CD00D0F8A060D0F89C30F61A90F8FD
:10264000850111F049F9ACA3D3E9002311F0AAF9EF
:1026500011F06AFC8046304611F070FD074694F890
:1026600087311D4405F07F052544287911F062FD6E
:10267000A34911F06BFE414611F0B4FD0146384606
:1026800011F0B0FD11F074FFC4F8A400D1E0D0F84F
:10269000A060D0F89C30F61A90F8850111F01CF972
:1026A00095A3D3E9002311F07DF911F03DFC80469C
:1026B000304611F043FD0746680011F03FFD904998
:1026C00011F044FE414611F08DFD0146384611F0EF
:1026D00089FD11F04DFFC4F8A400AAE090F887012D
:1026E000854204D3854294BF0025012500E00025E2
:1026F000D4F8A060D4F89C30F61A94F8850111F053
:10270000EBF87DA3D3E9002311F04CF911F00CFC98
:102710008046304611F012FD0746284611F00EFDA6
:10272000414611F05FFD0146384611F05BFD11F0A6
:102730001FFFC4F8A4007CE090F88771BD42C0F090
:10274000C480D0F8A060D0F89C30F61A90F88501CB
:1027500011F0C2F868A3D3E9002311F023F911F0B6
:10276000E3FB8046BD4217D806EBD670401011F04F
:10277000E5FC0746680011F0E1FC614911F0E6FD57
:10278000414611F02FFD0146384611F02BFD11F0A6
:10279000EFFEC4F8A4004CE006EBD670401011F038
:1027A000CDFC0746680011F0C9FC554911F0CEFD7B
:1027B000414611F017FD0146384611F013FD11F0A6
:1027C000D7FEC4F8A40034E0D0F8A060D0F89C3064
:1027D000F61A90F8850111F07FF847A3D3E900239A
:1027E00011F0E0F811F0A0FB8046E71B97F8FC30F1
:1027F000B9FBF3F203FB129919F0FF0F19D1002076
:10280000FF2110F089F90746304611F097FC054684
:10281000384611F093FC3A4911F098FD414611F009
:10282000E1FC0146284611F0DDFC11F0A1FEC4F8E0
:10283000A40094F88531002B42D0D4F8940094F889
:102840008651D4F89C70D4F8A020D4F8A410014488
:102850002944B942B8BF39469142D4BFC4F8981050
:10286000C4F8982041199142D4BFC4F88C11C4F81F
:102870008C2111F063FC8146304611F05FFC41462B
:1028800011F0B0FC0146484611F0A4FB064628466C
:1028900011F054FC0146304611F09CFB05463846C9
:1028A00011F04CFC06462846314611F039FE08B1BD
:1028B000304600E0284611F05BFEC4F8880116E0BF
:1028C000D4F89430C4F8983011E0D0F8A060D0F873
:1028D0009C30F61A90F8850110F0FEFF06A3D3E9AC
:1028E000002311F05FF811F01FFB80463CE7002049
:1028F000BDE8F883AFF300807B14AE47E17A843FF4
:1029000000007F43AFF300802DE9F04F99B00746F8
:102910008B4600920026049605A831463C2212F010
:10292000E9F918A840F8546D314612F0D1FC34464C
:10293000DFF8F8A071E03B5D612B0DD100238DF82D
:1029400010305AF82B20009902EB41123244537494
:102950000136F6B201935FE0622B0ED100238DF8B1
:1029600010305AF82B30009A03EB42139A19552372
:1029700053740136F6B201934EE0632B0ED100235F
:102980008DF810305AF82B30009903EB41139A1947
:10299000AA2353740136F6B201933DE0642B0ED1A5
:1029A00000238DF810305AF82B30009A03EB4213B5
:1029B0009A19FF2353740136F6B201932CE018A93B
:1029C00001F8553D3D446D7804A812F0E1FB303D1F
:1029D000092D21D9002509E05AF82B30009903EB85
:1029E00041139844019A88F81120013506EB050837
:1029F0005FFA88F814A804A90FF0E4FC14A80FF0FB
:102A0000DDFD814614A80FF091FC5FFA89F909F108
:102A1000FF394D45E0DB464601342546384612F085
:102A2000B5FC844287D319B0BDE8F08FF488FF1F4E
:102A30002DE9F04F89B00446E54A40F8042BDFF851
:102A4000C493802749463A460DF0F8FB012684F8E6
:102A50009160002584F89250C4F89450C4F89850BE
:102A6000C4F89C50C4F8A050C4F8A45084F8A850EE
:102A700004F1EC002946A82212F03CF984F8EC603D
:102A80004FF0020384F8ED304FF0030084F8EE00BD
:102A90004FF0040284F8EF204FF0050384F8F03083
:102AA0004FF0060B84F8F1B04FF0070084F8F20005
:102AB0004FF0080284F8F3204FF0100A84F8F4A0D5
:102AC0004FF0200384F8F5304FF0400884F8F6808A
:102AD00084F8F770BF48C4F8FC00BF4AC4F800216E
:102AE000BE4BC4F80431A0F59E20A0F2FF60C4F8EC
:102AF0000801BB4AC4F80C21BA4BC4F81031BA48DB
:102B0000C4F8140109F1800292E80300C4F8180126
:102B100084F81C1184F81D5184F81E5184F81F514B
:102B200084F820514B4653F88C0F0193C4F82101CF
:102B300084F8255184F8265184F8275184F82851C7
:102B400084F829514A4652F8980F0092C4F82A0195
:102B50009088049092790592A4F82E0184F830218F
:102B600084F8315184F83251A04B03CBC4F83301BF
:102B7000C4F837111B78069384F83B3109F1A4039C
:102B800093E80300C4F83C01A4F8401121FA0AF1CB
:102B900084F8421184F8435184F844514A4652F86B
:102BA000B00F0292C4F8450184F8495184F84A51A3
:102BB00084F84B5184F84C5184F84D514B4653F8EE
:102BC000BC0F0393C4F84E01A4F85251A4F8545119
:102BD00084F85651864A1068C4F85701854B186826
:102BE000C4F85B01844A1068C4F85F01834B18681D
:102BF000C4F86301824A1068C4F8670184F873B1AD
:102C000084F874A14FF0640384F8753184F8767108
:102C100084F877714FF01E0084F87C0184F87E817F
:102C200084F8836184F8846184F8878184F89061F2
:102C300084F8916104F28313C4F8943104F5C273EB
:102C4000C4F8983104F28513C4F89C3104F5C373B9
:102C5000C4F8A03104F28713C4F8A4315C4AC4F864
:102C6000A82104F5D67049463A460DF0E7FA84F8F3
:102C7000396284F83A52C4F83C52C4F84052C4F85D
:102C80004452C4F84852C4F84C5284F8505204F5E7
:102C900025702946A82212F02DF884F894624FF08E
:102CA000020384F895324FF0030084F896024FF047
:102CB000040284F897224FF0050384F8983284F8D0
:102CC00099B24FF0070084F89A024FF0080284F896
:102CD0009B2284F89CA24FF0200384F89D3284F854
:102CE0009E8284F89F723B48C4F8A4023A4AC4F812
:102CF000A8223A4BC4F8AC32A0F59E20A0F2FF60A7
:102D0000C4F8B002364AC4F8B422364BC4F8B8321C
:102D10003548C4F8BC0209F1800292E80300C4F807
:102D2000C00284F8C41284F8C55284F8C65284F8EC
:102D3000C75284F8C852019B1868C4F8C90284F8C5
:102D4000CD5284F8CE5284F8CF5284F8D05284F811
:102D5000D152009A1068C4F8D2020498A4F8D6029E
:102D6000059A84F8D82284F8D95284F8DA521F4B95
:102D700003CBC4F8DB02C4F8DF12069B84F8E3320D
:102D800009F1A40292E80300C4F8E402A4F8E812EE
:102D900021FA0AF184F8EA1284F8EB5284F8EC5232
:102DA000029B1868C4F8ED0284F8F15284F8F252DC
:102DB00084F8F35284F8F45284F8F552039A1068B8
:102DC000C4F8F602A4F8FA52A4F8FC521CE000BFC2
:102DD0007060010053494E00534157005351520057
:102DE000524E440043563100435632008061010088
:102DF0008C61010090610100946101009861010003
:102E00009C6101007860010084F8FE52E84B18686C
:102E1000C4F8FF02E74A1068C4F80303E64B1868D9
:102E2000C4F80703E54A1068C4F80B03E44B1868BC
:102E3000C4F80F0384F81BB384F81CA34FF064009C
:102E400084F81D0384F81E7384F81F734FF01E026C
:102E500084F8242384F8268384F82B6384F82C6375
:102E600084F82F8384F8386384F8396304F22B33B1
:102E7000C4F83C3304F54B73C4F8403304F22D33EB
:102E8000C4F8443304F22E33C4F8483304F22F3329
:102E9000C4F84C33CB4BC4F8503304F55570494655
:102EA0003A460DF0CBF984F8E16384F8E253C4F8B4
:102EB000E453C4F8E853C4F8EC53C4F8F053C4F82E
:102EC000F45384F8F85304F23C402946A82211F048
:102ED00011FF84F83C644FF0020084F83D044FF089
:102EE000030284F83E244FF0040384F83F344FF08B
:102EF000050084F8400484F841B44FF0070284F8D8
:102F000042244FF0080384F8433484F844A44FF07B
:102F1000200084F8450484F8468484F84774AA4A5B
:102F2000C4F84C24A94BC4F85034A948C4F854043C
:102F3000A2F59E22A2F2FF62C4F85824A54BC4F861
:102F40005C34A548C4F86004A44AC4F8642409F1B8
:102F5000800393E80300C4F8680484F86C1484F8D0
:102F60006D5484F86E5484F86F5484F87054019A48
:102F70001068C4F8710484F8755484F8765484F8A1
:102F8000775484F8785484F87954009A1068C4F817
:102F90007A040498A4F87E04059A84F8802484F8BE
:102FA000815484F882548E4B03CBC4F88304C4F854
:102FB0008714069B84F88B3409F1A40292E803007D
:102FC000C4F88C04A4F8901421FA0AF184F892143D
:102FD00084F8935484F89454029B1868C4F89504B8
:102FE00084F8995484F89A5484F89B5484F89C5437
:102FF00084F89D54039A1068C4F89E04A4F8A2545F
:10300000A4F8A45484F8A654694B1868C4F8A7041B
:10301000684A1068C4F8AB04674B1868C4F8AF047A
:10302000664A1068C4F8B304654B1868C4F8B7045E
:1030300084F8C3B484F8C4A44FF0640084F8C504D1
:1030400084F8C67484F8C7744FF01E0284F8CC2448
:1030500084F8CE8484F8D36484F8D46484F8D78464
:1030600084F8E06484F8E16404F2D343C4F8E434FF
:1030700004F2D443C4F8E83404F2D543C4F8EC3481
:1030800004F2D643C4F8F03404F2D743C4F8F4345D
:103090004C4BC4F8F83404F2FC4049463A460DF073
:1030A000CDF884F8896584F88A55C4F88C55C4F83D
:1030B0009055C4F89455C4F89855C4F89C5584F8B4
:1030C000A05504F2E4502946A82211F013FE84F81A
:1030D000E4654FF0020084F8E5054FF0030284F840
:1030E000E6254FF0040384F8E7354FF0050084F837
:1030F000E80584F8E9B54FF0070284F8EA254FF0B7
:10310000080384F8EB3584F8ECA54FF0200084F830
:10311000ED0584F8EE8584F8EF752B4AC4F8F425A4
:103120002A4BC4F8F8352A48C4F8FC05A2F59E22BB
:10313000A2F2FF62C4F80026264BC4F804362648E3
:10314000C4F80806254AC4F80C2609F1800393E860
:103150000300C4F8100684F8141684F8155684F891
:10316000165684F8175684F81856019A1068C4F851
:10317000190684F81D5684F81E5604F21F6303F8DE
:10318000015B03F8015B1D70CA465AF8980FC4F83A
:103190002206BAF8040002909AF806200392A4F8D6
:1031A000260684F8282684F8295684F82A5619E039
:1031B0008C6101009061010094610100986101003F
:1031C0009C6101007060010053494E00534157005B
:1031D00053515200524E4400435631004356320080
:1031E00080610100E84B03CBC4F82B06C4F82F160E
:1031F0001B78049384F8333609F1A40393E80300A1
:10320000C4F83406A4F83816090C84F83A1684F881
:103210003B5684F83C564A4652F8B00F0092C4F828
:103220003D0684F8415684F8425684F8435684F8A3
:10323000445684F845564B4653F8BC0F0193C4F8E6
:103240004606A4F84A56A4F84C5684F84E56CF4A7F
:103250001068C4F84F06CE4B1868C4F85306CD4A20
:103260001068C4F85706CC4B1868C4F85B06CB4A04
:103270001068C4F85F0684F86BB64FF0100384F84A
:103280006C364FF0640084F86D0684F86E7684F82E
:103290006F764FF01E0284F8742684F8768684F8E0
:1032A0007B6684F87C6684F87F8684F8886684F878
:1032B000896604F27B63C4F88C3604F27C63C4F83C
:1032C000903604F27D63C4F8943604F27E63C4F849
:1032D000983604F27F63C4F89C36B14BC4F8A0362C
:1032E00004F2A46049463A460CF0A8FF84F831671E
:1032F00084F83257C4F83457C4F83857C4F83C57E8
:10330000C4F84057C4F8445784F8485704F28C7006
:103310002946A82211F0EEFC84F88C674FF00200D9
:1033200084F88D074FF0030284F88E274FF00403D2
:1033300084F88F374FF0050084F8900784F891B730
:103340004FF0070284F892274FF0080384F8933770
:103350004FF0100084F894074FF0200284F895276E
:1033600084F8968784F897778E4BC4F89C378E48FC
:10337000C4F8A0078D4AC4F8A427A3F59E23A3F29E
:10338000FF63C4F8A8378A48C4F8AC07894AC4F870
:10339000B027894BC4F8B43709F1800292E80300E2
:1033A000C4F8B80784F8BC1784F8BD5784F8BE5732
:1033B00084F8BF5784F8C0574B4653F88C0F0593D9
:1033C000C4F8C10784F8C55784F8C65784F8C757AE
:1033D00084F8C85784F8C957DAF80000C4F8CA0757
:1033E0000298A4F8CE07039A84F8D02784F8D1571E
:1033F00084F8D257644B03CBC4F8D307C4F8D7176B
:10340000049B84F8DB3709F1A40292E80300C4F8B6
:10341000DC07A4F8E017090C84F8E21784F8E357F6
:1034200084F8E457009B1868C4F8E50784F8E95766
:1034300084F8EA5784F8EB5784F8EC5784F8ED5792
:10344000019A1068C4F8EE07A4F8F257A4F8F457EC
:1034500084F8F6574D4B1868C4F8F7074C4A1068C3
:10346000C4F8FB074B4B1868C4F8FF074A4A1068BA
:10347000C4F80308494B1868C4F8070884F813B85F
:103480004FF0100084F814084FF0640284F81528F7
:1034900084F8167884F817784FF01E0384F81C38E7
:1034A00084F81E8884F8236884F8246884F82788C0
:1034B00084F8306884F8316804F62303C4F834389B
:1034C00004F62403C4F8383804F62503C4F83C385D
:1034D00004F62603C4F8403804F62703C4F8443839
:1034E0002F48C4F8480804F64C0049463A460CF008
:1034F000A5FE84F8D96884F8DA58C4F8DC58C4F812
:10350000E058C4F8E458C4F8E858C4F8EC5884F813
:10351000F05804F634102946A82211F0EBFB84F889
:1035200034694FF0020284F835294FF0030384F820
:1035300036394FF0040084F837094FF0050284F85B
:10354000382984F839B94FF0070384F83A394FF035
:10355000080084F83B094FF0100284F83C294FF032
:10356000200384F83D3984F83E8984F83F790D487A
:10357000C4F844090C4AC4F848290C4BC4F84C3927
:10358000A0F59E201AE000BF806101008C6101005F
:103590009061010094610100986101009C6101004B
:1035A0007060010053494E0053415700535152007F
:1035B000524E44004356310043563200A0F2FF60A1
:1035C000C4F85009E84AC4F85429E84BC4F85839FB
:1035D000E748C4F85C0909F1800292E80300C4F8E6
:1035E000600984F8641984F8655984F8665984F888
:1035F000675984F86859059B1868C4F8690984F804
:103600006D5984F86E5984F86F5984F8705984F8AC
:103610007159DAF80000C4F872090298A4F8760922
:10362000039A84F8782984F8795984F87A59D14B27
:1036300003CBC4F87B09C4F87F19049B84F8833951
:1036400009F1A40292E80300C4F88409A4F88819D7
:10365000090C84F88A1984F88B5984F88C59009BDA
:103660001868C4F88D0984F8915984F8925984F83F
:10367000935984F8945984F89559019A1068C4F8BC
:103680009609A4F89A59A4F89C5984F89E59BA4B03
:103690001868C4F89F09B94A1068C4F8A309B84B60
:1036A0001868C4F8A709B74A1068C4F8AB09B64B44
:1036B0001868C4F8AF0984F8BBB94FF0100084F85B
:1036C000BC094FF0640284F8BD2984F8BE7984F8FF
:1036D000BF794FF01E0384F8C43984F8C68984F892
:1036E000CB6984F8CC6984F8CF8984F8D86984F8E8
:1036F000D96904F6CB13C4F8DC3904F6CC13C4F84A
:10370000E03904F6CD13C4F8E43904F6CE13C4F856
:10371000E83904F6CF13C4F8EC399C48C4F8F00932
:1037200004F6F41049463A460CF088FD84F8816AA4
:1037300084F8825AC4F8845AC4F8885AC4F88C5A57
:10374000C4F8905AC4F8945A84F8985A04F6DC20C5
:103750002946A82211F0CEFA84F8DC6A4FF0020262
:1037600084F8DD2A4FF0030384F8DE3A4FF00400BA
:1037700084F8DF0A4FF0050284F8E02A84F8E1BA01
:103780004FF0070384F8E23A4FF0080084F8E30AA8
:103790004FF0100284F8E42A4FF0200384F8E53A51
:1037A00084F8E68A84F8E77A7948C4F8EC0A794A1A
:1037B000C4F8F02A784BC4F8F43AA0F59E20A0F2A1
:1037C000FF60C4F8F80A684AC4F8FC2A674BC4F8DA
:1037D000003B6748C4F8040B09F1800292E803003B
:1037E000C4F8080B84F80C1B84F80D5B84F80E5B9E
:1037F00084F80F5B84F8105B059B1868C4F8110B04
:1038000084F8155B84F8165B84F8175B84F8185B02
:1038100084F8195BDAF80000C4F81A0B0298A4F8CF
:103820001E0B039A84F8202B84F8215B84F8225B1A
:10383000504B03CBC4F8230BC4F8271B049B84F81C
:103840002B3B09F1A40292E80300C4F82C0BA4F866
:10385000301B090C84F8321B84F8335B84F8345B2A
:10386000009B1868C4F8350B84F8395B84F83A5B20
:1038700084F83B5B84F83C5B84F83D5B019A1068FC
:10388000C4F83E0BA4F8425BA4F8445B84F8465BA2
:10389000394B1868C4F8470B384A1068C4F84B0B0A
:1038A000374B1868C4F84F0B364A1068C4F8530BEE
:1038B000354B1868C4F8570B4FF0060084F8630BBB
:1038C0004FF0100B84F864BB4FF0640284F8652B52
:1038D000B84684F8667B84F8677B1E2684F86C6B98
:1038E0004FF0400984F86E9B012784F8737B84F8BD
:1038F000747B84F8779B84F8807B84F8817B04F662
:103900007333C4F8843B04F67433C4F8883B04F67C
:103910007533C4F88C3B04F67633C4F8903B04F658
:103920007733C4F8943B194BC4F8983BDFF86CA08C
:1039300004F69C30514642460CF080FC84F8297C09
:1039400084F82A5CC4F82C5CC4F8305CC4F8345C9D
:10395000C4F8385CC4F83C5C84F8405C04F68440ED
:103960002946A8221CE000BF524E440043563100B5
:1039700043563200806101008C61010090610100BA
:1039800094610100986101009C6101007060010078
:1039900053494E0053415700535152007860010083
:1039A00011F0A8F984F8847C4FF0020084F8850CAB
:1039B0004FF0030284F8862C4FF0040384F8873C10
:1039C0004FF0050084F8880C4FF0060284F8892C2B
:1039D0004FF0070384F88A3C4FF0080084F88B0C02
:1039E00084F88CBC4FF0200284F88D2C84F88E9CD7
:1039F00084F88F8CE44BC4F8943CE448C4F8980CE9
:103A0000E34AC4F89C2CA3F59E23A3F2FF63C4F8F9
:103A1000A03CE048C4F8A40CDF4AC4F8A82CDF4B53
:103A2000C4F8AC3C0AF1800292E80300C4F8B00C80
:103A300084F8B41C84F8B55C84F8B65C84F8B75C90
:103A400084F8B85C534653F88C0F0193C4F8B90C52
:103A500084F8BD5C84F8BE5C84F8BF5C84F8C05C0C
:103A600084F8C15C524652F8980F0092C4F8C20C18
:103A70009088049092790592A4F8C60C84F8C82C1A
:103A800084F8C95C84F8CA5CC54B03CBC4F8CB0C82
:103A9000C4F8CF1C1B78069384F8D33C0AF1A40326
:103AA00093E80300C4F8D40CA4F8D81C21FA0BF155
:103AB00084F8DA1C84F8DB5C84F8DC5C524652F84B
:103AC000B00F0292C4F8DD0C84F8E15C84F8E25C8B
:103AD00084F8E35C84F8E45C84F8E55C534653F8CE
:103AE000BC0F0393C4F8E60CA4F8EA5CA4F8EC5C01
:103AF00084F8EE5CAB4A1068C4F8EF0CAA4B186867
:103B0000C4F8F30CA94A1068C4F8F70CA84B18685D
:103B1000C4F8FB0CA74A1068C4F8FF0C4FF006036A
:103B200084F80B3D84F80CBD4FF0640084F80D0D53
:103B300084F80E8D84F80F8D84F8146D84F8169D2A
:103B400084F81B7D84F81C7D84F81F9D84F8287DF3
:103B500084F8297D04F61B53C4F82C3D04F61C534D
:103B6000C4F8303D04F61D53C4F8343D04F61E532A
:103B7000C4F8383D04F61F53C4F83C3D8E4AC4F8DF
:103B8000402D04F64450514642460CF057FB84F851
:103B9000D17D84F8D25DC4F8D45DC4F8D85DC4F892
:103BA000DC5DC4F8E05DC4F8E45D84F8E85D04F62B
:103BB0002C602946A82211F09DF884F82C7E4FF045
:103BC000020384F82D3E4FF0030084F82E0E4FF0D0
:103BD000040284F82F2E4FF0050384F8303E4FF096
:103BE000060084F8310E4FF0070284F8322E4FF0B1
:103BF000080384F8333E84F834BE4FF0200084F884
:103C0000350E84F8369E84F8378E5F4AC4F83C2E11
:103C10005E4BC4F8403E5E48C4F8440EA2F59E22B6
:103C2000A2F2FF62C4F8482E5A4BC4F84C3E5A48E0
:103C3000C4F8500E594AC4F8542E0AF1800393E890
:103C40000300C4F8580E84F85C1E84F85D5E84F8A6
:103C50005E5E84F85F5E84F8605E019A1068C4F866
:103C6000610E84F8655E84F8665E84F8675E84F8A9
:103C7000685E84F8695E009A1068C4F86A0E049859
:103C8000A4F86E0E059A84F8702E84F8715E84F89C
:103C9000725E434B03CBC4F8730EC4F8771E069BC9
:103CA00084F87B3E0AF1A40292E80300C4F87C0E7B
:103CB000A4F8801E21FA0BF184F8821E84F8835E3A
:103CC00084F8845E029B1868C4F8850E84F8895EC7
:103CD00084F88A5E84F88B5E84F88C5E84F88D5E4E
:103CE000039A1068C4F88E0EA4F8925EA4F8945E4D
:103CF00084F8965E2B4B1868C4F8970E2A4A106811
:103D0000C4F89B0E294B1868C4F89F0E284A106807
:103D1000C4F8A30E274B1868C4F8A70E4FF006008E
:103D200084F8B30E84F8B4BE4FF0640284F8B52E64
:103D300084F8B68E84F8B78E84F8BC6E84F8BE9E84
:103D400084F8C37E84F8C47E84F8C79E84F8D07E4D
:103D500084F8D17E04F6C363C4F8D43E04F6C46389
:103D6000C4F8D83E04F6C563C4F8DC3E04F6C66366
:103D7000C4F8E03E04F6C763C4F8E43E04F6E86322
:103D8000079318461AE000BF53494E0053415700AD
:103D900053515200524E44004356310043563200B4
:103DA000806101008C61010090610100946101005B
:103DB000986101009C61010070600100FEF7AEFA9D
:103DC00041F29003E618E448E050301D5146424667
:103DD0000CF034FA86F8917086F89250C6F8945038
:103DE000C6F89850C6F89C50C6F8A050C6F8A45023
:103DF00086F8A85006F1EC002946A82210F07AFFB8
:103E000086F8EC704FF0020286F8ED204FF00303C5
:103E100086F8EE304FF0040086F8EF004FF0050210
:103E200086F8F0204FF0060386F8F1304FF00700D7
:103E300086F8F2004FF0080286F8F32086F8F4B016
:103E40004FF0200386F8F53086F8F69086F8F78074
:103E5000C248C6F8FC00C24AC6F80021C14BC6F8E9
:103E60000431A0F59E20A0F2FF60C6F80801BE4A0A
:103E7000C6F80C21BD4BC6F81031BD48C6F8140178
:103E80000AF1800292E80300C6F8180186F81C11B6
:103E900086F81D5186F81E5186F81F5186F820516C
:103EA000019B1868C6F8210186F8255186F826512D
:103EB00086F8275186F8285186F82951009A10680B
:103EC000C6F82A010498A6F82E01059A86F8302132
:103ED00086F8315186F83251A64B03CBC6F8330130
:103EE000C6F83711069B86F83B310AF1A40292E826
:103EF0000300C6F83C01A6F8401121FA0BF186F840
:103F0000421186F8435186F84451029B1868C6F85E
:103F1000450186F8495186F84A5186F84B5186F892
:103F20004C5186F84D51039A1068C6F84E01A6F818
:103F30005251A6F8545186F856518F4B1868C6F85E
:103F400057018E4A1068C6F85B018D4B1868C6F899
:103F50005F018C4A1068C6F863018B4B1868C6F87D
:103F600067014FF0060086F8730186F874B14FF0D0
:103F7000640286F8752186F8768186F8778104F5E3
:103F800084535B441E2283F87C2183F87E913A4659
:103F900083F8837183F8847183F8879183F8907133
:103FA00083F8917103F28311C3F8941103F5C27180
:103FB000C3F8981103F28511C3F89C1103F5C3717E
:103FC000C3F8A01103F28711C3F8A411002341F232
:103FD0003821635441F24521675441F2482164502D
:103FE00004F5D47041F24C21605004F5547041F254
:103FF0005021605004F59F6041F25421605004F557
:10400000D46041F25821605004F5546041F25C21C3
:10401000605004F5935104F51F60086004F64800F1
:1040200041F26421605004F6983041F268216050FA
:1040300041F26C210798605041F27026A719514651
:1040400051F8C80FA0518988B980504E03CEC4F8EA
:104050008400C4F888104E490868C4F88D0084F8BC
:104060009120122184F89210C4F89410C4F898108A
:10407000FF26C4F8A060C4F89C30052184F8A8107D
:1040800084F8833184F8843184F8853184F886316A
:1040900084F887913F4F03CFC4F82C02C4F8301244
:1040A000397884F834123C490868C4F8350284F839
:1040B000392284F83A22C4F83C22C4F84022072767
:1040C000C4F84872C4F8443284F8502284F82B3380
:1040D00084F82C3384F82D3384F82E3384F82F930E
:1040E0002E490868C4F8D403097984F8D8132C49F8
:1040F0000868C4F8DD0384F8E123022184F8E213A0
:10410000C4F8E413C4F8E813C4F8F073C4F8EC334B
:1041100084F8F82384F8D33484F8D43484F8D5347C
:1041200084F8D63484F8D7941E4F03CFC4F87C05A6
:10413000C4F88015397884F884151B490868C4F8D8
:10414000850584F88925642184F88A15C4F88C15BE
:10415000C4F890157F2129E07060010053494E009A
:104160005341570053515200524E440043563100C0
:1041700043563200806101008C61010090610100B2
:1041800094610100986101009C610100BC61010023
:10419000C4610100C8610100D4610100D86101005F
:1041A000E0610100E4610100F0610100C4F89815CC
:1041B000C4F8943584F8A02584F87B3684F87C36DE
:1041C00084F87D3684F87E3684F87F966F4F03CF6F
:1041D000C4F82407C4F82817397884F82C176C49D8
:1041E0000868C4F82D0784F831270A2784F8327745
:1041F000C4F83477C4F83877C4F84067C4F83C375B
:1042000084F8482784F8233884F8243884F825383B
:1042100084F8263884F827985E490868C4F8CC08E2
:10422000097984F8D0185C490868C4F8D50884F87E
:10423000D92884F8DA38C4F8DC38C4F8E038C4F88F
:10424000E868C4F8E43884F8F02884F8CB3984F8B6
:10425000CC3984F8CD3984F8CE3984F8CF99DFF899
:1042600050C1BCE80300C4F86C0FC4F8701F4B4980
:104270000868C4F8750F84F8792F84F87A3FC4F879
:104280007C3FC4F8803FC4F8886FC4F8843F84F84A
:10429000902F41F26B01635441F26C01635441F27F
:1042A0006D01635441F26E01635441F26F0104F8F1
:1042B00001903B490868C4F8740AC4F87D0A84F880
:1042C000812A84F8823AC4F8843AC4F8883AC4F857
:1042D000906AC4F88C3A84F8982A84F8733B84F87E
:1042E000743B84F8753B84F8763B84F8779BDFF861
:1042F000C4C0BCE80300C4F81C0CC4F8201C294945
:104300000868C4F8250C84F8292C84F82A7CC4F8A1
:104310002C7CC4F8307CC4F8386CC4F8343C84F885
:10432000402C84F81B3D84F81C3D84F81D3D84F826
:104330001E3D84F81F9D1C4F03CFC4F8C40DC4F864
:10434000C81D397884F8CC1D18490868C4F8CD0D0B
:1043500084F8D12D082184F8D21DC4F8D41DC4F8E6
:10436000D81DC4F8E06DC4F8DC3D84F8E82D84F86D
:10437000C33E84F8C43E84F8C53E84F8C63E84F843
:10438000C79E204609B0BDE8F08F00BFF461010070
:1043900000620100046201000C6201001862010069
:1043A0001C620100286201002C62010038620100D9
:1043B00010620100206201002DE9F84F0024964BA5
:1043C0001C600120954B1860954B1C60954BD3F8F1
:1043D00098100EF0A1FB944B1860944B197801FBD8
:1043E00000F1934B1960934B1C60934B1C60934BF3
:1043F0001C60934B1C6022460B468C4280F2D1809D
:10440000DFF860B24FF07E5A4FF080480027254613
:104410009B1A8C490B60894B1A68874B1B689A4220
:1044200040F090800022854B1A60012064210EF03C
:1044300073FB7E4B1B78834A126893420BDDC0B23C
:104440008149D1F89810884205DA804BC3F800A062
:10445000794B1A606BE058080FF070FE044610F0BC
:1044600087F810F0010F20460CBF514641460FF06F
:10447000AFFD4FF07C510FF0B5FE0FF03FFA002278
:10448000734B0FF08FFA0FF027FD014600200EF05E
:1044900043FB0FF053FE59460FF058FF01460FF053
:1044A00099FD51460FF096FD10F062F80FF046FEB0
:1044B0000446664B1860634B18680FF03FFE0646D3
:1044C0002046314610F04AF898B1204641460FF098
:1044D0007FFD0446394610F041F808B904F1004464
:1044E0002046314610F03AF808B12046EEE7574B27
:1044F0001C600120574BD3F898100EF00DFB0446BA
:104500004D4B18604F4B18680FF018FE06462046BA
:104510000FF014FE4D4B19680FF064FE314610F099
:104520001DF820B1494B1E600122434B1A60474BD6
:10453000186810F01DF828443C4B1B7890FBF3F5ED
:1045400003FB1505414B1C682046394610F006F860
:1045500090B1314ED6F80090204610F009F83E4B4D
:1045600043F8290009F1010333602C4B1A683449E0
:1045700041F8225001321A602E4E30680FF0DEFDF5
:10458000014620460FF026FD0FF0F2FF30602B4B66
:104590001A6801321A600246254B1B689842FFF6E2
:1045A00037AF1D4BD3F80080B8F1000F2DDD1F4B46
:1045B00018781B4B1A6800239C46DFF89C90DFF8A4
:1045C00080B09A4614E0334493FBF0F700FB1733B6
:1045D00041F8043F0132531BA342F4DB0CF1010C00
:1045E0005FFA8CFC6346C44502DB0D4B1A600CE09D
:1045F00059F82340002CF1DD1BF823601546511EAD
:10460000164B03EB81015346DDE7054B1A68144B4B
:104610001A60BDE8F88F00BF98C5FF1F1C89FF1FF7
:1046200078ECFF1F3CCEFF1F34CEFF1F5C89FF1FBD
:1046300060C4FF1FE4CFFF1F18CEFF1F08C4FF1F79
:10464000543A002020EBFF1FECCFFF1FD488FF1F40
:104650000000244038E4FF1F18E7FF1F8463002098
:104660006CC2FF1F0000204170B5654C654B93E89C
:104670000300C4F88400A4F88810090C84F88A1098
:10468000614B1868C4F88D00012284F8912004233E
:1046900084F89230C4F89430C4F898301023C4F8E9
:1046A000A0300226C4F89C6084F8A820002384F877
:1046B000833184F8843184F8853184F8863140254B
:1046C00084F88751514952480468A1F88440240C69
:1046D00081F8864004888078A1F88D4081F88F00A9
:1046E00081F8912081F89230C1F89430C1F8983067
:1046F000C1F8A060C1F89C3081F8A82081F883310E
:1047000081F8843181F8853181F8863181F88751CB
:10471000404C414903C9C4F88400A4F88810090C2E
:1047200084F88A103D490868C4F88D0084F8912007
:1047300084F89220C4F89420C4F898201121C4F879
:10474000A010C4F89C2084F8A82084F8833184F851
:10475000843184F8853184F8863184F88751304C6F
:10476000304903C9C4F88400A4F88810090C84F8FF
:104770008A102D490868C4F88D0084F8912084F8C7
:104780009220C4F89420C4F898206321C4F8A010A3
:10479000C4F89C3084F8A82084F8833184F88431EC
:1047A00084F8853184F8863184F887511F4C20497C
:1047B00003C9C4F88400A4F88810090C84F88A108E
:1047C0001C490868C4F88D0084F8912084F8922070
:1047D000C4F89420C4F898200821C4F8A010C4F8A4
:1047E0009C2084F8A82084F8833184F8843184F8EC
:1047F000853184F8863184F88751FFF7DDFD70BD7F
:104800002C2600203C6201006062010048FFFF1F6F
:10481000446201003CCEFF1F486201006462010057
:10482000ECCFFF1F506201006862010038E4FF1FF7
:10483000586201006C62010008B5054B1B6890FBD3
:10484000F3F202FB130008B9FFF7B6FD08BD00BF85
:104850006CC2FF1F70B41C4A41F239231468E5187A
:104860001A490868E050097929715468E51818490F
:104870000868E0508988A9809468E5181549086897
:10488000E05009792971D568EC1813490868E85097
:1048900088888979A080A1711669F5180F4C03CC1E
:1048A000F0506960217829725469E5180C4908684C
:1048B000E0508988A9809169CC180A4A1068C850CC
:1048C0009388A38070BC7047B488FF1F706201009A
:1048D000786201008062010088620100906201003C
:1048E0009C620100A46201002DE9F04198B000AF84
:1048F0006A4C07F1100021460DF064FD07F120001D
:1049000067490DF05FFD07F1100007F120010DF080
:1049100025FE21460DF02CFE044607F130006149CA
:104920000DF050FD204607F130010DF017FE5E49F5
:104930000DF01EFE014638460DF062FD07F1300015
:104940000DF0F4FC07F120000DF0F0FC07F1100071
:104950000DF0ECFCBA6802F1080323F00703ADEB9D
:10496000030D38466946013200230DF00FFE4F4C0F
:104970002046694608F0CAFE07F1400021466A4613
:10498000132308F027FE4A4B97F844201A71BA6C9B
:104990009A6097F84C201A7307F1600252F8135D81
:1049A00054689068C3F80D50C3F81140C3F815005F
:1049B000127B5A76FA6DDA6107F1400008F050FC7C
:1049C00000253B4C3B4E41F25C28AB5953F8083074
:1049D0002046D3F894100DF07FFE23681B68204614
:1049E00023219847AB5903F593531B682046D3F80E
:1049F00094100DF071FE23681B6820462321984710
:104A0000AB5941F264229B582046D3F894100DF024
:104A100063FE23681B68204623219847AB5941F267
:104A200068229B582046D3F894100DF055FE236859
:104A30001B68204623219847AB5941F26C229B58B2
:104A40002046D3F894100DF047FE23681B682046DB
:104A50002321984723681B6820462D219847043559
:104A60001C2DB2D1124C23681B6820462421984784
:104A7000114E357805EB4500104B03EB400009491A
:104A800010F026FC01353570204608F013FC38463E
:104A90000DF04CFC6037BD46BDE8F08108630100B5
:104AA0000C630100D888FF1F14630100BC6900205B
:104AB00030C4FF1FB488FF1FE8CFFF1F84650020AC
:104AC0002DE9F04F9DB000AF40B9884A137888496E
:104AD0000B70591C1170874A136003E0844B1A78DD
:104AE000844B1A60844C07F1100021460DF06AFCDB
:104AF00007F1200081490DF065FC07F1100007F176
:104B000020010DF02BFD21460DF032FD054607F189
:104B100030007B490DF056FC284607F130010DF0BE
:104B20001DFD21460DF024FD044607F14000714BA8
:104B300019680A220DF096FC204607F140010DF09D
:104B40000DFD70490DF014FD014638460DF058FC7E
:104B500007F140000DF0EAFB07F130000DF0E6FB35
:104B600007F120000DF0E2FB07F110000DF0DEFB75
:104B7000BA6802F1080323F00703ADEB030D3846D2
:104B80006946013200230DF001FD5F4C2046694665
:104B900008F0BCFD07F1500021466A46132308F0D7
:104BA00019FD5A4B97F854201A71BA6D9A6097F80C
:104BB0005C201A7307F1700252F8135D5468906814
:104BC000C3F80D50C3F81140C3F81500127B5A7694
:104BD000FA6EDA6107F1500008F042FB00254B4EF7
:104BE000DFF82C8134467BE055F808300AF2924910
:104BF00053F829302046D3F894100DF06DFD33683A
:104C00001B6820465946984755F8083053F8293014
:104C1000204693F883110A2200230DF021FD33680A
:104C20001B6820462321984755F8083053F829304F
:104C3000204693F884110A2200230DF011FD3368F9
:104C40001B6820462321984755F8083053F829302F
:104C5000204693F885110A2200230DF001FD3368E8
:104C60001B6820462321984755F8083053F829300F
:104C7000204693F886110A2200230DF0F1FC3368D8
:104C80001B6820462321984755F8083053F82930EF
:104C9000204693F887110A2200230DF0E1FC3368C7
:104CA0001B6820462321984755F80830204641F2DA
:104CB0003822995C0A2200230DF0D2FC33681B686D
:104CC00020463C2198470AF1010ABAF10A0F8BD11C
:104CD00033681B6820467C21984704351C2D19D069
:104CE0004FF0000A4FF02B0B7EE700BF30CEFF1FC6
:104CF000A099FF1F2CC4FF1F086301001C63010063
:104D00002863010014630100BC69002030C4FF1F48
:104D1000B488FF1F6B4803681B683E2198476A4CA4
:104D200004F64808674D2A262846D4F894100DF05A
:104D3000D3FC2B681B6828463146984704F5D47489
:104D40004445F1D15F4803681B68262198475F4DB1
:104D500005F59F695B4C4FF03F080A262046D5F8C1
:104D600094100DF0B9FC23681B6820464146984713
:104D7000204695F88311324600230DF071FC23681C
:104D80001B68204621219847204695F88411324619
:104D900000230DF065FC23681B68204621219847FD
:104DA000204695F88511324600230DF059FC236802
:104DB0001B68204621219847204695F886113246E7
:104DC00000230DF04DFC23681B68204621219847E5
:104DD000204695F88711324600230DF041FC2368E8
:104DE0001B6820462121984705F5D4754D45B5D15E
:104DF000344803681B68262198470025314C344EFF
:104E00004FF04008AB592046D3F894100DF064FCE5
:104E100023681B68204641469847AB59204693F8C3
:104E200083110A2200230DF01BFC23681B68204617
:104E30002F219847AB59204693F884110A2200236A
:104E40000DF00EFC23681B6820462F219847AB59B4
:104E5000204693F885110A2200230DF001FC2368F7
:104E60001B6820462F219847AB59204693F886119E
:104E70000A2200230DF0F4FB23681B6820462F2133
:104E80009847AB59204693F887110A2200230DF06A
:104E9000E7FB23681B6820462F2198470435142D13
:104EA000B0D1084C23681B6820462421984720462F
:104EB00008F000FA38460DF039FA7437BD46BDE8FF
:104EC000F08F00BF30C4FF1FE43C0020BCC5FF1FB3
:104ED000E088FF1F2DE9F041A0B000AF554C07F16D
:104EE000300021460DF06EFA07F1400052490DF0F6
:104EF00069FA07F1300007F140010DF02FFB214660
:104F00000DF036FB044607F150004C490DF05AFAFB
:104F1000204607F150010DF021FB014638460DF007
:104F20006FFA07F150000DF001FA07F140000DF0A3
:104F3000FDF907F130000DF0F9F9BA6802F1080344
:104F400023F00703ADEB030D384669460132002319
:104F50000DF01CFB07F1600039496A46012308F097
:104F600039FB384B97F864201A71BA6E9A6097F83B
:104F70006C201A7307F1800252F8135D5468906830
:104F8000C3F80D50C3F81140C3F81500127B5A76D0
:104F9000FA6FDA6107F1600008F062F9DFF8A480C7
:104FA000294D2A4C07F110004146012208F0BAFBB6
:104FB00007F1100008F08AF9D8B9234C23685B6820
:104FC000204623491422984720460DF039FB07F16B
:104FD000100008F045F91B4808F06CF920461B4BFF
:104FE00019780A2200230DF03BFB38460DF09EF99C
:104FF0001BE007F1100008F039F9064610F0C6F979
:1050000002462B685B68284631469847237801336F
:10501000DBB223700F4A136007F1100008F04AF961
:1050200007F1100008F01CF9BCE78037BD46BDE869
:10503000F08100BF086301001C63010028630100C8
:10504000BC6900208CE9FF1F2C6F002030CEFF1FB1
:10505000306301002CC4FF1F2DE9F04FA7B000AF53
:105060000025FD603D613D75A14E07F10C00314604
:10507000082210F0BBF99F4C07F1380021460DF0D3
:10508000A1F907F148009C490DF09CF907F138009F
:1050900007F148010DF062FA21460DF069FA07F1B7
:1050A0000C010DF065FA95490DF062FA014607F121
:1050B00018000DF0A5F907F148000DF037F907F1D8
:1050C00038000DF033F98E4C204607F118010DF031
:1050D00091FA20460DF0B4FA3A6A02F1080323F07F
:1050E0000703ADEB030D07F11800694601322B46AB
:1050F0000DF04CFA834C2046694608F007FB07F197
:10510000580021466A46132308F064FA7E4C97F84B
:105110005C3023713B6EA36097F86430237307F112
:10512000980353F833ED58689968C4F80DE0C4F853
:105130001100C4F815101B7B63767B6FE36107F1E8
:10514000580008F08DF8304610F020F90246236828
:105150005B6820463146984723685B6820466B4968
:105160000122984707F1280069490DF02BF9A8465C
:10517000DFF8AC91A2463D609EE0224658F8091047
:1051800001EB461129444C7C944202D10133DBB23D
:105190005FE0ABB103F1010B786859460DF09CFA62
:1051A00007F1780059460A220DF05CF907F1280052
:1051B00007F178010DF0ACF907F178000DF0B6F8C1
:1051C000552C17D001D82CB142E0AA2C20D0FF2CAE
:1051D0002ED03DE0DAF80030DFF848B15B6878683F
:1051E00059460122984707F1280059460DF098F9D1
:1051F00000232EE0DAF800305B6878684549012228
:10520000984707F1280043490DF08AF9002320E070
:10521000DAF80030DFF810B15B687868594601228F
:10522000984707F1280059460DF07AF9002310E05D
:10523000DAF80030DFF8F4B05B687868594601228C
:10524000984707F1280059460DF06AF9002300E05D
:1052500000230135202D90D1A3B15C1C7868214634
:105260000DF03AFA07F1880021460A220DF0FAF80B
:1052700007F1280007F188010DF04AF907F18800CD
:105280000DF054F8DAF800305B68786822490122A2
:1052900098470136092E03D0002501223B686DE7AF
:1052A000DAF800305B6850461C490122984708F143
:1052B0000408B8F11C0F03D00026C7F804A0EBE7E0
:1052C000114807F0F7FF0E4C204607F128010DF0BA
:1052D00091F920460DF0B4F907F128000DF026F8F9
:1052E00007F118000DF022F89C37BD46BDE8F08F9D
:1052F000A488FF1F086301004863010014630100D4
:105300002C6F0020BC69002030C4FF1F50630100D7
:10531000B06101005863010064630100686301002B
:10532000F488FF1F546301005C63010060630100A7
:1053300030B49DF80840072800F2B980DFE800F09B
:10534000040E4850575F8D935A4B53F8213002F2A8
:10535000924253F82230C3F89440A8E0042B00F2A4
:10536000A680DFE803F0030D17212B00514B53F803
:10537000213002F2924253F8223083F8834196E0C2
:105380004C4B53F8213002F2924253F8223083F80A
:1053900084418CE0474B53F8213002F2924253F89B
:1053A000223083F8854182E0424B53F8213002F2EB
:1053B000924253F8223083F8864178E03D4B53F80F
:1053C000213002F2924253F8223083F887416EE096
:1053D0004FF4D471384B01FB0232C2F8944066E0BE
:1053E000344B53F8212041F23823D4545FE04FF47A
:1053F000D471324B01FB0232C2F8944057E0042BC7
:105400002BD8DFE803F0030B131B23004FF4D471F8
:105410002A4B01FB023383F883411EE04FF4D47121
:10542000264B01FB023383F8844116E04FF4D4711C
:10543000224B01FB023383F885410EE04FF4D47117
:105440001E4B01FB023383F8864106E04FF4D47112
:105450001A4B01FB023383F88741194B53F8223072
:10546000C3F8944023E0042B21D8DFE803F00309BC
:105470000F151B00124B53F8223083F8834116E0BE
:105480000F4B53F8223083F8844110E00C4B53F853
:10549000223083F885410AE0094B53F8223083F823
:1054A000864104E0064B53F8223083F8874130BC34
:1054B000704700BFB488FF1FE43C0020BCC5FF1F3D
:1054C000E088FF1FF0B591B0464C2046464908F0F1
:1054D00011F92046454908F00DF92046444908F0E5
:1054E00009F92046434908F005F92046424908F0E9
:1054F00001F9424D2046294608F008F96846214640
:105500002A46132308F066F83D4C9DF804302371B9
:10551000029BA3609DF80C30237310AB53F8335DEE
:1055200058689968C4F80D50C4F81100C4F81510F3
:105530001B7B6376079BE361684607F091FE314D64
:1055400028460FF023FF024623685B682046294661
:10555000984723682C4E5B682046314601229847C5
:105560002A4F38460FF012FF024623685B68204638
:105570003946984723685B682046314601229847A0
:10558000234E204631680DF0A7F8204607F092FE22
:1055900008A820490CF016FF0CA829460CF012FFB1
:1055A00008A80CA90CF0DAFF1B490CF0E1FF01463A
:1055B0001A4C20460DF01EF820460DF041F80CA8BC
:1055C0000CF0B4FE08A80CF0B1FE23685B6820461E
:1055D00013491322984720460DF032F80023336018
:1055E00011B0F0BDBC6900201C6301006C630100B8
:1055F0000C630100486301007C630100CC62010080
:10560000901300205089FF1FD8620100D888FF1F27
:105610002CC4FF1FDC620100E86201002C6F002037
:105620008C630100032926D8DFE801F0020B141D6A
:10563000114B53F8201041F25C23CB58C3F894204F
:1056400070470D4B53F8203003F593531B68C3F894
:1056500094207047084B53F8201041F26423CB5834
:10566000C3F894207047044B53F8201041F268238C
:10567000CB58C3F894207047B488FF1F2DE9F04140
:1056800090B008A82649274A012307F0A3FF264B1C
:105690009DF824201A710A9A9A609DF82C201A739A
:1056A00010AA52F8135D54689068C3F80D50C3F8FF
:1056B0001140C3F81500127B5A760F9ADA6108A8D8
:1056C00007F0CEFDDFF86080184E194F684641465E
:1056D000012208F027F8684607F0F8FDB8B1002469
:1056E0003578684607F0C2FD035D05EB450504EB20
:1056F00045057B550134052CF2D1337801333370E5
:10570000684607F0D7FD684607F0AAFDDEE7684661
:1057100007F0A6FD044807F0CDFD10B0BDE8F0810C
:10572000BC690020A063010030C4FF1FE8CFFF1F49
:105730008465002038B504461F4B53F820502B7C5D
:10574000012B04D872B62846FCF7B6FD00E072B60D
:10575000EB6862B6194A52F824209A422AD013F014
:10576000030F27D116490C709A42ACBF4FF0FF329D
:105770000122124941F824304FF4D471114B01FB3E
:10578000043393F8A810D3F8940002FB0102D3F875
:105790009C108A42B8BF0A46D3F8A0104D1EAA42F8
:1057A000A8BF2A46C3F89420C3F89820064B0122CC
:1057B0001A559A7138BD00BF3089FF1F0898FF1F26
:1057C00028690020E43C00202089FF1F38B50446EA
:1057D000214B53F820502B7C012B04D872B628465D
:1057E000FCF76AFD00E072B6EB6862B61B4A52F83D
:1057F00024209A422ED013F0030F2BD118490C709D
:105800009A42ACBF4FF0FF320122144941F82430D4
:10581000144B1978144B53F8213004F2974153F884
:10582000213093F8A810D3F8940002FB0102D3F8BA
:105830009C108A42B8BF0A46D3F8A0104D1EAA4257
:10584000A8BF2A46C3F89420C3F89820074B01222A
:105850001A559A7138BD00BF3089FF1F0898FF1F85
:10586000286900200498FF1FB488FF1F2089FF1FAC
:10587000F8B50446284B53F820502B7C012B04D854
:1058800072B62846FCF718FD00E072B6EB6862B607
:10589000224A52F824209A423CD013F0030F39D107
:1058A0001F490C709A42ACBF4FF0FF3001201B4AD9
:1058B00042F82430661D1B4D1B4B1B7855F82330D6
:1058C00004F2974253F8223093F8A810D3F894705A
:1058D00000FB0170D3F89C108842B8BF0846D3F88B
:1058E000A01001F1FF3C6045A8BF6046C3F89400DA
:1058F000C3F898002B1F183553F8042F06F2924175
:1059000052F82120C2F89400AB42F5D1074B012296
:105910001A559A71F8BD00BF3089FF1F0898FF1F04
:1059200028690020B488FF1F0498FF1F2089FF1FEB
:1059300038B50446214B53F820502B7C012B04D85A
:1059400072B62846FCF7B8FC00E072B6EB6862B6A7
:105950001B4A52F824209A422ED013F0030F2BD169
:1059600018490C709A42ACBF4FF0FF320122144923
:1059700041F82430144B1978144B53F8213004F2B9
:10598000924153F8213093F8A810D3F8940002FB09
:105990000102D3F89C108A42B8BF0A46D3F8A0107F
:1059A0004D1EAA42A8BF2A46C3F89420C3F89820E7
:1059B000074B01221A559A7138BD00BF3089FF1F6D
:1059C0000898FF1F286900200498FF1FB488FF1F54
:1059D0002089FF1FF8B504460546294B53F820607F
:1059E000337C012B04D872B63046FCF765FC00E02E
:1059F00072B6F36862B6234A52F824209A423ED027
:105A000013F0030F3BD120490C709A42ACBF4FF00A
:105A1000FF3001201B4A42F824301C4B1E781C4BDF
:105A200053F8263004F2924253F8223093F8A8102B
:105A3000D3F8947000FB0170D3F89C108842B8BF73
:105A40000846D3F8A01001F1FF3C6045A8BF6046AE
:105A5000C3F89400C3F898000E4B01221A559A71AE
:105A600000230B4CB34207D054F8232005F2924197
:105A700052F82120C2F894000133072BF2D1F8BD6F
:105A80003089FF1F0898FF1F286900200498FF1F16
:105A9000B488FF1F2089FF1F2DE9F0470546A24B60
:105AA00053F82040237C012B04D872B62046FCF723
:105AB00003FC00E072B6E36862B69C4A52F8252007
:105AC0009A4200F0D88113F0030F40F0D481984936
:105AD0000D709A42ACBF4FF0FF3C4FF0010C934A5F
