:1000000000800020BD010000BD1F0100811F010014
:10001000811F0100811F0100811F0100811F01005C
:10002000811F0100811F0100811F0100BD1F010010
:10003000BD1F0100811F0100BD1F0100711F0100D4
:10004000BD1F0100BD1F0100BD1F0100BD1F01003C
:10005000BD1F0100BD1F0100BD1F0100BD1F01002C
:10006000BD1F0100BD1F0100BD1F0100BD1F01001C
:10007000BD1F0100BD1F0100BD1F0100BD1F01000C
:10008000BD1F0100BD1F0100BD1F0100BD1F0100FC
:10009000BD1F0100BD1F0100BD1F0100BD1F0100EC
:1000A00035F20000BD1F0100BD1F0100BD1F010092
:1000B000BD1F0100BD1F0100BD1F0100BD1F0100CC
:1000C000BD1F0100BD1F0100BD1F0100BD1F0100BC
:1000D000BD1F0100BD1F0100BD1F0100BD1F0100AC
:1000E000BD1F0100BD1F0100BD1F0100BD1F01009C
:1000F000BD1F0100DD1D0100BD1F0100D92F010042
:10010000BD1F0100F5330100BD1F0100BD1F01002F
:10011000BD1F0100BD1F0100BD1F0100BD1F01006B
:10012000BD1F0100BD1F0100BD1F0100BD1F01005B
:10013000BD1F0100BD1F0100BD1F0100BD1F01004B
:10014000BD1F0100BD1F0100BD1F0100BD1F01003B
:1001500091280100A9280100C1280100D928010027
:10016000BD1F0100490B0100BD1F0100BD1F0100A3
:10017000BD1F0100BD1F0100BD1F0100BD1F01000B
:10018000BD1F0100BD1F0100BD1F0100BD1F0100FB
:10019000BD1F0100BD1F0100BD1F0100BD1F0100EB
:1001A000BD1F0100BD1F0100BD1F0100BD1F0100DB
:1001B000BD1F0100BD1F0100BD1F010010B56B4B2D
:1001C0004CF220521A804DF628121A8000BF00BF50
:1001D00011F0F8FE4FF01062654B1A60654A083363
:1001E0001A60654A04331A60A3F530432C3B1B6840
:1001F00013F4807F06D10022604B1A604FF4A8529E
:10020000043B1A605E4B1B7813F0080F04D05C4B64
:100210001A7842F008021A702A225A4B1A705A4B66
:100220005A4A9A420DD2131D594CE41A24F0030481
:1002300004340023104657495A581A500433A34235
:10024000FAD1554B554A9A4280F08B80131F54497E
:10025000C91A21F003011A1D1144002243F8042F8A
:100260008B42FBD17DE05A581A500433B3F5DE7F40
:10027000F9D14C4B80214C4A03F8011B9342FBD12E
:100280004A4B4B4A1A600A224A4B1A702422A3F6A0
:10029000FF731A70A022013B1A7006331A7812F00D
:1002A000020FFBD0444B1A7812F0100FFBD1424BD7
:1002B0001A7802F00C02082AFAD103223F4B1A7076
:1002C000402201331A7001331A7812F0200FFBD04C
:1002D000394B1A7812F0400FFBD0394A394B1A606B
:1002E000022204331A602022374B1A7006331A7820
:1002F00002F00C020C2AFAD1344A354B1A60354A06
:10030000354B1A60002204331A600722083B1A603A
:10031000324A03F551631A6062B610F0D7FA174BF0
:100320001B6813F0010F05D02D4810F035FA2D4A47
:100330002D4B1A602D4B1B7813F0400F0AD02A4B1F
:100340001A68284B9A4205D1254810F025FA002258
:10035000254B1A6014F0B2F911F03AFE12F0C2FB0C
:10036000FEE70023124822497DE700BF0E2005402A
:1003700030800440823F04000100002B14D0034071
:1003800002D0074000E00740B096FF1F8088FF1FA3
:10039000B396FF1F4C730100D4700020B096FF1F6E
:1003A000CF70002000E400E05FE400E008ED00E032
:1003B0000082FF1F005006400640064004400640F1
:1003C000000003014480044000400640C0100500C6
:1003D00004800440FF76010014E000E000002020CB
:1003E000175FEF5AA5C3945A1CE0034000F0074082
:1003F00000000000FFFFFFFFFFFFFFFFFFFFFFFF09
:10040000FFFFFFFFFFFFFFFFFFFFFFFFFEFFFFFFFD
:1004100010B5054C237833B9044B13B10448AFF33E
:1004200000800123237010BDB096FF1F0000000064
:100430004C73010008B5064B1BB106480649AFF3E3
:1004400000800648036813B1054B03B1984708BD07
:10045000000000004C730100B496FF1FB096FF1F10
:100460000000000030B583B004469DF91C50009593
:100470009DF91850019549B252B25BB20FF0AEFC33
:10048000024B2360204603B030BD00BF505901002D
:1004900010B584B0044668460D4911F0DFFF2046D0
:1004A00001210FF00BFA204601210FF001FA20463E
:1004B000002105220FF0F8F92046694612F0E6F80F
:1004C00020460FF015FE684611F07CFF04B010BD09
:1004D000785F010030B585B00446002580F83850BB
:1004E00002213C2201230FF009FD20460FF092FC6F
:1004F0008023009340230193012302932046294641
:100500002A46074B0FF0A0F820460FF0F1FD4FF4FC
:10051000FA7010F0C7F920460FF07CFC05B030BD32
:10052000085A01002DE9F0438BB004460D461646EB
:100530001F469DF8489002A8139911F0ADFF06A838
:10054000149911F0A9FF204601210FF0B1F92046BE
:1005500001210FF0B3F92DB220462946721C0FF08D
:10056000A3F922683FB2CDF800904FF00008CDF813
:100570000480D2F81CC02046294632463B46E0475C
:10058000204606A912F082F8204602210FF090F9C9
:10059000204601210FF092F90A36204629463246BC
:1005A0000FF082F923684FEA59020092CDF80480D7
:1005B000D3F81CC02046294632463B46E047204639
:1005C00002A912F063F820460FF092FD06A811F080
:1005D000F9FE02A811F0F6FE0BB0BDE8F08300BFF3
:1005E000F0B58BB004460E4615461F4602A8119979
:1005F00011F052FF06A8129911F04EFF204601217A
:100600000FF056F9204601210FF058F936B2204676
:1006100031466A1C0FF048F923689DF8402000928B
:1006200000220192D3F81CC0204631462A463B46A0
:10063000E047204606A912F029F820460FF058FDA1
:1006400006A811F0BFFE02A811F0BCFE0BB0F0BD71
:100650002DE9F0438BB004460E46154602A81399C7
:1006600011F01AFF06A8149911F016FF2046012177
:100670000FF01EF9204601210FF020F90FFA86F93C
:100680002DB2204649462A460FF00EF923689DF800
:1006900048800FFA88F8CDF8008000270197D3F83A
:1006A0001CC0204649462A463C23E047204606A96E
:1006B00011F0ECFF204602210FF0FAF8204601214C
:1006C0000FF0FCF83236204631462A460FF0ECF89F
:1006D0002368CDF800800197DF69204631462A461D
:1006E0003C23B847204602A911F0D0FF20460FF066
:1006F000FFFC06A811F066FE02A811F063FE0BB025
:10070000BDE8F083F0B587B004460E4615461F4697
:1007100002A80D9911F0C0FE204601210FF0C8F883
:10072000204601210FF0CAF836B2204631466A1C35
:100730000FF0BAF823689DF8302000920022019251
:10074000D3F81CC0204631462A463B46E0472046A7
:1007500002A911F09BFF20460FF0CAFC02A811F07D
:1007600031FE07B0F0BD00BFF0B587B004460E46BD
:1007700015461F4602A80D9911F08EFE2046002155
:100780000FF096F8204601210FF098F836B2204677
:1007900031466A1C0FF088F823689DF830200092DB
:1007A00000220192D3F81CC0204631462A463B461F
:1007B000E047204602A911F069FF20460FF098FC9F
:1007C00002A811F0FFFD07B0F0BD00BFF0B585B085
:1007D00005460F4616461C46072B03D00D3BDBB2E1
:1007E000012B0BD82A680823009300210191D2F82D
:1007F0001CC0284639463246E04709E003681E22FD
:10080000009200220192D3F81CC032461923E0471F
:100810005CB91823009301930123029328463946BB
:100820003246664B0EF010FF1BE0012C0BD1182353
:100830000093019301230293284639463246604BC8
:100840000EF002FF1BE0022C0BD118230093019342
:10085000012302932846394632465A4B0EF0F4FEE5
:100860001BE0032C0BD11823009301930123029367
:10087000284639463246544B0EF0E6FE1BE0042C67
:100880000BD1182300930193012302932846394684
:1008900032464E4B0EF0D8FE1BE0052C0BD1182330
:1008A0000093019301230293284639463246484B70
:1008B0000EF0CAFE1BE0062C0BD118230093019307
:1008C00001230293284639463246424B0EF0BCFEC5
:1008D0001BE0072C0BD10823009301930123029303
:1008E0002846394632463C4B0EF0AEFE1BE0082C43
:1008F0000BD1182300930193012302932846394614
:100900003246364B0EF0A0FE1BE0092C0BD118230B
:100910000093019301230293284639463246304B17
:100920000EF092FE1BE00A2C0BD1182300930193CA
:10093000012302932846394632462A4B0EF084FEA4
:100940001BE00B2C0BD1182300930193012302937E
:10095000284639463246244B0EF076FE1BE00C2C1E
:100960000BD11823009301930123029328463946A3
:1009700032461E4B0EF068FE1AE00D2C0BD10823F8
:100980000093019301230293284639463246184BBF
:100990000EF05AFE0CE00E2C0AD1082300930193AE
:1009A00001230293284639463246124B0EF04CFE84
:1009B00028460FF09DFB05B0F0BD00BF146001009C
:1009C000845F0100085E0100B4600100285F01003F
:1009D000CC5F0100E05E01005C600100505E010040
:1009E0007859010064600100C0590100985E01005F
:1009F000705F0100AC6001002DE9F0478AB0044649
:100A00000F46154698469DF848A00368A1F10209D3
:100A10000AF10102009200260196D3F81CC0494653
:100A2000A5F10B0208F10103E047204631460EF024
:100A30003FFF204601210EF041FF3FB220463946DC
:100A4000A5F10A020EF030FF02A8139911F024FD5F
:100A5000204602A911F01AFE2368CDF800A0012259
:100A60000192D3F81CC0204649466A1E4346E0471F
:100A7000204631460EF01CFF204631460EF01EFF88
:100A8000204639462A460EF00FFF06A8149911F0A9
:100A900003FD204606A911F0F9FD20460FF028FBC2
:100AA00006A811F08FFC02A811F08CFC0AB0BDE87A
:100AB000F08700BF08B50FF0ADF908BD2DE9F04F84
:100AC00083B004469146984603688F000526009639
:100AD00000250195D3F81CC0394642460423E0475F
:100AE0002368D3F81CA0009648462946FF2201231C
:100AF00012F068F88346009648462946FF220123F3
:100B000012F060F8B044CBEB080200B20090012371
:100B100001932046394612B20323D04720460FF0F6
:100B2000E7FA03B0BDE8F08F2DE9F04F85B0044639
:100B3000884692461E468F000368082200920025D0
:100B40000195D3F81CC0394632460423E047236898
:100B5000DB6902934FF0060BCDF800B050462946F2
:100B6000FF22012312F02EF803905E44CDF800B06E
:100B700050462946FF22012312F024F8039D721BE0
:100B800000B200904FF0010ACDF804A0204639468B
:100B900012B20323029DA84718F0070F226814BF62
:100BA000002301230093CDF804A0D569204607EB6C
:100BB0000A013246A84720460FF09AFA05B0BDE870
:100BC000F08F00BF2DE9F04F83B0044690461F46DA
:100BD00003688E000822009200250195D3F81CC0FE
:100BE00031463A460423E0472368D3F81CA04FF06F
:100BF0000609CDF8009040462946FF22012311F056
:100C0000E1FF8346CDF8009040462946FF220123AC
:100C100011F0D8FF4F44CBEB070200B200900195D2
:100C20002046314612B20323D04720460FF060FA27
:100C300003B0BDE8F08F00BF2DE9F04F85B004464A
:100C400088469346029303689DF838600A22009212
:100C500000250195D3F81CC0029932467823E0475D
:100C60002368DB6903934FF0280ACDF800A04046C3
:100C7000294640F2FF322B4611F0A4FF02990144AD
:100C80004FF00809CDF800904FF00108CDF804802E
:100C9000204609B232460223039FB8472368DB6926
:100CA000039300955846294640F2FF32534611F00F
:100CB00089FF029D05F13C073918CDF80090CDF869
:100CC0000480204609B232460223039FB8472046DB
:100CD0000FF00EFA05B0BDE8F08F00BF0122014B06
:100CE0001A707047BCECFF1F0122014B1A7070474D
:100CF00031CEFF1F704700BF10B50446024911F006
:100D0000ADFB204610BD00BF0C62010010B50446CB
:100D1000044821460A22002311F0EEFC024B1C601D
:100D200010BD00BF2C6F00205CECFF1F10B5044607
:100D300011F0A2FE204610BD10B41A4BD3F880303B
:100D40001A6814785A6811785A7A11409A7A02F01F
:100D50000302187A044218BF42F0040209B142F0BB
:100D6000080291109972013A0D2A17D8DFE802F0B3
:100D7000070B0F0B1613070713160B0F0B07DA6879
:100D80000132DA600AE0DA68013ADA6006E0DA682D
:100D90000232DA6002E0DA68023ADA605DF8044BA7
:100DA000704700BF3469002010B4194BDB6F1A681C
:100DB00014785A6811785A7A11409A7A02F003022C
:100DC000187A044218BF42F0040209B142F0080246
:100DD00091109972013A0D2A17D8DFE802F0070B3B
:100DE0000F0B1613070713160B0F0B07DA680132E8
:100DF000DA600AE0DA68013ADA6006E0DA680232BC
:100E0000DA6002E0DA68023ADA605DF8044B7047B3
:100E10003469002010B4194B9B6F1A6814785A6813
:100E200011785A7A11409A7A02F00302187A044231
:100E300018BF42F0040209B142F008029110997201
:100E4000013A0D2A17D8DFE802F0070B0F0B161333
:100E5000070713160B0F0B07DA680132DA600AE096
:100E6000DA68013ADA6006E0DA680232DA6002E053
:100E7000DA68023ADA605DF8044B704734690020A2
:100E800010B4194B5B6F1A6814785A6811785A7A43
:100E900011409A7A02F00302187A044218BF42F015
:100EA000040209B142F0080291109972013A0D2A28
:100EB00017D8DFE802F0070B0F0B161307071316FE
:100EC0000B0F0B07DA680132DA600AE0DA68013AE0
:100ED000DA6006E0DA680232DA6002E0DA68023AE2
:100EE000DA605DF8044B70473469002010B4194B88
:100EF0001B6F1A6814785A6811785A7A11409A7AD6
:100F000002F00302187A044218BF42F0040209B149
:100F100042F0080291109972013A0D2A17D8DFE8C1
:100F200002F0070B0F0B1613070713160B0F0B0717
:100F3000DA680132DA600AE0DA68013ADA6006E07B
:100F4000DA680232DA6002E0DA68023ADA605DF802
:100F5000044B70473469002010B4194BDB6E1A68DB
:100F600014785A6811785A7A11409A7A02F003027A
:100F7000187A044218BF42F0040209B142F0080294
:100F800091109972013A0D2A17D8DFE802F0070B89
:100F90000F0B1613070713160B0F0B07DA68013236
:100FA000DA600AE0DA68013ADA6006E0DA6802320A
:100FB000DA6002E0DA68023ADA605DF8044B704702
:100FC0003469002010B4194B9B6E1A6814785A6863
:100FD00011785A7A11409A7A02F00302187A044280
:100FE00018BF42F0040209B142F008029110997250
:100FF000013A0D2A17D8DFE802F0070B0F0B161382
:10100000070713160B0F0B07DA680132DA600AE0E4
:10101000DA68013ADA6006E0DA680232DA6002E0A1
:10102000DA68023ADA605DF8044B704734690020F0
:1010300010B4194B5B6E1A6814785A6811785A7A92
:1010400011409A7A02F00302187A044218BF42F063
:10105000040209B142F0080291109972013A0D2A76
:1010600017D8DFE802F0070B0F0B1613070713164C
:101070000B0F0B07DA680132DA600AE0DA68013A2E
:10108000DA6006E0DA680232DA6002E0DA68023A30
:10109000DA605DF8044B70473469002010B4194BD6
:1010A0001B6E1A6814785A6811785A7A11409A7A25
:1010B00002F00302187A044218BF42F0040209B198
:1010C00042F0080291109972013A0D2A17D8DFE810
:1010D00002F0070B0F0B1613070713160B0F0B0766
:1010E000DA680132DA600AE0DA68013ADA6006E0CA
:1010F000DA680232DA6002E0DA68023ADA605DF851
:10110000044B70473469002010B4194BDB6D1A682A
:1011100014785A6811785A7A11409A7A02F00302C8
:10112000187A044218BF42F0040209B142F00802E2
:1011300091109972013A0D2A17D8DFE802F0070BD7
:101140000F0B1613070713160B0F0B07DA68013284
:10115000DA600AE0DA68013ADA6006E0DA68023258
:10116000DA6002E0DA68023ADA605DF8044B704750
:101170003469002010B4194B9B6D1A6814785A68B2
:1011800011785A7A11409A7A02F00302187A0442CE
:1011900018BF42F0040209B142F00802911099729E
:1011A000013A0D2A17D8DFE802F0070B0F0B1613D0
:1011B000070713160B0F0B07DA680132DA600AE033
:1011C000DA68013ADA6006E0DA680232DA6002E0F0
:1011D000DA68023ADA605DF8044B7047346900203F
:1011E00010B4194B5B6D1A6814785A6811785A7AE2
:1011F00011409A7A02F00302187A044218BF42F0B2
:10120000040209B142F0080291109972013A0D2AC4
:1012100017D8DFE802F0070B0F0B1613070713169A
:101220000B0F0B07DA680132DA600AE0DA68013A7C
:10123000DA6006E0DA680232DA6002E0DA68023A7E
:10124000DA605DF8044B70473469002010B4194B24
:101250001B6D1A6814785A6811785A7A11409A7A74
:1012600002F00302187A044218BF42F0040209B1E6
:1012700042F0080291109972013A0D2A17D8DFE85E
:1012800002F0070B0F0B1613070713160B0F0B07B4
:10129000DA680132DA600AE0DA68013ADA6006E018
:1012A000DA680232DA6002E0DA68023ADA605DF89F
:1012B000044B70473469002010B4194BDB6C1A687A
:1012C00014785A6811785A7A11409A7A02F0030217
:1012D000187A044218BF42F0040209B142F0080231
:1012E00091109972013A0D2A17D8DFE802F0070B26
:1012F0000F0B1613070713160B0F0B07DA680132D3
:10130000DA600AE0DA68013ADA6006E0DA680232A6
:10131000DA6002E0DA68023ADA605DF8044B70479E
:101320003469002010B4194B9B6C1A6814785A6801
:1013300011785A7A11409A7A02F00302187A04421C
:1013400018BF42F0040209B142F0080291109972EC
:10135000013A0D2A17D8DFE802F0070B0F0B16131E
:10136000070713160B0F0B07DA680132DA600AE081
:10137000DA68013ADA6006E0DA680232DA6002E03E
:10138000DA68023ADA605DF8044B7047346900208D
:1013900010B4194B5B6C1A6814785A6811785A7A31
:1013A00011409A7A02F00302187A044218BF42F000
:1013B000040209B142F0080291109972013A0D2A13
:1013C00017D8DFE802F0070B0F0B161307071316E9
:1013D0000B0F0B07DA680132DA600AE0DA68013ACB
:1013E000DA6006E0DA680232DA6002E0DA68023ACD
:1013F000DA605DF8044B70473469002010B4194B73
:101400001B6C1A6814785A6811785A7A11409A7AC3
:1014100002F00302187A044218BF42F0040209B134
:1014200042F0080291109972013A0D2A17D8DFE8AC
:1014300002F0070B0F0B1613070713160B0F0B0702
:10144000DA680132DA600AE0DA68013ADA6006E066
:10145000DA680232DA6002E0DA68023ADA605DF8ED
:10146000044B70473469002010B4194BDB6B1A68C9
:1014700014785A6811785A7A11409A7A02F0030265
:10148000187A044218BF42F0040209B142F008027F
:1014900091109972013A0D2A17D8DFE802F0070B74
:1014A0000F0B1613070713160B0F0B07DA68013221
:1014B000DA600AE0DA68013ADA6006E0DA680232F5
:1014C000DA6002E0DA68023ADA605DF8044B7047ED
:1014D0003469002010B4194B9B6B1A6814785A6851
:1014E00011785A7A11409A7A02F00302187A04426B
:1014F00018BF42F0040209B142F00802911099723B
:10150000013A0D2A17D8DFE802F0070B0F0B16136C
:10151000070713160B0F0B07DA680132DA600AE0CF
:10152000DA68013ADA6006E0DA680232DA6002E08C
:10153000DA68023ADA605DF8044B704734690020DB
:1015400010B4194B5B6B1A6814785A6811785A7A80
:1015500011409A7A02F00302187A044218BF42F04E
:10156000040209B142F0080291109972013A0D2A61
:1015700017D8DFE802F0070B0F0B16130707131637
:101580000B0F0B07DA680132DA600AE0DA68013A19
:10159000DA6006E0DA680232DA6002E0DA68023A1B
:1015A000DA605DF8044B70473469002010B4194BC1
:1015B0001B6B1A6814785A6811785A7A11409A7A13
:1015C00002F00302187A044218BF42F0040209B183
:1015D00042F0080291109972013A0D2A17D8DFE8FB
:1015E00002F0070B0F0B1613070713160B0F0B0751
:1015F000DA680132DA600AE0DA68013ADA6006E0B5
:10160000DA680232DA6002E0DA68023ADA605DF83B
:10161000044B70473469002010B4194BDB6A1A6818
:1016200014785A6811785A7A11409A7A02F00302B3
:10163000187A044218BF42F0040209B142F00802CD
:1016400091109972013A0D2A17D8DFE802F0070BC2
:101650000F0B1613070713160B0F0B07DA6801326F
:10166000DA600AE0DA68013ADA6006E0DA68023243
:10167000DA6002E0DA68023ADA605DF8044B70473B
:101680003469002010B4194B9B6A1A6814785A68A0
:1016900011785A7A11409A7A02F00302187A0442B9
:1016A00018BF42F0040209B142F008029110997289
:1016B000013A0D2A17D8DFE802F0070B0F0B1613BB
:1016C000070713160B0F0B07DA680132DA600AE01E
:1016D000DA68013ADA6006E0DA680232DA6002E0DB
:1016E000DA68023ADA605DF8044B7047346900202A
:1016F00010B4194B5B6A1A6814785A6811785A7AD0
:1017000011409A7A02F00302187A044218BF42F09C
:10171000040209B142F0080291109972013A0D2AAF
:1017200017D8DFE802F0070B0F0B16130707131685
:101730000B0F0B07DA680132DA600AE0DA68013A67
:10174000DA6006E0DA680232DA6002E0DA68023A69
:10175000DA605DF8044B70473469002010B4194B0F
:101760001B6A1A6814785A6811785A7A11409A7A62
:1017700002F00302187A044218BF42F0040209B1D1
:1017800042F0080291109972013A0D2A17D8DFE849
:1017900002F0070B0F0B1613070713160B0F0B079F
:1017A000DA680132DA600AE0DA68013ADA6006E003
:1017B000DA680232DA6002E0DA68023ADA605DF88A
:1017C000044B70473469002010B4194BDB691A6868
:1017D00014785A6811785A7A11409A7A02F0030202
:1017E000187A044218BF42F0040209B142F008021C
:1017F00091109972013A0D2A17D8DFE802F0070B11
:101800000F0B1613070713160B0F0B07DA680132BD
:10181000DA600AE0DA68013ADA6006E0DA68023291
:10182000DA6002E0DA68023ADA605DF8044B704789
:101830003469002010B4194B9B691A6814785A68EF
:1018400011785A7A11409A7A02F00302187A044207
:1018500018BF42F0040209B142F0080291109972D7
:10186000013A0D2A17D8DFE802F0070B0F0B161309
:10187000070713160B0F0B07DA680132DA600AE06C
:10188000DA68013ADA6006E0DA680232DA6002E029
:10189000DA68023ADA605DF8044B70473469002078
:1018A00010B4194B5B691A6814785A6811785A7A1F
:1018B00011409A7A02F00302187A044218BF42F0EB
:1018C000040209B142F0080291109972013A0D2AFE
:1018D00017D8DFE802F0070B0F0B161307071316D4
:1018E0000B0F0B07DA680132DA600AE0DA68013AB6
:1018F000DA6006E0DA680232DA6002E0DA68023AB8
:10190000DA605DF8044B70473469002010B4194B5D
:101910001B691A6814785A6811785A7A11409A7AB1
:1019200002F00302187A044218BF42F0040209B11F
:1019300042F0080291109972013A0D2A17D8DFE897
:1019400002F0070B0F0B1613070713160B0F0B07ED
:10195000DA680132DA600AE0DA68013ADA6006E051
:10196000DA680232DA6002E0DA68023ADA605DF8D8
:10197000044B70473469002010B4194BDB681A68B7
:1019800014785A6811785A7A11409A7A02F0030250
:10199000187A044218BF42F0040209B142F008026A
:1019A00091109972013A0D2A17D8DFE802F0070B5F
:1019B0000F0B1613070713160B0F0B07DA6801320C
:1019C000DA600AE0DA68013ADA6006E0DA680232E0
:1019D000DA6002E0DA68023ADA605DF8044B7047D8
:1019E0003469002010B4194B9B681A6814785A683F
:1019F00011785A7A11409A7A02F00302187A044256
:101A000018BF42F0040209B142F008029110997225
:101A1000013A0D2A17D8DFE802F0070B0F0B161357
:101A2000070713160B0F0B07DA680132DA600AE0BA
:101A3000DA68013ADA6006E0DA680232DA6002E077
:101A4000DA68023ADA605DF8044B704734690020C6
:101A500010B4194B5B681A6814785A6811785A7A6E
:101A600011409A7A02F00302187A044218BF42F039
:101A7000040209B142F0080291109972013A0D2A4C
:101A800017D8DFE802F0070B0F0B16130707131622
:101A90000B0F0B07DA680132DA600AE0DA68013A04
:101AA000DA6006E0DA680232DA6002E0DA68023A06
:101AB000DA605DF8044B70473469002010B4194BAC
:101AC0001B681A6814785A6811785A7A11409A7A01
:101AD00002F00302187A044218BF42F0040209B16E
:101AE00042F0080291109972013A0D2A17D8DFE8E6
:101AF00002F0070B0F0B1613070713160B0F0B073C
:101B0000DA680132DA600AE0DA68013ADA6006E09F
:101B1000DA680232DA6002E0DA68023ADA605DF826
:101B2000044B70473469002010B41A4BD3F884304A
:101B30001A6814785A6811785A7A11409A7A02F021
:101B40000302187A044218BF42F0040209B142F0BD
:101B5000080291109972013A0D2A17D8DFE802F0B5
:101B6000070B0F0B1613070713160B0F0B07DA687B
:101B70000132DA600AE0DA68013ADA6006E0DA682F
:101B80000232DA6002E0DA68023ADA605DF8044BA9
:101B9000704700BF3469002038B504460D4608463A
:101BA00013F040FC024623685B68204629469847AC
:101BB0000546204610F090FD284438BD70B5044617
:101BC0000E461546084602210EF028FE2846022140
:101BD0000EF024FEA64A52F8363003F5007121605B
:101BE0000121217252F8352002F5007060606172A7
:101BF0000021E1604FF47A4101397FF4FDAF93F8A1
:101C0000003203F0010392F8002212F0010F1CBF12
:101C100043F00203DBB2A372212E00F29681DFE8CB
:101C200016F022002B0034003D0046004F00580003
:101C300061006A0073007C0085008E009700A000A0
:101C4000A900B200BB00C400CD00D600DF00E80050
:101C5000F100FA0003010C0115011E0165016E017E
:101C6000770180018A01834B1C6000208249042295
:101C70000EF032FD012369E17E4B5C6001207F495B
:101C800004220EF029FD012360E17A4B9C600220C2
:101C90007B4904220EF020FD012357E1754BDC60E7
:101CA0000320784904220EF017FD01234EE1714B09
:101CB0001C610420744902460EF00EFD012345E12B
:101CC0006C4B5C610520714904220EF005FD012377
:101CD0003CE1684B9C6106206D4904220EF0FCFC3F
:101CE000012333E1634BDC6107206A4904220EF0D3
:101CF000F3FC01232AE15F4B1C62082066490422A1
:101D00000EF0EAFC012321E15A4B5C620920634991
:101D100004220EF0E1FC012318E1564B9C620A20DC
:101D20005F4904220EF0D8FC01230FE1514BDC6225
:101D30000B205C4904220EF0CFFC012306E14D4B41
:101D40001C630C20584904220EF0C6FC0123FDE060
:101D5000484B5C630D20554904220EF0BDFC012365
:101D6000F4E0444B9C630E20514904220EF0B4FC75
:101D70000123EBE03F4BDC630F204E4904220EF0C1
:101D8000ABFC0123E2E03B4B1C6410204A490422D7
:101D90000EF0A2FC0123D9E0364B5C6411204749C8
:101DA00004220EF099FC0123D0E0324B9C641220F7
:101DB000434904220EF090FC0123C7E02D4BDC6464
:101DC0001320404904220EF087FC0123BEE0294B7A
:101DD0001C6514203C4904220EF07EFC0123B5E072
:101DE000244B5C651520394904220EF075FC012353
:101DF000ACE0204B9C651620354904220EF06CFCAB
:101E00000123A3E01B4BDC651720324904220EF0AE
:101E100063FC01239AE0174B1C6618202E4904220C
:101E20000EF05AFC012391E0124B5C6619202B49FD
:101E300004220EF051FC012388E00E4B9C661A2010
:101E4000274904220EF048FC01237FE0094BDC66A1
:101E50001B20244904220EF03FFC012376E0054BB1
:101E60001C671C20204904220EF036FC01236DE083
:101E7000586F010034690020BD1A0000511A00009B
:101E8000E5190000791900000D190000A1180000E3
:101E900035180000C91700005D170000F11600009A
:101EA0008516000019160000AD1500004115000050
:101EB000D514000069140000FD1300009113000008
:101EC00025130000B91200004D120000E1110000BE
:101ED00075110000091100009D1000003110000074
:101EE000C50F0000590F0000ED0E0000A54B5C6708
:101EF0001D20A54904220EF0EFFB012326E0A14B93
:101F00009C671E20A14904220EF0E6FB01231DE080
:101F10009C4BDC671F209E4904220EF0DDFB012351
:101F200014E0984BC3F8804020209A4904220EF018
:101F3000D3FB01230AE0934BC3F884402120964948
:101F400004220EF0C9FB012300E000232374212D9D
:101F500000F29B81DFE815F022002B0034003D00E9
:101F600046004F00580061006A0073007C00850045
:101F70008E009700A000A900B200BB00C400CD00F5
:101F8000D600DF00E800F100FA0003010C0158015F
:101F900061016A0173017C0185018F01794B1C602D
:101FA00000207E4904220EF097FB01226EE1754B62
:101FB0005C6001207A4904220EF08EFB012265E16B
:101FC000704B9C600220774904220EF085FB0122B1
:101FD0005CE16C4BDC600320734904220EF07CFB57
:101FE000012253E1674B1C610420704902460EF048
:101FF00073FB01224AE1634B5C6105206C490422BA
:102000000EF06AFB012241E15E4B9C6106206949AA
:1020100004220EF061FB012238E15A4BDC610720FB
:10202000654904220EF058FB01222FE1554B1C623A
:102030000820624904220EF04FFB012226E1514B99
:102040005C6209205E4904220EF046FB01221DE17C
:102050004C4B9C620A205B4904220EF03DFB01229E
:1020600014E1484BDC620B20574904220EF034FB8C
:1020700001220BE1434B1C630C20544904220EF057
:102080002BFB012202E13F4B5C630D2050490422EF
:102090000EF022FB0122F9E03A4B9C630E204D49E1
:1020A00004220EF019FB0122F0E0364BDC630F2016
:1020B000494904220EF010FB0122E7E0314B1C6479
:1020C0001020464904220EF007FB0122DEE02D4BD2
:1020D0005C641120424904220EF0FEFA0122D5E090
:1020E000284B9C6412203F4904220EF0F5FA01228D
:1020F000CCE0244BDC6413203B4904220EF0ECFAC4
:102100000122C3E01F4B1C651420384904220EF045
:10211000E3FA0122BAE01B4B5C6515203449042226
:102120000EF0DAFA0122B1E0164B9C651620314917
:1021300004220EF0D1FA0122A8E0124BDC65172030
:102140002D4904220EF0C8FA01229FE00D4B1C66B7
:1021500018202A4904220EF0BFFA012296E0094B0A
:102160005C661920264904220EF0B6FA01228DE0A1
:10217000044B9C661A20234904220EF0ADFA01227A
:1021800084E000BF34690020810E0000150E0000BD
:10219000A90D0000390D0000291B0000BD1A000028
:1021A000511A0000E5190000791900000D1900000E
:1021B000A118000035180000C91700005D170000C5
:1021C000F11600008516000019160000AD1500007C
:1021D00041150000D514000069140000FD13000033
:1021E0009113000025130000B91200004D120000E9
:1021F000E111000075110000091100009D100000A0
:1022000031100000C50F0000234BDC661B20234962
:1022100004220EF061FA012238E01F4B1C671C20DB
:102220001F4904220EF058FA01222FE01A4B5C6776
:102230001D201C4904220EF04FFA012226E0164B05
:102240009C671E20184904220EF046FA01221DE068
:10225000114BDC671F20154904220EF03DFA0122C4
:1022600014E00D4BC3F880402020114904220EF0E9
:1022700033FA01220AE0084BC3F8844021200D49BB
:1022800004220EF029FA012200E00022237C1344EC
:102290002374204670BD00BF34690020590F000030
:1022A000ED0E0000810E0000150E0000A90D0000CB
:1022B000390D0000291B000010B403681C78436826
:1022C0001A78437A1A40837A03F00303017A0C42A6
:1022D00018BF43F004030AB143F008039A10827256
:1022E000013B0D2B17D8DFE803F0070B0F0B16137C
:1022F000070713160B0F0B07C3680133C3600AE00F
:10230000C368013BC36006E0C3680233C36002E0F8
:10231000C368023BC3605DF8044B70472DE9F0478A
:102320000446844B40F8043B834E4FF0800831460E
:1023300042460DF0CFFF012784F89170002584F804
:102340009250C4F89450C4F89850C4F89C50C4F803
:10235000A050C4F8A45084F8A85004F1EC00294619
:10236000A82212F013FD84F8EC70022384F8ED30FB
:10237000032384F8EE30042384F8EF30052384F837
:10238000F0304FF0060984F8F190072384F8F2301A
:10239000082384F8F3304FF0100C84F8F4C02023A5
:1023A00084F8F530402284F8F62084F8F780634BF7
:1023B000C4F8FC3003F50F2303F50063C4F80031C3
:1023C000A3F59E23C4F80431A3F50F23A3F6FF63FE
:1023D000C4F80831A3F5A023A3F20243C4F80C31DA
:1023E000574BC4F8103103F58033C4F8143106EBB1
:1023F000080393E80300C4F8180184F81C1184F85A
:102400001D5184F81E5184F81F5184F82051D6F8CC
:102410008C00C4F8210184F8255184F8265184F8F1
:10242000275184F8285184F82951334653F8980FDE
:10243000C4F82A0198889B79A4F82E0184F83031D9
:1024400084F8315184F832513E4B03CBC4F8330148
:10245000C4F837111B7884F83B3106F1A40393E8E4
:102460000300C4F83C01A4F8401121FA0CF184F8EF
:10247000421184F8435184F84451D6F8B000C4F8AE
:10248000450184F8495184F84A5184F84B5184F845
:102490004C5184F84D51D6F8BC00C4F84E01A4F854
:1024A0005251A4F8545184F85651274B1868C4F877
:1024B0005701264B1868C4F85B01254B1868C4F80F
:1024C0005F01244B1868C4F86301234B1868C4F8F3
:1024D000670184F8739184F874C1642384F87531BA
:1024E00084F8768184F877811E2384F87C3184F81F
:1024F0007E2184F8837184F8847184F8872184F8BC
:10250000907184F8917104F28313C4F8943104F546
:10251000C273C4F8983104F28513C4F89C3104F5F1
:10252000C373C4F8A03104F28713C4F8A431204661
:10253000BDE8F087086101001061010053494E00B9
:102540004356310018620100246201002862010034
:102550002C6201003062010034620100F0B595B0D8
:1025600005460C4604A88D310FF078FF684604A993
:102570000FF092FF204E6846314610F045F80746AE
:1025800008A8D4F898100A220FF0B8FF384608A916
:1025900010F030F8314610F037F806460CA8D4F8A1
:1025A00094100A220FF0AAFF30460CA910F022F86E
:1025B000124910F029F8064610A8D4F888110A220A
:1025C0000FF09CFF304610A910F014F80146284681
:1025D0000FF062FF10A80FF0F5FE0CA80FF0F2FE4E
:1025E00008A80FF0EFFE68460FF0ECFE04A80FF00D
:1025F000E9FE284615B0F0BD386201003C620100DA
:102600002DE9F8430446894690F8847190F8815189
:10261000C31993F8EC30ED1A05F07F0580F881516D
:1026200090F88331042B00F20481DFE803F00330DB
:102630005785CD00D0F8A060D0F89C30F61A90F8FD
:10264000850111F095F9ACA3D3E9002311F0F6F957
:1026500011F0B6FC8046304611F0BCFD074694F8F8
:1026600087311D4405F07F052544287911F0AEFD22
:10267000A34911F0B7FE414611F000FE014638466D
:1026800011F0FCFD11F0C0FFC4F8A400D1E0D0F8B7
:10269000A060D0F89C30F61A90F8850111F068F926
:1026A00095A3D3E9002311F0C9F911F089FC804604
:1026B000304611F08FFD0746680011F08BFD904900
:1026C00011F090FE414611F0D9FD0146384611F057
:1026D000D5FD11F099FFC4F8A400AAE090F8870195
:1026E000854204D3854294BF0025012500E00025E2
:1026F000D4F8A060D4F89C30F61A94F8850111F053
:1027000037F97DA3D3E9002311F098F911F058FCB3
:102710008046304611F05EFD0746284611F05AFD0E
:10272000414611F0ABFD0146384611F0A7FD11F00E
:102730006BFFC4F8A4007CE090F88771BD42C0F044
:10274000C480D0F8A060D0F89C30F61A90F88501CB
:1027500011F00EF968A3D3E9002311F06FF911F01D
:102760002FFC8046BD4217D806EBD670401011F002
:1027700031FD0746680011F02DFD614911F032FE70
:10278000414611F07BFD0146384611F077FD11F00E
:102790003BFFC4F8A4004CE006EBD670401011F0EB
:1027A00019FD0746680011F015FD554911F01AFE94
:1027B000414611F063FD0146384611F05FFD11F00E
:1027C00023FFC4F8A40034E0D0F8A060D0F89C3017
:1027D000F61A90F8850111F0CBF847A3D3E900234E
:1027E00011F02CF911F0ECFB8046E71B97F8FC3058
:1027F000B9FBF3F203FB129919F0FF0F19D1002076
:10280000FF2110F0D5F90746304611F0E3FC0546EC
:10281000384611F0DFFC3A4911F0E4FD414611F071
:102820002DFD0146284611F029FD11F0EDFEC4F8FA
:10283000A40094F88531002B42D0D4F8940094F889
:102840008651D4F89C70D4F8A020D4F8A410014488
:102850002944B942B8BF39469142D4BFC4F8981050
:10286000C4F8982041199142D4BFC4F88C11C4F81F
:102870008C2111F0AFFC8146304611F0ABFC414693
:1028800011F0FCFC0146484611F0F0FB06462846D4
:1028900011F0A0FC0146304611F0E8FB0546384631
:1028A00011F098FC06462846314611F085FE08B125
:1028B000304600E0284611F0A7FEC4F8880116E073
:1028C000D4F89430C4F8983011E0D0F8A060D0F873
:1028D0009C30F61A90F8850111F04AF806A3D3E966
:1028E000002311F0ABF811F06BFB80463CE70020B1
:1028F000BDE8F883AFF300807B14AE47E17A843FF4
:1029000000007F43AFF300802DE9F04F99B00746F8
:102910008B4600920026049605A831463C2212F010
:1029200035FA18A840F8546D314612F01DFD3446B2
:10293000DFF8F8A071E03B5D612B0DD100238DF82D
:1029400010305AF82B20009902EB41123244537494
:102950000136F6B201935FE0622B0ED100238DF8B1
:1029600010305AF82B30009A03EB42139A19552372
:1029700053740136F6B201934EE0632B0ED100235F
:102980008DF810305AF82B30009903EB41139A1947
:10299000AA2353740136F6B201933DE0642B0ED1A5
:1029A00000238DF810305AF82B30009A03EB4213B5
:1029B0009A19FF2353740136F6B201932CE018A93B
:1029C00001F8553D3D446D7804A812F02DFC303DD2
:1029D000092D21D9002509E05AF82B30009903EB85
:1029E00041139844019A88F81120013506EB050837
:1029F0005FFA88F814A804A90FF030FD14A80FF0AE
:102A000029FE814614A80FF0DDFC5FFA89F909F16F
:102A1000FF394D45E0DB464601342546384612F085
:102A200001FD844287D319B0BDE8F08FF488FF1F01
:102A30002DE9F04F89B00446E84940F8041BDFF85F
:102A4000CC93802749463A460DF044FC012684F891
:102A50009160002584F89250C4F89450C4F89850BE
:102A6000C4F89C50C4F8A050C4F8A45084F8A850EE
:102A700004F1EC002946A82212F088F984F8EC60F1
:102A80004FF0020284F8ED204FF0030384F8EE309B
:102A90004FF0040E84F8EFE04FF0050084F8F000EA
:102AA0004FF0060B84F8F1B04FF0070184F8F210F4
:102AB0004FF0080284F8F3204FF0100A84F8F4A0D5
:102AC0004FF0200384F8F5304FF0400884F8F6808A
:102AD00084F8F770C248C4F8FC00C249C4F8001179
:102AE000C14AC4F80421C14BC4F80831A0F51F2025
:102AF000A0F60130C4F80C01BD49C4F81011BD4A5C
:102B0000C4F8142109F1800393E80300C4F8180104
:102B100084F81C1184F81D5184F81E5184F81F514B
:102B200084F82051CE465EF88C0FCDF804E0C4F84E
:102B3000210184F8255184F8265184F8275184F81E
:102B4000285184F82951494651F8980F0091C4F84A
:102B50002A018A88049291F806E0CDF814E0A4F8DE
:102B60002E2184F830E184F8315184F83251A24B9F
:102B700003CBC4F83301C4F837111B78069384F8EB
:102B80003B3109F1A40292E80300C4F83C01A4F827
:102B9000401121FA0AF184F8421184F8435184F873
:102BA00044514B4653F8B00F0293C4F8450184F8E2
:102BB000495184F84A5184F84B5184F84C5184F8B7
:102BC0004D51CE465EF8BC0FCDF80CE0C4F84E0176
:102BD000A4F85251A4F8545184F856518749086812
:102BE000C4F85701864A1068C4F85B01854B186821
:102BF000C4F85F01DFF818E2DEF80000C4F86301F2
:102C000081490868C4F8670184F873B184F874A135
:102C10004FF0640284F8752184F8767184F8777136
:102C20004FF01E0384F87C3184F87E8184F8836140
:102C300084F8846184F8878184F8906184F89161D4
:102C400004F28313C4F8943104F5C273C4F89831C4
:102C500004F28513C4F89C3104F5C373C4F8A031A1
:102C600004F28713C4F8A4315C48C4F8A80104F541
:102C7000D67049463A460DF02DFB84F8396284F847
:102C80003A52C4F83C52C4F84052C4F84452C4F812
:102C90004852C4F84C5284F8505204F52570294625
:102CA000A82212F073F884F894624FF0020184F8BD
:102CB00095124FF0030284F896224FF0040384F833
:102CC00097324FF0050E84F898E284F899B24FF0ED
:102CD000070084F89A024FF0080184F89B1284F8E8
:102CE0009CA24FF0200284F89D2284F89E8284F8F2
:102CF0009F723B4BC4F8A4323A48C4F8A8023A4940
:102D0000C4F8AC12394AC4F8B022A3F51F23A3F6C5
:102D10000133C4F8B4323648C4F8B8023549C4F8AF
:102D2000BC1209F1800292E80300C4F8C00284F8E2
:102D3000C41284F8C55284F8C65284F8C75284F885
:102D4000C852019B1868C4F8C90284F8CD5284F8AF
:102D5000CE5284F8CF5284F8D05284F8D152DDF8A4
:102D600000E0DEF80000C4F8D2020498A4F8D6020D
:102D7000059984F8D81284F8D95284F8DA521E4B97
:102D800003CBC4F8DB02C4F8DF12069B84F8E332FD
:102D900009F1A40E9EE80300C4F8E402A4F8E812C6
:102DA00021FA0AF184F8EA1284F8EB5284F8EC5222
:102DB00002990868C4F8ED0284F8F15284F8F252DE
:102DC00084F8F35284F8F45284F8F552039A1068A8
:102DD000C4F8F602A4F8FA521CE000BF0861010032
:102DE00053494E0053415700535152005452490029
:102DF000435631004356320018620100246201003C
:102E0000286201002C62010034620100106101009F
:102E100030620100A4F8FC5284F8FE52EA4B1868B4
:102E2000C4F8FF02DFF8D0E3DEF80000C4F80303C3
:102E3000E6490868C4F80703E54A1068C4F80B03BC
:102E4000E44B1868C4F80F0384F81BB384F81CA380
:102E50004FF0640E84F81DE384F81E7384F81F732A
:102E60004FF01E0084F8240384F8268384F82B6333
:102E700084F82C6384F82F8384F8386384F83963EA
:102E800004F22B33C4F83C3304F54B73C4F84033DD
:102E900004F22D33C4F8443304F22E33C4F848331B
:102EA00004F22F33C4F84C3304F5547107910846EB
:102EB000FFF734FAC84AC4F8F82404F2FC40494643
:102EC0003A460DF007FA84F8896584F88A55C4F803
:102ED0008C55C4F89055C4F89455C4F89855C4F866
:102EE0009C5584F8A05504F2E4502946A82211F01C
:102EF0004DFF84F8E4654FF0020384F8E5354FF0A8
:102F0000030E84F8E6E54FF0040084F8E7054FF07F
:102F1000050184F8E81584F8E9B54FF0070284F854
:102F2000EA254FF0080384F8EB3584F8ECA54FF060
:102F3000200E84F8EDE584F8EE8584F8EF75A74857
:102F4000C4F8F405A649C4F8F815A64AC4F8FC2547
:102F5000A54BC4F80036A0F51F20A0F60130C4F838
:102F60000406A249C4F80816A14AC4F80C2609F1BF
:102F7000800393E80300C4F8100684F8141684F85C
:102F8000155684F8165684F8175684F81856DDF846
:102F900004E0DEF80000C4F8190684F81D5684F831
:102FA0001E5684F81F5684F8205684F8215600993E
:102FB0000868C4F82206049AA4F82626059884F81E
:102FC000280684F8295684F82A568A4B03CBC4F87D
:102FD0002B06C4F82F16069984F8331609F1A402BB
:102FE00092E80300C4F83406A4F8381621FA0AF16E
:102FF00084F83A1684F83B5684F83C56029B1868CD
:10300000C4F83D0684F8415684F8425684F8435685
:1030100084F8445684F84556DDF80CE0DEF80000EC
:10302000C4F84606A4F84A56A4F84C5684F84E56FE
:1030300065490868C4F84F066F4A1068C4F853061B
:10304000624B1868C4F85706DFF884E1DEF8000028
:10305000C4F85B065F490868C4F85F0684F86BB67D
:1030600084F86CA64FF0640284F86D2684F86E76BE
:1030700084F86F764FF01E0384F8743684F87686F1
:1030800084F87B6684F87C6684F87F8684F888669A
:1030900084F8896604F27B63C4F88C3604F27C639E
:1030A000C4F8903604F27D63C4F8943604F27E636B
:1030B000C4F8983604F27F63C4F89C364648C4F8D6
:1030C000A00604F2A46049463A460DF003F984F8DC
:1030D000316784F83257C4F83457C4F83857C4F805
:1030E0003C57C4F84057C4F8445784F8485704F292
:1030F0008C702946A82211F049FE84F88C674FF0A5
:10310000020184F88D174FF0030284F88E274FF0E8
:10311000040384F88F374FF0050E84F890E784F8A5
:1031200091B74FF0070084F892074FF0080184F838
:10313000931784F894A74FF0200284F8952784F819
:10314000968784F89777254BC4F89C372448C4F8B1
:10315000A0072449C4F8A417234AC4F8A827A3F554
:103160001F23A3F60133C4F8AC372048C4F8B007D6
:103170001F49C4F8B41709F1800292E80300C4F8AB
:10318000B80784F8BC1784F8BD5784F8BE5784F894
:10319000BF5784F8C057019B1868C4F8C10784F86A
:1031A000C55704F2C67303F8015B03F8015B03F82B
:1031B000015B1D70CA465AF8980FC4F8CA07BAF8DE
:1031C00004E0CDF808E019E0246201002C6201005F
:1031D00030620100346201000861010053494E0071
:1031E0005341570053515200545249004356310045
:1031F0004356320018620100286201009AF8060066
:103200000390A4F8CEE784F8D00784F8D15784F867
:10321000D257EA4B03CBC4F8D307C4F8D7171B78AF
:10322000049384F8DB3709F1A40292E80300C4F8A0
:10323000DC07A4F8E017090C84F8E21784F8E357D8
:1032400084F8E4574B4653F8B00F0093C4F8E507F1
:1032500084F8E95784F8EA5784F8EB5784F8EC5778
:1032600084F8ED57CE465EF8BC0FCDF804E0C4F804
:10327000EE07A4F8F257A4F8F45784F8F657D049AB
:103280000868C4F8F707CF4A1068C4F8FB07CE4BAC
:103290001868C4F8FF07DFF854E3DEF80000C4F84C
:1032A0000308CA490868C4F8070884F813B84FF03F
:1032B000100284F814284FF0640384F8153884F859
:1032C000167884F817784FF01E0E84F81CE884F8FE
:1032D0001E8884F8236884F8246884F8278884F892
:1032E000306884F8316804F62303C4F8343804F6EF
:1032F0002403C4F8383804F62503C4F83C3804F62F
:103300002603C4F8403804F62703C4F84438B0480C
:10331000C4F8480804F64C0049463A460CF0DAFF77
:1033200084F8D96884F8DA58C4F8DC58C4F8E0584E
:10333000C4F8E458C4F8E858C4F8EC5884F8F058D5
:1033400004F634102946A82211F020FD84F83469CF
:103350004FF0020184F835194FF0030284F8362942
:103360004FF0040384F837394FF0050E84F838E93C
:1033700084F839B94FF0070084F83A094FF0080192
:1033800084F83B194FF0100284F83C294FF02003D9
:1033900084F83D3984F83E8984F83F798D48C4F833
:1033A00044098D49C4F848198C4AC4F84C298C4BFF
:1033B000C4F85039A0F51F20A0F60130C4F8540914
:1033C0008849C4F85819884AC4F85C2909F180036F
:1033D00093E80300C4F8600984F8641984F8655917
:1033E00084F8665984F8675984F86859CE465EF8BF
:1033F0008C0FCDF814E0C4F8690984F86D5984F88D
:103400006E5984F86F5984F8705984F87159DAF854
:103410000000C4F872090298A4F87609039984F8A8
:10342000781984F8795984F87A59644B03CBC4F835
:103430007B09C4F87F19049B84F8833909F1A40E31
:103440009EE80300C4F88409A4F88819090C84F8DC
:103450008A1984F88B5984F88C5900990868C4F843
:103460008D0984F8915984F8925984F8935984F815
:10347000945984F89559019A1068C4F89609A4F8EB
:103480009A59A4F89C5984F89E594D4B1868C4F871
:103490009F09DFF830E1DEF80000C4F8A3094A49CB
:1034A0000868C4F8A709514A1068C4F8AB09474B2B
:1034B0001868C4F8AF0984F8BBB94FF0100E84F84F
:1034C000BCE94FF0640084F8BD0984F8BE7984F843
:1034D000BF794FF01E0184F8C41984F8C68984F8B6
:1034E000CB6984F8CC6984F8CF8984F8D86984F8EA
:1034F000D96904F6CB13C4F8DC3904F6CC13C4F84C
:10350000E03904F6CD13C4F8E43904F6CE13C4F858
:10351000E83904F6CF13C4F8EC392D4AC4F8F02981
:1035200004F6F41049463A460CF0D4FE84F8816A59
:1035300084F8825AC4F8845AC4F8885AC4F88C5A59
:10354000C4F8905AC4F8945A84F8985A04F6DC20C7
:103550002946A82211F01AFC84F8DC6A4FF0020315
:1035600084F8DD3A4FF0030E84F8DEEA4FF00400F1
:1035700084F8DF0A4FF0050184F8E01A84F8E1BA14
:103580004FF0070284F8E22A4FF0080384F8E33A88
:103590004FF0100E84F8E4EA4FF0200084F8E50ABA
:1035A00084F8E68A84F8E77A0A49C4F8EC1A0A4AE9
:1035B000C4F8F02A094BC4F8F43A19E01862010083
:1035C00024620100286201002C62010034620100C3
:1035D0000861010053494E005341570053515200B6
:1035E00054524900435631004356320030620100C4
:1035F000EA48C4F8F80AA1F51F21A1F60131C4F880
:10360000FC1AE74AC4F8002BE64BC4F8043B09F166
:10361000800E9EE80300C4F8080B84F80C1B84F8A5
:103620000D5B84F80E5B84F80F5B84F8105B0599E2
:103630000868C4F8110B84F8155B84F8165B84F8ED
:10364000175B84F8185B84F8195BDAF80000C4F89B
:103650001A0B029AA4F81E2B039884F8200B84F806
:10366000215B84F8225BD04B03CBC4F8230BC4F856
:10367000271B049984F82B1B09F1A40292E803008C
:10368000C4F82C0BA4F8301B090C84F8321B84F806
:10369000335B84F8345B009B1868C4F8350B84F8FE
:1036A000395B84F83A5B84F83B5B84F83C5B84F8D4
:1036B0003D5BDDF804E0DEF80000C4F83E0BA4F842
:1036C000425BA4F8445B84F8465BB8490868C4F8D8
:1036D000470BB74A1068C4F84B0BB64B1868C4F8D0
:1036E0004F0BDFF8E8E2DEF80000C4F8530BB249F4
:1036F0000868C4F8570B84F863BB4FF0100284F8D5
:10370000642B4FF0640384F8653B84F8667B84F88F
:10371000677B4FF01E0E84F86CEB84F86E8B84F898
:10372000736B84F8746B84F8778B84F8806B84F8FF
:10373000816B04F67333C4F8843B04F67433C4F825
:10374000883B04F67533C4F88C3B04F67633C4F832
:10375000903B04F67733C4F8943B9848C4F8980B30
:1037600004F69C3049463A460CF0B4FD84F8296CC6
:1037700084F82A5CC4F82C5CC4F8305CC4F8345C6F
:10378000C4F8385CC4F83C5C84F8405C04F68440BF
:103790002946A82211F0FAFA84F8846C4FF002014D
:1037A00084F8851C4FF0030284F8862C4FF0040344
:1037B00084F8873C4FF0050E84F888EC84F889BCC7
:1037C0004FF0070084F88A0C4FF0080184F88B1C36
:1037D0004FF0100284F88C2C4FF0200384F88D3CBD
:1037E00084F88E8C84F88F7C7548C4F8940C7549E5
:1037F000C4F8981C744AC4F89C2C684BC4F8A03CCC
:10380000A0F51F20A0F60130C4F8A40C6449C4F848
:10381000A81C644AC4F8AC2C09F1800393E80300A7
:10382000C4F8B00C84F8B41C84F8B55C84F8B65CB9
:1038300084F8B75C84F8B85CDDF814E0DEF80000CA
:10384000C4F8B90C84F8BD5C84F8BE5C84F8BF5C35
:1038500084F8C05C84F8C15CDAF80000C4F8C20CDB
:103860000298A4F8C60C039984F8C81C84F8C95CB3
:1038700084F8CA5C4C4B03CBC4F8CB0CC4F8CF1C07
:10388000049B84F8D33C09F1A40E9EE80300C4F81D
:10389000D40CA4F8D81C090C84F8DA1C84F8DB5C7E
:1038A00084F8DC5C00990868C4F8DD0C84F8E15CFD
:1038B00084F8E25C84F8E35C84F8E45C84F8E55C1A
:1038C000019A1068C4F8E60CA4F8EA5CA4F8EC5C71
:1038D00084F8EE5C354B1868C4F8EF0CDFF8D0E0E4
:1038E000DEF80000C4F8F30C32490868C4F8F70C9D
:1038F000364A1068C4F8FB0C2F4B1868C4F8FF0C4C
:103900004FF0060E84F80BED4FF0100084F80C0D0C
:103910004FF0640184F80D1D84F80E7D84F80F7D4E
:103920004FF01E0A84F814AD84F8168D84F81B6DD0
:1039300084F81C6D84F81F8D84F8286D84F8296D37
:1039400004F61B53C4F82C3D04F61C53C4F8303D58
:1039500004F61D53C4F8343D04F61E53C4F8383D34
:1039600004F61F53C4F83C3D144AC4F8402D04F635
:10397000445049463A460CF0ADFC84F8D16D84F8C9
:10398000D25DC4F8D45DC4F8D85DC4F8DC5DC4F879
:10399000E05DC4F8E45D84F8E85D19E05452490044
:1039A0004356310043563200186201002462010080
:1039B000286201002C6201003462010008610100EC
:1039C00053494E0053415700535152003062010099
:1039D00004F62C602946A82211F0D8F984F82C6E40
:1039E0004FF0020384F82D3E4FF0030E84F82EEEC4
:1039F0004FF0040084F82F0E4FF0050184F8301EBC
:103A00004FF0060284F8312E4FF0070384F8323E5F
:103A10004FF0080E84F833EE4FF0100084F8340EA7
:103A20004FF0200184F8351E84F8368E84F8377EF6
:103A3000E54AC4F83C2EE54BC4F8403EE448C4F8DF
:103A4000440EE449C4F8481EA2F51F22A2F6013232
:103A5000C4F84C2EE04BC4F8503EE048C4F8540E75
:103A600009F1800292E80300C4F8580E84F85C1E45
:103A700084F85D5E84F85E5E84F85F5E84F8605E64
:103A80004B4653F88C0F0093C4F8610E84F8655EC2
:103A900084F8665E84F8675E84F8685E84F8695E20
:103AA000CB465BF8980FC4F86A0EBBF804E0CDF87B
:103AB0000CE09BF806000490A4F86EEE84F8700EFB
:103AC00084F8715E84F8725EC54B03CBC4F8730E44
:103AD000C4F8771E1B78059384F87B3E09F1A40295
:103AE00092E80300C4F87C0EA4F8801E090C84F848
:103AF000821E84F8835E84F8845E4B4653F8B00FD0
:103B00000193C4F8850E84F8895E84F88A5E84F88F
:103B10008B5E84F88C5E84F88D5ECE465EF8BC0FBA
:103B2000CDF808E0C4F88E0EA4F8925EA4F8945E76
:103B300084F8965EAB490868C4F8970EAA4A1068E4
:103B4000C4F89B0EA94B1868C4F89F0EDFF8A8E2D2
:103B5000DEF80000C4F8A30EA5490868C4F8A70E53
:103B60004FF0060284F8B32E4FF0100384F8B43EF1
:103B70004FF0640E84F8B5EE84F8B67E84F8B77E14
:103B800084F8BCAE84F8BE8E84F8C36E84F8C46E2C
:103B900084F8C78E84F8D06E84F8D16E04F6C363BF
:103BA000C4F8D43E04F6C463C4F8D83E04F6C56332
:103BB000C4F8DC3E04F6C663C4F8E03E04F6C7630E
:103BC000C4F8E43E8B48C4F8E80E04F6EC604946BD
:103BD0003A460CF07FFB84F8796F84F87A5FC4F87A
:103BE0007C5FC4F8805FC4F8845FC4F8885FC4F861
:103BF0008C5F84F8905F04F6D4702946A82211F0F7
:103C0000C5F884F8D46F4FF0020184F8D51F4FF047
:103C1000030284F8D62F4FF0040384F8D73F4FF007
:103C2000050E84F8D8EF4FF0060084F8D90F4FF056
:103C3000070184F8DA1F4FF0080284F8DB2F4FF0F9
:103C4000100384F8DC3F4FF0200E84F8DDEF84F899
:103C5000DE8F84F8DF7F5C48C4F8E40F5B49C4F86A
:103C6000E81F5B4AC4F8EC2F5A4BC4F8F03FA0F5AC
:103C70001F20A0F60130C4F8F40F5749C4F8F81F0C
:103C8000564AC4F8FC2F04F5805309F1800E9EE8D3
:103C90000300186019715D719D71DD711D7241F233
:103CA0000902A31800990868A0501D715D719D71EB
:103CB000DD711D7241F21202A318DBF80000A05062
:103CC000039A9A8004989871DD711D7241F21B0E5F
:103CD00004EB0E02424B03CB44F80E0051600599F1
:103CE000117241F22402A31809F1A40E9EE8030008
:103CF000A0509980090C9971DD711D7241F22D025D
:103D0000A31801990868A0501D715D719D71DD7146
:103D10001D7241F23602A318DDF808E0DEF800005B
:103D2000A0509D80DD801D722E49086841F23F033E
:103D3000E0502D4A106841F24303E0502B4B1868C5
:103D400041F24703E050DFF8B0E0DEF8000041F256
:103D50004B03E0502649086841F24F03E05041F21E
:103D60005B034FF00602E25441F25C034FF0100097
:103D7000E05441F25D034FF06401E15441F25E030F
:103D8000E75441F25F03E75441F2640304F803A0EF
:103D900041F2660304F8038041F26B03E65441F2FA
:103DA0006C03E65441F26F0304F8038041F2780398
:103DB000E65441F27903E65404F6E86303F2831112
:103DC00041F27C02A15019E053494E005341570083
:103DD0005351520054524900435631004356320069
:103DE0001862010024620100286201002C620100B7
:103DF00034620100086101003062010004F5845260
:103E000003F5C271116003F2851141F28402A150E1
:103E100003F5C37141F28802A15003F2871341F206
:103E20008C02A35041F2900304EB030AE44AE250EF
:103E30000AF1040049463A460CF04CFA8AF89160BF
:103E40008AF89250CAF89450CAF89850CAF89C5010
:103E5000CAF8A050CAF8A4508AF8A8500AF1EC0099
:103E60002946A82210F092FF8AF8EC604FF0020376
:103E70008AF8ED304FF003008AF8EE004FF00401AD
:103E80008AF8EF104FF005028AF8F0204FF0060391
:103E90008AF8F1304FF007008AF8F2004FF008017D
:103EA0008AF8F3104FF010028AF8F4204FF0200344
:103EB0008AF8F5308AF8F6808AF8F770C148CAF8AF
:103EC000FC00C149CAF80011C04ACAF80421C04B1D
:103ED000CAF80831A0F51F20A0F60130CAF80C017D
:103EE000BC49CAF81011BC4ACAF8142109F1800370
:103EF00093E80300CAF818018AF81C118AF81D51CA
:103F00008AF81E518AF81F518AF8205100990868D2
:103F1000CAF821018AF825518AF826518AF82751D2
:103F20008AF828518AF82951DBF80000CAF82A01DA
:103F3000039AAAF82E2104988AF830018AF83151A0
:103F40008AF83251A54B03CBCAF83301CAF83711AE
:103F500005998AF83B1109F1A40292E80300CAF816
:103F60003C01AAF84011090C8AF842118AF8435121
:103F70008AF84451019B1868CAF845018AF84951EA
:103F80008AF84A518AF84B518AF84C518AF84D51B7
:103F900002990868CAF84E01AAF85251AAF8545179
:103FA0008AF856518E4B1868CAF8570104F58453A5
:103FB00010338C4A1068C3F85B018B4A1068C3F851
:103FC0005F018A4A1068C3F86301894A1068C3F820
:103FD0006701062283F87321102283F874214FF0C1
:103FE000640C83F875C183F8767183F877711E22AB
:103FF00083F87C2183F87E81324683F8836183F8DD
:10400000846183F8878183F8906183F8916103F27A
:104010008311C3F8941103F5C271C3F8981103F228
:104020008511C3F89C1103F5C371C3F8A01103F205
:104030008711C3F8A411002341F23821635441F2DF
:104040004521665441F24821645004F5D47041F290
:104050004C21605041F250210798605004F59F6058
:1040600041F25421605004F5D46041F2582160506F
:1040700004F5546041F25C21605004F5935104F55D
:104080001F60086004F6480041F26421605004F6A5
:10409000983041F26821605004F6E86041F26C21EA
:1040A000605041F27026A719494651F8C80FA05137
:1040B0008988B9804F4E03CEC4F88400C4F88810B4
:1040C0004D490868C4F88D0084F89120122184F8C5
:1040D0009210C4F89410C4F89810FF26C4F8A06099
:1040E000C4F89C30052184F8A81084F8833184F842
:1040F000843184F8853184F8863184F887813F4F94
:1041000003CFC4F82C02C4F83012397884F8341282
:104110003B490868C4F8350284F8392284F83A2209
:10412000C4F83C22C4F840220727C4F84872C4F8F7
:10413000443284F8502284F82B3384F82C3384F8EA
:104140002D3384F82E3384F82F832E490868C4F861
:10415000D403097984F8D8132B490868C4F8DD031F
:1041600084F8E123022184F8E213C4F8E413C4F8CC
:10417000E813C4F8F073C4F8EC3384F8F82384F837
:10418000D33484F8D43484F8D53484F8D63484F81D
:10419000D7841E4F03CFC4F87C05C4F88015397846
:1041A00084F884151A490868C4F8850584F88925B7
:1041B00084F88AC5C4F88CC5C4F890C57F2129E06D
:1041C0000861010053494E005341570053515200BA
:1041D00054524900435631004356320018620100E0
:1041E00024620100286201002C620100306201009B
:1041F00034620100546201005C62010060620100EF
:104200006C62010070620100786201007C62010052
:1042100088620100C4F89815C4F8943584F8A02584
:1042200084F87B3684F87C3684F87D3684F87E36D4
:1042300084F87F866F4F03CFC4F82407C4F828178B
:10424000397884F82C176C490868C4F82D0784F86D
:1042500031270A2784F83277C4F83477C4F83877DE
:10426000C4F84067C4F83C3784F8482784F82338FA
:1042700084F8243884F8253884F8263884F8278888
:104280005E490868C4F8CC08097984F8D0185C49FC
:104290000868C4F8D50884F8D92884F8DA38C4F84E
:1042A000DC38C4F8E038C4F8E868C4F8E43884F8C6
:1042B000F02884F8CB3984F8CC3984F8CD3984F8E7
:1042C000CE3984F8CF89DFF850C1BCE80300C4F8C8
:1042D0006C0FC4F8701F4B490868C4F8750F84F858
:1042E000792F84F87A3FC4F87C3FC4F8803FC4F843
:1042F000886FC4F8843F84F8902F41F26B016354B7
:1043000041F26C01635441F26D01635441F26E015C
:10431000635441F26F0104F801803B490868C4F816
:10432000740AC4F87D0A84F8812A84F8823AC4F8B1
:10433000843AC4F8883AC4F8906AC4F88C3A84F88D
:10434000982A84F8733B84F8743B84F8753B84F8AE
:10435000763B84F8778BDFF8C4C0BCE80300C4F870
:104360001C0CC4F8201C29490868C4F8250C84F8E2
:10437000292C84F82A7CC4F82C7CC4F8307CC4F83E
:10438000386CC4F8343C84F8402C84F81B3D84F825
:104390001C3D84F81D3D84F81E3D84F81F8D1C4F84
:1043A00003CFC4F8C40DC4F8C81D397884F8CC1DF7
:1043B00018490868C4F8CD0D84F8D12D082184F877
:1043C000D21DC4F8D41DC4F8D81DC4F8E06DC4F8DB
:1043D000DC3D84F8E82D84F8C33E84F8C43E84F8BC
:1043E000C53E84F8C63E84F8C78E204609B0BDE8B5
:1043F000F08F00BF8C620100986201009C62010096
:10440000A4620100B0620100B4620100C062010058
:10441000C4620100D0620100A8620100B86201001C
:104420002DE9F84F0024964B1C600120954B186035
:10443000954B1C60954BD3F898100EF0B9FB944B3C
:104440001860944B197801FB00F1934B1960934B62
:104450001C60934B1C60934B1C60934B1C6022466A
:104460000B468C4280F2D180DFF860B24FF07E5A6A
:104470004FF08048002725469B1A8C490B60894BDA
:104480001A68874B1B689A4240F090800022854B47
:104490001A60012064210EF08BFB7E4B1B78834A4F
:1044A000126893420BDDC0B28149D1F8981088425E
:1044B00005DA804BC3F800A0794B1A606BE058080E
:1044C0000FF088FE044610F09FF810F0010F204610
:1044D0000CBF514641460FF0C7FD4FF07C510FF025
:1044E000CDFE0FF057FA0022734B0FF0A7FA0FF032
:1044F0003FFD014600200EF05BFB0FF06BFE5946BE
:104500000FF070FF01460FF0B1FD51460FF0AEFD08
:1045100010F07AF80FF05EFE0446664B1860634BAD
:1045200018680FF057FE06462046314610F062F834
:1045300098B1204641460FF097FD0446394610F0E9
:1045400059F808B904F100442046314610F052F8F9
:1045500008B12046EEE7574B1C600120574BD3F8BB
:1045600098100EF025FB04464D4B18604F4B186811
:104570000FF030FE064620460FF02CFE4D4B19681A
:104580000FF07CFE314610F035F820B1494B1E602B
:104590000122434B1A60474B186810F035F8284445
:1045A0003C4B1B7890FBF3F503FB1505414B1C6856
:1045B0002046394610F01EF890B1314ED6F80090E2
:1045C000204610F021F83E4B43F8290009F1010381
:1045D00033602C4B1A68344941F8225001321A607A
:1045E0002E4E30680FF0F6FD014620460FF03EFDDE
:1045F00010F00AF830602B4B1A6801321A6002463C
:10460000254B1B689842FFF637AF1D4BD3F800804F
:10461000B8F1000F2DDD1F4B18781B4B1A680023D3
:104620009C46DFF89C90DFF880B09A4614E0334453
:1046300093FBF0F700FB173341F8043F0132531BA3
:10464000A342F4DB0CF1010C5FFA8CFC6346C44519
:1046500002DB0D4B1A600CE059F82340002CF1DD11
:104660001BF823601546511E164B03EB8101534680
:10467000DDE7054B1A68144B1A60BDE8F88F00BFE0
:1046800098C5FF1F1C89FF1F78ECFF1F3CCEFF1F42
:1046900034CEFF1F5C89FF1F60C4FF1FE4CFFF1FE4
:1046A00018CEFF1F08C4FF1F543A002020EBFF1F45
:1046B000ECCFFF1FD488FF1F0000244038E4FF1F09
:1046C00018E7FF1F846300206CC2FF1F0000204119
:1046D00070B5654C654B93E80300C4F88400A4F8FA
:1046E0008810090C84F88A10614B1868C4F88D0092
:1046F000012284F89120042384F89230C4F8943085
:10470000C4F898301023C4F8A0300226C4F89C6086
:1047100084F8A820002384F8833184F8843184F855
:10472000853184F88631402584F8875151495248B3
:104730000468A1F88440240C81F8864004888078BD
:10474000A1F88D4081F88F0081F8912081F8923096
:10475000C1F89430C1F89830C1F8A060C1F89C301D
:1047600081F8A82081F8833181F8843181F885317E
:1047700081F8863181F88751404C414903C9C4F81A
:104780008400A4F88810090C84F88A103D49086850
:10479000C4F88D0084F8912084F89220C4F8942005
:1047A000C4F898201121C4F8A010C4F89C2084F803
:1047B000A82084F8833184F8843184F8853184F822
:1047C000863184F88751304C304903C9C4F88400DD
:1047D000A4F88810090C84F88A102D490868C4F8D8
:1047E0008D0084F8912084F89220C4F89420C4F8B5
:1047F00098206321C4F8A010C4F89C3084F8A82045
:1048000084F8833184F8843184F8853184F88631E2
:1048100084F887511F4C204903C9C4F88400A4F8C8
:104820008810090C84F88A101C490868C4F88D00A7
:1048300084F8912084F89220C4F89420C4F8982039
:104840000821C4F8A010C4F89C2084F8A82084F89B
:10485000833184F8843184F8853184F8863184F892
:104860008751FFF7DDFD70BD2C260020D4620100CA
:10487000F862010048FFFF1FDC6201003CCEFF1F11
:10488000E0620100FC620100ECCFFF1FE862010062
:104890000063010038E4FF1FF062010004630100BF
:1048A00008B5054B1B6890FBF3F202FB130008B937
:1048B000FFF7B6FD08BD00BF6CC2FF1F70B41C4AF5
:1048C00041F239231468E5181A490868E05009795B
:1048D00029715468E51818490868E0508988A9804A
:1048E0009468E51815490868E05009792971D56878
:1048F000EC1813490868E85088888979A080A1716C
:104900001669F5180F4C03CCF050696021782972B4
:104910005469E5180C490868E0508988A9809169B4
:10492000CC180A4A1068C8509388A38070BC70479E
:10493000B488FF1F086301001063010018630100C1
:104940002063010028630100346301003C6301001F
:104950002DE9F04198B000AF6A4C07F110002146F4
:104960000DF07CFD07F1200067490DF077FD07F1A0
:10497000100007F120010DF03DFE21460DF044FE30
:10498000044607F1300061490DF068FD204607F14B
:1049900030010DF02FFE5E490DF036FE014638461F
:1049A0000DF07AFD07F130000DF00CFD07F120004D
:1049B0000DF008FD07F110000DF004FDBA6802F1DA
:1049C000080323F00703ADEB030D384669460132B7
:1049D00000230DF027FE4F4C2046694608F0E2FE0A
:1049E00007F1400021466A46132308F03FFE4A4B78
:1049F00097F844201A71BA6C9A6097F84C201A7391
:104A000007F1600252F8135D54689068C3F80D50C6
:104A1000C3F81140C3F81500127B5A76FA6DDA61BB
:104A200007F1400008F068FC00253B4C3B4E41F28A
:104A30005C28AB5953F808302046D3F894100DF099
:104A400097FE23681B68204623219847AB5903F53E
:104A500093531B682046D3F894100DF089FE236809
:104A60001B68204623219847AB5941F264229B588A
:104A70002046D3F894100DF07BFE23681B68204677
:104A800023219847AB5941F268229B582046D3F81E
:104A900094100DF06DFE23681B6820462321984773
:104AA000AB5941F26C229B582046D3F894100DF07C
:104AB0005FFE23681B6820462321984723681B68F4
:104AC00020462D21984704351C2DB2D1124C236865
:104AD0001B68204624219847114E357805EB450088
:104AE000104B03EB4000094910F03EFC01353570D6
:104AF000204608F02BFC38460DF064FC6037BD46BC
:104B0000BDE8F081A0630100A4630100D888FF1F05
:104B1000AC630100BC69002030C4FF1FB488FF1FD4
:104B2000E8CFFF1F846500202DE9F04F9DB000AF56
:104B300040B9884A137888490B70591C1170874A0C
:104B4000136003E0844B1A78844B1A60844C07F19D
:104B5000100021460DF082FC07F1200081490DF084
:104B60007DFC07F1100007F120010DF043FD214607
:104B70000DF04AFD054607F130007B490DF06EFC53
:104B8000284607F130010DF035FD21460DF03CFDC2
:104B9000044607F14000714B19680A220DF0AEFC83
:104BA000204607F140010DF025FD70490DF02CFD68
:104BB000014638460DF070FC07F140000DF002FC94
:104BC00007F130000DF0FEFB07F120000DF0FAFBBD
:104BD00007F110000DF0F6FBBA6802F1080323F0AC
:104BE0000703ADEB030D38466946013200230DF093
:104BF00019FD5F4C2046694608F0D4FD07F15000CE
:104C000021466A46132308F031FD5A4B97F8542089
:104C10001A71BA6D9A6097F85C201A7307F17002E6
:104C200052F8135D54689068C3F80D50C3F81140F2
:104C3000C3F81500127B5A76FA6EDA6107F150005C
:104C400008F05AFB00254B4EDFF82C8134467BE000
:104C500055F808300AF2924953F829302046D3F823
:104C600094100DF085FD33681B682046594698471F
:104C700055F8083053F82930204693F883110A225A
:104C800000230DF039FD33681B6820462321984727
:104C900055F8083053F82930204693F884110A2239
:104CA00000230DF029FD33681B6820462321984717
:104CB00055F8083053F82930204693F885110A2218
:104CC00000230DF019FD33681B6820462321984707
:104CD00055F8083053F82930204693F886110A22F7
:104CE00000230DF009FD33681B68204623219847F7
:104CF00055F8083053F82930204693F887110A22D6
:104D000000230DF0F9FC33681B68204623219847E7
:104D100055F80830204641F23822995C0A220023D7
:104D20000DF0EAFC33681B6820463C2198470AF1E5
:104D3000010ABAF10A0F8BD133681B6820467C2127
:104D4000984704351C2D19D04FF0000A4FF02B0B5B
:104D50007EE700BF30CEFF1FA099FF1F2CC4FF1FAE
:104D6000A0630100B4630100C0630100AC630100F3
:104D7000BC69002030C4FF1FB488FF1F6B48036864
:104D80001B683E2198476A4C04F64808674D2A265E
:104D90002846D4F894100DF0EBFC2B681B682846CD
:104DA0003146984704F5D4744445F1D15F4803680F
:104DB0001B68262198475F4D05F59F695B4C4FF0B6
:104DC0003F080A262046D5F894100DF0D1FC236840
:104DD0001B68204641469847204695F88311324685
:104DE00000230DF089FC23681B6820462121984789
:104DF000204695F88411324600230DF07DFC23688F
:104E00001B68204621219847204695F88511324697
:104E100000230DF071FC23681B6820462121984770
:104E2000204695F88611324600230DF065FC236874
:104E30001B68204621219847204695F88711324665
:104E400000230DF059FC23681B6820462121984758
:104E500005F5D4754D45B5D1344803681B68262146
:104E600098470025314C344E4FF04008AB5920464E
:104E7000D3F894100DF07CFC23681B682046414653
:104E80009847AB59204693F883110A2200230DF06E
:104E900033FC23681B6820462F219847AB592046D6
:104EA00093F884110A2200230DF026FC23681B6866
:104EB00020462F219847AB59204693F885110A22A6
:104EC00000230DF019FC23681B6820462F2198470A
:104ED000AB59204693F886110A2200230DF00CFCF2
:104EE00023681B6820462F219847AB59204693F82A
:104EF00087110A2200230DF0FFFB23681B68204660
:104F00002F2198470435142DB0D1084C23681B6815
:104F1000204624219847204608F018FA38460DF01C
:104F200051FA7437BD46BDE8F08F00BF30C4FF1F93
:104F3000E43C0020BCC5FF1FE088FF1F2DE9F041C5
:104F4000A0B000AF554C07F1300021460DF086FAB5
:104F500007F1400052490DF081FA07F1300007F1E6
:104F600040010DF047FB21460DF04EFB044607F1D2
:104F700050004C490DF072FA204607F150010DF037
:104F800039FB014638460DF087FA07F150000DF065
:104F900019FA07F140000DF015FA07F130000DF095
:104FA00011FABA6802F1080323F00703ADEB030D11
:104FB00038466946013200230DF034FB07F16000EA
:104FC00039496A46012308F051FB384B97F86420B1
:104FD0001A71BA6E9A6097F86C201A7307F1800202
:104FE00052F8135D54689068C3F80D50C3F811402F
:104FF000C3F81500127B5A76FA6FDA6107F1600088
:1050000008F07AF9DFF8A480294D2A4C07F1100046
:105010004146012208F0D2FB07F1100008F0A2F986
:10502000D8B9234C23685B6820462349142298474B
:1050300020460DF051FB07F1100008F05DF91B4808
:1050400008F084F920461B4B19780A2200230DF042
:1050500053FB38460DF0B6F91BE007F1100008F0DD
:1050600051F9064610F0DEF902462B685B682846C7
:105070003146984723780133DBB223700F4A13601F
:1050800007F1100008F062F907F1100008F034F998
:10509000BCE78037BD46BDE8F08100BFA0630100DA
:1050A000B4630100C0630100BC6900208CE9FF1FEC
:1050B0002C6F002030CEFF1FC86301002CC4FF1FDF
:1050C0002DE9F04FA7B000AF0025FD603D613D75B3
:1050D000A14E07F10C003146082210F0D3F99F4C85
:1050E00007F1380021460DF0B9F907F148009C4955
:1050F0000DF0B4F907F1380007F148010DF07AFA24
:1051000021460DF081FA07F10C010DF07DFA954969
:105110000DF07AFA014607F118000DF0BDF907F11C
:1051200048000DF04FF907F138000DF04BF98E4CA7
:10513000204607F118010DF0A9FA20460DF0CCFA2F
:105140003A6A02F1080323F00703ADEB030D07F100
:105150001800694601322B460DF064FA834C204654
:10516000694608F01FFB07F1580021466A461323E1
:1051700008F07CFA7E4C97F85C3023713B6EA3609C
:1051800097F86430237307F1980353F833ED5868A8
:105190009968C4F80DE0C4F81100C4F815101B7B21
:1051A00063767B6FE36107F1580008F0A5F830469D
:1051B00010F038F9024623685B682046314698476C
:1051C00023685B6820466B490122984707F1280055
:1051D00069490DF043F9A846DFF8AC91A2463D605D
:1051E0009EE0224658F8091001EB461129444C7CF8
:1051F000944202D10133DBB25FE0ABB103F1010BAA
:10520000786859460DF0B4FA07F1780059460A2239
:105210000DF074F907F1280007F178010DF0C4F9D9
:1052200007F178000DF0CEF8552C17D001D82CB12D
:1052300042E0AA2C20D0FF2C2ED03DE0DAF800303E
:10524000DFF848B15B68786859460122984707F152
:10525000280059460DF0B0F900232EE0DAF80030AE
:105260005B68786845490122984707F1280043495F
:105270000DF0A2F9002320E0DAF80030DFF810B1D9
:105280005B68786859460122984707F1280059461B
:105290000DF092F9002310E0DAF80030DFF8F4B0F6
:1052A0005B68786859460122984707F128005946FB
:1052B0000DF082F9002300E000230135202D90D16C
:1052C000A3B15C1C786821460DF052FA07F1880002
:1052D00021460A220DF012F907F1280007F1880192
:1052E0000DF062F907F188000DF06CF8DAF8003083
:1052F0005B6878682249012298470136092E03D05D
:10530000002501223B686DE7DAF800305B68504603
:105310001C490122984708F10408B8F11C0F03D07A
:105320000026C7F804A0EBE7114808F00FF80E4C70
:10533000204607F128010DF0A9F920460DF0CCF91F
:1053400007F128000DF03EF807F118000DF03AF8CB
:105350009C37BD46BDE8F08FA488FF1FA063010005
:10536000E0630100AC6301002C6F0020BC690020E9
:1053700030C4FF1FE863010048620100F0630100D0
:10538000FC63010000640100F488FF1FEC6301006E
:10539000F4630100F863010030B49DF80840072869
:1053A00000F2B980DFE800F0040E4850575F8D939B
:1053B0005A4B53F8213002F2924253F82230C3F88C
:1053C0009440A8E0042B00F2A680DFE803F0030D70
:1053D00017212B00514B53F8213002F2924253F81F
:1053E000223083F8834196E04C4B53F8213002F28F
:1053F000924253F8223083F884418CE0474B53F8B3
:10540000213002F2924253F8223083F8854182E043
:10541000424B53F8213002F2924253F8223083F883
:10542000864178E03D4B53F8213002F2924253F826
:10543000223083F887416EE04FF4D471384B01FB82
:105440000232C2F8944066E0344B53F8212041F216
:105450003823D4545FE04FF4D471324B01FB023255
:10546000C2F8944057E0042B2BD8DFE803F0030B7D
:10547000131B23004FF4D4712A4B01FB023383F832
:1054800083411EE04FF4D471264B01FB023383F8B5
:10549000844116E04FF4D471224B01FB023383F8B0
:1054A00085410EE04FF4D4711E4B01FB023383F8AB
:1054B000864106E04FF4D4711A4B01FB023383F8A6
:1054C0008741194B53F82230C3F8944023E0042B52
:1054D00021D8DFE803F003090F151B00124B53F826
:1054E000223083F8834116E00F4B53F8223083F8C3
:1054F000844110E00C4B53F8223083F885410AE0D8
:10550000094B53F8223083F8864104E0064B53F8E8
:10551000223083F8874130BC704700BFB488FF1F3A
:10552000E43C0020BCC5FF1FE088FF1FF0B591B030
:10553000464C2046464908F029F92046454908F0DE
:1055400025F92046444908F021F92046434908F04E
:105550001DF92046424908F019F9424D20462946D6
:1055600008F020F9684621462A46132308F07EF801
:105570003D4C9DF804302371029BA3609DF80C30D4
:10558000237310AB53F8335D58689968C4F80D5015
:10559000C4F81100C4F815101B7B6376079BE36108
:1055A000684607F0A9FE314D28460FF03BFF024642
:1055B00023685B6820462946984723682C4E5B6821
:1055C00020463146012298472A4F38460FF02AFFDD
:1055D000024623685B6820463946984723685B6823
:1055E0002046314601229847234E204631680DF06F
:1055F000BFF8204607F0AAFE08A820490CF02EFFAD
:105600000CA829460CF02AFF08A80CA90CF0F2FF00
:105610001B490CF0F9FF01461A4C20460DF036F8F4
:1056200020460DF059F80CA80CF0CCFE08A80CF0A0
:10563000C9FE23685B682046134913229847204619
:105640000DF04AF80023336011B0F0BDBC690020B2
:10565000B463010004640100A4630100E06301007D
:105660001464010064630100901300205089FF1F3F
:1056700070630100D888FF1F2CC4FF1F74630100F2
:10568000806301002C6F002024640100032926D8C8
:10569000DFE801F0020B141D114B53F8201041F20A
:1056A0005C23CB58C3F8942070470D4B53F820303F
:1056B00003F593531B68C3F894207047084B53F8C5
:1056C000201041F26423CB58C3F894207047044B58
:1056D00053F8201041F26823CB58C3F89420704748
:1056E000B488FF1F2DE9F04190B008A82649274A49
:1056F000012307F0BBFF264B9DF824201A710A9A5C
:105700009A609DF82C201A7310AA52F8135D546801
:105710009068C3F80D50C3F81140C3F81500127B10
:105720005A760F9ADA6108A807F0E6FDDFF8608084
:10573000184E194F68464146012208F03FF8684666
:1057400007F010FEB8B100243578684607F0DAFD9E
:10575000035D05EB450504EB45057B550134052C40
:10576000F2D1337801333370684607F0EFFD6846B5
:1057700007F0C2FDDEE7684607F0BEFD044807F00B
:10578000E5FD10B0BDE8F081BC690020386401007F
:1057900030C4FF1FE8CFFF1F8465002038B50446E2
:1057A0001F4B53F820502B7C012B04D872B628468F
:1057B000FCF782FD00E072B6EB6862B6194A52F857
:1057C00024209A422AD013F0030F27D116490C70D7
:1057D0009A42ACBF4FF0FF320122124941F8243007
:1057E0004FF4D471114B01FB043393F8A810D3F894
:1057F000940002FB0102D3F89C108A42B8BF0A460B
:10580000D3F8A0104D1EAA42A8BF2A46C3F8942080
:10581000C3F89820064B01221A559A7138BD00BF73
:105820003089FF1F0898FF1F28690020E43C0020F2
:105830002089FF1F38B50446214B53F820502B7C9C
:10584000012B04D872B62846FCF736FD00E072B68C
:10585000EB6862B61B4A52F824209A422ED013F00D
:10586000030F2BD118490C709A42ACBF4FF0FF3296
:105870000122144941F82430144B1978144B53F881
:10588000213004F2974153F8213093F8A810D3F84F
:10589000940002FB0102D3F89C108A42B8BF0A466A
:1058A000D3F8A0104D1EAA42A8BF2A46C3F89420E0
:1058B000C3F89820074B01221A559A7138BD00BFD2
:1058C0003089FF1F0898FF1F286900200498FF1FD8
:1058D000B488FF1F2089FF1FF8B50446284B53F8F2
:1058E00020502B7C012B04D872B62846FCF7E4FC30
:1058F00000E072B6EB6862B6224A52F824209A425F
:105900003CD013F0030F39D11F490C709A42ACBF41
:105910004FF0FF3001201B4A42F82430661D1B4D1A
:105920001B4B1B7855F8233004F2974253F8223072
:1059300093F8A810D3F8947000FB0170D3F89C1072
:105940008842B8BF0846D3F8A01001F1FF3C60457B
:10595000A8BF6046C3F89400C3F898002B1F183501
:1059600053F8042F06F2924152F82120C2F8940015
:10597000AB42F5D1074B01221A559A71F8BD00BF11
:105980003089FF1F0898FF1F28690020B488FF1F77
:105990000498FF1F2089FF1F38B50446214B53F898
:1059A00020502B7C012B04D872B62846FCF784FCCF
:1059B00000E072B6EB6862B61B4A52F824209A42A5
:1059C0002ED013F0030F2BD118490C709A42ACBFA4
:1059D0004FF0FF320122144941F82430144B19785A
:1059E000144B53F8213004F2924153F8213093F8CC
:1059F000A810D3F8940002FB0102D3F89C108A424D
:105A0000B8BF0A46D3F8A0104D1EAA42A8BF2A4626
:105A1000C3F89420C3F89820074B01221A559A71B5
:105A200038BD00BF3089FF1F0898FF1F286900207C
:105A30000498FF1FB488FF1F2089FF1FF8B5044694
:105A40000546294B53F82060337C012B04D872B6ED
:105A50003046FCF731FC00E072B6F36862B6234AC8
:105A600052F824209A423ED013F0030F3BD1204934
:105A70000C709A42ACBF4FF0FF3001201B4A42F835
:105A800024301C4B1E781C4B53F8263004F29242F3
:105A900053F8223093F8A810D3F8947000FB0170EB
:105AA000D3F89C108842B8BF0846D3F8A01001F183
:105AB000FF3C6045A8BF6046C3F89400C3F8980057
:105AC0000E4B01221A559A7100230B4CB34207D09A
:105AD00054F8232005F2924152F82120C2F8940094
